{
  "contractName": "Aleatorio",
  "abi": [
    {
      "inputs": [],
      "stateMutability": "payable",
      "type": "constructor"
    },
    {
      "anonymous": false,
      "inputs": [
        {
          "indexed": false,
          "internalType": "string",
          "name": "description",
          "type": "string"
        }
      ],
      "name": "LogExito",
      "type": "event"
    },
    {
      "inputs": [],
      "name": "numero",
      "outputs": [
        {
          "internalType": "uint8",
          "name": "",
          "type": "uint8"
        }
      ],
      "stateMutability": "view",
      "type": "function"
    },
    {
      "inputs": [
        {
          "internalType": "bytes32",
          "name": "myid",
          "type": "bytes32"
        },
        {
          "internalType": "string",
          "name": "result",
          "type": "string"
        }
      ],
      "name": "__callback",
      "outputs": [],
      "stateMutability": "nonpayable",
      "type": "function"
    },
    {
      "inputs": [
        {
          "internalType": "bytes32",
          "name": "_myid",
          "type": "bytes32"
        },
        {
          "internalType": "string",
          "name": "_result",
          "type": "string"
        },
        {
          "internalType": "bytes",
          "name": "_proof",
          "type": "bytes"
        }
      ],
      "name": "__callback",
      "outputs": [],
      "stateMutability": "nonpayable",
      "type": "function"
    },
    {
      "inputs": [],
      "name": "obtenerNumeroAleatorio",
      "outputs": [],
      "stateMutability": "payable",
      "type": "function"
    }
  ],
  "bytecode": "0x60806040526117f8806100136000396000f3fe60806040526004361061003f5760003560e01c806327dc297e1461004457806338bbfa501461011657806391f5de381461027f578063c65325ee146102b0575b600080fd5b34801561005057600080fd5b506101146004803603604081101561006757600080fd5b81019080803590602001909291908035906020019064010000000081111561008e57600080fd5b8201836020820111156100a057600080fd5b803590602001918460018302840111640100000000831117156100c257600080fd5b91908080601f016020809104026020016040519081016040528093929190818152602001838380828437600081840152601f19601f8201169050808301925050505050505091929192905050506102ba565b005b34801561012257600080fd5b5061027d6004803603606081101561013957600080fd5b81019080803590602001909291908035906020019064010000000081111561016057600080fd5b82018360208201111561017257600080fd5b8035906020019184600183028401116401000000008311171561019457600080fd5b91908080601f016020809104026020016040519081016040528093929190818152602001838380828437600081840152601f19601f820116905080830192505050505050509192919290803590602001906401000000008111156101f757600080fd5b82018360208201111561020957600080fd5b8035906020019184600183028401116401000000008311171561022b57600080fd5b91908080601f016020809104026020016040519081016040528093929190818152602001838380828437600081840152601f19601f820116905080830192505050505050509192919290505050610320565b005b34801561028b57600080fd5b50610294610343565b604051808260ff1660ff16815260200191505060405180910390f35b6102b8610356565b005b6102c26104ad565b73ffffffffffffffffffffffffffffffffffffffff163373ffffffffffffffffffffffffffffffffffffffff16146102f957600080fd5b610302816107cc565b600560006101000a81548160ff021916908360ff1602179055505050565b6000801b600360008060001b815260200190815260200160002081905550505050565b600560009054906101000a900460ff1681565b6103946040518060400160405280600381526020017f55524c000000000000000000000000000000000000000000000000000000000081525061084b565b4710156103eb577f2cd4dcdf8637f6575cd99cd984321d327d806bc16dafb0ade703b695155940a360405180806020018281038252604881526020018061177b6048913960600191505060405180910390a1600080fd5b7f2cd4dcdf8637f6575cd99cd984321d327d806bc16dafb0ade703b695155940a36040518080602001828103825260268152602001806117556026913960400191505060405180910390a16104aa6040518060400160405280600c81526020017f576f6c6672616d416c70686100000000000000000000000000000000000000008152506040518060400160405280601f81526020017f72616e646f6d206e756d626572206265747765656e203020616e642031303000815250610bdc565b50565b60008073ffffffffffffffffffffffffffffffffffffffff16600160009054906101000a900473ffffffffffffffffffffffffffffffffffffffff1673ffffffffffffffffffffffffffffffffffffffff16148061053557506000610533600160009054906101000a900473ffffffffffffffffffffffffffffffffffffffff16611122565b145b1561054657610544600061112d565b505b600160009054906101000a900473ffffffffffffffffffffffffffffffffffffffff1673ffffffffffffffffffffffffffffffffffffffff166338cc48316040518163ffffffff1660e01b8152600401602060405180830381600087803b1580156105b057600080fd5b505af11580156105c4573d6000803e3d6000fd5b505050506040513d60208110156105da57600080fd5b810190808051906020019092919050505073ffffffffffffffffffffffffffffffffffffffff166000809054906101000a900473ffffffffffffffffffffffffffffffffffffffff1673ffffffffffffffffffffffffffffffffffffffff161461072357600160009054906101000a900473ffffffffffffffffffffffffffffffffffffffff1673ffffffffffffffffffffffffffffffffffffffff166338cc48316040518163ffffffff1660e01b8152600401602060405180830381600087803b1580156106a857600080fd5b505af11580156106bc573d6000803e3d6000fd5b505050506040513d60208110156106d257600080fd5b81019080805190602001909291905050506000806101000a81548173ffffffffffffffffffffffffffffffffffffffff021916908373ffffffffffffffffffffffffffffffffffffffff1602179055505b6000809054906101000a900473ffffffffffffffffffffffffffffffffffffffff1673ffffffffffffffffffffffffffffffffffffffff1663c281d19e6040518163ffffffff1660e01b8152600401602060405180830381600087803b15801561078c57600080fd5b505af11580156107a0573d6000803e3d6000fd5b505050506040513d60208110156107b657600080fd5b8101908080519060200190929190505050905090565b600060608290506000915060008090505b81518160ff161015610841576000828260ff16815181106107fa57fe5b602001015160f81c60f81b60f81c905060308160ff1610158015610822575060398160ff1611155b156108335760308103600a85020193505b5080806001019150506107dd565b5081915050919050565b60008073ffffffffffffffffffffffffffffffffffffffff16600160009054906101000a900473ffffffffffffffffffffffffffffffffffffffff1673ffffffffffffffffffffffffffffffffffffffff1614806108d3575060006108d1600160009054906101000a900473ffffffffffffffffffffffffffffffffffffffff16611122565b145b156108e4576108e2600061112d565b505b600160009054906101000a900473ffffffffffffffffffffffffffffffffffffffff1673ffffffffffffffffffffffffffffffffffffffff166338cc48316040518163ffffffff1660e01b8152600401602060405180830381600087803b15801561094e57600080fd5b505af1158015610962573d6000803e3d6000fd5b505050506040513d602081101561097857600080fd5b810190808051906020019092919050505073ffffffffffffffffffffffffffffffffffffffff166000809054906101000a900473ffffffffffffffffffffffffffffffffffffffff1673ffffffffffffffffffffffffffffffffffffffff1614610ac157600160009054906101000a900473ffffffffffffffffffffffffffffffffffffffff1673ffffffffffffffffffffffffffffffffffffffff166338cc48316040518163ffffffff1660e01b8152600401602060405180830381600087803b158015610a4657600080fd5b505af1158015610a5a573d6000803e3d6000fd5b505050506040513d6020811015610a7057600080fd5b81019080805190602001909291905050506000806101000a81548173ffffffffffffffffffffffffffffffffffffffff021916908373ffffffffffffffffffffffffffffffffffffffff1602179055505b6000809054906101000a900473ffffffffffffffffffffffffffffffffffffffff1673ffffffffffffffffffffffffffffffffffffffff1663524f3889836040518263ffffffff1660e01b81526004018080602001828103825283818151815260200191508051906020019080838360005b83811015610b4e578082015181840152602081019050610b33565b50505050905090810190601f168015610b7b5780820380516001836020036101000a031916815260200191505b5092505050602060405180830381600087803b158015610b9a57600080fd5b505af1158015610bae573d6000803e3d6000fd5b505050506040513d6020811015610bc457600080fd5b81019080805190602001909291905050509050919050565b60008073ffffffffffffffffffffffffffffffffffffffff16600160009054906101000a900473ffffffffffffffffffffffffffffffffffffffff1673ffffffffffffffffffffffffffffffffffffffff161480610c6457506000610c62600160009054906101000a900473ffffffffffffffffffffffffffffffffffffffff16611122565b145b15610c7557610c73600061112d565b505b600160009054906101000a900473ffffffffffffffffffffffffffffffffffffffff1673ffffffffffffffffffffffffffffffffffffffff166338cc48316040518163ffffffff1660e01b8152600401602060405180830381600087803b158015610cdf57600080fd5b505af1158015610cf3573d6000803e3d6000fd5b505050506040513d6020811015610d0957600080fd5b810190808051906020019092919050505073ffffffffffffffffffffffffffffffffffffffff166000809054906101000a900473ffffffffffffffffffffffffffffffffffffffff1673ffffffffffffffffffffffffffffffffffffffff1614610e5257600160009054906101000a900473ffffffffffffffffffffffffffffffffffffffff1673ffffffffffffffffffffffffffffffffffffffff166338cc48316040518163ffffffff1660e01b8152600401602060405180830381600087803b158015610dd757600080fd5b505af1158015610deb573d6000803e3d6000fd5b505050506040513d6020811015610e0157600080fd5b81019080805190602001909291905050506000806101000a81548173ffffffffffffffffffffffffffffffffffffffff021916908373ffffffffffffffffffffffffffffffffffffffff1602179055505b60008060009054906101000a900473ffffffffffffffffffffffffffffffffffffffff1673ffffffffffffffffffffffffffffffffffffffff1663524f3889856040518263ffffffff1660e01b81526004018080602001828103825283818151815260200191508051906020019080838360005b83811015610ee1578082015181840152602081019050610ec6565b50505050905090810190601f168015610f0e5780820380516001836020036101000a031916815260200191505b5092505050602060405180830381600087803b158015610f2d57600080fd5b505af1158015610f41573d6000803e3d6000fd5b505050506040513d6020811015610f5757600080fd5b8101908080519060200190929190505050905062030d403a02670de0b6b3a764000001811115610f8d576000801b91505061111c565b6000809054906101000a900473ffffffffffffffffffffffffffffffffffffffff1673ffffffffffffffffffffffffffffffffffffffff1663adf59f9982600087876040518563ffffffff1660e01b8152600401808481526020018060200180602001838103835285818151815260200191508051906020019080838360005b8381101561102857808201518184015260208101905061100d565b50505050905090810190601f1680156110555780820380516001836020036101000a031916815260200191505b50838103825284818151815260200191508051906020019080838360005b8381101561108e578082015181840152602081019050611073565b50505050905090810190601f1680156110bb5780820380516001836020036101000a031916815260200191505b50955050505050506020604051808303818588803b1580156110dc57600080fd5b505af11580156110f0573d6000803e3d6000fd5b50505050506040513d602081101561110757600080fd5b81019080805190602001909291905050509150505b92915050565b6000813b9050919050565b600061113761113e565b9050919050565b60008061115e731d3b2638a7cc9f2cb3d298a3da7a90b67e5506ed611122565b111561120057731d3b2638a7cc9f2cb3d298a3da7a90b67e5506ed600160006101000a81548173ffffffffffffffffffffffffffffffffffffffff021916908373ffffffffffffffffffffffffffffffffffffffff1602179055506111f76040518060400160405280600b81526020017f6574685f6d61696e6e6574000000000000000000000000000000000000000000815250611695565b60019050611692565b600061121f73c03a2615d5efaf5f49f60b7bb6583eaec212fdf1611122565b11156112c15773c03a2615d5efaf5f49f60b7bb6583eaec212fdf1600160006101000a81548173ffffffffffffffffffffffffffffffffffffffff021916908373ffffffffffffffffffffffffffffffffffffffff1602179055506112b86040518060400160405280600c81526020017f6574685f726f707374656e330000000000000000000000000000000000000000815250611695565b60019050611692565b60006112e073b7a07bcf2ba2f2703b24c0691b5278999c59ac7e611122565b11156113825773b7a07bcf2ba2f2703b24c0691b5278999c59ac7e600160006101000a81548173ffffffffffffffffffffffffffffffffffffffff021916908373ffffffffffffffffffffffffffffffffffffffff1602179055506113796040518060400160405280600981526020017f6574685f6b6f76616e0000000000000000000000000000000000000000000000815250611695565b60019050611692565b60006113a173146500cfd35b22e4a392fe0adc06de1a1368ed48611122565b11156114435773146500cfd35b22e4a392fe0adc06de1a1368ed48600160006101000a81548173ffffffffffffffffffffffffffffffffffffffff021916908373ffffffffffffffffffffffffffffffffffffffff16021790555061143a6040518060400160405280600b81526020017f6574685f72696e6b656279000000000000000000000000000000000000000000815250611695565b60019050611692565b600061146273a2998efd205fb9d4b4963afb70778d6354ad3a41611122565b11156115045773a2998efd205fb9d4b4963afb70778d6354ad3a41600160006101000a81548173ffffffffffffffffffffffffffffffffffffffff021916908373ffffffffffffffffffffffffffffffffffffffff1602179055506114fb6040518060400160405280600a81526020017f6574685f676f65726c6900000000000000000000000000000000000000000000815250611695565b60019050611692565b6000611523736f485c8bf6fc43ea212e93bbf8ce046c7f1cb475611122565b111561158757736f485c8bf6fc43ea212e93bbf8ce046c7f1cb475600160006101000a81548173ffffffffffffffffffffffffffffffffffffffff021916908373ffffffffffffffffffffffffffffffffffffffff16021790555060019050611692565b60006115a67320e12a1f859b3feae5fb2a0a32c18f5a65555bbf611122565b111561160a577320e12a1f859b3feae5fb2a0a32c18f5a65555bbf600160006101000a81548173ffffffffffffffffffffffffffffffffffffffff021916908373ffffffffffffffffffffffffffffffffffffffff16021790555060019050611692565b60006116297351efaf4c8b3c9afbd5ab9f4bbc82784ab6ef8faa611122565b111561168d577351efaf4c8b3c9afbd5ab9f4bbc82784ab6ef8faa600160006101000a81548173ffffffffffffffffffffffffffffffffffffffff021916908373ffffffffffffffffffffffffffffffffffffffff16021790555060019050611692565b600090505b90565b80600290805190602001906116ab9291906116af565b5050565b828054600181600116156101000203166002900490600052602060002090601f016020900481019282601f106116f057805160ff191683800117855561171e565b8280016001018555821561171e579182015b8281111561171d578251825591602001919060010190611702565b5b50905061172b919061172f565b5090565b61175191905b8082111561174d576000816000905550600101611735565b5090565b9056fe4573706572616e646f2072657370756573746120646520576f6c6672616d416c7068612e2e2e456c20636f6e747261746f206e6f207469656e6520457468657220737566696369656e746520706172612067656e6572617220656c206ec3ba6d65726f20616c6561746f72696f2ea2646970667358221220164fde9828f36c17be122d746e15db7e3f9a171df135d540d15d1f1084f3992564736f6c63430006060033",
  "immutableReferences": {},
  "source": "pragma solidity > 0.6.1 < 0.7.0;\r\nimport \"./usingProvable.sol\";\r\n\r\n//Contrato para generar números aleatorios.\r\ncontract Aleatorio is usingProvable {\r\n    uint8 public numero;\r\n    event LogExito(string description);\r\n    \r\n    constructor() public payable {}\r\n    \r\n    //Sobreescritura del callback de Provable.\r\n    function __callback(bytes32 myid, string memory result) public override {\r\n        if (msg.sender != provable_cbAddress()) revert();\r\n        numero = stringToUint(result);\r\n    }\r\n    \r\n    //Función para obtener el número aleatorio.w\r\n    function obtenerNumeroAleatorio() public payable {\r\n        //Si el usuario no tiene dinero suficiente para hacer la transacción, manda error.\r\n        if (address(this).balance < provable_getPrice(\"URL\")) {\r\n            emit LogExito(\"El contrato no tiene Ether suficiente para generar el número aleatorio.\");\r\n            revert();\r\n        }\r\n        //Caso contrario, se hace un Query a WolframAlpha pidiendo el número aleatorio.\r\n        else {\r\n            emit LogExito(\"Esperando respuesta de WolframAlpha...\");\r\n            //Para cambiar el rango del número, hay que cambiar la consulta en la siguiente cadena.\r\n            provable_query(\"WolframAlpha\", \"random number between 0 and 100\");\r\n        }\r\n    }\r\n    \r\n    /*Convierte un número de string a unit8. Basado en esta solución: \r\n    https://ethereum.stackexchange.com/questions/10932/how-to-convert-string-to-int*/\r\n    function stringToUint(string memory s) private pure returns (uint8 result) {\r\n        bytes memory b = bytes(s);\r\n        result = 0;\r\n        for (uint8 i = 0; i < b.length; i++) {\r\n            uint8 c = uint8(b[i]);\r\n            if (c >= 48 && c <= 57) {\r\n                result = result * 10 + (c - 48);\r\n            }\r\n        }\r\n        return result;\r\n    }\r\n}\r\n",
  "sourcePath": "C:\\Users\\Microsoft\\Documents\\Blockchains\\Casino_contracts\\contracts\\numeroAleatorio.sol",
  "compiler": {
    "name": "solc",
    "version": "0.6.6+commit.6c089d02.Emscripten.clang"
  },
  "schemaVersion": "3.2.0",
  "updatedAt": "2020-06-15T06:34:52.663Z",
  "devdoc": {
    "methods": {}
  },
  "userdoc": {
    "methods": {}
  }
}