{
  "contractName": "Casino",
  "abi": [
    {
      "inputs": [
        {
          "internalType": "uint8",
          "name": "cantidadCasillas",
          "type": "uint8"
        },
        {
          "internalType": "uint8[]",
          "name": "valorCasillas",
          "type": "uint8[]"
        },
        {
          "internalType": "uint256",
          "name": "apuesta",
          "type": "uint256"
        }
      ],
      "name": "jugarKeno",
      "outputs": [
        {
          "internalType": "uint8[20]",
          "name": "_numerosGanadores",
          "type": "uint8[20]"
        },
        {
          "internalType": "uint8[]",
          "name": "_numerosApostados",
          "type": "uint8[]"
        },
        {
          "internalType": "uint8",
          "name": "_cantidadAtinados",
          "type": "uint8"
        },
        {
          "internalType": "uint256",
          "name": "_dineroGanado",
          "type": "uint256"
        }
      ],
      "stateMutability": "nonpayable",
      "type": "function"
    },
    {
      "inputs": [],
      "name": "verResultado",
      "outputs": [
        {
          "internalType": "uint8[20]",
          "name": "_numerosGanadores",
          "type": "uint8[20]"
        },
        {
          "internalType": "uint8[]",
          "name": "_numerosApostados",
          "type": "uint8[]"
        },
        {
          "internalType": "uint8",
          "name": "_cantidadAtinados",
          "type": "uint8"
        },
        {
          "internalType": "uint256",
          "name": "_dineroGanado",
          "type": "uint256"
        }
      ],
      "stateMutability": "view",
      "type": "function"
    }
  ],
  "bytecode": "0x608060405234801561001057600080fd5b50610c9f806100206000396000f3fe608060405234801561001057600080fd5b50600436106100365760003560e01c80631c3eae061461003b57806325277cc0146101a2575b600080fd5b6101086004803603606081101561005157600080fd5b81019080803560ff1690602001909291908035906020019064010000000081111561007b57600080fd5b82018360208201111561008d57600080fd5b803590602001918460208302840111640100000000831117156100af57600080fd5b919080806020026020016040519081016040528093929190818152602001838360200280828437600081840152601f19601f82011690508083019250505050505050919291929080359060200190929190505050610244565b6040518085601460200280838360005b83811015610133578082015181840152602081019050610118565b50505050905001806020018460ff1660ff168152602001838152602001828103825285818151815260200191508051906020019060200280838360005b8381101561018b578082015181840152602081019050610170565b505050509050019550505050505060405180910390f35b6101aa61055a565b6040518085601460200280838360005b838110156101d55780820151818401526020810190506101ba565b50505050905001806020018460ff1660ff168152602001838152602001828103825285818151815260200191508051906020019060200280838360005b8381101561022d578082015181840152602081019050610212565b505050509050019550505050505060405180910390f35b61024c610ad5565b6060600080600061025b610ad5565b6000809050600080905060008090505b6001605061027e85806001019650610669565b60ff168161028857fe5b0601945060001515600260008760ff1660ff16815260200190815260200160002060009054906101000a900460ff161515141561031b576001600260008760ff1660ff16815260200190815260200160002060006101000a81548160ff02191690831515021790555084848360ff166014811061030157fe5b602002019060ff16908160ff168152505081806001019250505b60148260ff161061026b57600091505b8b60ff168260ff1610156103985760011515600260008d8560ff168151811061035057fe5b602002602001015160ff1660ff16815260200190815260200160002060009054906101000a900460ff161515141561038b5780806001019150505b818060010192505061032b565b600091505b60148260ff1610156103fb57600060026000868560ff16601481106103be57fe5b602002015160ff1660ff16815260200190815260200160002060006101000a81548160ff021916908315150217905550818060010192505061039d565b80600460006101000a81548160ff021916908360ff1602179055506104218c828c6106ac565b600381905550836000906014610438929190610af8565b508a6001908051906020019061044f929190610b92565b5060006001600460009054906101000a900460ff16600354836014806020026040519081016040528092919082601480156104c5576020028201916000905b82829054906101000a900460ff1660ff168152602001906001019060208260000104928301926001038202915080841161048e5790505b505050505093508280548060200260200160405190810160405280929190818152602001828054801561053d57602002820191906000526020600020906000905b82829054906101000a900460ff1660ff16815260200190600101906020826000010492830192600103820291508084116105065790505b505050505092509850985098509850505050505093509350935093565b610562610ad5565b606060008060006001600460009054906101000a900460ff16600354836014806020026040519081016040528092919082601480156105dc576020028201916000905b82829054906101000a900460ff1660ff16815260200190600101906020826000010492830192600103820291508084116105a55790505b505050505093508280548060200260200160405190810160405280929190818152602001828054801561065457602002820191906000526020600020906000905b82829054906101000a900460ff1660ff168152602001906001019060208260000104928301926001038202915080841161061d5790505b50505050509250935093509350935090919293565b60004244836040516020018084815260200183815260200182815260200193505050506040516020818303038152906040528051906020012060001c9050919050565b6000600a8460ff16141561076557600a8360ff1614156106d357620f424082029050610ace565b60098360ff1614156106eb5761271082029050610ace565b60088360ff1614156107035761024482029050610ace565b60078360ff16141561071a57603282029050610ace565b60068360ff16141561073157600682029050610ace565b60058360ff16141561074857600282029050610ace565b60048360ff16141561075c57819050610ace565b60009050610ace565b60098460ff1614156108045760098360ff16141561078a57620186a082029050610ace565b60088360ff1614156107a2576109c482029050610ace565b60078360ff1614156107b95760d282029050610ace565b60068360ff1614156107d057601482029050610ace565b60058360ff1614156107e757600582029050610ace565b60048360ff1614156107fb57819050610ace565b60009050610ace565b60088460ff16141561088e5760088360ff161415610828576161a882029050610ace565b60078360ff161415610840576102a382029050610ace565b60068360ff16141561085757603c82029050610ace565b60058360ff16141561086e57600782029050610ace565b60048360ff16141561088557600282029050610ace565b60009050610ace565b60078460ff1614156109145760078360ff1614156108b25761138882029050610ace565b60068360ff1614156108c957607d82029050610ace565b60058360ff1614156108e057600c82029050610ace565b60048360ff1614156108f757600382029050610ace565b60038360ff16141561090b57819050610ace565b60009050610ace565b60068460ff1614156109835760068360ff1614156109385761070882029050610ace565b60058360ff16141561094f57605082029050610ace565b60048360ff16141561096657600582029050610ace565b60038360ff16141561097a57819050610ace565b60009050610ace565b60058460ff1614156109de5760058360ff1614156109a75761028082029050610ace565b60048360ff1614156109be57600e82029050610ace565b60038360ff1614156109d557600282029050610ace565b60009050610ace565b60048460ff161415610a355760048360ff161415610a0157607882029050610ace565b60038360ff161415610a1857600482029050610ace565b60028360ff161415610a2c57819050610ace565b60009050610ace565b60038460ff161415610a755760038360ff161415610a5857602c82029050610ace565b60028360ff161415610a6c57819050610ace565b60009050610ace565b60028460ff161415610aa15760028360ff161415610a9857600c82029050610ace565b60009050610ace565b60018460ff161415610acd5760018360ff161415610ac457600382029050610ace565b60009050610ace565b5b9392505050565b604051806102800160405280601490602082028036833780820191505090505090565b826014601f01602090048101928215610b815791602002820160005b83821115610b5257835183826101000a81548160ff021916908360ff1602179055509260200192600101602081600001049283019260010302610b14565b8015610b7f5782816101000a81549060ff0219169055600101602081600001049283019260010302610b52565b505b509050610b8e9190610c39565b5090565b82805482825590600052602060002090601f01602090048101928215610c285791602002820160005b83821115610bf957835183826101000a81548160ff021916908360ff1602179055509260200192600101602081600001049283019260010302610bbb565b8015610c265782816101000a81549060ff0219169055600101602081600001049283019260010302610bf9565b505b509050610c359190610c39565b5090565b610c6691905b80821115610c6257600081816101000a81549060ff021916905550600101610c3f565b5090565b9056fea26469706673582212203e1bfa7331f2c0db245f45a2f27abd5f2256a0c511eefd5865994f3647b340ea64736f6c63430006060033",
  "immutableReferences": {},
  "source": "pragma solidity >=0.4.0 <0.7.0;\r\n\r\ncontract Keno {\r\n    uint8[20] numerosKeno;\r\n    uint8[] numerosElegidos;\r\n    mapping (uint8 => bool) obtenidos;\r\n    uint256 premio;\r\n    uint8 cantidadAtinados;\r\n    \r\n    \r\n    //Probar con: [1,2,3,4,5,6,7,8,9,10,11,12,13,14,15,16,17,18,19,20]\r\n    function jugarKeno (uint8 cantidadCasillas, uint8[] memory valorCasillas, uint256 apuesta) public \r\n    returns (uint8[20] memory _numerosGanadores, uint8[] memory _numerosApostados, uint8 _cantidadAtinados, uint _dineroGanado) {\r\n        uint8 numero;\r\n        uint8[20] memory numerosGanadores;\r\n        uint semilla = 0;\r\n        uint8 i = 0;\r\n        uint8 atinados = 0;\r\n        \r\n        //Se generan 20 números aleatorios sin repeticiones.\r\n        do {\r\n            numero = uint8((random(semilla++) % 80) + 1);\r\n            if (obtenidos[numero] == false) {\r\n                obtenidos[numero] = true;\r\n                numerosGanadores[i] = numero;\r\n                i++;\r\n            }\r\n        } while (i < 20);\r\n        \r\n        //Se cuentan los números iguales a los que eligió el usuario.\r\n        for (i = 0; i < cantidadCasillas; i++) {\r\n            if (obtenidos[valorCasillas[i]] == true) {\r\n                atinados ++;\r\n            }\r\n        }\r\n        \r\n        //Se reinician los números obtenidos.\r\n        for (i = 0; i < 20; i++) {\r\n            obtenidos[numerosGanadores[i]] = false;\r\n        }\r\n        \r\n        //Se almacenan los valores en variables de estado para poder ver los resultados\r\n        cantidadAtinados = atinados;\r\n        premio = calcularPremioKeno(cantidadCasillas, atinados, apuesta);\r\n        numerosKeno = numerosGanadores;\r\n        numerosElegidos = valorCasillas;\r\n        \r\n        //Se regresan los resultados para poder verlos en la consola.\r\n        return (numerosKeno, numerosElegidos, cantidadAtinados, premio);\r\n    }\r\n    \r\n    //Cálculo del premio con base en las variables recibidas. Basado en la página 6 de este PDF: https://www.keno.com.au/keno-pdfs/NSW_Game%20Guide.pdf\r\n    function calcularPremioKeno(uint8 cantidadCasillas, uint8 atinados, uint256 apuesta) private pure returns (uint256) {\r\n        if (cantidadCasillas == 10) {\r\n            if (atinados == 10) {\r\n                return apuesta * 1000000;\r\n            }\r\n            else if (atinados == 9) {\r\n                return apuesta * 10000;\r\n            }\r\n            else if (atinados == 8) {\r\n                return apuesta * 580;\r\n            }\r\n            else if (atinados == 7) {\r\n                return apuesta * 50;\r\n            }\r\n            else if (atinados == 6) {\r\n                return apuesta * 6;\r\n            }\r\n            else if (atinados == 5) {\r\n                return apuesta * 2;\r\n            }\r\n            else if (atinados == 4) {\r\n                return apuesta;\r\n            }\r\n            else {\r\n                return 0;\r\n            }\r\n        }\r\n        else if (cantidadCasillas == 9) {\r\n            if (atinados == 9) {\r\n                return apuesta * 100000;\r\n            }\r\n            else if (atinados == 8) {\r\n                return apuesta * 2500;\r\n            }\r\n            else if (atinados == 7) {\r\n                return apuesta * 210;\r\n            }\r\n            else if (atinados == 6) {\r\n                return apuesta * 20;\r\n            }\r\n            else if (atinados == 5) {\r\n                return apuesta * 5;\r\n            }\r\n            else if (atinados == 4) {\r\n                return apuesta;\r\n            }\r\n            else {\r\n                return 0;\r\n            }\r\n        }\r\n        else if (cantidadCasillas == 8) {\r\n            if (atinados == 8) {\r\n                return apuesta * 25000;\r\n            }\r\n            else if (atinados == 7) {\r\n                return apuesta * 675;\r\n            }\r\n            else if (atinados == 6) {\r\n                return apuesta * 60;\r\n            }\r\n            else if (atinados == 5) {\r\n                return apuesta * 7;\r\n            }\r\n            else if (atinados == 4) {\r\n                return apuesta * 2;\r\n            }\r\n            else {\r\n                return 0;\r\n            }\r\n        }\r\n        else if (cantidadCasillas == 7) {\r\n            if (atinados == 7) {\r\n                return apuesta * 5000;\r\n            }\r\n            else if (atinados == 6) {\r\n                return apuesta * 125;\r\n            }\r\n            else if (atinados == 5) {\r\n                return apuesta * 12;\r\n            }\r\n            else if (atinados == 4) {\r\n                return apuesta * 3;\r\n            }\r\n            else if (atinados == 3) {\r\n                return apuesta;\r\n            }\r\n            else {\r\n                return 0;\r\n            }\r\n        }\r\n        else if (cantidadCasillas == 6) {\r\n            if (atinados == 6) {\r\n                return apuesta * 1800;\r\n            }\r\n            else if (atinados == 5) {\r\n                return apuesta * 80;\r\n            }\r\n            else if (atinados == 4) {\r\n                return apuesta * 5;\r\n            }\r\n            else if (atinados == 3) {\r\n                return apuesta;\r\n            }\r\n            else {\r\n                return 0;\r\n            }\r\n        }\r\n        else if (cantidadCasillas == 5) {\r\n            if (atinados == 5) {\r\n                return apuesta * 640;\r\n            }\r\n            else if (atinados == 4) {\r\n                return apuesta * 14;\r\n            }\r\n            else if (atinados == 3) {\r\n                return apuesta * 2;\r\n            }\r\n            else {\r\n                return 0;\r\n            }\r\n        }\r\n        else if (cantidadCasillas == 4) {\r\n            if (atinados == 4) {\r\n                return apuesta * 120;\r\n            }\r\n            else if (atinados == 3) {\r\n                return apuesta * 4;\r\n            }\r\n            else if (atinados == 2) {\r\n                return apuesta;\r\n            }\r\n            else {\r\n                return 0;\r\n            }\r\n        }\r\n        else if (cantidadCasillas == 3) {\r\n            if (atinados == 3) {\r\n                return apuesta * 44;\r\n            }\r\n            else if (atinados == 2) {\r\n                return apuesta;\r\n            }\r\n            else {\r\n                return 0;\r\n            }\r\n        }\r\n        else if (cantidadCasillas == 2) {\r\n            if (atinados == 2) {\r\n                return apuesta * 12;\r\n            }\r\n            else {\r\n                return 0;\r\n            }\r\n        }\r\n        else if (cantidadCasillas == 1) {\r\n            if (atinados == 1) {\r\n                return apuesta * 3;\r\n            }\r\n            else {\r\n                return 0;\r\n            }\r\n        }\r\n    }\r\n    \r\n    function verResultado() public view returns (uint8[20] memory _numerosGanadores, uint8[] memory _numerosApostados, uint8 _cantidadAtinados, uint _dineroGanado) {\r\n        return (numerosKeno, numerosElegidos, cantidadAtinados, premio);\r\n    }\r\n    \r\n    //Generación de números \"aleatorios\". Basado en la primera implementación de esta página: \r\n    //https://www.sitepoint.com/solidity-pitfalls-random-number-generation-for-ethereum/\r\n    function random(uint seed) private view returns (uint8) {\r\n       return uint8(uint256(keccak256(abi.encodePacked(block.timestamp, block.difficulty, seed))));\r\n    }\r\n}\r\n\r\ncontract Casino is Keno {\r\n\r\n}",
  "sourcePath": "C:\\Users\\Microsoft\\Documents\\Blockchains\\Casino_contracts\\contracts\\Keno.sol",
  "compiler": {
    "name": "solc",
    "version": "0.6.6+commit.6c089d02.Emscripten.clang"
  },
  "schemaVersion": "3.2.0",
  "updatedAt": "2020-06-16T17:31:49.427Z",
  "devdoc": {
    "methods": {}
  },
  "userdoc": {
    "methods": {}
  }
}