{
  "contractName": "CasinoRoulette",
  "abi": [
    {
      "anonymous": false,
      "inputs": [
        {
          "indexed": false,
          "internalType": "address",
          "name": "user",
          "type": "address"
        },
        {
          "indexed": false,
          "internalType": "uint256",
          "name": "amount",
          "type": "uint256"
        },
        {
          "indexed": false,
          "internalType": "enum CasinoRoulette.BetType",
          "name": "betType",
          "type": "uint8"
        },
        {
          "indexed": false,
          "internalType": "uint256",
          "name": "block",
          "type": "uint256"
        },
        {
          "indexed": false,
          "internalType": "int256",
          "name": "choice",
          "type": "int256"
        }
      ],
      "name": "BetPlaced",
      "type": "event"
    },
    {
      "anonymous": false,
      "inputs": [
        {
          "indexed": false,
          "internalType": "string",
          "name": "description",
          "type": "string"
        }
      ],
      "name": "LogExito",
      "type": "event"
    },
    {
      "anonymous": false,
      "inputs": [
        {
          "indexed": false,
          "internalType": "uint256",
          "name": "id",
          "type": "uint256"
        },
        {
          "indexed": false,
          "internalType": "address",
          "name": "user",
          "type": "address"
        },
        {
          "indexed": false,
          "internalType": "enum CasinoRoulette.BetType",
          "name": "betType",
          "type": "uint8"
        },
        {
          "indexed": false,
          "internalType": "uint256",
          "name": "block",
          "type": "uint256"
        },
        {
          "indexed": false,
          "internalType": "int256",
          "name": "choice",
          "type": "int256"
        },
        {
          "indexed": false,
          "internalType": "int256",
          "name": "landed",
          "type": "int256"
        },
        {
          "indexed": false,
          "internalType": "bool",
          "name": "win",
          "type": "bool"
        },
        {
          "indexed": false,
          "internalType": "uint256",
          "name": "amount",
          "type": "uint256"
        }
      ],
      "name": "Spin",
      "type": "event"
    },
    {
      "inputs": [
        {
          "internalType": "uint256",
          "name": "",
          "type": "uint256"
        }
      ],
      "name": "BLACK_NUMBERS",
      "outputs": [
        {
          "internalType": "uint8",
          "name": "",
          "type": "uint8"
        }
      ],
      "stateMutability": "view",
      "type": "function",
      "constant": true
    },
    {
      "inputs": [
        {
          "internalType": "int256",
          "name": "",
          "type": "int256"
        }
      ],
      "name": "COLORS",
      "outputs": [
        {
          "internalType": "int256",
          "name": "",
          "type": "int256"
        }
      ],
      "stateMutability": "view",
      "type": "function",
      "constant": true
    },
    {
      "inputs": [],
      "name": "NUM_POCKETS",
      "outputs": [
        {
          "internalType": "uint256",
          "name": "",
          "type": "uint256"
        }
      ],
      "stateMutability": "view",
      "type": "function",
      "constant": true
    },
    {
      "inputs": [
        {
          "internalType": "uint256",
          "name": "",
          "type": "uint256"
        }
      ],
      "name": "RED_NUMBERS",
      "outputs": [
        {
          "internalType": "uint8",
          "name": "",
          "type": "uint8"
        }
      ],
      "stateMutability": "view",
      "type": "function",
      "constant": true
    },
    {
      "inputs": [
        {
          "internalType": "bytes32",
          "name": "myid",
          "type": "bytes32"
        },
        {
          "internalType": "string",
          "name": "result",
          "type": "string"
        }
      ],
      "name": "__callback",
      "outputs": [],
      "stateMutability": "nonpayable",
      "type": "function"
    },
    {
      "inputs": [
        {
          "internalType": "bytes32",
          "name": "_myid",
          "type": "bytes32"
        },
        {
          "internalType": "string",
          "name": "_result",
          "type": "string"
        },
        {
          "internalType": "bytes",
          "name": "_proof",
          "type": "bytes"
        }
      ],
      "name": "__callback",
      "outputs": [],
      "stateMutability": "nonpayable",
      "type": "function"
    },
    {
      "inputs": [
        {
          "internalType": "uint256",
          "name": "",
          "type": "uint256"
        }
      ],
      "name": "bets",
      "outputs": [
        {
          "internalType": "address",
          "name": "user",
          "type": "address"
        },
        {
          "internalType": "uint256",
          "name": "amount",
          "type": "uint256"
        },
        {
          "internalType": "enum CasinoRoulette.BetType",
          "name": "betType",
          "type": "uint8"
        },
        {
          "internalType": "uint256",
          "name": "block",
          "type": "uint256"
        },
        {
          "internalType": "int256",
          "name": "choice",
          "type": "int256"
        }
      ],
      "stateMutability": "view",
      "type": "function",
      "constant": true
    },
    {
      "inputs": [],
      "name": "counter",
      "outputs": [
        {
          "internalType": "uint256",
          "name": "",
          "type": "uint256"
        }
      ],
      "stateMutability": "view",
      "type": "function",
      "constant": true
    },
    {
      "inputs": [],
      "name": "numero",
      "outputs": [
        {
          "internalType": "uint8",
          "name": "",
          "type": "uint8"
        }
      ],
      "stateMutability": "view",
      "type": "function",
      "constant": true
    },
    {
      "inputs": [],
      "name": "obtenerNumeroAleatorio",
      "outputs": [],
      "stateMutability": "payable",
      "type": "function",
      "payable": true
    },
    {
      "inputs": [],
      "name": "owner",
      "outputs": [
        {
          "internalType": "address",
          "name": "",
          "type": "address"
        }
      ],
      "stateMutability": "view",
      "type": "function",
      "constant": true
    },
    {
      "inputs": [],
      "name": "Roulette",
      "outputs": [],
      "stateMutability": "nonpayable",
      "type": "function"
    },
    {
      "inputs": [
        {
          "internalType": "enum CasinoRoulette.BetType",
          "name": "betType",
          "type": "uint8"
        },
        {
          "internalType": "int256",
          "name": "choice",
          "type": "int256"
        }
      ],
      "name": "wager",
      "outputs": [],
      "stateMutability": "payable",
      "type": "function",
      "payable": true
    },
    {
      "inputs": [
        {
          "internalType": "uint256",
          "name": "id",
          "type": "uint256"
        }
      ],
      "name": "spin",
      "outputs": [],
      "stateMutability": "nonpayable",
      "type": "function"
    },
    {
      "inputs": [],
      "name": "fund",
      "outputs": [],
      "stateMutability": "payable",
      "type": "function",
      "payable": true
    },
    {
      "inputs": [],
      "name": "kill",
      "outputs": [],
      "stateMutability": "nonpayable",
      "type": "function"
    },
    {
      "inputs": [],
      "name": "valor",
      "outputs": [],
      "stateMutability": "payable",
      "type": "function",
      "payable": true
    }
  ],
  "bytecode": "0x6080604052604051806102400160405280600160ff168152602001600360ff168152602001600560ff168152602001600760ff168152602001600960ff168152602001600c60ff168152602001600e60ff168152602001601060ff168152602001601260ff168152602001601360ff168152602001601560ff168152602001601760ff168152602001601960ff168152602001601b60ff168152602001601e60ff168152602001602060ff168152602001602260ff168152602001602460ff168152506006906012620000d4929190620001f2565b50604051806102400160405280600260ff168152602001600460ff168152602001600660ff168152602001600860ff168152602001600a60ff168152602001600b60ff168152602001600d60ff168152602001600f60ff168152602001601160ff168152602001601460ff168152602001601660ff168152602001601860ff168152602001601a60ff168152602001601c60ff168152602001601d60ff168152602001601f60ff168152602001602160ff168152602001602360ff168152506007906012620001a5929190620001f2565b5033600960006101000a81548173ffffffffffffffffffffffffffffffffffffffff021916908373ffffffffffffffffffffffffffffffffffffffff1602179055506000600a55620002c6565b826012601f01602090048101928215620002805791602002820160005b838211156200024f57835183826101000a81548160ff021916908360ff16021790555092602001926001016020816000010492830192600103026200020f565b80156200027e5782816101000a81549060ff02191690556001016020816000010492830192600103026200024f565b505b5090506200028f919062000293565b5090565b620002c391905b80821115620002bf57600081816101000a81549060ff0219169055506001016200029a565b5090565b90565b61242b80620002d66000396000f3fe6080604052600436106100fe5760003560e01c806361bc221a1161009557806398ebcde91161006457806398ebcde9146105ce578063a5b6ea8f14610623578063b60d42881461065e578063c65325ee14610668578063ecbac7cf14610672576100fe565b806361bc221a146104e05780638311e9c41461050b5780638da5cb5b1461054657806391f5de381461059d576100fe565b806338bbfa50116100d157806338bbfa50146102e657806341c0e1b51461044f5780634b2fd52e146104665780635c5d069414610491576100fe565b806322af00fa1461010357806323be4cd5146101a857806327dc297e146101bf57806329607a2314610291575b600080fd5b34801561010f57600080fd5b5061013c6004803603602081101561012657600080fd5b810190808035906020019092919050505061067c565b604051808673ffffffffffffffffffffffffffffffffffffffff1673ffffffffffffffffffffffffffffffffffffffff16815260200185815260200184600281111561018457fe5b60ff1681526020018381526020018281526020019550505050505060405180910390f35b3480156101b457600080fd5b506101bd6106df565b005b3480156101cb57600080fd5b5061028f600480360360408110156101e257600080fd5b81019080803590602001909291908035906020019064010000000081111561020957600080fd5b82018360208201111561021b57600080fd5b8035906020019184600183028401116401000000008311171561023d57600080fd5b91908080601f016020809104026020016040519081016040528093929190818152602001838380828437600081840152601f19601f82011690508083019250505050505050919291929050505061077d565b005b34801561029d57600080fd5b506102ca600480360360208110156102b457600080fd5b81019080803590602001909291905050506107e3565b604051808260ff1660ff16815260200191505060405180910390f35b3480156102f257600080fd5b5061044d6004803603606081101561030957600080fd5b81019080803590602001909291908035906020019064010000000081111561033057600080fd5b82018360208201111561034257600080fd5b8035906020019184600183028401116401000000008311171561036457600080fd5b91908080601f016020809104026020016040519081016040528093929190818152602001838380828437600081840152601f19601f820116905080830192505050505050509192919290803590602001906401000000008111156103c757600080fd5b8201836020820111156103d957600080fd5b803590602001918460018302840111640100000000831117156103fb57600080fd5b91908080601f016020809104026020016040519081016040528093929190818152602001838380828437600081840152601f19601f82011690508083019250505050505050919291929050505061080a565b005b34801561045b57600080fd5b5061046461082d565b005b34801561047257600080fd5b5061047b6108a0565b6040518082815260200191505060405180910390f35b34801561049d57600080fd5b506104ca600480360360208110156104b457600080fd5b81019080803590602001909291905050506108a5565b6040518082815260200191505060405180910390f35b3480156104ec57600080fd5b506104f56108bd565b6040518082815260200191505060405180910390f35b6105446004803603604081101561052157600080fd5b81019080803560ff169060200190929190803590602001909291905050506108c3565b005b34801561055257600080fd5b5061055b610b21565b604051808273ffffffffffffffffffffffffffffffffffffffff1673ffffffffffffffffffffffffffffffffffffffff16815260200191505060405180910390f35b3480156105a957600080fd5b506105b2610b47565b604051808260ff1660ff16815260200191505060405180910390f35b3480156105da57600080fd5b50610607600480360360208110156105f157600080fd5b8101908080359060200190929190505050610b5a565b604051808260ff1660ff16815260200191505060405180910390f35b34801561062f57600080fd5b5061065c6004803603602081101561064657600080fd5b8101908080359060200190929190505050610b81565b005b610666610f85565b005b610670610f87565b005b61067a6110de565b005b600b6020528060005260406000206000915090508060000160009054906101000a900473ffffffffffffffffffffffffffffffffffffffff16908060010154908060020160009054906101000a900460ff16908060030154908060040154905085565b33600960006101000a81548173ffffffffffffffffffffffffffffffffffffffff021916908373ffffffffffffffffffffffffffffffffffffffff16021790555060008090505b601281101561077a576001600860006006846012811061074257fe5b602091828204019190069054906101000a900460ff1660ff168152602001908152602001600020819055508080600101915050610726565b50565b6107856110e0565b73ffffffffffffffffffffffffffffffffffffffff163373ffffffffffffffffffffffffffffffffffffffff16146107bc57600080fd5b6107c5816113ff565b600560006101000a81548160ff021916908360ff1602179055505050565b600681601281106107f057fe5b60209182820401919006915054906101000a900460ff1681565b6000801b600360008060001b815260200190815260200160002081905550505050565b600960009054906101000a900473ffffffffffffffffffffffffffffffffffffffff1673ffffffffffffffffffffffffffffffffffffffff163373ffffffffffffffffffffffffffffffffffffffff161461088757600080fd5b3373ffffffffffffffffffffffffffffffffffffffff16ff5b602481565b60086020528060005260406000206000915090505481565b600a5481565b600034116108d057600080fd5b600060028111156108dd57fe5b8260028111156108e957fe5b141561090c5760008114806108fe5750600181145b61090757600080fd5b610984565b6001600281111561091957fe5b82600281111561092557fe5b141561094b576001811215801561093d575060248113155b61094657600080fd5b610983565b60028081111561095757fe5b82600281111561096357fe5b14156109825760008114806109785750600181145b61098157600080fd5b5b5b5b600a600081548092919060010191905055506040518060a001604052803373ffffffffffffffffffffffffffffffffffffffff1681526020013481526020018360028111156109cf57fe5b815260200143815260200182815250600b6000600a54815260200190815260200160002060008201518160000160006101000a81548173ffffffffffffffffffffffffffffffffffffffff021916908373ffffffffffffffffffffffffffffffffffffffff1602179055506020820151816001015560408201518160020160006101000a81548160ff02191690836002811115610a6857fe5b02179055506060820151816003015560808201518160040155905050610a8c610f87565b7f073b5ec4b380fe7946a919d4f1e878d05d0ae97a6c7002d7fdda01784db87cd93334844385604051808673ffffffffffffffffffffffffffffffffffffffff1673ffffffffffffffffffffffffffffffffffffffff168152602001858152602001846002811115610afa57fe5b60ff1681526020018381526020018281526020019550505050505060405180910390a15050565b600960009054906101000a900473ffffffffffffffffffffffffffffffffffffffff1681565b600560009054906101000a900460ff1681565b60078160128110610b6757fe5b60209182820401919006915054906101000a900460ff1681565b6000600b60008381526020019081526020016000209050600080905060008090508260000160009054906101000a900473ffffffffffffffffffffffffffffffffffffffff1673ffffffffffffffffffffffffffffffffffffffff163373ffffffffffffffffffffffffffffffffffffffff1614610bfe57600080fd5b8260030154431015610c0f57600080fd5b610c17610f87565b600060016024600560009054906101000a900460ff1660ff1681610c3757fe5b0601905060006002811115610c4857fe5b8460020160009054906101000a900460ff166002811115610c6557fe5b1415610cfb57600081138015610c91575083600401546008600083815260200190815260200160002054145b15610cf65760028460010154029150600084600101819055503373ffffffffffffffffffffffffffffffffffffffff166108fc839081150290604051600060405180830381858888f19350505050158015610cf0573d6000803e3d6000fd5b50600192505b610e53565b60016002811115610d0857fe5b8460020160009054906101000a900460ff166002811115610d2557fe5b1415610d9c578360040154811415610d975760048460010154029150600084600101819055503373ffffffffffffffffffffffffffffffffffffffff166108fc839081150290604051600060405180830381858888f19350505050158015610d91573d6000803e3d6000fd5b50600192505b610e52565b600280811115610da857fe5b8460020160009054906101000a900460ff166002811115610dc557fe5b1415610e515760018460040154016012028113158015610deb5750836004015460120281135b15610e505760028460010154029150600084600101819055503373ffffffffffffffffffffffffffffffffffffffff166108fc839081150290604051600060405180830381858888f19350505050158015610e4a573d6000803e3d6000fd5b50600192505b5b5b5b7f9ea37f9dcbbc33196d55ebd589a3c9749f890f00075dd6419ca04d6a27c9fee385338660020160009054906101000a900460ff16438860040154868989604051808981526020018873ffffffffffffffffffffffffffffffffffffffff1673ffffffffffffffffffffffffffffffffffffffff168152602001876002811115610ed957fe5b60ff168152602001868152602001858152602001848152602001831515151581526020018281526020019850505050505050505060405180910390a1600b6000868152602001908152602001600020600080820160006101000a81549073ffffffffffffffffffffffffffffffffffffffff021916905560018201600090556002820160006101000a81549060ff02191690556003820160009055600482016000905550505050505050565b565b610fc56040518060400160405280600381526020017f55524c000000000000000000000000000000000000000000000000000000000081525061147e565b47101561101c577f2cd4dcdf8637f6575cd99cd984321d327d806bc16dafb0ade703b695155940a36040518080602001828103825260488152602001806123ae6048913960600191505060405180910390a1600080fd5b7f2cd4dcdf8637f6575cd99cd984321d327d806bc16dafb0ade703b695155940a36040518080602001828103825260268152602001806123886026913960400191505060405180910390a16110db6040518060400160405280600c81526020017f576f6c6672616d416c70686100000000000000000000000000000000000000008152506040518060400160405280601f81526020017f72616e646f6d206e756d626572206265747765656e203020616e64203130300081525061180f565b50565b565b60008073ffffffffffffffffffffffffffffffffffffffff16600160009054906101000a900473ffffffffffffffffffffffffffffffffffffffff1673ffffffffffffffffffffffffffffffffffffffff16148061116857506000611166600160009054906101000a900473ffffffffffffffffffffffffffffffffffffffff16611d55565b145b15611179576111776000611d60565b505b600160009054906101000a900473ffffffffffffffffffffffffffffffffffffffff1673ffffffffffffffffffffffffffffffffffffffff166338cc48316040518163ffffffff1660e01b8152600401602060405180830381600087803b1580156111e357600080fd5b505af11580156111f7573d6000803e3d6000fd5b505050506040513d602081101561120d57600080fd5b810190808051906020019092919050505073ffffffffffffffffffffffffffffffffffffffff166000809054906101000a900473ffffffffffffffffffffffffffffffffffffffff1673ffffffffffffffffffffffffffffffffffffffff161461135657600160009054906101000a900473ffffffffffffffffffffffffffffffffffffffff1673ffffffffffffffffffffffffffffffffffffffff166338cc48316040518163ffffffff1660e01b8152600401602060405180830381600087803b1580156112db57600080fd5b505af11580156112ef573d6000803e3d6000fd5b505050506040513d602081101561130557600080fd5b81019080805190602001909291905050506000806101000a81548173ffffffffffffffffffffffffffffffffffffffff021916908373ffffffffffffffffffffffffffffffffffffffff1602179055505b6000809054906101000a900473ffffffffffffffffffffffffffffffffffffffff1673ffffffffffffffffffffffffffffffffffffffff1663c281d19e6040518163ffffffff1660e01b8152600401602060405180830381600087803b1580156113bf57600080fd5b505af11580156113d3573d6000803e3d6000fd5b505050506040513d60208110156113e957600080fd5b8101908080519060200190929190505050905090565b600060608290506000915060008090505b81518160ff161015611474576000828260ff168151811061142d57fe5b602001015160f81c60f81b60f81c905060308160ff1610158015611455575060398160ff1611155b156114665760308103600a85020193505b508080600101915050611410565b5081915050919050565b60008073ffffffffffffffffffffffffffffffffffffffff16600160009054906101000a900473ffffffffffffffffffffffffffffffffffffffff1673ffffffffffffffffffffffffffffffffffffffff16148061150657506000611504600160009054906101000a900473ffffffffffffffffffffffffffffffffffffffff16611d55565b145b15611517576115156000611d60565b505b600160009054906101000a900473ffffffffffffffffffffffffffffffffffffffff1673ffffffffffffffffffffffffffffffffffffffff166338cc48316040518163ffffffff1660e01b8152600401602060405180830381600087803b15801561158157600080fd5b505af1158015611595573d6000803e3d6000fd5b505050506040513d60208110156115ab57600080fd5b810190808051906020019092919050505073ffffffffffffffffffffffffffffffffffffffff166000809054906101000a900473ffffffffffffffffffffffffffffffffffffffff1673ffffffffffffffffffffffffffffffffffffffff16146116f457600160009054906101000a900473ffffffffffffffffffffffffffffffffffffffff1673ffffffffffffffffffffffffffffffffffffffff166338cc48316040518163ffffffff1660e01b8152600401602060405180830381600087803b15801561167957600080fd5b505af115801561168d573d6000803e3d6000fd5b505050506040513d60208110156116a357600080fd5b81019080805190602001909291905050506000806101000a81548173ffffffffffffffffffffffffffffffffffffffff021916908373ffffffffffffffffffffffffffffffffffffffff1602179055505b6000809054906101000a900473ffffffffffffffffffffffffffffffffffffffff1673ffffffffffffffffffffffffffffffffffffffff1663524f3889836040518263ffffffff1660e01b81526004018080602001828103825283818151815260200191508051906020019080838360005b83811015611781578082015181840152602081019050611766565b50505050905090810190601f1680156117ae5780820380516001836020036101000a031916815260200191505b5092505050602060405180830381600087803b1580156117cd57600080fd5b505af11580156117e1573d6000803e3d6000fd5b505050506040513d60208110156117f757600080fd5b81019080805190602001909291905050509050919050565b60008073ffffffffffffffffffffffffffffffffffffffff16600160009054906101000a900473ffffffffffffffffffffffffffffffffffffffff1673ffffffffffffffffffffffffffffffffffffffff16148061189757506000611895600160009054906101000a900473ffffffffffffffffffffffffffffffffffffffff16611d55565b145b156118a8576118a66000611d60565b505b600160009054906101000a900473ffffffffffffffffffffffffffffffffffffffff1673ffffffffffffffffffffffffffffffffffffffff166338cc48316040518163ffffffff1660e01b8152600401602060405180830381600087803b15801561191257600080fd5b505af1158015611926573d6000803e3d6000fd5b505050506040513d602081101561193c57600080fd5b810190808051906020019092919050505073ffffffffffffffffffffffffffffffffffffffff166000809054906101000a900473ffffffffffffffffffffffffffffffffffffffff1673ffffffffffffffffffffffffffffffffffffffff1614611a8557600160009054906101000a900473ffffffffffffffffffffffffffffffffffffffff1673ffffffffffffffffffffffffffffffffffffffff166338cc48316040518163ffffffff1660e01b8152600401602060405180830381600087803b158015611a0a57600080fd5b505af1158015611a1e573d6000803e3d6000fd5b505050506040513d6020811015611a3457600080fd5b81019080805190602001909291905050506000806101000a81548173ffffffffffffffffffffffffffffffffffffffff021916908373ffffffffffffffffffffffffffffffffffffffff1602179055505b60008060009054906101000a900473ffffffffffffffffffffffffffffffffffffffff1673ffffffffffffffffffffffffffffffffffffffff1663524f3889856040518263ffffffff1660e01b81526004018080602001828103825283818151815260200191508051906020019080838360005b83811015611b14578082015181840152602081019050611af9565b50505050905090810190601f168015611b415780820380516001836020036101000a031916815260200191505b5092505050602060405180830381600087803b158015611b6057600080fd5b505af1158015611b74573d6000803e3d6000fd5b505050506040513d6020811015611b8a57600080fd5b8101908080519060200190929190505050905062030d403a02670de0b6b3a764000001811115611bc0576000801b915050611d4f565b6000809054906101000a900473ffffffffffffffffffffffffffffffffffffffff1673ffffffffffffffffffffffffffffffffffffffff1663adf59f9982600087876040518563ffffffff1660e01b8152600401808481526020018060200180602001838103835285818151815260200191508051906020019080838360005b83811015611c5b578082015181840152602081019050611c40565b50505050905090810190601f168015611c885780820380516001836020036101000a031916815260200191505b50838103825284818151815260200191508051906020019080838360005b83811015611cc1578082015181840152602081019050611ca6565b50505050905090810190601f168015611cee5780820380516001836020036101000a031916815260200191505b50955050505050506020604051808303818588803b158015611d0f57600080fd5b505af1158015611d23573d6000803e3d6000fd5b50505050506040513d6020811015611d3a57600080fd5b81019080805190602001909291905050509150505b92915050565b6000813b9050919050565b6000611d6a611d71565b9050919050565b600080611d91731d3b2638a7cc9f2cb3d298a3da7a90b67e5506ed611d55565b1115611e3357731d3b2638a7cc9f2cb3d298a3da7a90b67e5506ed600160006101000a81548173ffffffffffffffffffffffffffffffffffffffff021916908373ffffffffffffffffffffffffffffffffffffffff160217905550611e2a6040518060400160405280600b81526020017f6574685f6d61696e6e65740000000000000000000000000000000000000000008152506122c8565b600190506122c5565b6000611e5273c03a2615d5efaf5f49f60b7bb6583eaec212fdf1611d55565b1115611ef45773c03a2615d5efaf5f49f60b7bb6583eaec212fdf1600160006101000a81548173ffffffffffffffffffffffffffffffffffffffff021916908373ffffffffffffffffffffffffffffffffffffffff160217905550611eeb6040518060400160405280600c81526020017f6574685f726f707374656e3300000000000000000000000000000000000000008152506122c8565b600190506122c5565b6000611f1373b7a07bcf2ba2f2703b24c0691b5278999c59ac7e611d55565b1115611fb55773b7a07bcf2ba2f2703b24c0691b5278999c59ac7e600160006101000a81548173ffffffffffffffffffffffffffffffffffffffff021916908373ffffffffffffffffffffffffffffffffffffffff160217905550611fac6040518060400160405280600981526020017f6574685f6b6f76616e00000000000000000000000000000000000000000000008152506122c8565b600190506122c5565b6000611fd473146500cfd35b22e4a392fe0adc06de1a1368ed48611d55565b11156120765773146500cfd35b22e4a392fe0adc06de1a1368ed48600160006101000a81548173ffffffffffffffffffffffffffffffffffffffff021916908373ffffffffffffffffffffffffffffffffffffffff16021790555061206d6040518060400160405280600b81526020017f6574685f72696e6b6562790000000000000000000000000000000000000000008152506122c8565b600190506122c5565b600061209573a2998efd205fb9d4b4963afb70778d6354ad3a41611d55565b11156121375773a2998efd205fb9d4b4963afb70778d6354ad3a41600160006101000a81548173ffffffffffffffffffffffffffffffffffffffff021916908373ffffffffffffffffffffffffffffffffffffffff16021790555061212e6040518060400160405280600a81526020017f6574685f676f65726c69000000000000000000000000000000000000000000008152506122c8565b600190506122c5565b6000612156736f485c8bf6fc43ea212e93bbf8ce046c7f1cb475611d55565b11156121ba57736f485c8bf6fc43ea212e93bbf8ce046c7f1cb475600160006101000a81548173ffffffffffffffffffffffffffffffffffffffff021916908373ffffffffffffffffffffffffffffffffffffffff160217905550600190506122c5565b60006121d97320e12a1f859b3feae5fb2a0a32c18f5a65555bbf611d55565b111561223d577320e12a1f859b3feae5fb2a0a32c18f5a65555bbf600160006101000a81548173ffffffffffffffffffffffffffffffffffffffff021916908373ffffffffffffffffffffffffffffffffffffffff160217905550600190506122c5565b600061225c7351efaf4c8b3c9afbd5ab9f4bbc82784ab6ef8faa611d55565b11156122c0577351efaf4c8b3c9afbd5ab9f4bbc82784ab6ef8faa600160006101000a81548173ffffffffffffffffffffffffffffffffffffffff021916908373ffffffffffffffffffffffffffffffffffffffff160217905550600190506122c5565b600090505b90565b80600290805190602001906122de9291906122e2565b5050565b828054600181600116156101000203166002900490600052602060002090601f016020900481019282601f1061232357805160ff1916838001178555612351565b82800160010185558215612351579182015b82811115612350578251825591602001919060010190612335565b5b50905061235e9190612362565b5090565b61238491905b80821115612380576000816000905550600101612368565b5090565b9056fe4573706572616e646f2072657370756573746120646520576f6c6672616d416c7068612e2e2e456c20636f6e747261746f206e6f207469656e6520457468657220737566696369656e746520706172612067656e6572617220656c206ec3ba6d65726f20616c6561746f72696f2ea2646970667358221220ac87575ddc9405ecca1b82fc9e7938ea40aa1c9bd590cdcb570fff2462436a0e64736f6c63430006060033",
  "immutableReferences": {},
  "source": "pragma solidity  ^0.6.6;\nimport \"./numeroAleatorio.sol\";\ncontract CasinoRoulette  is Aleatorio{\n    enum BetType { Color, Number ,Lower}\n    struct Bet {\n        address user;\n        uint amount;\n        BetType betType;\n        uint block;\n            // BetType.Color: 0=black, 1=red\n            // BetType.Number: -1=00, 0-36 for individual numbers\n            // BetType.Lower: 0=Lower, 1=upper\n        int choice;\n    }\n    uint public constant NUM_POCKETS = 36;\n    // RED_NUMBERS and BLACK_NUMBERS are constant, but\n    // Solidity doesn't support array constants yet so\n    // we use storage arrays instead\n    uint8[18] public RED_NUMBERS = [\n        1, 3, 5, 7, 9, 12,\n        14, 16, 18, 19, 21, 23,\n        25, 27, 30, 32, 34, 36\n    ];\n    uint8[18] public BLACK_NUMBERS = [\n        2, 4, 6, 8, 10, 11,\n        13, 15, 17, 20, 22, 24,\n        26, 28, 29, 31, 33, 35\n    ];\n    // maps wheel numbers to colors\n    mapping(int => int) public COLORS;\n    address public owner =msg.sender;\n    uint public counter = 0;\n    mapping(uint => Bet) public bets;\n    event BetPlaced(address user, uint amount, BetType betType, uint block, int choice);\n    event Spin(uint id,address user,  BetType betType, uint block, int choice, int landed,bool win,uint amount);\n    \n    function Roulette () public {\n        owner = msg.sender;\n        for (uint i=0; i < 18; i++) {\n            COLORS[RED_NUMBERS[i]] = 1;\n        }\n    }\n    \n    function wager (BetType betType, int choice) payable public {\n        require(msg.value > 0);\n        if (betType == BetType.Color)\n            require(choice == 0 || choice == 1);\n        else if (betType == BetType.Number)\n            require(choice >= 1 && choice <= 36);\n        else if (betType == BetType.Lower)\n            require(choice == 0 || choice == 1);\n        \n        counter++;\n        bets[counter] = Bet(msg.sender, msg.value, betType,\n                            block.number , choice);\n        obtenerNumeroAleatorio();\n        emit BetPlaced(msg.sender, msg.value, betType, block.number,choice);    //emit\n    }\n    \n    function spin (uint id) public {\n        Bet storage bet = bets[id];\n        bool win=false;\n        uint amountW=0;\n        require(msg.sender == bet.user);\n        require(block.number >= bet.block);\n      \n        \n        obtenerNumeroAleatorio();\n        \n        //bytes32 random =\"10\"; //keccak256(abi.encodePacked(blockhash(bet.block),id));  //abi.econdePacked\n        int landed = int(uint(numero) % NUM_POCKETS) + 1;         \n       \n        if (bet.betType == BetType.Color) {\n            if (landed > 0 && COLORS[landed] == bet.choice){\n                amountW=bet.amount*2;\n                bet.amount=0;\n                msg.sender.transfer(amountW);\n                win=true;\n            }\n        }\n        else if (bet.betType == BetType.Number) {\n            if (landed == bet.choice){\n                amountW=bet.amount*4;\n                bet.amount=0;\n               msg.sender.transfer(amountW);\n                win=true;\n            }\n        }\n        else if (bet.betType == BetType.Lower) {\n            if (landed<= 18*(bet.choice+1) && landed> 18*(bet.choice)){\n                amountW=bet.amount*2;\n                bet.amount=0;\n                msg.sender.transfer(amountW);\n                win=true;\n            }\n        }\n        \n        emit Spin(id,msg.sender,  bet.betType, block.number,bet.choice, landed,win,amountW);\n        delete bets[id];\n    }\n    function fund () public payable {}\n    \n    function kill () public {\n        require(msg.sender == owner);\n        selfdestruct(msg.sender); // en vez de owner puse msg.sender\n    }\n    function valor() public payable{\n        msg.value;\n    }\n}\n\n",
  "sourcePath": "C:\\Users\\Microsoft\\Documents\\Blockchains\\Casino_contracts\\contracts\\CasinoRoulette.sol",
  "compiler": {
    "name": "solc",
    "version": "0.6.6+commit.6c089d02.Emscripten.clang"
  },
  "schemaVersion": "3.2.0",
  "updatedAt": "2020-06-15T06:36:36.377Z",
  "networkType": "ethereum",
  "devdoc": {
    "methods": {}
  },
  "userdoc": {
    "methods": {}
  }
}