{
  "contractName": "Keno",
  "abi": [
    {
      "inputs": [],
      "stateMutability": "payable",
      "type": "constructor"
    },
    {
      "anonymous": false,
      "inputs": [
        {
          "indexed": false,
          "internalType": "string",
          "name": "",
          "type": "string"
        }
      ],
      "name": "logJuego",
      "type": "event"
    },
    {
      "anonymous": false,
      "inputs": [
        {
          "indexed": false,
          "internalType": "string",
          "name": "descripcion",
          "type": "string"
        },
        {
          "indexed": false,
          "internalType": "uint256[]",
          "name": "obtenidos",
          "type": "uint256[]"
        },
        {
          "indexed": false,
          "internalType": "uint256[]",
          "name": "elegidos",
          "type": "uint256[]"
        },
        {
          "indexed": false,
          "internalType": "uint256",
          "name": "atinados",
          "type": "uint256"
        },
        {
          "indexed": false,
          "internalType": "uint256",
          "name": "premio",
          "type": "uint256"
        }
      ],
      "name": "logResultado",
      "type": "event"
    },
    {
      "inputs": [
        {
          "internalType": "uint8",
          "name": "cantidadNumeros",
          "type": "uint8"
        },
        {
          "internalType": "uint256[]",
          "name": "numerosElegidos",
          "type": "uint256[]"
        }
      ],
      "name": "entrarAlJuego",
      "outputs": [],
      "stateMutability": "payable",
      "type": "function"
    },
    {
      "inputs": [],
      "name": "consultarResultado",
      "outputs": [],
      "stateMutability": "nonpayable",
      "type": "function"
    },
    {
      "inputs": [
        {
          "internalType": "bytes32",
          "name": "_myid",
          "type": "bytes32"
        },
        {
          "internalType": "string",
          "name": "_result",
          "type": "string"
        }
      ],
      "name": "__callback",
      "outputs": [],
      "stateMutability": "nonpayable",
      "type": "function"
    },
    {
      "inputs": [
        {
          "internalType": "bytes32",
          "name": "_queryId",
          "type": "bytes32"
        },
        {
          "internalType": "string",
          "name": "_result",
          "type": "string"
        },
        {
          "internalType": "bytes",
          "name": "_proof",
          "type": "bytes"
        }
      ],
      "name": "__callback",
      "outputs": [],
      "stateMutability": "nonpayable",
      "type": "function"
    }
  ],
  "bytecode": "0x60806040526001600560146101000a81548160ff021916908315150217905550670de0b6b3a764000034101562000082576040517f08c379a000000000000000000000000000000000000000000000000000000000815260040180806020018281038252603c81526020018062007498603c913960400191505060405180910390fd5b33600560006101000a81548173ffffffffffffffffffffffffffffffffffffffff021916908373ffffffffffffffffffffffffffffffffffffffff160217905550620000d8603060f81b620000ee60201b60201c565b620000e86200045160201b60201c565b620023e1565b600073ffffffffffffffffffffffffffffffffffffffff16600160009054906101000a900473ffffffffffffffffffffffffffffffffffffffff1673ffffffffffffffffffffffffffffffffffffffff1614806200017e575060006200017c600160009054906101000a900473ffffffffffffffffffffffffffffffffffffffff166200048b60201b60201c565b145b1562000198576200019660006200049660201b60201c565b505b600160009054906101000a900473ffffffffffffffffffffffffffffffffffffffff1673ffffffffffffffffffffffffffffffffffffffff166338cc48316040518163ffffffff1660e01b8152600401602060405180830381600087803b1580156200020357600080fd5b505af115801562000218573d6000803e3d6000fd5b505050506040513d60208110156200022f57600080fd5b810190808051906020019092919050505073ffffffffffffffffffffffffffffffffffffffff166000809054906101000a900473ffffffffffffffffffffffffffffffffffffffff1673ffffffffffffffffffffffffffffffffffffffff16146200037c57600160009054906101000a900473ffffffffffffffffffffffffffffffffffffffff1673ffffffffffffffffffffffffffffffffffffffff166338cc48316040518163ffffffff1660e01b8152600401602060405180830381600087803b158015620002ff57600080fd5b505af115801562000314573d6000803e3d6000fd5b505050506040513d60208110156200032b57600080fd5b81019080805190602001909291905050506000806101000a81548173ffffffffffffffffffffffffffffffffffffffff021916908373ffffffffffffffffffffffffffffffffffffffff1602179055505b6000809054906101000a900473ffffffffffffffffffffffffffffffffffffffff1673ffffffffffffffffffffffffffffffffffffffff1663688dcfd7826040518263ffffffff1660e01b815260040180827effffffffffffffffffffffffffffffffffffffffffffffffffffffffffffff19167effffffffffffffffffffffffffffffffffffffffffffffffffffffffffffff19168152602001915050600060405180830381600087803b1580156200043557600080fd5b505af11580156200044a573d6000803e3d6000fd5b5050505050565b60008090505b601e8110156200048857620004796000600162030d40620004af60201b60201c565b50808060010191505062000457565b50565b6000813b9050919050565b6000620004a862000b1260201b60201c565b9050919050565b60008083118015620004c2575060208311155b620004cc57600080fd5b600a840293506060600167ffffffffffffffff81118015620004ed57600080fd5b506040519080825280601f01601f191660200182016040528015620005215781602001600182028036833780820191505090505b5090508360f81b816000815181106200053657fe5b60200101907effffffffffffffffffffffffffffffffffffffffffffffffffffffffffffff1916908160001a9053506060602067ffffffffffffffff811180156200058057600080fd5b506040519080825280601f01601f191660200182016040528015620005b45781602001600182028036833780820191505090505b5090506060602067ffffffffffffffff81118015620005d257600080fd5b506040519080825280601f01601f191660200182016040528015620006065781602001600182028036833780820191505090505b50905060006200061b620010e160201b60201c565b9050602083524241186001430340186020840152602082528060208301526060602067ffffffffffffffff811180156200065457600080fd5b506040519080825280601f01601f191660200182016040528015620006885781602001600182028036833780820191505090505b5090508860208201526060600867ffffffffffffffff81118015620006ac57600080fd5b506040519080825280601f01601f191660200182016040528015620006e05781602001600182028036833780820191505090505b509050620006fb82601860088460006200141a60201b60201c565b5062000706620022f0565b60405180608001604052808781526020018881526020018681526020018481525090506000620007736040518060400160405280600681526020017f72616e646f6d0000000000000000000000000000000000000000000000000000815250838c6200147c60201b60201c565b90506060600867ffffffffffffffff811180156200079057600080fd5b506040519080825280601f01601f191660200182016040528015620007c45781602001600182028036833780820191505090505b50905060208401517f0100000000000000000000000000000000000000000000000000000000000000810460278301537e01000000000000000000000000000000000000000000000000000000000000810460268301537d010000000000000000000000000000000000000000000000000000000000810460258301537c0100000000000000000000000000000000000000000000000000000000810460248301537b01000000000000000000000000000000000000000000000000000000810460238301537a01000000000000000000000000000000000000000000000000000081046022830153790100000000000000000000000000000000000000000000000000810460218301537801000000000000000000000000000000000000000000000000810460208301535062000aff8282856001600481106200090557fe5b60200201516002876000600481106200091a57fe5b60200201516040518082805190602001908083835b602083106200095457805182526020820191506020810190506020830392506200092f565b6001836020036101000a038019825116818451168082178552505050505050905001915050602060405180830381855afa15801562000997573d6000803e3d6000fd5b5050506040513d6020811015620009ad57600080fd5b810190808051906020019092919050505087600260048110620009cc57fe5b60200201516040516020018085805190602001908083835b6020831062000a095780518252602082019150602081019050602083039250620009e4565b6001836020036101000a03801982511681845116808217855250505050505090500184805190602001908083835b6020831062000a5c578051825260208201915060208101905060208303925062000a37565b6001836020036101000a03801982511681845116808217855250505050505090500183815260200182805190602001908083835b6020831062000ab5578051825260208201915060208101905060208303925062000a90565b6001836020036101000a038019825116818451168082178552505050505050905001945050505050604051602081830303815290604052805190602001206200182c60201b60201c565b8199505050505050505050509392505050565b60008062000b3a731d3b2638a7cc9f2cb3d298a3da7a90b67e5506ed6200048b60201b60201c565b111562000be657731d3b2638a7cc9f2cb3d298a3da7a90b67e5506ed600160006101000a81548173ffffffffffffffffffffffffffffffffffffffff021916908373ffffffffffffffffffffffffffffffffffffffff16021790555062000bdc6040518060400160405280600b81526020017f6574685f6d61696e6e65740000000000000000000000000000000000000000008152506200184860201b60201c565b60019050620010de565b600062000c0d73c03a2615d5efaf5f49f60b7bb6583eaec212fdf16200048b60201b60201c565b111562000cb95773c03a2615d5efaf5f49f60b7bb6583eaec212fdf1600160006101000a81548173ffffffffffffffffffffffffffffffffffffffff021916908373ffffffffffffffffffffffffffffffffffffffff16021790555062000caf6040518060400160405280600c81526020017f6574685f726f707374656e3300000000000000000000000000000000000000008152506200184860201b60201c565b60019050620010de565b600062000ce073b7a07bcf2ba2f2703b24c0691b5278999c59ac7e6200048b60201b60201c565b111562000d8c5773b7a07bcf2ba2f2703b24c0691b5278999c59ac7e600160006101000a81548173ffffffffffffffffffffffffffffffffffffffff021916908373ffffffffffffffffffffffffffffffffffffffff16021790555062000d826040518060400160405280600981526020017f6574685f6b6f76616e00000000000000000000000000000000000000000000008152506200184860201b60201c565b60019050620010de565b600062000db373146500cfd35b22e4a392fe0adc06de1a1368ed486200048b60201b60201c565b111562000e5f5773146500cfd35b22e4a392fe0adc06de1a1368ed48600160006101000a81548173ffffffffffffffffffffffffffffffffffffffff021916908373ffffffffffffffffffffffffffffffffffffffff16021790555062000e556040518060400160405280600b81526020017f6574685f72696e6b6562790000000000000000000000000000000000000000008152506200184860201b60201c565b60019050620010de565b600062000e8673a2998efd205fb9d4b4963afb70778d6354ad3a416200048b60201b60201c565b111562000f325773a2998efd205fb9d4b4963afb70778d6354ad3a41600160006101000a81548173ffffffffffffffffffffffffffffffffffffffff021916908373ffffffffffffffffffffffffffffffffffffffff16021790555062000f286040518060400160405280600a81526020017f6574685f676f65726c69000000000000000000000000000000000000000000008152506200184860201b60201c565b60019050620010de565b600062000f59736f485c8bf6fc43ea212e93bbf8ce046c7f1cb4756200048b60201b60201c565b111562000fbf57736f485c8bf6fc43ea212e93bbf8ce046c7f1cb475600160006101000a81548173ffffffffffffffffffffffffffffffffffffffff021916908373ffffffffffffffffffffffffffffffffffffffff16021790555060019050620010de565b600062000fe67320e12a1f859b3feae5fb2a0a32c18f5a65555bbf6200048b60201b60201c565b11156200104c577320e12a1f859b3feae5fb2a0a32c18f5a65555bbf600160006101000a81548173ffffffffffffffffffffffffffffffffffffffff021916908373ffffffffffffffffffffffffffffffffffffffff16021790555060019050620010de565b6000620010737351efaf4c8b3c9afbd5ab9f4bbc82784ab6ef8faa6200048b60201b60201c565b1115620010d9577351efaf4c8b3c9afbd5ab9f4bbc82784ab6ef8faa600160006101000a81548173ffffffffffffffffffffffffffffffffffffffff021916908373ffffffffffffffffffffffffffffffffffffffff16021790555060019050620010de565b600090505b90565b60008073ffffffffffffffffffffffffffffffffffffffff16600160009054906101000a900473ffffffffffffffffffffffffffffffffffffffff1673ffffffffffffffffffffffffffffffffffffffff161480620011725750600062001170600160009054906101000a900473ffffffffffffffffffffffffffffffffffffffff166200048b60201b60201c565b145b156200118c576200118a60006200049660201b60201c565b505b600160009054906101000a900473ffffffffffffffffffffffffffffffffffffffff1673ffffffffffffffffffffffffffffffffffffffff166338cc48316040518163ffffffff1660e01b8152600401602060405180830381600087803b158015620011f757600080fd5b505af11580156200120c573d6000803e3d6000fd5b505050506040513d60208110156200122357600080fd5b810190808051906020019092919050505073ffffffffffffffffffffffffffffffffffffffff166000809054906101000a900473ffffffffffffffffffffffffffffffffffffffff1673ffffffffffffffffffffffffffffffffffffffff16146200137057600160009054906101000a900473ffffffffffffffffffffffffffffffffffffffff1673ffffffffffffffffffffffffffffffffffffffff166338cc48316040518163ffffffff1660e01b8152600401602060405180830381600087803b158015620012f357600080fd5b505af115801562001308573d6000803e3d6000fd5b505050506040513d60208110156200131f57600080fd5b81019080805190602001909291905050506000806101000a81548173ffffffffffffffffffffffffffffffffffffffff021916908373ffffffffffffffffffffffffffffffffffffffff1602179055505b6000809054906101000a900473ffffffffffffffffffffffffffffffffffffffff1673ffffffffffffffffffffffffffffffffffffffff1663abaa5f3e6040518163ffffffff1660e01b815260040160206040518083038186803b158015620013d857600080fd5b505afa158015620013ed573d6000803e3d6000fd5b505050506040513d60208110156200140457600080fd5b8101908080519060200190929190505050905090565b60606000828501905080845110156200143257600080fd5b600086602001905060008460200190505b8688602001018210156200146d578189015180828801525060208201915060208101905062001443565b85935050505095945050505050565b60008073ffffffffffffffffffffffffffffffffffffffff16600160009054906101000a900473ffffffffffffffffffffffffffffffffffffffff1673ffffffffffffffffffffffffffffffffffffffff1614806200150d575060006200150b600160009054906101000a900473ffffffffffffffffffffffffffffffffffffffff166200048b60201b60201c565b145b1562001527576200152560006200049660201b60201c565b505b600160009054906101000a900473ffffffffffffffffffffffffffffffffffffffff1673ffffffffffffffffffffffffffffffffffffffff166338cc48316040518163ffffffff1660e01b8152600401602060405180830381600087803b1580156200159257600080fd5b505af1158015620015a7573d6000803e3d6000fd5b505050506040513d6020811015620015be57600080fd5b810190808051906020019092919050505073ffffffffffffffffffffffffffffffffffffffff166000809054906101000a900473ffffffffffffffffffffffffffffffffffffffff1673ffffffffffffffffffffffffffffffffffffffff16146200170b57600160009054906101000a900473ffffffffffffffffffffffffffffffffffffffff1673ffffffffffffffffffffffffffffffffffffffff166338cc48316040518163ffffffff1660e01b8152600401602060405180830381600087803b1580156200168e57600080fd5b505af1158015620016a3573d6000803e3d6000fd5b505050506040513d6020811015620016ba57600080fd5b81019080805190602001909291905050506000806101000a81548173ffffffffffffffffffffffffffffffffffffffff021916908373ffffffffffffffffffffffffffffffffffffffff1602179055505b6060600467ffffffffffffffff811180156200172657600080fd5b506040519080825280602002602001820160405280156200175c57816020015b6060815260200190600190039081620017465790505b509050836000600481106200176d57fe5b6020020151816000815181106200178057fe5b6020026020010181905250836001600481106200179957fe5b602002015181600181518110620017ac57fe5b602002602001018190525083600260048110620017c557fe5b602002015181600281518110620017d857fe5b602002602001018190525083600360048110620017f157fe5b6020020151816003815181106200180457fe5b6020026020010181905250620018228582856200186460201b60201c565b9150509392505050565b8060036000848152602001908152602001600020819055505050565b80600290805190602001906200186092919062002318565b5050565b60008073ffffffffffffffffffffffffffffffffffffffff16600160009054906101000a900473ffffffffffffffffffffffffffffffffffffffff1673ffffffffffffffffffffffffffffffffffffffff161480620018f557506000620018f3600160009054906101000a900473ffffffffffffffffffffffffffffffffffffffff166200048b60201b60201c565b145b156200190f576200190d60006200049660201b60201c565b505b600160009054906101000a900473ffffffffffffffffffffffffffffffffffffffff1673ffffffffffffffffffffffffffffffffffffffff166338cc48316040518163ffffffff1660e01b8152600401602060405180830381600087803b1580156200197a57600080fd5b505af11580156200198f573d6000803e3d6000fd5b505050506040513d6020811015620019a657600080fd5b810190808051906020019092919050505073ffffffffffffffffffffffffffffffffffffffff166000809054906101000a900473ffffffffffffffffffffffffffffffffffffffff1673ffffffffffffffffffffffffffffffffffffffff161462001af357600160009054906101000a900473ffffffffffffffffffffffffffffffffffffffff1673ffffffffffffffffffffffffffffffffffffffff166338cc48316040518163ffffffff1660e01b8152600401602060405180830381600087803b15801562001a7657600080fd5b505af115801562001a8b573d6000803e3d6000fd5b505050506040513d602081101562001aa257600080fd5b81019080805190602001909291905050506000806101000a81548173ffffffffffffffffffffffffffffffffffffffff021916908373ffffffffffffffffffffffffffffffffffffffff1602179055505b60008060009054906101000a900473ffffffffffffffffffffffffffffffffffffffff1673ffffffffffffffffffffffffffffffffffffffff16632ef3accc86856040518363ffffffff1660e01b81526004018080602001838152602001828103825284818151815260200191508051906020019080838360005b8381101562001b8b57808201518184015260208101905062001b6e565b50505050905090810190601f16801562001bb95780820380516001836020036101000a031916815260200191505b509350505050602060405180830381600087803b15801562001bda57600080fd5b505af115801562001bef573d6000803e3d6000fd5b505050506040513d602081101562001c0657600080fd5b81019080805190602001909291905050509050823a02670de0b6b3a76400000181111562001c3b576000801b91505062001df1565b606062001c4e8562001df860201b60201c565b90506000809054906101000a900473ffffffffffffffffffffffffffffffffffffffff1673ffffffffffffffffffffffffffffffffffffffff1663c55c1cb68360008985896040518663ffffffff1660e01b8152600401808581526020018060200180602001848152602001838103835286818151815260200191508051906020019080838360005b8381101562001cf457808201518184015260208101905062001cd7565b50505050905090810190601f16801562001d225780820380516001836020036101000a031916815260200191505b50838103825285818151815260200191508051906020019080838360005b8381101562001d5d57808201518184015260208101905062001d40565b50505050905090810190601f16801562001d8b5780820380516001836020036101000a031916815260200191505b5096505050505050506020604051808303818588803b15801562001dae57600080fd5b505af115801562001dc3573d6000803e3d6000fd5b50505050506040513d602081101562001ddb57600080fd5b8101908080519060200190929190505050925050505b9392505050565b606062001e0a62001eb360201b60201c565b62001e146200239f565b62001e2d8161040062001ebf60201b620047001760201c565b62001e438162001f0c60201b6200474a1760201c565b60008090505b835181101562001e8f5762001e8184828151811062001e6457fe5b60200260200101518362001f2260201b620047581790919060201c565b808060010191505062001e49565b5062001ea68162001f5660201b6200477d1760201c565b8060000151915050919050565b60405180590338823950565b600081905060006020828162001ed157fe5b061462001eec576020818162001ee357fe5b06602003810190505b808360200181815250506040518084526000815281810160405250505050565b62001f1f81600462001f6c60201b60201c565b50565b62001f37826002835162001f9460201b60201c565b62001f5181836200211c60201b620048ec1790919060201c565b505050565b62001f6981600762001f6c60201b60201c565b50565b62001f90601f60058360ff16901b1783620021dc60201b620049971790919060201c565b5050565b6017811162001fc95762001fc38160058460ff16901b60ff161784620021dc60201b620049971790919060201c565b62002117565b60ff81116200201a5762001ff6601860058460ff16901b1784620021dc60201b620049971790919060201c565b62002013816001856200222560201b620049d7179092919060201c565b5062002116565b61ffff81116200206c5762002048601960058460ff16901b1784620021dc60201b620049971790919060201c565b62002065816002856200222560201b620049d7179092919060201c565b5062002115565b63ffffffff8111620020c0576200209c601a60058460ff16901b1784620021dc60201b620049971790919060201c565b620020b9816004856200222560201b620049d7179092919060201c565b5062002114565b67ffffffffffffffff81116200211357620020f4601b60058460ff16901b1784620021dc60201b620049971790919060201c565b62002111816008856200222560201b620049d7179092919060201c565b505b5b5b5b5b505050565b620021266200239f565b8260200151836000015151835101111562002167576200216683600262002159866020015186516200229f60201b60201c565b02620022bd60201b60201c565b5b60008060008451905085518051602081830101945086518101825260208701935050505b60208110620021b057815183526020830192506020820191506020810390506200218b565b60006001826020036101000a039050801983511681855116818117865250508694505050505092915050565b816020015160018360000151510111156200220b576200220a826002846020015102620022bd60201b60201c565b5b815180516020818301018381536001820183525050505050565b6200222f6200239f565b8360200151846000015151830111156200226e576200226d846002620022608760200151866200229f60201b60201c565b02620022bd60201b60201c565b5b60006001836101000a0390508451805184818301018684198251161781528582018352505050849150509392505050565b600081831115620022b357829050620022b7565b8190505b92915050565b606082600001519050620022d8838362001ebf60201b60201c565b620022ea83826200211c60201b60201c565b50505050565b60405180608001604052806004905b6060815260200190600190039081620022ff5790505090565b828054600181600116156101000203166002900490600052602060002090601f016020900481019282601f106200235b57805160ff19168380011785556200238c565b828001600101855582156200238c579182015b828111156200238b5782518255916020019190600101906200236e565b5b5090506200239b9190620023b9565b5090565b604051806040016040528060608152602001600081525090565b620023de91905b80821115620023da576000816000905550600101620023c0565b5090565b90565b6150a780620023f16000396000f3fe60806040526004361061003f5760003560e01c806313e1e6741461004457806327dc297e14610109578063333c8a89146101db57806338bbfa50146101f2575b600080fd5b6101076004803603604081101561005a57600080fd5b81019080803560ff1690602001909291908035906020019064010000000081111561008457600080fd5b82018360208201111561009657600080fd5b803590602001918460208302840111640100000000831117156100b857600080fd5b919080806020026020016040519081016040528093929190818152602001838360200280828437600081840152601f19601f82011690508083019250505050505050919291929050505061035b565b005b34801561011557600080fd5b506101d96004803603604081101561012c57600080fd5b81019080803590602001909291908035906020019064010000000081111561015357600080fd5b82018360208201111561016557600080fd5b8035906020019184600183028401116401000000008311171561018757600080fd5b91908080601f016020809104026020016040519081016040528093929190818152602001838380828437600081840152601f19601f82011690508083019250505050505050919291929050505061076a565b005b3480156101e757600080fd5b506101f06107c4565b005b3480156101fe57600080fd5b506103596004803603606081101561021557600080fd5b81019080803590602001909291908035906020019064010000000081111561023c57600080fd5b82018360208201111561024e57600080fd5b8035906020019184600183028401116401000000008311171561027057600080fd5b91908080601f016020809104026020016040519081016040528093929190818152602001838380828437600081840152601f19601f820116905080830192505050505050509192919290803590602001906401000000008111156102d357600080fd5b8201836020820111156102e557600080fd5b8035906020019184600183028401116401000000008311171561030757600080fd5b91908080601f016020809104026020016040519081016040528093929190818152602001838380828437600081840152601f19601f820116905080830192505050505050509192919290505050610ddf565b005b600560149054906101000a900460ff166103c0576040517f08c379a0000000000000000000000000000000000000000000000000000000008152600401808060200182810382526052815260200180614d5a6052913960600191505060405180910390fd5b66b1a2bc2ec50000341015610420576040517f08c379a0000000000000000000000000000000000000000000000000000000008152600401808060200182810382526037815260200180614f186037913960400191505060405180910390fd5b60018260ff16101580156104385750600a8260ff1611155b61048d576040517f08c379a0000000000000000000000000000000000000000000000000000000008152600401808060200182810382526023815260200180614ec26023913960400191505060405180910390fd5b80518260ff16146104e9576040517f08c379a0000000000000000000000000000000000000000000000000000000008152600401808060200182810382526033815260200180614ee56033913960400191505060405180910390fd5b60008090505b8260ff168160ff16101561059d576001828260ff168151811061050e57fe5b60200260200101511015801561053b57506050828260ff168151811061053057fe5b602002602001015111155b610590576040517f08c379a000000000000000000000000000000000000000000000000000000000815260040180806020018281038252602c815260200180614f7d602c913960400191505060405180910390fd5b80806001019150506104ef565b506009339080600181540180825580915050600190039060005260206000200160009091909190916101000a81548173ffffffffffffffffffffffffffffffffffffffff021916908373ffffffffffffffffffffffffffffffffffffffff160217905550610609614a7d565b6040518060400160405280348152602001838152509050600a60003373ffffffffffffffffffffffffffffffffffffffff1673ffffffffffffffffffffffffffffffffffffffff1681526020019081526020016000208190806001815401808255809150506001900390600052602060002090600202016000909190919091506000820151816000015560208201518160010190805190602001906106af929190614a97565b5050506000600b60003373ffffffffffffffffffffffffffffffffffffffff1673ffffffffffffffffffffffffffffffffffffffff16815260200190815260200160002060006101000a81548160ff021916908315150217905550346006600082825401925050819055507fabc8a8c19003fee98c71ef24b0f5b7f6d032fc212fc9ba079d6fedef23d26776604051808060200182810382526049815260200180614df46049913960600191505060405180910390a1505050565b6107c08282600067ffffffffffffffff8111801561078757600080fd5b506040519080825280601f01601f1916602001820160405280156107ba5781602001600182028036833780820191505090505b50610ddf565b5050565b60003390506000600a60008373ffffffffffffffffffffffffffffffffffffffff1673ffffffffffffffffffffffffffffffffffffffff1681526020019081526020016000208054905011610864576040517f08c379a0000000000000000000000000000000000000000000000000000000008152600401808060200182810382526048815260200180614dac6048913960600191505060405180910390fd5b600b60008273ffffffffffffffffffffffffffffffffffffffff1673ffffffffffffffffffffffffffffffffffffffff16815260200190815260200160002060009054906101000a900460ff1615610907576040517f08c379a0000000000000000000000000000000000000000000000000000000008152600401808060200182810382526028815260200180614d076028913960400191505060405180910390fd5b601e6109476040518060400160405280600681526020017f72616e646f6d0000000000000000000000000000000000000000000000000000815250610f93565b0260065410156109a2576040517f08c379a000000000000000000000000000000000000000000000000000000000815260040180806020018281038252609f815260200180614c68609f913960a00191505060405180910390fd5b60146007805490501015610a01576040517f08c379a0000000000000000000000000000000000000000000000000000000008152600401808060200182810382526089815260200180614fe96089913960a00191505060405180910390fd5b6000600560146101000a81548160ff0219169083151502179055506001600b60008373ffffffffffffffffffffffffffffffffffffffff1673ffffffffffffffffffffffffffffffffffffffff16815260200190815260200160002060006101000a81548160ff02191690831515021790555060146007805490501115610a8b57610a8a611324565b5b606060008060008060008090505b600a60008873ffffffffffffffffffffffffffffffffffffffff1673ffffffffffffffffffffffffffffffffffffffff16815260200190815260200160002080549050811015610dc057600a60008873ffffffffffffffffffffffffffffffffffffffff1673ffffffffffffffffffffffffffffffffffffffff1681526020019081526020016000208181548110610b2d57fe5b9060005260206000209060020201600101805480602002602001604051908101604052809291908181526020018280548015610b8857602002820191906000526020600020905b815481526020019060010190808311610b74575b50505050509550600a60008873ffffffffffffffffffffffffffffffffffffffff1673ffffffffffffffffffffffffffffffffffffffff1681526020019081526020016000208181548110610bd957fe5b9060005260206000209060020201600001549450610bf6866113af565b9350610c0486518587611425565b92508673ffffffffffffffffffffffffffffffffffffffff168360405180600001905060006040518083038185875af1925050503d8060008114610c64576040519150601f19603f3d011682016040523d82523d6000602084013e610c69565b606091505b50508092505081610cc5576040517f08c379a000000000000000000000000000000000000000000000000000000000815260040180806020018281038252602b815260200180614d2f602b913960400191505060405180910390fd5b7f6807e4e1064c6c471a3d420a4c838baa8928befec1d4b8c486a21ee832fb4fa06007878686604051808060200180602001806020018660ff16815260200185815260200184810384526085815260200180614e3d6085913960a0018481038352888181548152602001915080548015610d5e57602002820191906000526020600020905b815481526020019060010190808311610d4a575b5050848103825287818151815260200191508051906020019060200280838360005b83811015610d9b578082015181840152602081019050610d80565b5050505090500197505050505050505060405180910390a18080600101915050610a99565b50610dc9611830565b15610dd757610dd66118f4565b5b505050505050565b6000610de9611a46565b73ffffffffffffffffffffffffffffffffffffffff163373ffffffffffffffffffffffffffffffffffffffff1614610e2057600080fd5b6000610e2d858585611d65565b60ff1614610e86576040517f08c379a000000000000000000000000000000000000000000000000000000000815260040180806020018281038252602e815260200180614f4f602e913960400191505060405180910390fd5b60016050846040516020018082805190602001908083835b60208310610ec15780518252602082019150602081019050602083039250610e9e565b6001836020036101000a0380198251168184511680821785525050505050509050019150506040516020818303038152906040528051906020012060001c81610f0657fe5b06019050600015156008600083815260200190815260200160002060009054906101000a900460ff1615151415610f8d57600781908060018154018082558091505060019003906000526020600020016000909190919091505560016008600083815260200190815260200160002060006101000a81548160ff0219169083151502179055505b50505050565b60008073ffffffffffffffffffffffffffffffffffffffff16600160009054906101000a900473ffffffffffffffffffffffffffffffffffffffff1673ffffffffffffffffffffffffffffffffffffffff16148061101b57506000611019600160009054906101000a900473ffffffffffffffffffffffffffffffffffffffff16611e95565b145b1561102c5761102a6000611ea0565b505b600160009054906101000a900473ffffffffffffffffffffffffffffffffffffffff1673ffffffffffffffffffffffffffffffffffffffff166338cc48316040518163ffffffff1660e01b8152600401602060405180830381600087803b15801561109657600080fd5b505af11580156110aa573d6000803e3d6000fd5b505050506040513d60208110156110c057600080fd5b810190808051906020019092919050505073ffffffffffffffffffffffffffffffffffffffff166000809054906101000a900473ffffffffffffffffffffffffffffffffffffffff1673ffffffffffffffffffffffffffffffffffffffff161461120957600160009054906101000a900473ffffffffffffffffffffffffffffffffffffffff1673ffffffffffffffffffffffffffffffffffffffff166338cc48316040518163ffffffff1660e01b8152600401602060405180830381600087803b15801561118e57600080fd5b505af11580156111a2573d6000803e3d6000fd5b505050506040513d60208110156111b857600080fd5b81019080805190602001909291905050506000806101000a81548173ffffffffffffffffffffffffffffffffffffffff021916908373ffffffffffffffffffffffffffffffffffffffff1602179055505b6000809054906101000a900473ffffffffffffffffffffffffffffffffffffffff1673ffffffffffffffffffffffffffffffffffffffff1663524f3889836040518263ffffffff1660e01b81526004018080602001828103825283818151815260200191508051906020019080838360005b8381101561129657808201518184015260208101905061127b565b50505050905090810190601f1680156112c35780820380516001836020036101000a031916815260200191505b5092505050602060405180830381600087803b1580156112e257600080fd5b505af11580156112f6573d6000803e3d6000fd5b505050506040513d602081101561130c57600080fd5b81019080805190602001909291905050509050919050565b6000601490505b6007805490508160ff1610156113ac5760006008600060078460ff168154811061135157fe5b9060005260206000200154815260200190815260200160002060006101000a81548160ff02191690831515021790555060078160ff168154811061139157fe5b9060005260206000200160009055808060010191505061132b565b50565b600080600090505b82518160ff16101561141c576001151560086000858460ff16815181106113da57fe5b6020026020010151815260200190815260200160002060009054906101000a900460ff161515141561140f5781806001019250505b80806001019150506113b7565b50809050919050565b6000600a8414156114db57600a8360ff16141561144957620f424082029050611829565b60098360ff1614156114615761271082029050611829565b60088360ff1614156114795761024482029050611829565b60078360ff16141561149057603282029050611829565b60068360ff1614156114a757600682029050611829565b60058360ff1614156114be57600282029050611829565b60048360ff1614156114d257819050611829565b60009050611829565b60098414156115775760098360ff1614156114fd57620186a082029050611829565b60088360ff161415611515576109c482029050611829565b60078360ff16141561152c5760d282029050611829565b60068360ff16141561154357601482029050611829565b60058360ff16141561155a57600582029050611829565b60048360ff16141561156e57819050611829565b60009050611829565b60088414156115fe5760088360ff161415611598576161a882029050611829565b60078360ff1614156115b0576102a382029050611829565b60068360ff1614156115c757603c82029050611829565b60058360ff1614156115de57600782029050611829565b60048360ff1614156115f557600282029050611829565b60009050611829565b60078414156116815760078360ff16141561161f5761138882029050611829565b60068360ff16141561163657607d82029050611829565b60058360ff16141561164d57600c82029050611829565b60048360ff16141561166457600382029050611829565b60038360ff16141561167857819050611829565b60009050611829565b60068414156116ed5760068360ff1614156116a25761070882029050611829565b60058360ff1614156116b957605082029050611829565b60048360ff1614156116d057600582029050611829565b60038360ff1614156116e457819050611829565b60009050611829565b60058414156117455760058360ff16141561170e5761028082029050611829565b60048360ff16141561172557600e82029050611829565b60038360ff16141561173c57600282029050611829565b60009050611829565b60048414156117995760048360ff16141561176557607882029050611829565b60038360ff16141561177c57600482029050611829565b60028360ff16141561179057819050611829565b60009050611829565b60038414156117d65760038360ff1614156117b957602c82029050611829565b60028360ff1614156117cd57819050611829565b60009050611829565b60028414156117ff5760028360ff1614156117f657600c82029050611829565b60009050611829565b60018414156118285760018360ff16141561181f57600382029050611829565b60009050611829565b5b9392505050565b600080600090505b6009805490508110156118eb5760006009828154811061185457fe5b9060005260206000200160009054906101000a900473ffffffffffffffffffffffffffffffffffffffff169050600b60008273ffffffffffffffffffffffffffffffffffffffff1673ffffffffffffffffffffffffffffffffffffffff16815260200190815260200160002060009054906101000a900460ff166118dd576000925050506118f1565b508080600101915050611838565b50600190505b90565b60008090505b6009805490508110156119f45760006009828154811061191657fe5b9060005260206000200160009054906101000a900473ffffffffffffffffffffffffffffffffffffffff169050600a60008273ffffffffffffffffffffffffffffffffffffffff1673ffffffffffffffffffffffffffffffffffffffff168152602001908152602001600020600061198e9190614ae4565b6000600b60008373ffffffffffffffffffffffffffffffffffffffff1673ffffffffffffffffffffffffffffffffffffffff16815260200190815260200160002060006101000a81548160ff0219169083151502179055505080806001019150506118fa565b5060096000611a039190614b08565b611a0b611eb1565b60076000611a199190614b29565b6000600681905550611a29611f03565b6001600560146101000a81548160ff021916908315150217905550565b60008073ffffffffffffffffffffffffffffffffffffffff16600160009054906101000a900473ffffffffffffffffffffffffffffffffffffffff1673ffffffffffffffffffffffffffffffffffffffff161480611ace57506000611acc600160009054906101000a900473ffffffffffffffffffffffffffffffffffffffff16611e95565b145b15611adf57611add6000611ea0565b505b600160009054906101000a900473ffffffffffffffffffffffffffffffffffffffff1673ffffffffffffffffffffffffffffffffffffffff166338cc48316040518163ffffffff1660e01b8152600401602060405180830381600087803b158015611b4957600080fd5b505af1158015611b5d573d6000803e3d6000fd5b505050506040513d6020811015611b7357600080fd5b810190808051906020019092919050505073ffffffffffffffffffffffffffffffffffffffff166000809054906101000a900473ffffffffffffffffffffffffffffffffffffffff1673ffffffffffffffffffffffffffffffffffffffff1614611cbc57600160009054906101000a900473ffffffffffffffffffffffffffffffffffffffff1673ffffffffffffffffffffffffffffffffffffffff166338cc48316040518163ffffffff1660e01b8152600401602060405180830381600087803b158015611c4157600080fd5b505af1158015611c55573d6000803e3d6000fd5b505050506040513d6020811015611c6b57600080fd5b81019080805190602001909291905050506000806101000a81548173ffffffffffffffffffffffffffffffffffffffff021916908373ffffffffffffffffffffffffffffffffffffffff1602179055505b6000809054906101000a900473ffffffffffffffffffffffffffffffffffffffff1673ffffffffffffffffffffffffffffffffffffffff1663c281d19e6040518163ffffffff1660e01b8152600401602060405180830381600087803b158015611d2557600080fd5b505af1158015611d39573d6000803e3d6000fd5b505050506040513d6020811015611d4f57600080fd5b8101908080519060200190929190505050905090565b60007f4c0000000000000000000000000000000000000000000000000000000000000082600081518110611d9557fe5b602001015160f81c60f81b7effffffffffffffffffffffffffffffffffffffffffffffffffffffffffffff1916141580611e2857507f500000000000000000000000000000000000000000000000000000000000000082600181518110611df857fe5b602001015160f81c60f81b7effffffffffffffffffffffffffffffffffffffffffffffffffffffffffffff191614155b80611e545750600160ff1682600281518110611e4057fe5b602001015160f81c60f81b60f81c60ff1614155b15611e625760019050611e8e565b6000611e77838686611e72611f33565b611fd5565b905080611e88576002915050611e8e565b60009150505b9392505050565b6000813b9050919050565b6000611eaa6126f4565b9050919050565b6000600190505b60508160ff161015611f00576000600860008360ff16815260200190815260200160002060006101000a81548160ff0219169083151502179055508080600101915050611eb8565b50565b60008090505b601e811015611f3057611f226000600162030d40612c4b565b508080600101915050611f09565b50565b606060028054600181600116156101000203166002900480601f016020809104026020016040519081016040528092919081815260200182805460018160011615610100020316600290048015611fcb5780601f10611fa057610100808354040283529160200191611fcb565b820191906000526020600020905b815481529060010190602001808311611fae57829003601f168201915b5050505050905090565b6000806020600287604581518110611fe957fe5b602001015160f81c60f81b60f81c60ff16016044010190506060602067ffffffffffffffff8111801561201b57600080fd5b506040519080825280601f01601f19166020018201604052801561204e5781602001600182028036833780820191505090505b50905061206087836020846000613270565b50600284876040516020018083805190602001908083835b6020831061209b5780518252602082019150602081019050602083039250612078565b6001836020036101000a038019825116818451168082178552505050505050905001828152602001925050506040516020818303038152906040526040518082805190602001908083835b6020831061210957805182526020820191506020810190506020830392506120e6565b6001836020036101000a038019825116818451168082178552505050505050905001915050602060405180830381855afa15801561214b573d6000803e3d6000fd5b5050506040513d602081101561216057600080fd5b810190808051906020019092919050505060405160200180828152602001915050604051602081830303815290604052805190602001208180519060200120146121af576000925050506126ec565b606060028860016049860101815181106121c557fe5b602001015160f81c60f81b60f81c60ff160167ffffffffffffffff811180156121ed57600080fd5b506040519080825280601f01601f1916602001820160405280156122205781602001600182028036833780820191505090505b50905061223588604985018351846000613270565b506123006002826040518082805190602001908083835b6020831061226f578051825260208201915060208101905060208303925061224c565b6001836020036101000a038019825116818451168082178552505050505050905001915050602060405180830381855afa1580156122b1573d6000803e3d6000fd5b5050506040513d60208110156122c657600080fd5b8101908080519060200190929190505050878a60086020880101815181106122ea57fe5b602001015160f81c60f81b60f81c60ff166132cf565b61231057600093505050506126ec565b6060602967ffffffffffffffff8111801561232a57600080fd5b506040519080825280601f01601f19166020018201604052801561235d5781602001600182028036833780820191505090505b50905061237289602086016029846000613270565b506060604067ffffffffffffffff8111801561238d57600080fd5b506040519080825280601f01601f1916602001820160405280156123c05781602001600182028036833780820191505090505b50905060006041845160296020890101010190506123e68b604083036040856000613270565b5060006002836040518082805190602001908083835b6020831061241f57805182526020820191506020810190506020830392506123fc565b6001836020036101000a038019825116818451168082178552505050505050905001915050602060405180830381855afa158015612461573d6000803e3d6000fd5b5050506040513d602081101561247657600080fd5b8101908080519060200190929190505050905083816040516020018083805190602001908083835b602083106124c1578051825260208201915060208101905060208303925061249e565b6001836020036101000a0380198251168184511680821785525050505050509050018281526020019250505060405160208183030381529060405280519060200120600360008d815260200190815260200160002054141561253957600360008c815260200190815260200160002060009055612549565b60009750505050505050506126ec565b6060604967ffffffffffffffff8111801561256357600080fd5b506040519080825280601f01601f1916602001820160405280156125965781602001600182028036833780820191505090505b5090506125a88d896049846000613270565b506126516002826040518082805190602001908083835b602083106125e257805182526020820191506020810190506020830392506125bf565b6001836020036101000a038019825116818451168082178552505050505050905001915050602060405180830381855afa158015612624573d6000803e3d6000fd5b5050506040513d602081101561263957600080fd5b8101908080519060200190929190505050878661337f565b612666576000985050505050505050506126ec565b6004600083815260200190815260200160002060009054906101000a900460ff166126c0576126958d8461356b565b6004600084815260200190815260200160002060006101000a81548160ff0219169083151502179055505b6004600083815260200190815260200160002060009054906101000a900460ff16985050505050505050505b949350505050565b600080612714731d3b2638a7cc9f2cb3d298a3da7a90b67e5506ed611e95565b11156127b657731d3b2638a7cc9f2cb3d298a3da7a90b67e5506ed600160006101000a81548173ffffffffffffffffffffffffffffffffffffffff021916908373ffffffffffffffffffffffffffffffffffffffff1602179055506127ad6040518060400160405280600b81526020017f6574685f6d61696e6e65740000000000000000000000000000000000000000008152506139f7565b60019050612c48565b60006127d573c03a2615d5efaf5f49f60b7bb6583eaec212fdf1611e95565b11156128775773c03a2615d5efaf5f49f60b7bb6583eaec212fdf1600160006101000a81548173ffffffffffffffffffffffffffffffffffffffff021916908373ffffffffffffffffffffffffffffffffffffffff16021790555061286e6040518060400160405280600c81526020017f6574685f726f707374656e3300000000000000000000000000000000000000008152506139f7565b60019050612c48565b600061289673b7a07bcf2ba2f2703b24c0691b5278999c59ac7e611e95565b11156129385773b7a07bcf2ba2f2703b24c0691b5278999c59ac7e600160006101000a81548173ffffffffffffffffffffffffffffffffffffffff021916908373ffffffffffffffffffffffffffffffffffffffff16021790555061292f6040518060400160405280600981526020017f6574685f6b6f76616e00000000000000000000000000000000000000000000008152506139f7565b60019050612c48565b600061295773146500cfd35b22e4a392fe0adc06de1a1368ed48611e95565b11156129f95773146500cfd35b22e4a392fe0adc06de1a1368ed48600160006101000a81548173ffffffffffffffffffffffffffffffffffffffff021916908373ffffffffffffffffffffffffffffffffffffffff1602179055506129f06040518060400160405280600b81526020017f6574685f72696e6b6562790000000000000000000000000000000000000000008152506139f7565b60019050612c48565b6000612a1873a2998efd205fb9d4b4963afb70778d6354ad3a41611e95565b1115612aba5773a2998efd205fb9d4b4963afb70778d6354ad3a41600160006101000a81548173ffffffffffffffffffffffffffffffffffffffff021916908373ffffffffffffffffffffffffffffffffffffffff160217905550612ab16040518060400160405280600a81526020017f6574685f676f65726c69000000000000000000000000000000000000000000008152506139f7565b60019050612c48565b6000612ad9736f485c8bf6fc43ea212e93bbf8ce046c7f1cb475611e95565b1115612b3d57736f485c8bf6fc43ea212e93bbf8ce046c7f1cb475600160006101000a81548173ffffffffffffffffffffffffffffffffffffffff021916908373ffffffffffffffffffffffffffffffffffffffff16021790555060019050612c48565b6000612b5c7320e12a1f859b3feae5fb2a0a32c18f5a65555bbf611e95565b1115612bc0577320e12a1f859b3feae5fb2a0a32c18f5a65555bbf600160006101000a81548173ffffffffffffffffffffffffffffffffffffffff021916908373ffffffffffffffffffffffffffffffffffffffff16021790555060019050612c48565b6000612bdf7351efaf4c8b3c9afbd5ab9f4bbc82784ab6ef8faa611e95565b1115612c43577351efaf4c8b3c9afbd5ab9f4bbc82784ab6ef8faa600160006101000a81548173ffffffffffffffffffffffffffffffffffffffff021916908373ffffffffffffffffffffffffffffffffffffffff16021790555060019050612c48565b600090505b90565b60008083118015612c5d575060208311155b612c6657600080fd5b600a840293506060600167ffffffffffffffff81118015612c8657600080fd5b506040519080825280601f01601f191660200182016040528015612cb95781602001600182028036833780820191505090505b5090508360f81b81600081518110612ccd57fe5b60200101907effffffffffffffffffffffffffffffffffffffffffffffffffffffffffffff1916908160001a9053506060602067ffffffffffffffff81118015612d1657600080fd5b506040519080825280601f01601f191660200182016040528015612d495781602001600182028036833780820191505090505b5090506060602067ffffffffffffffff81118015612d6657600080fd5b506040519080825280601f01601f191660200182016040528015612d995781602001600182028036833780820191505090505b5090506000612da6613a11565b9050602083524241186001430340186020840152602082528060208301526060602067ffffffffffffffff81118015612dde57600080fd5b506040519080825280601f01601f191660200182016040528015612e115781602001600182028036833780820191505090505b5090508860208201526060600867ffffffffffffffff81118015612e3457600080fd5b506040519080825280601f01601f191660200182016040528015612e675781602001600182028036833780820191505090505b509050612e7a8260186008846000613270565b50612e83614b4a565b60405180608001604052808781526020018881526020018681526020018481525090506000612ee86040518060400160405280600681526020017f72616e646f6d0000000000000000000000000000000000000000000000000000815250838c613d2e565b90506060600867ffffffffffffffff81118015612f0457600080fd5b506040519080825280601f01601f191660200182016040528015612f375781602001600182028036833780820191505090505b50905060208401517f0100000000000000000000000000000000000000000000000000000000000000810460278301537e01000000000000000000000000000000000000000000000000000000000000810460268301537d010000000000000000000000000000000000000000000000000000000000810460258301537c0100000000000000000000000000000000000000000000000000000000810460248301537b01000000000000000000000000000000000000000000000000000000810460238301537a01000000000000000000000000000000000000000000000000000081046022830153790100000000000000000000000000000000000000000000000000810460218301537801000000000000000000000000000000000000000000000000810460208301535061325d82828560016004811061307657fe5b602002015160028760006004811061308a57fe5b60200201516040518082805190602001908083835b602083106130c2578051825260208201915060208101905060208303925061309f565b6001836020036101000a038019825116818451168082178552505050505050905001915050602060405180830381855afa158015613104573d6000803e3d6000fd5b5050506040513d602081101561311957600080fd5b81019080805190602001909291905050508760026004811061313757fe5b60200201516040516020018085805190602001908083835b60208310613172578051825260208201915060208101905060208303925061314f565b6001836020036101000a03801982511681845116808217855250505050505090500184805190602001908083835b602083106131c357805182526020820191506020810190506020830392506131a0565b6001836020036101000a03801982511681845116808217855250505050505090500183815260200182805190602001908083835b6020831061321a57805182526020820191506020810190506020830392506131f7565b6001836020036101000a038019825116818451168082178552505050505050905001945050505050604051602081830303815290604052805190602001206140b2565b8199505050505050505050509392505050565b606060008285019050808451101561328757600080fd5b600086602001905060008460200190505b8688602001018210156132c05781890151808288015250602082019150602081019050613298565b85935050505095945050505050565b60008060019050828451146132e357600080fd5b60008090505b83811015613373578481815181106132fd57fe5b602001015160f81c60f81b7effffffffffffffffffffffffffffffffffffffffffffffffffffffffffffff191686826020811061333657fe5b1a60f81b7effffffffffffffffffffffffffffffffffffffffffffffffffffffffffffff19161461336657600091505b80806001019150506132e9565b50809150509392505050565b60008060008060006060602067ffffffffffffffff811180156133a157600080fd5b506040519080825280601f01601f1916602001820160405280156133d45781602001600182028036833780820191505090505b50905060006020896003815181106133e857fe5b602001015160f81c60f81b60f81c60ff1603600401905061340e89826020856000613270565b91506060602067ffffffffffffffff8111801561342a57600080fd5b506040519080825280601f01601f19166020018201604052801561345d5781602001600182028036833780820191505090505b5090506022820191506134998a60208c600186038151811061347b57fe5b602001015160f81c60f81b60f81c60ff160384016020846000613270565b905060208301519450602081015193506134b68b601b87876140ce565b80975081985050508573ffffffffffffffffffffffffffffffffffffffff16898051906020012060001c73ffffffffffffffffffffffffffffffffffffffff16141561350c576001975050505050505050613564565b6135198b601c87876140ce565b80975081985050508573ffffffffffffffffffffffffffffffffffffffff16898051906020012060001c73ffffffffffffffffffffffffffffffffffffffff16149750505050505050505b9392505050565b6000806060600285600186018151811061358157fe5b602001015160f81c60f81b60f81c60ff160167ffffffffffffffff811180156135a957600080fd5b506040519080825280601f01601f1916602001820160405280156135dc5781602001600182028036833780820191505090505b5090506135ee85858351846000613270565b506060604067ffffffffffffffff8111801561360957600080fd5b506040519080825280601f01601f19166020018201604052801561363c5781602001600182028036833780820191505090505b50905061364f8660046040846000613270565b506060606267ffffffffffffffff8111801561366a57600080fd5b506040519080825280601f01601f19166020018201604052801561369d5781602001600182028036833780820191505090505b509050600160f81b816000815181106136b257fe5b60200101907effffffffffffffffffffffffffffffffffffffffffffffffffffffffffffff1916908160001a9053506136f387604188036041846001613270565b5060606040518060400160405280602081526020017ffd94fa71bc0ba10d39d464d0d8f465efeef0a2764e3887fcc9df41ded20f505c815250905061373e8160006020856042613270565b506137e76002836040518082805190602001908083835b602083106137785780518252602082019150602081019050602083039250613755565b6001836020036101000a038019825116818451168082178552505050505050905001915050602060405180830381855afa1580156137ba573d6000803e3d6000fd5b5050506040513d60208110156137cf57600080fd5b8101908080519060200190929190505050858561337f565b9450846137fc576000955050505050506139f1565b6060604051806060016040528060408152602001614fa96040913990506060604267ffffffffffffffff8111801561383357600080fd5b506040519080825280601f01601f1916602001820160405280156138665781602001600182028036833780820191505090505b50905060fe60f81b8160008151811061387b57fe5b60200101907effffffffffffffffffffffffffffffffffffffffffffffffffffffffffffff1916908160001a9053506138ba8a60036041846001613270565b50606060028b6045815181106138cc57fe5b602001015160f81c60f81b60f81c60ff160167ffffffffffffffff811180156138f457600080fd5b506040519080825280601f01601f1916602001820160405280156139275781602001600182028036833780820191505090505b50905061393a8b60448351846000613270565b506139e36002836040518082805190602001908083835b602083106139745780518252602082019150602081019050602083039250613951565b6001836020036101000a038019825116818451168082178552505050505050905001915050602060405180830381855afa1580156139b6573d6000803e3d6000fd5b5050506040513d60208110156139cb57600080fd5b8101908080519060200190929190505050828561337f565b975087985050505050505050505b92915050565b8060029080519060200190613a0d929190614b71565b5050565b60008073ffffffffffffffffffffffffffffffffffffffff16600160009054906101000a900473ffffffffffffffffffffffffffffffffffffffff1673ffffffffffffffffffffffffffffffffffffffff161480613a9957506000613a97600160009054906101000a900473ffffffffffffffffffffffffffffffffffffffff16611e95565b145b15613aaa57613aa86000611ea0565b505b600160009054906101000a900473ffffffffffffffffffffffffffffffffffffffff1673ffffffffffffffffffffffffffffffffffffffff166338cc48316040518163ffffffff1660e01b8152600401602060405180830381600087803b158015613b1457600080fd5b505af1158015613b28573d6000803e3d6000fd5b505050506040513d6020811015613b3e57600080fd5b810190808051906020019092919050505073ffffffffffffffffffffffffffffffffffffffff166000809054906101000a900473ffffffffffffffffffffffffffffffffffffffff1673ffffffffffffffffffffffffffffffffffffffff1614613c8757600160009054906101000a900473ffffffffffffffffffffffffffffffffffffffff1673ffffffffffffffffffffffffffffffffffffffff166338cc48316040518163ffffffff1660e01b8152600401602060405180830381600087803b158015613c0c57600080fd5b505af1158015613c20573d6000803e3d6000fd5b505050506040513d6020811015613c3657600080fd5b81019080805190602001909291905050506000806101000a81548173ffffffffffffffffffffffffffffffffffffffff021916908373ffffffffffffffffffffffffffffffffffffffff1602179055505b6000809054906101000a900473ffffffffffffffffffffffffffffffffffffffff1673ffffffffffffffffffffffffffffffffffffffff1663abaa5f3e6040518163ffffffff1660e01b815260040160206040518083038186803b158015613cee57600080fd5b505afa158015613d02573d6000803e3d6000fd5b505050506040513d6020811015613d1857600080fd5b8101908080519060200190929190505050905090565b60008073ffffffffffffffffffffffffffffffffffffffff16600160009054906101000a900473ffffffffffffffffffffffffffffffffffffffff1673ffffffffffffffffffffffffffffffffffffffff161480613db657506000613db4600160009054906101000a900473ffffffffffffffffffffffffffffffffffffffff16611e95565b145b15613dc757613dc56000611ea0565b505b600160009054906101000a900473ffffffffffffffffffffffffffffffffffffffff1673ffffffffffffffffffffffffffffffffffffffff166338cc48316040518163ffffffff1660e01b8152600401602060405180830381600087803b158015613e3157600080fd5b505af1158015613e45573d6000803e3d6000fd5b505050506040513d6020811015613e5b57600080fd5b810190808051906020019092919050505073ffffffffffffffffffffffffffffffffffffffff166000809054906101000a900473ffffffffffffffffffffffffffffffffffffffff1673ffffffffffffffffffffffffffffffffffffffff1614613fa457600160009054906101000a900473ffffffffffffffffffffffffffffffffffffffff1673ffffffffffffffffffffffffffffffffffffffff166338cc48316040518163ffffffff1660e01b8152600401602060405180830381600087803b158015613f2957600080fd5b505af1158015613f3d573d6000803e3d6000fd5b505050506040513d6020811015613f5357600080fd5b81019080805190602001909291905050506000806101000a81548173ffffffffffffffffffffffffffffffffffffffff021916908373ffffffffffffffffffffffffffffffffffffffff1602179055505b6060600467ffffffffffffffff81118015613fbe57600080fd5b50604051908082528060200260200182016040528015613ff257816020015b6060815260200190600190039081613fdd5790505b5090508360006004811061400257fe5b60200201518160008151811061401457fe5b60200260200101819052508360016004811061402c57fe5b60200201518160018151811061403e57fe5b60200260200101819052508360026004811061405657fe5b60200201518160028151811061406857fe5b60200260200101819052508360036004811061408057fe5b60200201518160038151811061409257fe5b60200260200101819052506140a8858285614112565b9150509392505050565b8060036000848152602001908152602001600020819055505050565b60008060008060405188815287602082015286604082015285606082015260208160808360006001610bb8f192508051915050818193509350505094509492505050565b60008073ffffffffffffffffffffffffffffffffffffffff16600160009054906101000a900473ffffffffffffffffffffffffffffffffffffffff1673ffffffffffffffffffffffffffffffffffffffff16148061419a57506000614198600160009054906101000a900473ffffffffffffffffffffffffffffffffffffffff16611e95565b145b156141ab576141a96000611ea0565b505b600160009054906101000a900473ffffffffffffffffffffffffffffffffffffffff1673ffffffffffffffffffffffffffffffffffffffff166338cc48316040518163ffffffff1660e01b8152600401602060405180830381600087803b15801561421557600080fd5b505af1158015614229573d6000803e3d6000fd5b505050506040513d602081101561423f57600080fd5b810190808051906020019092919050505073ffffffffffffffffffffffffffffffffffffffff166000809054906101000a900473ffffffffffffffffffffffffffffffffffffffff1673ffffffffffffffffffffffffffffffffffffffff161461438857600160009054906101000a900473ffffffffffffffffffffffffffffffffffffffff1673ffffffffffffffffffffffffffffffffffffffff166338cc48316040518163ffffffff1660e01b8152600401602060405180830381600087803b15801561430d57600080fd5b505af1158015614321573d6000803e3d6000fd5b505050506040513d602081101561433757600080fd5b81019080805190602001909291905050506000806101000a81548173ffffffffffffffffffffffffffffffffffffffff021916908373ffffffffffffffffffffffffffffffffffffffff1602179055505b60008060009054906101000a900473ffffffffffffffffffffffffffffffffffffffff1673ffffffffffffffffffffffffffffffffffffffff16632ef3accc86856040518363ffffffff1660e01b81526004018080602001838152602001828103825284818151815260200191508051906020019080838360005b8381101561441e578082015181840152602081019050614403565b50505050905090810190601f16801561444b5780820380516001836020036101000a031916815260200191505b509350505050602060405180830381600087803b15801561446b57600080fd5b505af115801561447f573d6000803e3d6000fd5b505050506040513d602081101561449557600080fd5b81019080805190602001909291905050509050823a02670de0b6b3a7640000018111156144c8576000801b91505061466d565b60606144d385614674565b90506000809054906101000a900473ffffffffffffffffffffffffffffffffffffffff1673ffffffffffffffffffffffffffffffffffffffff1663c55c1cb68360008985896040518663ffffffff1660e01b8152600401808581526020018060200180602001848152602001838103835286818151815260200191508051906020019080838360005b8381101561457757808201518184015260208101905061455c565b50505050905090810190601f1680156145a45780820380516001836020036101000a031916815260200191505b50838103825285818151815260200191508051906020019080838360005b838110156145dd5780820151818401526020810190506145c2565b50505050905090810190601f16801561460a5780820380516001836020036101000a031916815260200191505b5096505050505050506020604051808303818588803b15801561462c57600080fd5b505af1158015614640573d6000803e3d6000fd5b50505050506040513d602081101561465757600080fd5b8101908080519060200190929190505050925050505b9392505050565b606061467e6146f4565b614686614bf1565b61469281610400614700565b61469b8161474a565b60008090505b83518110156146dd576146d08482815181106146b957fe5b60200260200101518361475890919063ffffffff16565b80806001019150506146a1565b506146e78161477d565b8060000151915050919050565b60405180590338823950565b600081905060006020828161471157fe5b061461472a576020818161472157fe5b06602003810190505b808360200181815250506040518084526000815281810160405250505050565b61475581600461478b565b50565b61476582600283516147ac565b61477881836148ec90919063ffffffff16565b505050565b61478881600761478b565b50565b6147a8601f60058360ff16901b178361499790919063ffffffff16565b5050565b601781116147d8576147d38160058460ff16901b60ff16178461499790919063ffffffff16565b6148e7565b60ff8111614819576147fd601860058460ff16901b178461499790919063ffffffff16565b614813816001856149d79092919063ffffffff16565b506148e6565b61ffff811161485b5761483f601960058460ff16901b178461499790919063ffffffff16565b614855816002856149d79092919063ffffffff16565b506148e5565b63ffffffff811161489f57614883601a60058460ff16901b178461499790919063ffffffff16565b614899816004856149d79092919063ffffffff16565b506148e4565b67ffffffffffffffff81116148e3576148cb601b60058460ff16901b178461499790919063ffffffff16565b6148e1816008856149d79092919063ffffffff16565b505b5b5b5b5b505050565b6148f4614bf1565b826020015183600001515183510111156149245761492383600261491d86602001518651614a3e565b02614a5a565b5b60008060008451905085518051602081830101945086518101825260208701935050505b6020811061496b5781518352602083019250602082019150602081039050614948565b60006001826020036101000a039050801983511681855116818117865250508694505050505092915050565b816020015160018360000151510111156149bd576149bc826002846020015102614a5a565b5b815180516020818301018381536001820183525050505050565b6149df614bf1565b836020015184600001515183011115614a0d57614a0c846002614a06876020015186614a3e565b02614a5a565b5b60006001836101000a0390508451805184818301018684198251161781528582018352505050849150509392505050565b600081831115614a5057829050614a54565b8190505b92915050565b606082600001519050614a6d8383614700565b614a7783826148ec565b50505050565b604051806040016040528060008152602001606081525090565b828054828255906000526020600020908101928215614ad3579160200282015b82811115614ad2578251825591602001919060010190614ab7565b5b509050614ae09190614c0b565b5090565b5080546000825560020290600052602060002090810190614b059190614c30565b50565b5080546000825590600052602060002090810190614b269190614c0b565b50565b5080546000825590600052602060002090810190614b479190614c0b565b50565b60405180608001604052806004905b6060815260200190600190039081614b595790505090565b828054600181600116156101000203166002900490600052602060002090601f016020900481019282601f10614bb257805160ff1916838001178555614be0565b82800160010185558215614be0579182015b82811115614bdf578251825591602001919060010190614bc4565b5b509050614bed9190614c0b565b5090565b604051806040016040528060608152602001600081525090565b614c2d91905b80821115614c29576000816000905550600101614c11565b5090565b90565b614c6491905b80821115614c6057600080820160009055600182016000614c579190614b29565b50600201614c36565b5090565b9056fe41c3ba6e206e6f20686179206a756761646f72657320737566696369656e74657320656e20656c206a7565676f2e2048617a206f74726120617075657374612070617261207265756e6972206dc3a173206a756761646f72657320792061756d656e746172207475732070726f626162696c6964616465732064652067616e6172206f20696e74656e74612072657669736172206dc3a1732074617264652e59612072657669736173746520747520726573756c7461646f20656e206573746120726f6e64612e4c6f2073656e74696d6f732e20456c20656e76c3ad6f206465207475207072656d696f2066616c6cc3b32e41637475616c6d656e7465206e6f20736520657374c3a16e20726563696269656e646f206e7565766f73206a756761646f7265732e20496e74656e7461206465206e7565766f206dc3a1732074617264652e4e6f20657374c3a173207061727469636970616e646f20656e2065737465206a7565676f2e20496e74656e746120686163657220756e612061707565737461207072696d65726f2ec2a1457374c3a17320656e20656c206a7565676f212045737065726f20616c67756e6f73206d696e75746f73207061726120636f6e73756c74617220747520726573756c7461646f2e4120636f6e74696e75616369c3b36e207365206d7565737472616e206c6f73206ec3ba6d65726f732067616e61646f7265732c206c6f73206ec3ba6d65726f732071756520656c6567697374652c206c6f73206ec3ba6d65726f732061206c6f7320717565206c65206174696e617374652079207475207072656d696f20656e207765693a446562657320656c6567697220656e7472652031207920313020636173696c6c61732e446562657320706f6e65722074616e746f73206ec3ba6d65726f7320636f6d6f20636173696c6c617320656c6567697374652e4c612061707565737461206dc3ad6e696d6120657320302e3035204554482028353030303030303030303030303030303020776569292e456c206ec3ba6d65726f20616c6561746f72696f2067656e657261646f206e6f20657320636f6e666961626c652e546f646f73206c6f73206ec3ba6d65726f7320646562656e20657374617220656e747265203120792038302e7fb956469c5c9b89840d55b43537e66a98dd4811ea0a27224272c2e5622911e8537a2f8e86a46baec82864e98dd01e9ccc2f8bc5dfc9cbe5a91a290498dd96e441c3ba6e20736520657374c3a16e2067656e6572616e646f206c6f73206ec3ba6d65726f732067616e61646f7265732e20496e74656e74612072657669736172206dc3a173207461726465206f2068617a206f747261206170756573746120706172612061756d656e746172207475732070726f626162696c6964616465732064652067616e61722ea264697066735822122027ac6acb8ba0f8954a3da765bd0221315fc76b0b1f02ca3704f56dd85a251c3864736f6c63430006060033456c20636f6e747261746f2073652064656265206c616e7a617220636f6e20616c206d656e6f7320312045544820646520696e7665727369c3b36e2e",
  "immutableReferences": {},
  "source": "/**\r\n * Contrato Keno.\r\n * INSTRUCCIONES DE USO:\r\n *  1. Lanzar el contrato con al menos 1 ETH para cubrir premios.\r\n *  2. Presionar entrarAlJuego() mandndole la cantidad de nmeros que quieres jugar y un arreglo con los nmeros\r\n *     que quieres jugar. Por ejemplo, si quieres apostarle a los nmeros 10, 20, 30, mandaras llamar\r\n *     entrarAlJuego(3, [10,20,3]). La cantidad de casillas mxima es 10 y los nmeros deben estar entre 1 y 80. \r\n *     Como value, pasarle al menos 0.05 ETH.\r\n *  3. Despus de varios minutos (tal vez 10 o ms), presionar consultarResultado() para ver el resultado del juego.\r\n *     Si lanza error, lo ms probable es que an no se haya cubierto la cuota de apuestas de jugadores (~0.2 ETH)\r\n *     o no se hayann generado los nmeros aleatorios. Si lanza error, recomiendo forzar la transaccin y ver el\r\n *     error en https://ropsten.etherscan.io/\r\n * \r\n *  NOTAS:\r\n *   - Al lanzar el contrato, se empiezan a generar los nmeros aleatorios. Mientras se generan,\r\n *     cualquiera puede unirse al juego, pero en el momento en que alguien logra ver sus resultados,\r\n *     ya no se admiten ms jugadores (para evitar tramposos).\r\n *   - El juego se reinicia cuando el ltimo jugador logra ver sus resultados.\r\n */\r\npragma solidity > 0.6.1 < 0.7.0;\r\n\r\nimport \"./usingProvable.sol\";\r\n\r\ncontract Keno is usingProvable {\r\n    address private owner;\r\n    uint private constant APUESTA_MIN = 50000000000000000;\r\n    \r\n    struct Apuesta {\r\n        uint cantidad;      //Cantidad de wei apostado.\r\n        uint[] numeros;     //Nmeros elegidos.\r\n    }\r\n    \r\n    bool private recibirJugadores = true;           //Indica si en el juego actual an se reciben jugadores.\r\n    uint private totalRecaudadoRonda;               //Cantidad de wei recaudada en esta ronda.\r\n    uint[] private numerosGanadores;                 //Arreglo con los nmeros aleatorios ganadores.\r\n    mapping (uint => bool) private numerosObtenidos; //Map con todos los nmeros aleatorios que se generaron.\r\n    \r\n    address[] direccionesJugadores;                     //Arreglo con las direcciones de todos los jugadores.\r\n    mapping (address => Apuesta[]) private apuestas;    //Map con las apuestas de todos los jugadores.\r\n    mapping (address => bool) private revisoResultado;  //Map que indica si el jugador ya revis su resultado.\r\n    \r\n    //Eventos para avisar cosas al usuario.\r\n    event logJuego(string);\r\n    event logResultado(string descripcion, uint[] obtenidos, uint[] elegidos, uint atinados, uint premio);\r\n\r\n    //Se requiere lanzar el contrato con al menos 1 ETH.\r\n    constructor() public payable {\r\n        require(msg.value >= 1000000000000000000, \"El contrato se debe lanzar con al menos 1 ETH de inversin.\");\r\n        owner = msg.sender;\r\n        provable_setProof(proofType_Ledger);\r\n        generar20Aleatorios();\r\n    }\r\n    \r\n    //Se entra al juego eligiendo la cantidad de nmeros que quieres y un arreglo con los nmeros que crees que saldrn.\r\n    //La funcin es payable, representando la apuesta, la cual debe ser de mnimo 0.05 ETH.\r\n    function entrarAlJuego (uint8 cantidadNumeros, uint[] memory numerosElegidos) public payable {\r\n        //Se verifica el estado de la ronda actual y las entradas del usuario.\r\n        require (recibirJugadores, \"Actualmente no se estn recibiendo nuevos jugadores. Intenta de nuevo ms tarde.\");\r\n        require (msg.value >= APUESTA_MIN, \"La apuesta mnima es 0.05 ETH (50000000000000000 wei).\");\r\n        require (cantidadNumeros >= 1 && cantidadNumeros <= 10, \"Debes elegir entre 1 y 10 casillas.\");\r\n        require (cantidadNumeros == numerosElegidos.length, \"Debes poner tantos nmeros como casillas elegiste.\");\r\n        for (uint8 i = 0; i < cantidadNumeros; i++) {\r\n            require (numerosElegidos[i] >= 1 && numerosElegidos[i] <= 80, \"Todos los nmeros deben estar entre 1 y 80.\");\r\n        }\r\n        \r\n        //Se guarda la direccin del jugador y las propiedades de su apuesta.\r\n        direccionesJugadores.push(msg.sender);\r\n        Apuesta memory apuestaActual = Apuesta(msg.value, numerosElegidos);\r\n        apuestas[msg.sender].push(apuestaActual);\r\n        revisoResultado[msg.sender] = false;    //El jugador an no revisa su resultado.\r\n        \r\n        //Se incrementa el total recaudado en esta ronda.\r\n        totalRecaudadoRonda += msg.value;\r\n        \r\n        emit logJuego(\"Ests en el juego! Espero algunos minutos para consultar tu resultado.\");\r\n    }\r\n    \r\n    //Despus de varios minutos de entrar al juego, puedes consultar tu resultado con esta funcin.\r\n    function consultarResultado() public {\r\n        address jugador = msg.sender;\r\n        \r\n        //Se revisan las condiciones necesarias para ver el resultado. En las cadenas de los logs dice cules son.\r\n        require (apuestas[jugador].length > 0, \"No ests participando en este juego. Intenta hacer una apuesta primero.\");\r\n        require (!revisoResultado[jugador], \"Ya revisaste tu resultado en esta ronda.\");\r\n        require (totalRecaudadoRonda >= provable_getPrice(\"random\")*30, \"An no hay jugadores suficientes en el juego. Haz otra apuesta para reunir ms jugadores y aumentar tus probabilidades de ganar o intenta revisar ms tarde.\");\r\n        require (numerosGanadores.length >= 20, \"An se estn generando los nmeros ganadores. Intenta revisar ms tarde o haz otra apuesta para aumentar tus probabilidades de ganar.\");\r\n        \r\n        //Los jugadores de la ronda estn revisando sus resultados. No se pueden unir nuevos jugadores.\r\n        recibirJugadores = false;\r\n        \r\n        //Indica que este jugador ya revis su resultado.\r\n        revisoResultado[jugador] = true;\r\n        \r\n        //Si se obtuvieron ms numeros aleatorios de los necesarios, se eliminan.\r\n        if (numerosGanadores.length > 20) {\r\n            borrarNumerosExtra();\r\n        }\r\n        \r\n        //Variables para verificar la apuesta del usuario.\r\n        uint[] memory numerosApostados; //Nmeros que eligi el usuario.\r\n        uint cantidadApostada;          //La cantidad que apost a esos nmeros.\r\n        uint8 aciertos;                 //Cantidad de nmeros que acert el usuario\r\n        uint premio;                    //Premio que le corresponde al usuario en wei.\r\n        bool transferenciaExitosa;      //Indica si se pudo pasar el premio al usuario o no.\r\n        \r\n        //Por cada apuesta que hizo el usuario, se calcula la cantidad de nmeros iguales, su premio y se le manda ese premio.\r\n        for (uint i = 0; i < apuestas[jugador].length; i++) {\r\n            numerosApostados = apuestas[jugador][i].numeros;\r\n            cantidadApostada = apuestas[jugador][i].cantidad;\r\n            \r\n            //Se calcula la cantidad de nmeros iguales y el premio de esta apuesta.\r\n            aciertos = contarAciertos(numerosApostados);\r\n            premio = calcularPremio(numerosApostados.length, aciertos, cantidadApostada);\r\n            \r\n            //Se transfiere el premio al usuario.\r\n            (transferenciaExitosa,) = jugador.call{value: premio}(\"\");\r\n            require(transferenciaExitosa, \"Lo sentimos. El envo de tu premio fall.\");\r\n        \r\n            //Se mandan a consola los resultados.\r\n            emit logResultado(\"A continuacin se muestran los nmeros ganadores, los nmeros que elegiste, los nmeros a los que le atinaste y tu premio en wei:\", numerosGanadores, numerosApostados, aciertos, premio);\r\n        }\r\n        \r\n        //Si ya todos revisaron su resultado, se reinicia el juego.\r\n        if (todosRevisaron()) {\r\n            reiniciarJuego();\r\n        }\r\n    }\r\n    \r\n    function borrarNumerosExtra() private {\r\n        for (uint8 i = 20; i < numerosGanadores.length; i++) {\r\n            numerosObtenidos[numerosGanadores[i]] = false;\r\n            delete numerosGanadores[i];\r\n        }\r\n    }\r\n    \r\n    function contarAciertos(uint[] memory numerosElegidos) private view returns (uint8 aciertos) {\r\n        for (uint8 i = 0; i < numerosElegidos.length; i ++) {\r\n            if (numerosObtenidos[numerosElegidos[i]] == true) {\r\n                aciertos ++;\r\n            }\r\n        }\r\n        return aciertos;\r\n    }\r\n    \r\n    //Clculo del premio con base en las variables recibidas. Premios basados en la pgina 6 de este PDF: https://www.keno.com.au/keno-pdfs/NSW_Game%20Guide.pdf\r\n    function calcularPremio(uint cantidadCasillas, uint8 atinados, uint256 apuesta) private pure returns (uint256) {\r\n        if (cantidadCasillas == 10) {\r\n            if     (atinados == 10) return apuesta * 1000000;\r\n            else if (atinados == 9) return apuesta * 10000;\r\n            else if (atinados == 8) return apuesta * 580;\r\n            else if (atinados == 7) return apuesta * 50;\r\n            else if (atinados == 6) return apuesta * 6;\r\n            else if (atinados == 5) return apuesta * 2;\r\n            else if (atinados == 4) return apuesta;\r\n            else                    return 0;\r\n        }\r\n        else if (cantidadCasillas == 9) {\r\n            if      (atinados == 9) return apuesta * 100000;\r\n            else if (atinados == 8) return apuesta * 2500;\r\n            else if (atinados == 7) return apuesta * 210;\r\n            else if (atinados == 6) return apuesta * 20;\r\n            else if (atinados == 5) return apuesta * 5;\r\n            else if (atinados == 4) return apuesta;\r\n            else                    return 0;\r\n        }\r\n        else if (cantidadCasillas == 8) {\r\n            if      (atinados == 8) return apuesta * 25000;\r\n            else if (atinados == 7) return apuesta * 675;\r\n            else if (atinados == 6) return apuesta * 60;\r\n            else if (atinados == 5) return apuesta * 7;\r\n            else if (atinados == 4) return apuesta * 2;\r\n            else                    return 0;\r\n        }\r\n        else if (cantidadCasillas == 7) {\r\n            if      (atinados == 7) return apuesta * 5000;\r\n            else if (atinados == 6) return apuesta * 125;\r\n            else if (atinados == 5) return apuesta * 12;\r\n            else if (atinados == 4) return apuesta * 3;\r\n            else if (atinados == 3) return apuesta;\r\n            else                    return 0;\r\n        }\r\n        else if (cantidadCasillas == 6) {\r\n            if      (atinados == 6) return apuesta * 1800;\r\n            else if (atinados == 5) return apuesta * 80;\r\n            else if (atinados == 4) return apuesta * 5;\r\n            else if (atinados == 3) return apuesta;\r\n            else                    return 0;\r\n        }\r\n        else if (cantidadCasillas == 5) {\r\n            if      (atinados == 5) return apuesta * 640;\r\n            else if (atinados == 4) return apuesta * 14;\r\n            else if (atinados == 3) return apuesta * 2;\r\n            else                    return 0;\r\n        }\r\n        else if (cantidadCasillas == 4) {\r\n            if (atinados == 4)      return apuesta * 120;\r\n            else if (atinados == 3) return apuesta * 4;\r\n            else if (atinados == 2) return apuesta;\r\n            else                    return 0;\r\n        }\r\n        else if (cantidadCasillas == 3) {\r\n            if (atinados == 3)      return apuesta * 44;\r\n            else if (atinados == 2) return apuesta;\r\n            else                    return 0;\r\n        }\r\n        else if (cantidadCasillas == 2) {\r\n            if (atinados == 2) return apuesta * 12;\r\n            else               return 0;\r\n        }\r\n        else if (cantidadCasillas == 1) {\r\n            if (atinados == 1) return apuesta * 3;\r\n            else               return 0;\r\n        }\r\n    }\r\n    \r\n    //Regresa true si todos los jugadores revisaron su resultado. Si no, regresa false.\r\n    function todosRevisaron() private view returns (bool) {\r\n        for (uint i = 0; i < direccionesJugadores.length; i++) {\r\n            address jugador = direccionesJugadores[i];\r\n            //Si un jugador no ha revisado su resultado, se regresa false.\r\n            if (!revisoResultado[jugador]) {\r\n                return false;\r\n            }\r\n        }\r\n        return true;\r\n    }\r\n    \r\n    //Se reinician todas las variables del juego como si se acabara de lanzar el contrato.\r\n    function reiniciarJuego() private {\r\n        //Se borran las apuestas y direcciones de todos los jugadores.\r\n        for (uint i = 0; i < direccionesJugadores.length; i++) {\r\n            address jugador = direccionesJugadores[i];\r\n            delete apuestas[jugador];\r\n            revisoResultado[jugador] = false;\r\n        }\r\n        delete direccionesJugadores;\r\n        \r\n        //Se reinician todas las variables de estado.\r\n        borrarMapNumeros();\r\n        delete numerosGanadores;\r\n        totalRecaudadoRonda = 0;\r\n        \r\n        //Empieza un nuevo juego.\r\n        generar20Aleatorios();\r\n        recibirJugadores = true;\r\n    }\r\n    \r\n    //Se pone en false los valores del mapping de nmeros.\r\n    function borrarMapNumeros() private {\r\n        for (uint8 i = 1; i < 80; i++) {\r\n            numerosObtenidos[i] = false;\r\n        }\r\n    }\r\n\r\n    //Se enva la solicitud de 20 nmeros aleatorios a Provable.\r\n    function generar20Aleatorios() private {\r\n        for (uint i = 0; i < 30; i++){\r\n        //while (cantidadObtenidos <= 20) {\r\n            provable_newRandomDSQuery(0, 1, 200000); //Valores hardcodeados del original.\r\n        }\r\n    }\r\n    \r\n    //Sobreescritura del callback para la API de Provable.\r\n    function __callback(bytes32 _queryId, string memory _result, bytes memory _proof) public override {\r\n        uint numero;\r\n        require(msg.sender == provable_cbAddress());\r\n        require(provable_randomDS_proofVerify__returnCode(_queryId, _result, _proof) == 0, \"El nmero aleatorio generado no es confiable.\");\r\n        \r\n        //Los nmeros generados son entre 1 y 80.\r\n        numero = ((uint256(keccak256(abi.encodePacked(_result))) % 80) + 1);\r\n        if (numerosObtenidos[numero] == false) {\r\n            numerosGanadores.push(numero);\r\n            numerosObtenidos[numero] = true;\r\n        }\r\n    }\r\n    \r\n}",
  "sourcePath": "C:\\Users\\Microsoft\\Documents\\Blockchains\\Casino_contracts\\contracts\\Keno.sol",
  "compiler": {
    "name": "solc",
    "version": "0.6.6+commit.6c089d02.Emscripten.clang"
  },
  "schemaVersion": "3.2.0",
  "updatedAt": "2020-06-16T01:17:43.745Z",
  "devdoc": {
    "methods": {
      "__callback(bytes32,string)": {
        "details": "The following `__callback` functions are just placeholders ideally     meant to be defined in child contract when proofs are used.     The function bodies simply silence compiler warnings."
      }
    }
  },
  "userdoc": {
    "methods": {}
  }
}