{
  "contractName": "KenoSP",
  "abi": [
    {
      "inputs": [],
      "stateMutability": "payable",
      "type": "constructor"
    },
    {
      "anonymous": false,
      "inputs": [
        {
          "indexed": false,
          "internalType": "string",
          "name": "",
          "type": "string"
        }
      ],
      "name": "logJuego",
      "type": "event"
    },
    {
      "anonymous": false,
      "inputs": [
        {
          "indexed": false,
          "internalType": "string",
          "name": "descripcion",
          "type": "string"
        },
        {
          "indexed": false,
          "internalType": "uint256[]",
          "name": "obtenidos",
          "type": "uint256[]"
        },
        {
          "indexed": false,
          "internalType": "uint256[]",
          "name": "elegidos",
          "type": "uint256[]"
        },
        {
          "indexed": false,
          "internalType": "uint256",
          "name": "atinados",
          "type": "uint256"
        },
        {
          "indexed": false,
          "internalType": "uint256",
          "name": "premio",
          "type": "uint256"
        }
      ],
      "name": "logResultado",
      "type": "event"
    },
    {
      "inputs": [
        {
          "internalType": "uint8",
          "name": "cantidadNumeros",
          "type": "uint8"
        },
        {
          "internalType": "uint256[]",
          "name": "numerosElegidos",
          "type": "uint256[]"
        }
      ],
      "name": "entrarAlJuego",
      "outputs": [],
      "stateMutability": "payable",
      "type": "function"
    },
    {
      "inputs": [],
      "name": "consultarResultado",
      "outputs": [],
      "stateMutability": "nonpayable",
      "type": "function"
    },
    {
      "inputs": [],
      "name": "verEstado",
      "outputs": [
        {
          "internalType": "string",
          "name": "estado",
          "type": "string"
        }
      ],
      "stateMutability": "view",
      "type": "function"
    }
  ],
  "bytecode": "0x60806040526001600060146101000a81548160ff0219169083151502179055506000600155670de0b6b3a7640000341015610086576040517f08c379a000000000000000000000000000000000000000000000000000000000815260040180806020018281038252603c81526020018062001d99603c913960400191505060405180910390fd5b336000806101000a81548173ffffffffffffffffffffffffffffffffffffffff021916908373ffffffffffffffffffffffffffffffffffffffff1602179055506100d46100d960201b60201c565b6101b1565b60008090505b601e81101561015e5760006100f98261016160201b60201c565b905060016003600083815260200190815260200160002060006101000a81548160ff02191690831515021790555060028190806001815401808255809150506001900390600052602060002001600090919091909150555080806001019150506100df565b50565b6000600160504244856040516020018084815260200183815260200182815260200193505050506040516020818303038152906040528051906020012060001c816101a857fe5b06019050919050565b611bd880620001c16000396000f3fe6080604052600436106100345760003560e01c806313e1e67414610039578063333c8a89146100fe578063d5c8a91614610115575b600080fd5b6100fc6004803603604081101561004f57600080fd5b81019080803560ff1690602001909291908035906020019064010000000081111561007957600080fd5b82018360208201111561008b57600080fd5b803590602001918460208302840111640100000000831117156100ad57600080fd5b919080806020026020016040519081016040528093929190818152602001838360200280828437600081840152601f19601f8201169050808301925050505050505091929192905050506101a5565b005b34801561010a57600080fd5b506101136105b4565b005b34801561012157600080fd5b5061012a610bd7565b6040518080602001828103825283818151815260200191508051906020019080838360005b8381101561016a57808201518184015260208101905061014f565b50505050905090810190601f1680156101975780820380516001836020036101000a031916815260200191505b509250505060405180910390f35b600060149054906101000a900460ff1661020a576040517f08c379a000000000000000000000000000000000000000000000000000000000815260040180806020018281038252605281526020018061170f6052913960600191505060405180910390fd5b66b1a2bc2ec5000034101561026a576040517f08c379a0000000000000000000000000000000000000000000000000000000008152600401808060200182810382526037815260200180611a5f6037913960400191505060405180910390fd5b60018260ff16101580156102825750600a8260ff1611155b6102d7576040517f08c379a00000000000000000000000000000000000000000000000000000000081526004018080602001828103825260238152602001806118f86023913960400191505060405180910390fd5b80518260ff1614610333576040517f08c379a0000000000000000000000000000000000000000000000000000000008152600401808060200182810382526033815260200180611a2c6033913960400191505060405180910390fd5b60008090505b8260ff168160ff1610156103e7576001828260ff168151811061035857fe5b60200260200101511015801561038557506050828260ff168151811061037a57fe5b602002602001015111155b6103da576040517f08c379a000000000000000000000000000000000000000000000000000000000815260040180806020018281038252602c815260200180611a96602c913960400191505060405180910390fd5b8080600101915050610339565b506004339080600181540180825580915050600190039060005260206000200160009091909190916101000a81548173ffffffffffffffffffffffffffffffffffffffff021916908373ffffffffffffffffffffffffffffffffffffffff160217905550610453611575565b6040518060400160405280348152602001838152509050600560003373ffffffffffffffffffffffffffffffffffffffff1673ffffffffffffffffffffffffffffffffffffffff1681526020019081526020016000208190806001815401808255809150506001900390600052602060002090600202016000909190919091506000820151816000015560208201518160010190805190602001906104f992919061158f565b5050506000600660003373ffffffffffffffffffffffffffffffffffffffff1673ffffffffffffffffffffffffffffffffffffffff16815260200190815260200160002060006101000a81548160ff021916908315150217905550346001600082825401925050819055507fabc8a8c19003fee98c71ef24b0f5b7f6d032fc212fc9ba079d6fedef23d2677660405180806020018281038252604981526020018061182a6049913960600191505060405180910390a1505050565b60003390506000600560008373ffffffffffffffffffffffffffffffffffffffff1673ffffffffffffffffffffffffffffffffffffffff1681526020019081526020016000208054905011610654576040517f08c379a00000000000000000000000000000000000000000000000000000000081526004018080602001828103825260488152602001806117616048913960600191505060405180910390fd5b600660008273ffffffffffffffffffffffffffffffffffffffff1673ffffffffffffffffffffffffffffffffffffffff16815260200190815260200160002060009054906101000a900460ff16156106f7576040517f08c379a00000000000000000000000000000000000000000000000000000000081526004018080602001828103825260288152602001806116e76028913960400191505060405180910390fd5b60146002805490501015610756576040517f08c379a0000000000000000000000000000000000000000000000000000000008152600401808060200182810382526089815260200180611ac26089913960a00191505060405180910390fd5b60008060146101000a81548160ff0219169083151502179055506001600660008373ffffffffffffffffffffffffffffffffffffffff1673ffffffffffffffffffffffffffffffffffffffff16815260200190815260200160002060006101000a81548160ff021916908315150217905550601460028054905011156107df576107de610d2f565b5b606060008060008060008090505b600560008873ffffffffffffffffffffffffffffffffffffffff1673ffffffffffffffffffffffffffffffffffffffff16815260200190815260200160002080549050811015610bb857600560008873ffffffffffffffffffffffffffffffffffffffff1673ffffffffffffffffffffffffffffffffffffffff168152602001908152602001600020818154811061088157fe5b90600052602060002090600202016001018054806020026020016040519081016040528092919081815260200182805480156108dc57602002820191906000526020600020905b8154815260200190600101908083116108c8575b50505050509550600560008873ffffffffffffffffffffffffffffffffffffffff1673ffffffffffffffffffffffffffffffffffffffff168152602001908152602001600020818154811061092d57fe5b906000526020600020906002020160000154945061094a86610dba565b935061095886518587610e30565b92508673ffffffffffffffffffffffffffffffffffffffff168360405180600001905060006040518083038185875af1925050503d80600081146109b8576040519150601f19603f3d011682016040523d82523d6000602084013e6109bd565b606091505b5050809250508115610abc577f6807e4e1064c6c471a3d420a4c838baa8928befec1d4b8c486a21ee832fb4fa06002878686604051808060200180602001806020018660ff168152602001858152602001848103845260858152602001806118736085913960a0018481038352888181548152602001915080548015610a6257602002820191906000526020600020905b815481526020019060010190808311610a4e575b5050848103825287818151815260200191508051906020019060200280838360005b83811015610a9f578082015181840152602081019050610a84565b5050505090500197505050505050505060405180910390a1610bab565b7f6807e4e1064c6c471a3d420a4c838baa8928befec1d4b8c486a21ee832fb4fa06002878686604051808060200180602001806020018660ff1681526020018581526020018481038452604881526020018061169f604891396060018481038352888181548152602001915080548015610b5557602002820191906000526020600020905b815481526020019060010190808311610b41575b5050848103825287818151815260200191508051906020019060200280838360005b83811015610b92578082015181840152602081019050610b77565b5050505090500197505050505050505060405180910390a15b80806001019150506107ed565b50610bc161123b565b15610bcf57610bce6112ff565b5b505050505050565b6060600060149054906101000a900460ff168015610bfa57506014600280549050105b15610c1f57604051806080016040528060588152602001611b4b605891399050610d2c565b600060149054906101000a900460ff168015610c4057506014600280549050115b8015610c54575066470de4df820000600154105b15610c79576040518060a00160405280607c815260200161191b607c91399050610d2c565b600060149054906101000a900460ff168015610c9a57506014600280549050115b15610cbf576040518060c0016040528060958152602001611997609591399050610d2c565b600060149054906101000a900460ff16610cf3576040518060c00160405280608181526020016117a9608191399050610d2c565b6040518060400160405280601281526020017f4e6f2073c3a9207175c3a920706173c3b32e000000000000000000000000000081525090505b90565b6000601490505b6002805490508160ff161015610db75760006003600060028460ff1681548110610d5c57fe5b9060005260206000200154815260200190815260200160002060006101000a81548160ff02191690831515021790555060028160ff1681548110610d9c57fe5b90600052602060002001600090558080600101915050610d36565b50565b600080600090505b82518160ff161015610e27576001151560036000858460ff1681518110610de557fe5b6020026020010151815260200190815260200160002060009054906101000a900460ff1615151415610e1a5781806001019250505b8080600101915050610dc2565b50809050919050565b6000600a841415610ee657600a8360ff161415610e5457620f424082029050611234565b60098360ff161415610e6c5761271082029050611234565b60088360ff161415610e845761024482029050611234565b60078360ff161415610e9b57603282029050611234565b60068360ff161415610eb257600682029050611234565b60058360ff161415610ec957600282029050611234565b60048360ff161415610edd57819050611234565b60009050611234565b6009841415610f825760098360ff161415610f0857620186a082029050611234565b60088360ff161415610f20576109c482029050611234565b60078360ff161415610f375760d282029050611234565b60068360ff161415610f4e57601482029050611234565b60058360ff161415610f6557600582029050611234565b60048360ff161415610f7957819050611234565b60009050611234565b60088414156110095760088360ff161415610fa3576161a882029050611234565b60078360ff161415610fbb576102a382029050611234565b60068360ff161415610fd257603c82029050611234565b60058360ff161415610fe957600782029050611234565b60048360ff16141561100057600282029050611234565b60009050611234565b600784141561108c5760078360ff16141561102a5761138882029050611234565b60068360ff16141561104157607d82029050611234565b60058360ff16141561105857600c82029050611234565b60048360ff16141561106f57600382029050611234565b60038360ff16141561108357819050611234565b60009050611234565b60068414156110f85760068360ff1614156110ad5761070882029050611234565b60058360ff1614156110c457605082029050611234565b60048360ff1614156110db57600582029050611234565b60038360ff1614156110ef57819050611234565b60009050611234565b60058414156111505760058360ff1614156111195761028082029050611234565b60048360ff16141561113057600e82029050611234565b60038360ff16141561114757600282029050611234565b60009050611234565b60048414156111a45760048360ff16141561117057607882029050611234565b60038360ff16141561118757600482029050611234565b60028360ff16141561119b57819050611234565b60009050611234565b60038414156111e15760038360ff1614156111c457602c82029050611234565b60028360ff1614156111d857819050611234565b60009050611234565b600284141561120a5760028360ff16141561120157600c82029050611234565b60009050611234565b60018414156112335760018360ff16141561122a57600382029050611234565b60009050611234565b5b9392505050565b600080600090505b6004805490508110156112f65760006004828154811061125f57fe5b9060005260206000200160009054906101000a900473ffffffffffffffffffffffffffffffffffffffff169050600660008273ffffffffffffffffffffffffffffffffffffffff1673ffffffffffffffffffffffffffffffffffffffff16815260200190815260200160002060009054906101000a900460ff166112e8576000925050506112fc565b508080600101915050611243565b50600190505b90565b60008090505b6004805490508110156113ff5760006004828154811061132157fe5b9060005260206000200160009054906101000a900473ffffffffffffffffffffffffffffffffffffffff169050600560008273ffffffffffffffffffffffffffffffffffffffff1673ffffffffffffffffffffffffffffffffffffffff168152602001908152602001600020600061139991906115dc565b6000600660008373ffffffffffffffffffffffffffffffffffffffff1673ffffffffffffffffffffffffffffffffffffffff16815260200190815260200160002060006101000a81548160ff021916908315150217905550508080600101915050611305565b506004600061140e9190611600565b611416611451565b600260006114249190611621565b60006001819055506114346114a3565b6001600060146101000a81548160ff021916908315150217905550565b6000600190505b60508160ff1610156114a0576000600360008360ff16815260200190815260200160002060006101000a81548160ff0219169083151502179055508080600101915050611458565b50565b60008090505b601e8110156115225760006114bd82611525565b905060016003600083815260200190815260200160002060006101000a81548160ff02191690831515021790555060028190806001815401808255809150506001900390600052602060002001600090919091909150555080806001019150506114a9565b50565b6000600160504244856040516020018084815260200183815260200182815260200193505050506040516020818303038152906040528051906020012060001c8161156c57fe5b06019050919050565b604051806040016040528060008152602001606081525090565b8280548282559060005260206000209081019282156115cb579160200282015b828111156115ca5782518255916020019190600101906115af565b5b5090506115d89190611642565b5090565b50805460008255600202906000526020600020908101906115fd9190611667565b50565b508054600082559060005260206000209081019061161e9190611642565b50565b508054600082559060005260206000209081019061163f9190611642565b50565b61166491905b80821115611660576000816000905550600101611648565b5090565b90565b61169b91905b808211156116975760008082016000905560018201600061168e9190611621565b5060020161166d565b5090565b9056fe4c6f2073656e74696d6f732c206e6f20707564696d6f7320656e76696172207475207072656d696f203a28204573746f7320667565726f6e206c6f7320726573756c7461646f732e59612072657669736173746520747520726573756c7461646f20656e206573746120726f6e64612e41637475616c6d656e7465206e6f20736520657374c3a16e20726563696269656e646f206e7565766f73206a756761646f7265732e20496e74656e7461206465206e7565766f206dc3a1732074617264652e4e6f20657374c3a173207061727469636970616e646f20656e2065737465206a7565676f2e20496e74656e746120686163657220756e612061707565737461207072696d65726f2e41637475616c6d656e7465206c6f73206a756761646f72657320657374c3a16e20636f6e73756c74616e646f206c6f7320726573756c7461646f732e204e6164696520736520707565646520756e697220616c206a7565676f2068617374612071756520746f646f73207265766973656e2073757320726573756c7461646f732ec2a1457374c3a17320656e20656c206a7565676f212045737065726f20616c67756e6f73206d696e75746f73207061726120636f6e73756c74617220747520726573756c7461646f2e4120636f6e74696e75616369c3b36e207365206d7565737472616e206c6f73206ec3ba6d65726f732067616e61646f7265732c206c6f73206ec3ba6d65726f732071756520656c6567697374652c206c6f73206ec3ba6d65726f732061206c6f7320717565206c65206174696e617374652079207475207072656d696f20656e207765693a446562657320656c6567697220656e7472652031207920313020636173696c6c61732e59612073652067656e657261726f6e206c6f73206ec3ba6d65726f732067616e61646f7265732c207065726f20646562652061756d656e746172206c612073756d61206465206170756573746173207061726120636f6e74696e7561722e20536520646562656e20756e6972206dc3a173206a756761646f7265732e546f646176c3ad61207365206163657074616e206a756761646f72657320656e206573746120726f6e64612c207065726f2079612073652067656e657261726f6e206c6f73206ec3ba6d65726f732067616e61646f7265732079206c612073756d6120646520617075657374617320657320737566696369656e7465207061726120766572206c6f7320726573756c7461646f732e446562657320706f6e65722074616e746f73206ec3ba6d65726f7320636f6d6f20636173696c6c617320656c6567697374652e4c612061707565737461206dc3ad6e696d6120657320302e3035204554482028353030303030303030303030303030303020776569292e546f646f73206c6f73206ec3ba6d65726f7320646562656e20657374617220656e747265203120792038302e41c3ba6e20736520657374c3a16e2067656e6572616e646f206c6f73206ec3ba6d65726f732067616e61646f7265732e20496e74656e74612072657669736172206dc3a173207461726465206f2068617a206f747261206170756573746120706172612061756d656e746172207475732070726f626162696c6964616465732064652067616e61722e5365206163657074616e206a756761646f72657320656e206573746120726f6e64612e20546f646176c3ad6120736520657374c3a16e2067656e6572616e646f206c6f73206ec3ba6d65726f732067616e61646f7265732ea26469706673582212204c42d84cd27914dcde304465a5aaeb856960ab021bd7bf19a0207eb194c6a7b964736f6c63430006060033456c20636f6e747261746f2073652064656265206c616e7a617220636f6e20616c206d656e6f7320312045544820646520696e7665727369c3b36e2e",
  "immutableReferences": {},
  "source": "/**\r\n * Contrato Keno.\r\n * INSTRUCCIONES DE USO:\r\n *  1. Lanzar el contrato con al menos 1 ETH para cubrir premios.\r\n *  2. Presionar entrarAlJuego() mandándole la cantidad de números que quieres jugar y un arreglo con los números\r\n *     que quieres jugar. Por ejemplo, si quieres apostarle a los números 10, 20, 30, mandarías llamar\r\n *     entrarAlJuego(3, [10,20,3]). La cantidad de casillas máxima es 10 y los números deben estar entre 1 y 80. \r\n *     Como value, pasarle al menos 0.05 ETH.\r\n *  3. Después de varios minutos (tal vez 10 o más), presionar consultarResultado() para ver el resultado del juego.\r\n *     Si lanza error, lo más probable es que aún no se haya cubierto la cuota de apuestas de jugadores (~0.2 ETH)\r\n *     o no se hayann generado los números aleatorios. Si lanza error, recomiendo forzar la transacción y ver el\r\n *     error en https://ropsten.etherscan.io/\r\n * \r\n *  NOTAS:\r\n *   - Al lanzar el contrato, se empiezan a generar los números aleatorios. Mientras se generan,\r\n *     cualquiera puede unirse al juego, pero en el momento en que alguien logra ver sus resultados,\r\n *     ya no se admiten más jugadores (para evitar tramposos).\r\n *   - El juego se reinicia cuando el último jugador logra ver sus resultados.\r\n */\r\npragma solidity > 0.6.1 < 0.7.0;\r\n\r\n//import \"github.com/provable-things/ethereum-api/provableAPI_0.6.sol\";\r\n\r\ncontract KenoSP /*is usingProvable*/ {\r\n    address private owner;\r\n    uint private constant APUESTA_MIN = 50000000000000000;\r\n    \r\n    struct Apuesta {\r\n        uint cantidad;      //Cantidad de wei apostado.\r\n        uint[] numeros;     //Números elegidos.\r\n    }\r\n    \r\n    bool private recibirJugadores = true;           //Indica si en el juego actual aún se reciben jugadores.\r\n    uint private totalRecaudadoRonda = 0;               //Cantidad de wei recaudada en esta ronda.\r\n    uint[] private numerosGanadores;                 //Arreglo con los números aleatorios ganadores.\r\n    mapping (uint => bool) private numerosObtenidos; //Map con todos los números aleatorios que se generaron.\r\n    \r\n    address[] direccionesJugadores;                     //Arreglo con las direcciones de todos los jugadores.\r\n    mapping (address => Apuesta[]) private apuestas;    //Map con las apuestas de todos los jugadores.\r\n    mapping (address => bool) private revisoResultado;  //Map que indica si el jugador ya revisó su resultado.\r\n    \r\n    //Eventos para avisar cosas al usuario.\r\n    event logJuego(string);\r\n    event logResultado(string descripcion, uint[] obtenidos, uint[] elegidos, uint atinados, uint premio);\r\n\r\n    //Se requiere lanzar el contrato con al menos 1 ETH.\r\n    constructor() public payable {\r\n        require(msg.value >= 1000000000000000000, \"El contrato se debe lanzar con al menos 1 ETH de inversión.\");\r\n        owner = msg.sender;\r\n        //provable_setProof(proofType_Ledger);\r\n        generar20Aleatorios();\r\n    }\r\n    \r\n    //Se entra al juego eligiendo la cantidad de números que quieres y un arreglo con los números que crees que saldrán.\r\n    //La función es payable, representando la apuesta, la cual debe ser de mínimo 0.05 ETH.\r\n    function entrarAlJuego (uint8 cantidadNumeros, uint[] memory numerosElegidos) public payable {\r\n        //Se verifica el estado de la ronda actual y las entradas del usuario.\r\n        require (recibirJugadores, \"Actualmente no se están recibiendo nuevos jugadores. Intenta de nuevo más tarde.\");\r\n        require (msg.value >= APUESTA_MIN, \"La apuesta mínima es 0.05 ETH (50000000000000000 wei).\");\r\n        require (cantidadNumeros >= 1 && cantidadNumeros <= 10, \"Debes elegir entre 1 y 10 casillas.\");\r\n        require (cantidadNumeros == numerosElegidos.length, \"Debes poner tantos números como casillas elegiste.\");\r\n        for (uint8 i = 0; i < cantidadNumeros; i++) {\r\n            require (numerosElegidos[i] >= 1 && numerosElegidos[i] <= 80, \"Todos los números deben estar entre 1 y 80.\");\r\n        }\r\n        \r\n        //Se guarda la dirección del jugador y las propiedades de su apuesta.\r\n        direccionesJugadores.push(msg.sender);\r\n        Apuesta memory apuestaActual = Apuesta(msg.value, numerosElegidos);\r\n        apuestas[msg.sender].push(apuestaActual);\r\n        revisoResultado[msg.sender] = false;    //El jugador aún no revisa su resultado.\r\n        \r\n        //Se incrementa el total recaudado en esta ronda.\r\n        totalRecaudadoRonda += msg.value;\r\n        \r\n        emit logJuego(\"¡Estás en el juego! Espero algunos minutos para consultar tu resultado.\");\r\n    }\r\n    \r\n    //Después de varios minutos de entrar al juego, puedes consultar tu resultado con esta función.\r\n    function consultarResultado() public {\r\n        address jugador = msg.sender;\r\n        \r\n        //Se revisan las condiciones necesarias para ver el resultado. En las cadenas de los logs dice cuáles son.\r\n        require (apuestas[jugador].length > 0, \"No estás participando en este juego. Intenta hacer una apuesta primero.\");\r\n        require (!revisoResultado[jugador], \"Ya revisaste tu resultado en esta ronda.\");\r\n        //require (totalRecaudadoRonda >= provable_getPrice(\"random\")*30, \"Aún no hay jugadores suficientes en el juego. Haz otra apuesta para reunir más jugadores y aumentar tus probabilidades de ganar o intenta revisar más tarde.\");\r\n        require (numerosGanadores.length >= 20, \"Aún se están generando los números ganadores. Intenta revisar más tarde o haz otra apuesta para aumentar tus probabilidades de ganar.\");\r\n        \r\n        //Los jugadores de la ronda están revisando sus resultados. No se pueden unir nuevos jugadores.\r\n        recibirJugadores = false;\r\n        \r\n        //Indica que este jugador ya revisó su resultado.\r\n        revisoResultado[jugador] = true;\r\n        \r\n        //Si se obtuvieron más numeros aleatorios de los necesarios, se eliminan.\r\n        if (numerosGanadores.length > 20) {\r\n            borrarNumerosExtra();\r\n        }\r\n        \r\n        //Variables para verificar la apuesta del usuario.\r\n        uint[] memory numerosApostados; //Números que eligió el usuario.\r\n        uint cantidadApostada;          //La cantidad que apostó a esos números.\r\n        uint8 aciertos;                 //Cantidad de números que acertó el usuario\r\n        uint premio;                    //Premio que le corresponde al usuario en wei.\r\n        bool transferenciaExitosa;      //Indica si se pudo pasar el premio al usuario o no.\r\n        \r\n        //Por cada apuesta que hizo el usuario, se calcula la cantidad de números iguales, su premio y se le manda ese premio.\r\n        for (uint i = 0; i < apuestas[jugador].length; i++) {\r\n            numerosApostados = apuestas[jugador][i].numeros;\r\n            cantidadApostada = apuestas[jugador][i].cantidad;\r\n            \r\n            //Se calcula la cantidad de números iguales y el premio de esta apuesta.\r\n            aciertos = contarAciertos(numerosApostados);\r\n            premio = calcularPremio(numerosApostados.length, aciertos, cantidadApostada);\r\n            \r\n            //Se transfiere el premio al usuario e informan los resultados.\r\n            (transferenciaExitosa,) = jugador.call{value: premio}(\"\");\r\n            if (transferenciaExitosa) {\r\n                emit logResultado(\"A continuación se muestran los números ganadores, los números que elegiste, los números a los que le atinaste y tu premio en wei:\", numerosGanadores, numerosApostados, aciertos, premio);\r\n            }\r\n            else {\r\n                emit logResultado(\"Lo sentimos, no pudimos enviar tu premio :( Estos fueron los resultados.\", numerosGanadores, numerosApostados, aciertos, premio);\r\n                \r\n            }\r\n        }\r\n        \r\n        //Si ya todos revisaron su resultado, se reinicia el juego.\r\n        if (todosRevisaron()) {\r\n            reiniciarJuego();\r\n        }\r\n    }\r\n    \r\n    function borrarNumerosExtra() private {\r\n        for (uint8 i = 20; i < numerosGanadores.length; i++) {\r\n            numerosObtenidos[numerosGanadores[i]] = false;\r\n            delete numerosGanadores[i];\r\n        }\r\n    }\r\n    \r\n    function contarAciertos(uint[] memory numerosElegidos) private view returns (uint8 aciertos) {\r\n        for (uint8 i = 0; i < numerosElegidos.length; i ++) {\r\n            if (numerosObtenidos[numerosElegidos[i]] == true) {\r\n                aciertos ++;\r\n            }\r\n        }\r\n        return aciertos;\r\n    }\r\n    \r\n    //Cálculo del premio con base en las variables recibidas. Premios basados en la página 6 de este PDF: https://www.keno.com.au/keno-pdfs/NSW_Game%20Guide.pdf\r\n    function calcularPremio(uint cantidadCasillas, uint8 atinados, uint256 apuesta) private pure returns (uint256) {\r\n        if (cantidadCasillas == 10) {\r\n            if     (atinados == 10) return apuesta * 1000000;\r\n            else if (atinados == 9) return apuesta * 10000;\r\n            else if (atinados == 8) return apuesta * 580;\r\n            else if (atinados == 7) return apuesta * 50;\r\n            else if (atinados == 6) return apuesta * 6;\r\n            else if (atinados == 5) return apuesta * 2;\r\n            else if (atinados == 4) return apuesta;\r\n            else                    return 0;\r\n        }\r\n        else if (cantidadCasillas == 9) {\r\n            if      (atinados == 9) return apuesta * 100000;\r\n            else if (atinados == 8) return apuesta * 2500;\r\n            else if (atinados == 7) return apuesta * 210;\r\n            else if (atinados == 6) return apuesta * 20;\r\n            else if (atinados == 5) return apuesta * 5;\r\n            else if (atinados == 4) return apuesta;\r\n            else                    return 0;\r\n        }\r\n        else if (cantidadCasillas == 8) {\r\n            if      (atinados == 8) return apuesta * 25000;\r\n            else if (atinados == 7) return apuesta * 675;\r\n            else if (atinados == 6) return apuesta * 60;\r\n            else if (atinados == 5) return apuesta * 7;\r\n            else if (atinados == 4) return apuesta * 2;\r\n            else                    return 0;\r\n        }\r\n        else if (cantidadCasillas == 7) {\r\n            if      (atinados == 7) return apuesta * 5000;\r\n            else if (atinados == 6) return apuesta * 125;\r\n            else if (atinados == 5) return apuesta * 12;\r\n            else if (atinados == 4) return apuesta * 3;\r\n            else if (atinados == 3) return apuesta;\r\n            else                    return 0;\r\n        }\r\n        else if (cantidadCasillas == 6) {\r\n            if      (atinados == 6) return apuesta * 1800;\r\n            else if (atinados == 5) return apuesta * 80;\r\n            else if (atinados == 4) return apuesta * 5;\r\n            else if (atinados == 3) return apuesta;\r\n            else                    return 0;\r\n        }\r\n        else if (cantidadCasillas == 5) {\r\n            if      (atinados == 5) return apuesta * 640;\r\n            else if (atinados == 4) return apuesta * 14;\r\n            else if (atinados == 3) return apuesta * 2;\r\n            else                    return 0;\r\n        }\r\n        else if (cantidadCasillas == 4) {\r\n            if (atinados == 4)      return apuesta * 120;\r\n            else if (atinados == 3) return apuesta * 4;\r\n            else if (atinados == 2) return apuesta;\r\n            else                    return 0;\r\n        }\r\n        else if (cantidadCasillas == 3) {\r\n            if (atinados == 3)      return apuesta * 44;\r\n            else if (atinados == 2) return apuesta;\r\n            else                    return 0;\r\n        }\r\n        else if (cantidadCasillas == 2) {\r\n            if (atinados == 2) return apuesta * 12;\r\n            else               return 0;\r\n        }\r\n        else if (cantidadCasillas == 1) {\r\n            if (atinados == 1) return apuesta * 3;\r\n            else               return 0;\r\n        }\r\n    }\r\n    \r\n    //Regresa true si todos los jugadores revisaron su resultado. Si no, regresa false.\r\n    function todosRevisaron() private view returns (bool) {\r\n        for (uint i = 0; i < direccionesJugadores.length; i++) {\r\n            address jugador = direccionesJugadores[i];\r\n            //Si un jugador no ha revisado su resultado, se regresa false.\r\n            if (!revisoResultado[jugador]) {\r\n                return false;\r\n            }\r\n        }\r\n        return true;\r\n    }\r\n    \r\n    //Se reinician todas las variables del juego como si se acabara de lanzar el contrato.\r\n    function reiniciarJuego() private {\r\n        //Se borran las apuestas y direcciones de todos los jugadores.\r\n        for (uint i = 0; i < direccionesJugadores.length; i++) {\r\n            address jugador = direccionesJugadores[i];\r\n            delete apuestas[jugador];\r\n            revisoResultado[jugador] = false;\r\n        }\r\n        delete direccionesJugadores;\r\n        \r\n        //Se reinician todas las variables de estado.\r\n        borrarMapNumeros();\r\n        delete numerosGanadores;\r\n        totalRecaudadoRonda = 0;\r\n        \r\n        //Empieza un nuevo juego.\r\n        generar20Aleatorios();\r\n        recibirJugadores = true;\r\n    }\r\n    \r\n    //Se pone en false los valores del mapping de números.\r\n    function borrarMapNumeros() private {\r\n        for (uint8 i = 1; i < 80; i++) {\r\n            numerosObtenidos[i] = false;\r\n        }\r\n    }\r\n    \r\n    //Regresa el estado actual del juego.\r\n    function verEstado() public view returns (string memory estado) {\r\n        if (recibirJugadores && numerosGanadores.length < 20) return \"Se aceptan jugadores en esta ronda. Todavía se están generando los números ganadores.\";\r\n        else if (recibirJugadores && numerosGanadores.length > 20 && totalRecaudadoRonda < 20000000000000000) return \"Ya se generaron los números ganadores, pero debe aumentar la suma de apuestas para continuar. Se deben unir más jugadores.\";\r\n        else if (recibirJugadores && numerosGanadores.length > 20) return \"Todavía se aceptan jugadores en esta ronda, pero ya se generaron los números ganadores y la suma de apuestas es suficiente para ver los resultados.\";\r\n        else if (!recibirJugadores) return \"Actualmente los jugadores están consultando los resultados. Nadie se puede unir al juego hasta que todos revisen sus resultados.\";\r\n        else return \"No sé qué pasó.\";\r\n    }\r\n\r\n    //Se envía la solicitud de 20 números aleatorios a Provable.\r\n    function generar20Aleatorios() private {\r\n        for (uint i = 0; i < 30; i++){\r\n        //while (cantidadObtenidos <= 20) {\r\n            //provable_newRandomDSQuery(0, 1, 200000); //Valores hardcodeados del original.\r\n            uint numero = random(i);\r\n            numerosObtenidos[numero] = true;\r\n            numerosGanadores.push(numero);\r\n        }\r\n    }\r\n    \r\n    function random(uint seed) private view returns (uint) {\r\n       return (uint256(keccak256(abi.encodePacked(block.timestamp, block.difficulty, seed)))%80)+1;\r\n    }\r\n    /*\r\n    //Sobreescritura del callback para la API de Provable.\r\n    function __callback(bytes32 _queryId, string memory _result, bytes memory _proof) public override {\r\n        uint numero;\r\n        require(msg.sender == provable_cbAddress());\r\n        require(provable_randomDS_proofVerify__returnCode(_queryId, _result, _proof) == 0, \"El número aleatorio generado no es confiable.\");\r\n        \r\n        //Los números generados son entre 1 y 80.\r\n        numero = ((uint256(keccak256(abi.encodePacked(_result))) % 80) + 1);\r\n        if (numerosObtenidos[numero] == false) {\r\n            numerosGanadores.push(numero);\r\n            numerosObtenidos[numero] = true;\r\n        }\r\n    }*/\r\n    \r\n}",
  "sourcePath": "C:\\Users\\Microsoft\\Documents\\Blockchains\\Casino_contracts\\contracts\\KenoSP.sol",
  "compiler": {
    "name": "solc",
    "version": "0.6.6+commit.6c089d02.Emscripten.clang"
  },
  "schemaVersion": "3.2.0",
  "updatedAt": "2020-06-16T17:31:49.474Z",
  "devdoc": {
    "methods": {}
  },
  "userdoc": {
    "methods": {}
  }
}