{
  "contractName": "Ruleta",
  "abi": [
    {
      "inputs": [],
      "stateMutability": "payable",
      "type": "constructor",
      "payable": true
    },
    {
      "anonymous": false,
      "inputs": [
        {
          "indexed": false,
          "internalType": "address",
          "name": "user",
          "type": "address"
        },
        {
          "indexed": false,
          "internalType": "uint256",
          "name": "amount",
          "type": "uint256"
        },
        {
          "indexed": false,
          "internalType": "enum Ruleta.BetType",
          "name": "betType",
          "type": "uint8"
        },
        {
          "indexed": false,
          "internalType": "uint256",
          "name": "block",
          "type": "uint256"
        },
        {
          "indexed": false,
          "internalType": "int256",
          "name": "choice",
          "type": "int256"
        },
        {
          "indexed": false,
          "internalType": "bool",
          "name": "jugado",
          "type": "bool"
        },
        {
          "indexed": false,
          "internalType": "uint256",
          "name": "aleatorio",
          "type": "uint256"
        },
        {
          "indexed": false,
          "internalType": "bool",
          "name": "cobrado",
          "type": "bool"
        },
        {
          "indexed": false,
          "internalType": "bool",
          "name": "ganador",
          "type": "bool"
        }
      ],
      "name": "BetPlaced",
      "type": "event"
    },
    {
      "anonymous": false,
      "inputs": [
        {
          "indexed": false,
          "internalType": "uint256",
          "name": "id",
          "type": "uint256"
        },
        {
          "indexed": false,
          "internalType": "address",
          "name": "user",
          "type": "address"
        },
        {
          "indexed": false,
          "internalType": "enum Ruleta.BetType",
          "name": "betType",
          "type": "uint8"
        },
        {
          "indexed": false,
          "internalType": "uint256",
          "name": "block",
          "type": "uint256"
        },
        {
          "indexed": false,
          "internalType": "int256",
          "name": "choice",
          "type": "int256"
        },
        {
          "indexed": false,
          "internalType": "int256",
          "name": "landed",
          "type": "int256"
        },
        {
          "indexed": false,
          "internalType": "bool",
          "name": "win",
          "type": "bool"
        },
        {
          "indexed": false,
          "internalType": "uint256",
          "name": "amount",
          "type": "uint256"
        }
      ],
      "name": "Spin",
      "type": "event"
    },
    {
      "inputs": [
        {
          "internalType": "uint256",
          "name": "",
          "type": "uint256"
        }
      ],
      "name": "BLACK_NUMBERS",
      "outputs": [
        {
          "internalType": "uint8",
          "name": "",
          "type": "uint8"
        }
      ],
      "stateMutability": "view",
      "type": "function",
      "constant": true
    },
    {
      "inputs": [
        {
          "internalType": "int256",
          "name": "",
          "type": "int256"
        }
      ],
      "name": "COLORS",
      "outputs": [
        {
          "internalType": "int256",
          "name": "",
          "type": "int256"
        }
      ],
      "stateMutability": "view",
      "type": "function",
      "constant": true
    },
    {
      "inputs": [],
      "name": "NUM_POCKETS",
      "outputs": [
        {
          "internalType": "uint256",
          "name": "",
          "type": "uint256"
        }
      ],
      "stateMutability": "view",
      "type": "function",
      "constant": true
    },
    {
      "inputs": [
        {
          "internalType": "uint256",
          "name": "",
          "type": "uint256"
        }
      ],
      "name": "RED_NUMBERS",
      "outputs": [
        {
          "internalType": "uint8",
          "name": "",
          "type": "uint8"
        }
      ],
      "stateMutability": "view",
      "type": "function",
      "constant": true
    },
    {
      "inputs": [
        {
          "internalType": "uint256",
          "name": "",
          "type": "uint256"
        }
      ],
      "name": "bets",
      "outputs": [
        {
          "internalType": "address",
          "name": "user",
          "type": "address"
        },
        {
          "internalType": "uint256",
          "name": "amount",
          "type": "uint256"
        },
        {
          "internalType": "enum Ruleta.BetType",
          "name": "betType",
          "type": "uint8"
        },
        {
          "internalType": "uint256",
          "name": "block",
          "type": "uint256"
        },
        {
          "internalType": "int256",
          "name": "choice",
          "type": "int256"
        },
        {
          "internalType": "bool",
          "name": "jugado",
          "type": "bool"
        },
        {
          "internalType": "uint256",
          "name": "aleatorio",
          "type": "uint256"
        },
        {
          "internalType": "bool",
          "name": "cobrado",
          "type": "bool"
        },
        {
          "internalType": "bool",
          "name": "ganador",
          "type": "bool"
        }
      ],
      "stateMutability": "view",
      "type": "function",
      "constant": true
    },
    {
      "inputs": [],
      "name": "counter",
      "outputs": [
        {
          "internalType": "uint256",
          "name": "",
          "type": "uint256"
        }
      ],
      "stateMutability": "view",
      "type": "function",
      "constant": true
    },
    {
      "inputs": [],
      "name": "owner",
      "outputs": [
        {
          "internalType": "address",
          "name": "",
          "type": "address"
        }
      ],
      "stateMutability": "view",
      "type": "function",
      "constant": true
    },
    {
      "inputs": [
        {
          "internalType": "enum Ruleta.BetType",
          "name": "betType",
          "type": "uint8"
        },
        {
          "internalType": "int256",
          "name": "choice",
          "type": "int256"
        }
      ],
      "name": "wager",
      "outputs": [],
      "stateMutability": "payable",
      "type": "function",
      "payable": true
    },
    {
      "inputs": [
        {
          "internalType": "uint256",
          "name": "id",
          "type": "uint256"
        }
      ],
      "name": "spin",
      "outputs": [],
      "stateMutability": "nonpayable",
      "type": "function"
    },
    {
      "inputs": [
        {
          "internalType": "bytes32",
          "name": "_myid",
          "type": "bytes32"
        },
        {
          "internalType": "string",
          "name": "_result",
          "type": "string"
        }
      ],
      "name": "__callback",
      "outputs": [],
      "stateMutability": "nonpayable",
      "type": "function"
    },
    {
      "inputs": [
        {
          "internalType": "bytes32",
          "name": "_queryId",
          "type": "bytes32"
        },
        {
          "internalType": "string",
          "name": "_result",
          "type": "string"
        },
        {
          "internalType": "bytes",
          "name": "_proof",
          "type": "bytes"
        }
      ],
      "name": "__callback",
      "outputs": [],
      "stateMutability": "nonpayable",
      "type": "function"
    },
    {
      "inputs": [
        {
          "internalType": "uint256",
          "name": "id",
          "type": "uint256"
        }
      ],
      "name": "ganador",
      "outputs": [],
      "stateMutability": "nonpayable",
      "type": "function"
    },
    {
      "inputs": [],
      "name": "fund",
      "outputs": [],
      "stateMutability": "payable",
      "type": "function",
      "payable": true
    },
    {
      "inputs": [],
      "name": "kill",
      "outputs": [],
      "stateMutability": "nonpayable",
      "type": "function"
    },
    {
      "inputs": [],
      "name": "valor",
      "outputs": [],
      "stateMutability": "payable",
      "type": "function",
      "payable": true
    }
  ],
  "bytecode": "0x6080604052604051806102400160405280600160ff168152602001600360ff168152602001600560ff168152602001600760ff168152602001600960ff168152602001600c60ff168152602001600e60ff168152602001601060ff168152602001601260ff168152602001601360ff168152602001601560ff168152602001601760ff168152602001601960ff168152602001601b60ff168152602001601e60ff168152602001602060ff168152602001602260ff168152602001602460ff168152506006906012620000d492919062000c7b565b50604051806102400160405280600260ff168152602001600460ff168152602001600660ff168152602001600860ff168152602001600a60ff168152602001600b60ff168152602001600d60ff168152602001600f60ff168152602001601160ff168152602001601460ff168152602001601660ff168152602001601860ff168152602001601a60ff168152602001601c60ff168152602001601d60ff168152602001601f60ff168152602001602160ff168152602001602360ff168152506007906012620001a592919062000c7b565b5033600960006101000a81548173ffffffffffffffffffffffffffffffffffffffff021916908373ffffffffffffffffffffffffffffffffffffffff1602179055506000600a55670de0b6b3a76400003410156200024f576040517f08c379a000000000000000000000000000000000000000000000000000000000815260040180806020018281038252603c81526020018062005101603c913960400191505060405180910390fd5b33600960006101000a81548173ffffffffffffffffffffffffffffffffffffffff021916908373ffffffffffffffffffffffffffffffffffffffff160217905550620002a5603060f81b6200030960201b60201c565b60008090505b6012811015620003025760016008600060068460128110620002c957fe5b602091828204019190069054906101000a900460ff1660ff168152602001908152602001600020819055508080600101915050620002ab565b5062000dfe565b600073ffffffffffffffffffffffffffffffffffffffff16600160009054906101000a900473ffffffffffffffffffffffffffffffffffffffff1673ffffffffffffffffffffffffffffffffffffffff161480620003995750600062000397600160009054906101000a900473ffffffffffffffffffffffffffffffffffffffff166200066c60201b60201c565b145b15620003b357620003b160006200067760201b60201c565b505b600160009054906101000a900473ffffffffffffffffffffffffffffffffffffffff1673ffffffffffffffffffffffffffffffffffffffff166338cc48316040518163ffffffff1660e01b8152600401602060405180830381600087803b1580156200041e57600080fd5b505af115801562000433573d6000803e3d6000fd5b505050506040513d60208110156200044a57600080fd5b810190808051906020019092919050505073ffffffffffffffffffffffffffffffffffffffff166000809054906101000a900473ffffffffffffffffffffffffffffffffffffffff1673ffffffffffffffffffffffffffffffffffffffff16146200059757600160009054906101000a900473ffffffffffffffffffffffffffffffffffffffff1673ffffffffffffffffffffffffffffffffffffffff166338cc48316040518163ffffffff1660e01b8152600401602060405180830381600087803b1580156200051a57600080fd5b505af11580156200052f573d6000803e3d6000fd5b505050506040513d60208110156200054657600080fd5b81019080805190602001909291905050506000806101000a81548173ffffffffffffffffffffffffffffffffffffffff021916908373ffffffffffffffffffffffffffffffffffffffff1602179055505b6000809054906101000a900473ffffffffffffffffffffffffffffffffffffffff1673ffffffffffffffffffffffffffffffffffffffff1663688dcfd7826040518263ffffffff1660e01b815260040180827effffffffffffffffffffffffffffffffffffffffffffffffffffffffffffff19167effffffffffffffffffffffffffffffffffffffffffffffffffffffffffffff19168152602001915050600060405180830381600087803b1580156200065057600080fd5b505af115801562000665573d6000803e3d6000fd5b5050505050565b6000813b9050919050565b6000620006896200069060201b60201c565b9050919050565b600080620006b8731d3b2638a7cc9f2cb3d298a3da7a90b67e5506ed6200066c60201b60201c565b11156200076457731d3b2638a7cc9f2cb3d298a3da7a90b67e5506ed600160006101000a81548173ffffffffffffffffffffffffffffffffffffffff021916908373ffffffffffffffffffffffffffffffffffffffff1602179055506200075a6040518060400160405280600b81526020017f6574685f6d61696e6e657400000000000000000000000000000000000000000081525062000c5f60201b60201c565b6001905062000c5c565b60006200078b73c03a2615d5efaf5f49f60b7bb6583eaec212fdf16200066c60201b60201c565b1115620008375773c03a2615d5efaf5f49f60b7bb6583eaec212fdf1600160006101000a81548173ffffffffffffffffffffffffffffffffffffffff021916908373ffffffffffffffffffffffffffffffffffffffff1602179055506200082d6040518060400160405280600c81526020017f6574685f726f707374656e33000000000000000000000000000000000000000081525062000c5f60201b60201c565b6001905062000c5c565b60006200085e73b7a07bcf2ba2f2703b24c0691b5278999c59ac7e6200066c60201b60201c565b11156200090a5773b7a07bcf2ba2f2703b24c0691b5278999c59ac7e600160006101000a81548173ffffffffffffffffffffffffffffffffffffffff021916908373ffffffffffffffffffffffffffffffffffffffff160217905550620009006040518060400160405280600981526020017f6574685f6b6f76616e000000000000000000000000000000000000000000000081525062000c5f60201b60201c565b6001905062000c5c565b60006200093173146500cfd35b22e4a392fe0adc06de1a1368ed486200066c60201b60201c565b1115620009dd5773146500cfd35b22e4a392fe0adc06de1a1368ed48600160006101000a81548173ffffffffffffffffffffffffffffffffffffffff021916908373ffffffffffffffffffffffffffffffffffffffff160217905550620009d36040518060400160405280600b81526020017f6574685f72696e6b65627900000000000000000000000000000000000000000081525062000c5f60201b60201c565b6001905062000c5c565b600062000a0473a2998efd205fb9d4b4963afb70778d6354ad3a416200066c60201b60201c565b111562000ab05773a2998efd205fb9d4b4963afb70778d6354ad3a41600160006101000a81548173ffffffffffffffffffffffffffffffffffffffff021916908373ffffffffffffffffffffffffffffffffffffffff16021790555062000aa66040518060400160405280600a81526020017f6574685f676f65726c690000000000000000000000000000000000000000000081525062000c5f60201b60201c565b6001905062000c5c565b600062000ad7736f485c8bf6fc43ea212e93bbf8ce046c7f1cb4756200066c60201b60201c565b111562000b3d57736f485c8bf6fc43ea212e93bbf8ce046c7f1cb475600160006101000a81548173ffffffffffffffffffffffffffffffffffffffff021916908373ffffffffffffffffffffffffffffffffffffffff1602179055506001905062000c5c565b600062000b647320e12a1f859b3feae5fb2a0a32c18f5a65555bbf6200066c60201b60201c565b111562000bca577320e12a1f859b3feae5fb2a0a32c18f5a65555bbf600160006101000a81548173ffffffffffffffffffffffffffffffffffffffff021916908373ffffffffffffffffffffffffffffffffffffffff1602179055506001905062000c5c565b600062000bf17351efaf4c8b3c9afbd5ab9f4bbc82784ab6ef8faa6200066c60201b60201c565b111562000c57577351efaf4c8b3c9afbd5ab9f4bbc82784ab6ef8faa600160006101000a81548173ffffffffffffffffffffffffffffffffffffffff021916908373ffffffffffffffffffffffffffffffffffffffff1602179055506001905062000c5c565b600090505b90565b806002908051906020019062000c7792919062000d1c565b5050565b826012601f0160209004810192821562000d095791602002820160005b8382111562000cd857835183826101000a81548160ff021916908360ff160217905550926020019260010160208160000104928301926001030262000c98565b801562000d075782816101000a81549060ff021916905560010160208160000104928301926001030262000cd8565b505b50905062000d18919062000da3565b5090565b828054600181600116156101000203166002900490600052602060002090601f016020900481019282601f1062000d5f57805160ff191683800117855562000d90565b8280016001018555821562000d90579182015b8281111562000d8f57825182559160200191906001019062000d72565b5b50905062000d9f919062000dd6565b5090565b62000dd391905b8082111562000dcf57600081816101000a81549060ff02191690555060010162000daa565b5090565b90565b62000dfb91905b8082111562000df757600081600090555060010162000ddd565b5090565b90565b6142f38062000e0e6000396000f3fe6080604052600436106100e85760003560e01c806361bc221a1161008a5780639b43a0e9116100595780639b43a0e9146105ed578063a5b6ea8f14610628578063b60d428814610663578063ecbac7cf1461066d576100e8565b806361bc221a146104db5780638311e9c4146105065780638da5cb5b1461054157806398ebcde914610598576100e8565b806338bbfa50116100c657806338bbfa50146102e157806341c0e1b51461044a5780634b2fd52e146104615780635c5d06941461048c576100e8565b806322af00fa146100ed57806327dc297e146101ba57806329607a231461028c575b600080fd5b3480156100f957600080fd5b506101266004803603602081101561011057600080fd5b8101908080359060200190929190505050610677565b604051808a73ffffffffffffffffffffffffffffffffffffffff1673ffffffffffffffffffffffffffffffffffffffff16815260200189815260200188600281111561016e57fe5b60ff168152602001878152602001868152602001851515151581526020018481526020018315151515815260200182151515158152602001995050505050505050505060405180910390f35b3480156101c657600080fd5b5061028a600480360360408110156101dd57600080fd5b81019080803590602001909291908035906020019064010000000081111561020457600080fd5b82018360208201111561021657600080fd5b8035906020019184600183028401116401000000008311171561023857600080fd5b91908080601f016020809104026020016040519081016040528093929190818152602001838380828437600081840152601f19601f820116905080830192505050505050509192919290505050610719565b005b34801561029857600080fd5b506102c5600480360360208110156102af57600080fd5b8101908080359060200190929190505050610773565b604051808260ff1660ff16815260200191505060405180910390f35b3480156102ed57600080fd5b506104486004803603606081101561030457600080fd5b81019080803590602001909291908035906020019064010000000081111561032b57600080fd5b82018360208201111561033d57600080fd5b8035906020019184600183028401116401000000008311171561035f57600080fd5b91908080601f016020809104026020016040519081016040528093929190818152602001838380828437600081840152601f19601f820116905080830192505050505050509192919290803590602001906401000000008111156103c257600080fd5b8201836020820111156103d457600080fd5b803590602001918460018302840111640100000000831117156103f657600080fd5b91908080601f016020809104026020016040519081016040528093929190818152602001838380828437600081840152601f19601f82011690508083019250505050505050919291929050505061079a565b005b34801561045657600080fd5b5061045f6108e2565b005b34801561046d57600080fd5b50610476610955565b6040518082815260200191505060405180910390f35b34801561049857600080fd5b506104c5600480360360208110156104af57600080fd5b810190808035906020019092919050505061095a565b6040518082815260200191505060405180910390f35b3480156104e757600080fd5b506104f0610972565b6040518082815260200191505060405180910390f35b61053f6004803603604081101561051c57600080fd5b81019080803560ff16906020019092919080359060200190929190505050610978565b005b34801561054d57600080fd5b50610556610c8a565b604051808273ffffffffffffffffffffffffffffffffffffffff1673ffffffffffffffffffffffffffffffffffffffff16815260200191505060405180910390f35b3480156105a457600080fd5b506105d1600480360360208110156105bb57600080fd5b8101908080359060200190929190505050610cb0565b604051808260ff1660ff16815260200191505060405180910390f35b3480156105f957600080fd5b506106266004803603602081101561061057600080fd5b8101908080359060200190929190505050610cd7565b005b34801561063457600080fd5b506106616004803603602081101561064b57600080fd5b81019080803590602001909291905050506110bf565b005b61066b6111b0565b005b6106756111b2565b005b600b6020528060005260406000206000915090508060000160009054906101000a900473ffffffffffffffffffffffffffffffffffffffff16908060010154908060020160009054906101000a900460ff16908060030154908060040154908060050160009054906101000a900460ff16908060060154908060070160009054906101000a900460ff16908060070160019054906101000a900460ff16905089565b61076f8282600067ffffffffffffffff8111801561073657600080fd5b506040519080825280601f01601f1916602001820160405280156107695781602001600182028036833780820191505090505b5061079a565b5050565b6006816012811061078057fe5b60209182820401919006915054906101000a900460ff1681565b6107a26111b4565b73ffffffffffffffffffffffffffffffffffffffff163373ffffffffffffffffffffffffffffffffffffffff16146107d957600080fd5b60006107e68484846114d3565b60ff161461083f576040517f08c379a000000000000000000000000000000000000000000000000000000000815260040180806020018281038252602e815260200180614250602e913960400191505060405180910390fd5b60016024836040516020018082805190602001908083835b6020831061087a5780518252602082019150602081019050602083039250610857565b6001836020036101000a0380198251168184511680821785525050505050509050019150506040516020818303038152906040528051906020012060001c816108bf57fe5b0601600b6000600554815260200190815260200160002060060181905550505050565b600960009054906101000a900473ffffffffffffffffffffffffffffffffffffffff1673ffffffffffffffffffffffffffffffffffffffff163373ffffffffffffffffffffffffffffffffffffffff161461093c57600080fd5b3373ffffffffffffffffffffffffffffffffffffffff16ff5b602481565b60086020528060005260406000206000915090505481565b600a5481565b6000341161098557600080fd5b6000600281111561099257fe5b82600281111561099e57fe5b14156109c15760008114806109b35750600181145b6109bc57600080fd5b610a39565b600160028111156109ce57fe5b8260028111156109da57fe5b1415610a0057600181121580156109f2575060248113155b6109fb57600080fd5b610a38565b600280811115610a0c57fe5b826002811115610a1857fe5b1415610a37576000811480610a2d5750600181145b610a3657600080fd5b5b5b5b600a600081548092919060010191905055506040518061012001604052803373ffffffffffffffffffffffffffffffffffffffff168152602001348152602001836002811115610a8557fe5b81526020014381526020018281526020016000151581526020016000815260200160001515815260200160001515815250600b6000600a54815260200190815260200160002060008201518160000160006101000a81548173ffffffffffffffffffffffffffffffffffffffff021916908373ffffffffffffffffffffffffffffffffffffffff1602179055506020820151816001015560408201518160020160006101000a81548160ff02191690836002811115610b4057fe5b0217905550606082015181600301556080820151816004015560a08201518160050160006101000a81548160ff02191690831515021790555060c0820151816006015560e08201518160070160006101000a81548160ff0219169083151502179055506101008201518160070160016101000a81548160ff0219169083151502179055509050507fa966e2287faf4f956c62ea25a066d252ca665d33b5d30d36ada97ff0568739ee3334844385600080600080604051808a73ffffffffffffffffffffffffffffffffffffffff1673ffffffffffffffffffffffffffffffffffffffff168152602001898152602001886002811115610c3b57fe5b60ff168152602001878152602001868152602001851515151581526020018481526020018315151515815260200182151515158152602001995050505050505050505060405180910390a15050565b600960009054906101000a900473ffffffffffffffffffffffffffffffffffffffff1681565b60078160128110610cbd57fe5b60209182820401919006915054906101000a900460ff1681565b6000600b60008381526020019081526020016000209050600080905060008090508260070160009054906101000a900460ff1615156000151514610d1a57600080fd5b8260000160009054906101000a900473ffffffffffffffffffffffffffffffffffffffff1673ffffffffffffffffffffffffffffffffffffffff163373ffffffffffffffffffffffffffffffffffffffff1614610d7657600080fd5b8260030154431015610d8757600080fd5b6001600b600086815260200190815260200160002060070160006101000a81548160ff02191690831515021790555060008360060154905060006002811115610dcc57fe5b8460020160009054906101000a900460ff166002811115610de957fe5b1415610e7557600081138015610e15575083600401546008600083815260200190815260200160002054145b15610e7057600284600101540291503373ffffffffffffffffffffffffffffffffffffffff166108fc839081150290604051600060405180830381858888f19350505050158015610e6a573d6000803e3d6000fd5b50600192505b610fb9565b60016002811115610e8257fe5b8460020160009054906101000a900460ff166002811115610e9f57fe5b1415610f0c578360040154811415610f0757600484600101540291503373ffffffffffffffffffffffffffffffffffffffff166108fc839081150290604051600060405180830381858888f19350505050158015610f01573d6000803e3d6000fd5b50600192505b610fb8565b600280811115610f1857fe5b8460020160009054906101000a900460ff166002811115610f3557fe5b1415610fb75760018460040154016012028113158015610f5b5750836004015460120281135b15610fb657600284600101540291503373ffffffffffffffffffffffffffffffffffffffff166108fc839081150290604051600060405180830381858888f19350505050158015610fb0573d6000803e3d6000fd5b50600192505b5b5b5b600115158315151415610ff6576001600b600087815260200190815260200160002060070160016101000a81548160ff0219169083151502179055505b7f9ea37f9dcbbc33196d55ebd589a3c9749f890f00075dd6419ca04d6a27c9fee385338660020160009054906101000a900460ff16438860040154868989604051808981526020018873ffffffffffffffffffffffffffffffffffffffff1673ffffffffffffffffffffffffffffffffffffffff16815260200187600281111561107c57fe5b60ff168152602001868152602001858152602001848152602001831515151581526020018281526020019850505050505050505060405180910390a15050505050565b806005819055506000600b60008381526020019081526020016000209050600015158160050160009054906101000a900460ff161515146110ff57600080fd5b8060000160009054906101000a900473ffffffffffffffffffffffffffffffffffffffff1673ffffffffffffffffffffffffffffffffffffffff163373ffffffffffffffffffffffffffffffffffffffff161461115b57600080fd5b806003015443101561116c57600080fd5b6001600b600084815260200190815260200160002060050160006101000a81548160ff0219169083151502179055506111ab6000600162030d40611603565b505050565b565b565b60008073ffffffffffffffffffffffffffffffffffffffff16600160009054906101000a900473ffffffffffffffffffffffffffffffffffffffff1673ffffffffffffffffffffffffffffffffffffffff16148061123c5750600061123a600160009054906101000a900473ffffffffffffffffffffffffffffffffffffffff16611c28565b145b1561124d5761124b6000611c33565b505b600160009054906101000a900473ffffffffffffffffffffffffffffffffffffffff1673ffffffffffffffffffffffffffffffffffffffff166338cc48316040518163ffffffff1660e01b8152600401602060405180830381600087803b1580156112b757600080fd5b505af11580156112cb573d6000803e3d6000fd5b505050506040513d60208110156112e157600080fd5b810190808051906020019092919050505073ffffffffffffffffffffffffffffffffffffffff166000809054906101000a900473ffffffffffffffffffffffffffffffffffffffff1673ffffffffffffffffffffffffffffffffffffffff161461142a57600160009054906101000a900473ffffffffffffffffffffffffffffffffffffffff1673ffffffffffffffffffffffffffffffffffffffff166338cc48316040518163ffffffff1660e01b8152600401602060405180830381600087803b1580156113af57600080fd5b505af11580156113c3573d6000803e3d6000fd5b505050506040513d60208110156113d957600080fd5b81019080805190602001909291905050506000806101000a81548173ffffffffffffffffffffffffffffffffffffffff021916908373ffffffffffffffffffffffffffffffffffffffff1602179055505b6000809054906101000a900473ffffffffffffffffffffffffffffffffffffffff1673ffffffffffffffffffffffffffffffffffffffff1663c281d19e6040518163ffffffff1660e01b8152600401602060405180830381600087803b15801561149357600080fd5b505af11580156114a7573d6000803e3d6000fd5b505050506040513d60208110156114bd57600080fd5b8101908080519060200190929190505050905090565b60007f4c000000000000000000000000000000000000000000000000000000000000008260008151811061150357fe5b602001015160f81c60f81b7effffffffffffffffffffffffffffffffffffffffffffffffffffffffffffff191614158061159657507f50000000000000000000000000000000000000000000000000000000000000008260018151811061156657fe5b602001015160f81c60f81b7effffffffffffffffffffffffffffffffffffffffffffffffffffffffffffff191614155b806115c25750600160ff16826002815181106115ae57fe5b602001015160f81c60f81b60f81c60ff1614155b156115d057600190506115fc565b60006115e58386866115e0611c44565b611ce6565b9050806115f65760029150506115fc565b60009150505b9392505050565b60008083118015611615575060208311155b61161e57600080fd5b600a840293506060600167ffffffffffffffff8111801561163e57600080fd5b506040519080825280601f01601f1916602001820160405280156116715781602001600182028036833780820191505090505b5090508360f81b8160008151811061168557fe5b60200101907effffffffffffffffffffffffffffffffffffffffffffffffffffffffffffff1916908160001a9053506060602067ffffffffffffffff811180156116ce57600080fd5b506040519080825280601f01601f1916602001820160405280156117015781602001600182028036833780820191505090505b5090506060602067ffffffffffffffff8111801561171e57600080fd5b506040519080825280601f01601f1916602001820160405280156117515781602001600182028036833780820191505090505b509050600061175e612405565b9050602083524241186001430340186020840152602082528060208301526060602067ffffffffffffffff8111801561179657600080fd5b506040519080825280601f01601f1916602001820160405280156117c95781602001600182028036833780820191505090505b5090508860208201526060600867ffffffffffffffff811180156117ec57600080fd5b506040519080825280601f01601f19166020018201604052801561181f5781602001600182028036833780820191505090505b5090506118328260186008846000612722565b5061183b614169565b604051806080016040528087815260200188815260200186815260200184815250905060006118a06040518060400160405280600681526020017f72616e646f6d0000000000000000000000000000000000000000000000000000815250838c612781565b90506060600867ffffffffffffffff811180156118bc57600080fd5b506040519080825280601f01601f1916602001820160405280156118ef5781602001600182028036833780820191505090505b50905060208401517f0100000000000000000000000000000000000000000000000000000000000000810460278301537e01000000000000000000000000000000000000000000000000000000000000810460268301537d010000000000000000000000000000000000000000000000000000000000810460258301537c0100000000000000000000000000000000000000000000000000000000810460248301537b01000000000000000000000000000000000000000000000000000000810460238301537a010000000000000000000000000000000000000000000000000000810460228301537901000000000000000000000000000000000000000000000000008104602183015378010000000000000000000000000000000000000000000000008104602083015350611c15828285600160048110611a2e57fe5b6020020151600287600060048110611a4257fe5b60200201516040518082805190602001908083835b60208310611a7a5780518252602082019150602081019050602083039250611a57565b6001836020036101000a038019825116818451168082178552505050505050905001915050602060405180830381855afa158015611abc573d6000803e3d6000fd5b5050506040513d6020811015611ad157600080fd5b810190808051906020019092919050505087600260048110611aef57fe5b60200201516040516020018085805190602001908083835b60208310611b2a5780518252602082019150602081019050602083039250611b07565b6001836020036101000a03801982511681845116808217855250505050505090500184805190602001908083835b60208310611b7b5780518252602082019150602081019050602083039250611b58565b6001836020036101000a03801982511681845116808217855250505050505090500183815260200182805190602001908083835b60208310611bd25780518252602082019150602081019050602083039250611baf565b6001836020036101000a03801982511681845116808217855250505050505090500194505050505060405160208183030381529060405280519060200120612b05565b8199505050505050505050509392505050565b6000813b9050919050565b6000611c3d612b21565b9050919050565b606060028054600181600116156101000203166002900480601f016020809104026020016040519081016040528092919081815260200182805460018160011615610100020316600290048015611cdc5780601f10611cb157610100808354040283529160200191611cdc565b820191906000526020600020905b815481529060010190602001808311611cbf57829003601f168201915b5050505050905090565b6000806020600287604581518110611cfa57fe5b602001015160f81c60f81b60f81c60ff16016044010190506060602067ffffffffffffffff81118015611d2c57600080fd5b506040519080825280601f01601f191660200182016040528015611d5f5781602001600182028036833780820191505090505b509050611d7187836020846000612722565b50600284876040516020018083805190602001908083835b60208310611dac5780518252602082019150602081019050602083039250611d89565b6001836020036101000a038019825116818451168082178552505050505050905001828152602001925050506040516020818303038152906040526040518082805190602001908083835b60208310611e1a5780518252602082019150602081019050602083039250611df7565b6001836020036101000a038019825116818451168082178552505050505050905001915050602060405180830381855afa158015611e5c573d6000803e3d6000fd5b5050506040513d6020811015611e7157600080fd5b81019080805190602001909291905050506040516020018082815260200191505060405160208183030381529060405280519060200120818051906020012014611ec0576000925050506123fd565b60606002886001604986010181518110611ed657fe5b602001015160f81c60f81b60f81c60ff160167ffffffffffffffff81118015611efe57600080fd5b506040519080825280601f01601f191660200182016040528015611f315781602001600182028036833780820191505090505b509050611f4688604985018351846000612722565b506120116002826040518082805190602001908083835b60208310611f805780518252602082019150602081019050602083039250611f5d565b6001836020036101000a038019825116818451168082178552505050505050905001915050602060405180830381855afa158015611fc2573d6000803e3d6000fd5b5050506040513d6020811015611fd757600080fd5b8101908080519060200190929190505050878a6008602088010181518110611ffb57fe5b602001015160f81c60f81b60f81c60ff16613078565b61202157600093505050506123fd565b6060602967ffffffffffffffff8111801561203b57600080fd5b506040519080825280601f01601f19166020018201604052801561206e5781602001600182028036833780820191505090505b50905061208389602086016029846000612722565b506060604067ffffffffffffffff8111801561209e57600080fd5b506040519080825280601f01601f1916602001820160405280156120d15781602001600182028036833780820191505090505b50905060006041845160296020890101010190506120f78b604083036040856000612722565b5060006002836040518082805190602001908083835b60208310612130578051825260208201915060208101905060208303925061210d565b6001836020036101000a038019825116818451168082178552505050505050905001915050602060405180830381855afa158015612172573d6000803e3d6000fd5b5050506040513d602081101561218757600080fd5b8101908080519060200190929190505050905083816040516020018083805190602001908083835b602083106121d257805182526020820191506020810190506020830392506121af565b6001836020036101000a0380198251168184511680821785525050505050509050018281526020019250505060405160208183030381529060405280519060200120600360008d815260200190815260200160002054141561224a57600360008c81526020019081526020016000206000905561225a565b60009750505050505050506123fd565b6060604967ffffffffffffffff8111801561227457600080fd5b506040519080825280601f01601f1916602001820160405280156122a75781602001600182028036833780820191505090505b5090506122b98d896049846000612722565b506123626002826040518082805190602001908083835b602083106122f357805182526020820191506020810190506020830392506122d0565b6001836020036101000a038019825116818451168082178552505050505050905001915050602060405180830381855afa158015612335573d6000803e3d6000fd5b5050506040513d602081101561234a57600080fd5b81019080805190602001909291905050508786613128565b612377576000985050505050505050506123fd565b6004600083815260200190815260200160002060009054906101000a900460ff166123d1576123a68d84613314565b6004600084815260200190815260200160002060006101000a81548160ff0219169083151502179055505b6004600083815260200190815260200160002060009054906101000a900460ff16985050505050505050505b949350505050565b60008073ffffffffffffffffffffffffffffffffffffffff16600160009054906101000a900473ffffffffffffffffffffffffffffffffffffffff1673ffffffffffffffffffffffffffffffffffffffff16148061248d5750600061248b600160009054906101000a900473ffffffffffffffffffffffffffffffffffffffff16611c28565b145b1561249e5761249c6000611c33565b505b600160009054906101000a900473ffffffffffffffffffffffffffffffffffffffff1673ffffffffffffffffffffffffffffffffffffffff166338cc48316040518163ffffffff1660e01b8152600401602060405180830381600087803b15801561250857600080fd5b505af115801561251c573d6000803e3d6000fd5b505050506040513d602081101561253257600080fd5b810190808051906020019092919050505073ffffffffffffffffffffffffffffffffffffffff166000809054906101000a900473ffffffffffffffffffffffffffffffffffffffff1673ffffffffffffffffffffffffffffffffffffffff161461267b57600160009054906101000a900473ffffffffffffffffffffffffffffffffffffffff1673ffffffffffffffffffffffffffffffffffffffff166338cc48316040518163ffffffff1660e01b8152600401602060405180830381600087803b15801561260057600080fd5b505af1158015612614573d6000803e3d6000fd5b505050506040513d602081101561262a57600080fd5b81019080805190602001909291905050506000806101000a81548173ffffffffffffffffffffffffffffffffffffffff021916908373ffffffffffffffffffffffffffffffffffffffff1602179055505b6000809054906101000a900473ffffffffffffffffffffffffffffffffffffffff1673ffffffffffffffffffffffffffffffffffffffff1663abaa5f3e6040518163ffffffff1660e01b815260040160206040518083038186803b1580156126e257600080fd5b505afa1580156126f6573d6000803e3d6000fd5b505050506040513d602081101561270c57600080fd5b8101908080519060200190929190505050905090565b606060008285019050808451101561273957600080fd5b600086602001905060008460200190505b868860200101821015612772578189015180828801525060208201915060208101905061274a565b85935050505095945050505050565b60008073ffffffffffffffffffffffffffffffffffffffff16600160009054906101000a900473ffffffffffffffffffffffffffffffffffffffff1673ffffffffffffffffffffffffffffffffffffffff16148061280957506000612807600160009054906101000a900473ffffffffffffffffffffffffffffffffffffffff16611c28565b145b1561281a576128186000611c33565b505b600160009054906101000a900473ffffffffffffffffffffffffffffffffffffffff1673ffffffffffffffffffffffffffffffffffffffff166338cc48316040518163ffffffff1660e01b8152600401602060405180830381600087803b15801561288457600080fd5b505af1158015612898573d6000803e3d6000fd5b505050506040513d60208110156128ae57600080fd5b810190808051906020019092919050505073ffffffffffffffffffffffffffffffffffffffff166000809054906101000a900473ffffffffffffffffffffffffffffffffffffffff1673ffffffffffffffffffffffffffffffffffffffff16146129f757600160009054906101000a900473ffffffffffffffffffffffffffffffffffffffff1673ffffffffffffffffffffffffffffffffffffffff166338cc48316040518163ffffffff1660e01b8152600401602060405180830381600087803b15801561297c57600080fd5b505af1158015612990573d6000803e3d6000fd5b505050506040513d60208110156129a657600080fd5b81019080805190602001909291905050506000806101000a81548173ffffffffffffffffffffffffffffffffffffffff021916908373ffffffffffffffffffffffffffffffffffffffff1602179055505b6060600467ffffffffffffffff81118015612a1157600080fd5b50604051908082528060200260200182016040528015612a4557816020015b6060815260200190600190039081612a305790505b50905083600060048110612a5557fe5b602002015181600081518110612a6757fe5b602002602001018190525083600160048110612a7f57fe5b602002015181600181518110612a9157fe5b602002602001018190525083600260048110612aa957fe5b602002015181600281518110612abb57fe5b602002602001018190525083600360048110612ad357fe5b602002015181600381518110612ae557fe5b6020026020010181905250612afb8582856137a0565b9150509392505050565b8060036000848152602001908152602001600020819055505050565b600080612b41731d3b2638a7cc9f2cb3d298a3da7a90b67e5506ed611c28565b1115612be357731d3b2638a7cc9f2cb3d298a3da7a90b67e5506ed600160006101000a81548173ffffffffffffffffffffffffffffffffffffffff021916908373ffffffffffffffffffffffffffffffffffffffff160217905550612bda6040518060400160405280600b81526020017f6574685f6d61696e6e6574000000000000000000000000000000000000000000815250613d02565b60019050613075565b6000612c0273c03a2615d5efaf5f49f60b7bb6583eaec212fdf1611c28565b1115612ca45773c03a2615d5efaf5f49f60b7bb6583eaec212fdf1600160006101000a81548173ffffffffffffffffffffffffffffffffffffffff021916908373ffffffffffffffffffffffffffffffffffffffff160217905550612c9b6040518060400160405280600c81526020017f6574685f726f707374656e330000000000000000000000000000000000000000815250613d02565b60019050613075565b6000612cc373b7a07bcf2ba2f2703b24c0691b5278999c59ac7e611c28565b1115612d655773b7a07bcf2ba2f2703b24c0691b5278999c59ac7e600160006101000a81548173ffffffffffffffffffffffffffffffffffffffff021916908373ffffffffffffffffffffffffffffffffffffffff160217905550612d5c6040518060400160405280600981526020017f6574685f6b6f76616e0000000000000000000000000000000000000000000000815250613d02565b60019050613075565b6000612d8473146500cfd35b22e4a392fe0adc06de1a1368ed48611c28565b1115612e265773146500cfd35b22e4a392fe0adc06de1a1368ed48600160006101000a81548173ffffffffffffffffffffffffffffffffffffffff021916908373ffffffffffffffffffffffffffffffffffffffff160217905550612e1d6040518060400160405280600b81526020017f6574685f72696e6b656279000000000000000000000000000000000000000000815250613d02565b60019050613075565b6000612e4573a2998efd205fb9d4b4963afb70778d6354ad3a41611c28565b1115612ee75773a2998efd205fb9d4b4963afb70778d6354ad3a41600160006101000a81548173ffffffffffffffffffffffffffffffffffffffff021916908373ffffffffffffffffffffffffffffffffffffffff160217905550612ede6040518060400160405280600a81526020017f6574685f676f65726c6900000000000000000000000000000000000000000000815250613d02565b60019050613075565b6000612f06736f485c8bf6fc43ea212e93bbf8ce046c7f1cb475611c28565b1115612f6a57736f485c8bf6fc43ea212e93bbf8ce046c7f1cb475600160006101000a81548173ffffffffffffffffffffffffffffffffffffffff021916908373ffffffffffffffffffffffffffffffffffffffff16021790555060019050613075565b6000612f897320e12a1f859b3feae5fb2a0a32c18f5a65555bbf611c28565b1115612fed577320e12a1f859b3feae5fb2a0a32c18f5a65555bbf600160006101000a81548173ffffffffffffffffffffffffffffffffffffffff021916908373ffffffffffffffffffffffffffffffffffffffff16021790555060019050613075565b600061300c7351efaf4c8b3c9afbd5ab9f4bbc82784ab6ef8faa611c28565b1115613070577351efaf4c8b3c9afbd5ab9f4bbc82784ab6ef8faa600160006101000a81548173ffffffffffffffffffffffffffffffffffffffff021916908373ffffffffffffffffffffffffffffffffffffffff16021790555060019050613075565b600090505b90565b600080600190508284511461308c57600080fd5b60008090505b8381101561311c578481815181106130a657fe5b602001015160f81c60f81b7effffffffffffffffffffffffffffffffffffffffffffffffffffffffffffff19168682602081106130df57fe5b1a60f81b7effffffffffffffffffffffffffffffffffffffffffffffffffffffffffffff19161461310f57600091505b8080600101915050613092565b50809150509392505050565b60008060008060006060602067ffffffffffffffff8111801561314a57600080fd5b506040519080825280601f01601f19166020018201604052801561317d5781602001600182028036833780820191505090505b509050600060208960038151811061319157fe5b602001015160f81c60f81b60f81c60ff160360040190506131b789826020856000612722565b91506060602067ffffffffffffffff811180156131d357600080fd5b506040519080825280601f01601f1916602001820160405280156132065781602001600182028036833780820191505090505b5090506022820191506132428a60208c600186038151811061322457fe5b602001015160f81c60f81b60f81c60ff160384016020846000612722565b9050602083015194506020810151935061325f8b601b8787613d1c565b80975081985050508573ffffffffffffffffffffffffffffffffffffffff16898051906020012060001c73ffffffffffffffffffffffffffffffffffffffff1614156132b557600197505050505050505061330d565b6132c28b601c8787613d1c565b80975081985050508573ffffffffffffffffffffffffffffffffffffffff16898051906020012060001c73ffffffffffffffffffffffffffffffffffffffff16149750505050505050505b9392505050565b6000806060600285600186018151811061332a57fe5b602001015160f81c60f81b60f81c60ff160167ffffffffffffffff8111801561335257600080fd5b506040519080825280601f01601f1916602001820160405280156133855781602001600182028036833780820191505090505b50905061339785858351846000612722565b506060604067ffffffffffffffff811180156133b257600080fd5b506040519080825280601f01601f1916602001820160405280156133e55781602001600182028036833780820191505090505b5090506133f88660046040846000612722565b506060606267ffffffffffffffff8111801561341357600080fd5b506040519080825280601f01601f1916602001820160405280156134465781602001600182028036833780820191505090505b509050600160f81b8160008151811061345b57fe5b60200101907effffffffffffffffffffffffffffffffffffffffffffffffffffffffffffff1916908160001a90535061349c87604188036041846001612722565b5060606040518060400160405280602081526020017ffd94fa71bc0ba10d39d464d0d8f465efeef0a2764e3887fcc9df41ded20f505c81525090506134e78160006020856042612722565b506135906002836040518082805190602001908083835b6020831061352157805182526020820191506020810190506020830392506134fe565b6001836020036101000a038019825116818451168082178552505050505050905001915050602060405180830381855afa158015613563573d6000803e3d6000fd5b5050506040513d602081101561357857600080fd5b81019080805190602001909291905050508585613128565b9450846135a55760009550505050505061379a565b606060405180606001604052806040815260200161427e6040913990506060604267ffffffffffffffff811180156135dc57600080fd5b506040519080825280601f01601f19166020018201604052801561360f5781602001600182028036833780820191505090505b50905060fe60f81b8160008151811061362457fe5b60200101907effffffffffffffffffffffffffffffffffffffffffffffffffffffffffffff1916908160001a9053506136638a60036041846001612722565b50606060028b60458151811061367557fe5b602001015160f81c60f81b60f81c60ff160167ffffffffffffffff8111801561369d57600080fd5b506040519080825280601f01601f1916602001820160405280156136d05781602001600182028036833780820191505090505b5090506136e38b60448351846000612722565b5061378c6002836040518082805190602001908083835b6020831061371d57805182526020820191506020810190506020830392506136fa565b6001836020036101000a038019825116818451168082178552505050505050905001915050602060405180830381855afa15801561375f573d6000803e3d6000fd5b5050506040513d602081101561377457600080fd5b81019080805190602001909291905050508285613128565b975087985050505050505050505b92915050565b60008073ffffffffffffffffffffffffffffffffffffffff16600160009054906101000a900473ffffffffffffffffffffffffffffffffffffffff1673ffffffffffffffffffffffffffffffffffffffff16148061382857506000613826600160009054906101000a900473ffffffffffffffffffffffffffffffffffffffff16611c28565b145b15613839576138376000611c33565b505b600160009054906101000a900473ffffffffffffffffffffffffffffffffffffffff1673ffffffffffffffffffffffffffffffffffffffff166338cc48316040518163ffffffff1660e01b8152600401602060405180830381600087803b1580156138a357600080fd5b505af11580156138b7573d6000803e3d6000fd5b505050506040513d60208110156138cd57600080fd5b810190808051906020019092919050505073ffffffffffffffffffffffffffffffffffffffff166000809054906101000a900473ffffffffffffffffffffffffffffffffffffffff1673ffffffffffffffffffffffffffffffffffffffff1614613a1657600160009054906101000a900473ffffffffffffffffffffffffffffffffffffffff1673ffffffffffffffffffffffffffffffffffffffff166338cc48316040518163ffffffff1660e01b8152600401602060405180830381600087803b15801561399b57600080fd5b505af11580156139af573d6000803e3d6000fd5b505050506040513d60208110156139c557600080fd5b81019080805190602001909291905050506000806101000a81548173ffffffffffffffffffffffffffffffffffffffff021916908373ffffffffffffffffffffffffffffffffffffffff1602179055505b60008060009054906101000a900473ffffffffffffffffffffffffffffffffffffffff1673ffffffffffffffffffffffffffffffffffffffff16632ef3accc86856040518363ffffffff1660e01b81526004018080602001838152602001828103825284818151815260200191508051906020019080838360005b83811015613aac578082015181840152602081019050613a91565b50505050905090810190601f168015613ad95780820380516001836020036101000a031916815260200191505b509350505050602060405180830381600087803b158015613af957600080fd5b505af1158015613b0d573d6000803e3d6000fd5b505050506040513d6020811015613b2357600080fd5b81019080805190602001909291905050509050823a02670de0b6b3a764000001811115613b56576000801b915050613cfb565b6060613b6185613d60565b90506000809054906101000a900473ffffffffffffffffffffffffffffffffffffffff1673ffffffffffffffffffffffffffffffffffffffff1663c55c1cb68360008985896040518663ffffffff1660e01b8152600401808581526020018060200180602001848152602001838103835286818151815260200191508051906020019080838360005b83811015613c05578082015181840152602081019050613bea565b50505050905090810190601f168015613c325780820380516001836020036101000a031916815260200191505b50838103825285818151815260200191508051906020019080838360005b83811015613c6b578082015181840152602081019050613c50565b50505050905090810190601f168015613c985780820380516001836020036101000a031916815260200191505b5096505050505050506020604051808303818588803b158015613cba57600080fd5b505af1158015613cce573d6000803e3d6000fd5b50505050506040513d6020811015613ce557600080fd5b8101908080519060200190929190505050925050505b9392505050565b8060029080519060200190613d18929190614190565b5050565b60008060008060405188815287602082015286604082015285606082015260208160808360006001610bb8f192508051915050818193509350505094509492505050565b6060613d6a613de0565b613d72614210565b613d7e81610400613dec565b613d8781613e36565b60008090505b8351811015613dc957613dbc848281518110613da557fe5b602002602001015183613e4490919063ffffffff16565b8080600101915050613d8d565b50613dd381613e69565b8060000151915050919050565b60405180590338823950565b6000819050600060208281613dfd57fe5b0614613e165760208181613e0d57fe5b06602003810190505b808360200181815250506040518084526000815281810160405250505050565b613e41816004613e77565b50565b613e518260028351613e98565b613e648183613fd890919063ffffffff16565b505050565b613e74816007613e77565b50565b613e94601f60058360ff16901b178361408390919063ffffffff16565b5050565b60178111613ec457613ebf8160058460ff16901b60ff16178461408390919063ffffffff16565b613fd3565b60ff8111613f0557613ee9601860058460ff16901b178461408390919063ffffffff16565b613eff816001856140c39092919063ffffffff16565b50613fd2565b61ffff8111613f4757613f2b601960058460ff16901b178461408390919063ffffffff16565b613f41816002856140c39092919063ffffffff16565b50613fd1565b63ffffffff8111613f8b57613f6f601a60058460ff16901b178461408390919063ffffffff16565b613f85816004856140c39092919063ffffffff16565b50613fd0565b67ffffffffffffffff8111613fcf57613fb7601b60058460ff16901b178461408390919063ffffffff16565b613fcd816008856140c39092919063ffffffff16565b505b5b5b5b5b505050565b613fe0614210565b826020015183600001515183510111156140105761400f8360026140098660200151865161412a565b02614146565b5b60008060008451905085518051602081830101945086518101825260208701935050505b602081106140575781518352602083019250602082019150602081039050614034565b60006001826020036101000a039050801983511681855116818117865250508694505050505092915050565b816020015160018360000151510111156140a9576140a8826002846020015102614146565b5b815180516020818301018381536001820183525050505050565b6140cb614210565b8360200151846000015151830111156140f9576140f88460026140f287602001518661412a565b02614146565b5b60006001836101000a0390508451805184818301018684198251161781528582018352505050849150509392505050565b60008183111561413c57829050614140565b8190505b92915050565b6060826000015190506141598383613dec565b6141638382613fd8565b50505050565b60405180608001604052806004905b60608152602001906001900390816141785790505090565b828054600181600116156101000203166002900490600052602060002090601f016020900481019282601f106141d157805160ff19168380011785556141ff565b828001600101855582156141ff579182015b828111156141fe5782518255916020019190600101906141e3565b5b50905061420c919061422a565b5090565b604051806040016040528060608152602001600081525090565b61424c91905b80821115614248576000816000905550600101614230565b5090565b9056fe456c206ec3ba6d65726f20616c6561746f72696f2067656e657261646f206e6f20657320636f6e666961626c652e7fb956469c5c9b89840d55b43537e66a98dd4811ea0a27224272c2e5622911e8537a2f8e86a46baec82864e98dd01e9ccc2f8bc5dfc9cbe5a91a290498dd96e4a26469706673582212202fce2f9c06fbc344fb2b4f65b32567778a28f6043ef72a823b8c6c435145183664736f6c63430006060033456c20636f6e747261746f2073652064656265206c616e7a617220636f6e20616c206d656e6f7320312045544820646520696e7665727369c3b36e2e",
  "immutableReferences": {},
  "source": "pragma solidity > 0.6.1 < 0.7.0;\n\nimport \"./numeroAleatorio.sol\";\n\ncontract Ruleta  is usingProvable{\n    enum BetType { Color, Number ,Lower}\n    struct Bet {\n        address user;\n        uint amount;\n        BetType betType;\n        uint block;\n            // BetType.Color: 0=black, 1=red\n            // BetType.Number: -1=00, 0-36 for individual numbers\n            // BetType.Lower: 0=Lower, 1=upper\n        int choice;\n\tbool jugado;\n\tuint aleatorio;\n\tbool cobrado;\n\tbool ganador;\n    }\n    uint idd;\n    uint public constant NUM_POCKETS = 36;\n    // RED_NUMBERS and BLACK_NUMBERS are constant, but\n    // Solidity doesn't support array constants yet so\n    // we use storage arrays instead\n    uint8[18] public RED_NUMBERS = [\n        1, 3, 5, 7, 9, 12,\n        14, 16, 18, 19, 21, 23,\n        25, 27, 30, 32, 34, 36\n    ];\n    uint8[18] public BLACK_NUMBERS = [\n        2, 4, 6, 8, 10, 11,\n        13, 15, 17, 20, 22, 24,\n        26, 28, 29, 31, 33, 35\n    ];\n    // maps wheel numbers to colors\n    mapping(int => int) public COLORS;\n    address public owner =msg.sender;\n    uint public counter = 0;\n    mapping(uint => Bet) public bets;\n    event BetPlaced(address user, uint amount, BetType betType, uint block, int choice,bool jugado,uint aleatorio,bool cobrado,bool ganador);\n    event Spin(uint id,address user,  BetType betType, uint block, int choice, int landed,bool win,uint amount);\n    \n    \n      //Se requiere lanzar el contrato con al menos 1 ETH.\n    constructor() public payable {\n        require(msg.value >= 1000000000000000000, \"El contrato se debe lanzar con al menos 1 ETH de inversin.\");\n        owner = msg.sender;\n        provable_setProof(proofType_Ledger);\n         for (uint i=0; i < 18; i++) {\n            COLORS[RED_NUMBERS[i]] = 1;\n        }\n    }\n\n    function wager (BetType betType, int choice) payable public {\n        require(msg.value > 0);\n        if (betType == BetType.Color)\n            require(choice == 0 || choice == 1);\n        else if (betType == BetType.Number)\n            require(choice >= 1 && choice <= 36);\n        else if (betType == BetType.Lower)\n            require(choice == 0 || choice == 1);\n        \n        counter++;\n        bets[counter] = Bet(msg.sender, msg.value, betType,\n                            block.number , choice,false,0,false,false);\n        emit BetPlaced(msg.sender, msg.value, betType, block.number,choice,false,0,false,false);    //emit\n    }\n    \n    \n    function spin (uint id) public {\n        idd=id;\n        Bet storage bet = bets[id];\n\t    require(bet.jugado==false);\t\n        require(msg.sender == bet.user);\n        require(block.number >= bet.block);\n        bets[id].jugado=true;\n        provable_newRandomDSQuery(0, 1, 200000);\n    \t\n    }\n\n   \n    function __callback(bytes32 _queryId, string memory _result, bytes memory _proof) public override {\n        require(msg.sender == provable_cbAddress());\n        require(provable_randomDS_proofVerify__returnCode(_queryId, _result, _proof) == 0, \"El nmero aleatorio generado no es confiable.\");\n        \n        //Los nmeros generados son entre 1 y 80.\n        bets[idd].aleatorio = ((uint256(keccak256(abi.encodePacked(_result))) % NUM_POCKETS) + 1);\n        \n    }\n\n    function ganador (uint id) public {\n        Bet storage bet = bets[id];\n        bool win=false;\n        uint amountW=0;\n        require(false == bet.cobrado);\t\n        require(msg.sender == bet.user);\n        require(block.number >= bet.block);\n     \n        bets[id].cobrado=true;\n        //bytes32 random =\"10\"; //keccak256(abi.encodePacked(blockhash(bet.block),id));  //abi.econdePacked\n        int landed = int(bet.aleatorio);         \n        \n\n\n        if (bet.betType == BetType.Color) {\n            if (landed > 0 && COLORS[landed] == bet.choice){\n                amountW=bet.amount*2;\n                msg.sender.transfer(amountW);\n                win=true;\n            }\n        }\n        else if (bet.betType == BetType.Number) {\n            if (landed == bet.choice){\n                amountW=bet.amount*4;\n               msg.sender.transfer(amountW);\n                win=true;\n            }\n        }\n        else if (bet.betType == BetType.Lower) {\n            if (landed<= 18*(bet.choice+1) && landed> 18*(bet.choice)){\n                amountW=bet.amount*2;\n                msg.sender.transfer(amountW);\n                win=true;\n            }\n        }\n\tif(win==true) bets[id].ganador=true;\n        \n        emit Spin(id,msg.sender,  bet.betType, block.number,bet.choice, landed,win,amountW);\n        //delete bets[id];\n    }\n    function fund () public payable {}\n    \n    function kill () public {\n        require(msg.sender == owner);\n        selfdestruct(msg.sender); // en vez de owner puse msg.sender\n    }\n    function valor() public payable{\n        msg.value;\n    }\n}\n\n\n",
  "sourcePath": "C:\\Users\\Microsoft\\Documents\\Blockchains\\Casino_contracts\\contracts\\Ruleta.sol",
  "compiler": {
    "name": "solc",
    "version": "0.6.6+commit.6c089d02.Emscripten.clang"
  },
  "schemaVersion": "3.2.0",
  "updatedAt": "2020-06-15T18:35:45.990Z",
  "networkType": "ethereum",
  "devdoc": {
    "methods": {
      "__callback(bytes32,string)": {
        "details": "The following `__callback` functions are just placeholders ideally     meant to be defined in child contract when proofs are used.     The function bodies simply silence compiler warnings."
      }
    }
  },
  "userdoc": {
    "methods": {}
  }
}