{
  "contractName": "Tragamonedas2",
  "abi": [
    {
      "inputs": [],
      "stateMutability": "payable",
      "type": "constructor"
    },
    {
      "anonymous": false,
      "inputs": [
        {
          "indexed": false,
          "internalType": "string",
          "name": "",
          "type": "string"
        }
      ],
      "name": "logInfoJuego",
      "type": "event"
    },
    {
      "anonymous": false,
      "inputs": [
        {
          "indexed": false,
          "internalType": "string",
          "name": "",
          "type": "string"
        },
        {
          "indexed": false,
          "internalType": "uint256[]",
          "name": "",
          "type": "uint256[]"
        },
        {
          "indexed": false,
          "internalType": "string",
          "name": "",
          "type": "string"
        },
        {
          "indexed": false,
          "internalType": "uint256",
          "name": "",
          "type": "uint256"
        }
      ],
      "name": "logPremio",
      "type": "event"
    },
    {
      "inputs": [],
      "name": "jugar",
      "outputs": [],
      "stateMutability": "payable",
      "type": "function"
    },
    {
      "inputs": [],
      "name": "verResultados",
      "outputs": [],
      "stateMutability": "nonpayable",
      "type": "function"
    },
    {
      "inputs": [
        {
          "internalType": "bytes32",
          "name": "_myid",
          "type": "bytes32"
        },
        {
          "internalType": "string",
          "name": "_result",
          "type": "string"
        }
      ],
      "name": "__callback",
      "outputs": [],
      "stateMutability": "nonpayable",
      "type": "function"
    },
    {
      "inputs": [
        {
          "internalType": "bytes32",
          "name": "_queryId",
          "type": "bytes32"
        },
        {
          "internalType": "string",
          "name": "_result",
          "type": "string"
        },
        {
          "internalType": "bytes",
          "name": "_proof",
          "type": "bytes"
        }
      ],
      "name": "__callback",
      "outputs": [],
      "stateMutability": "nonpayable",
      "type": "function"
    }
  ],
  "bytecode": "0x60806040526000600660006101000a81548160ff0219169083151502179055506706f05b59d3b2000034101562000082576040517f08c379a000000000000000000000000000000000000000000000000000000000815260040180806020018281038252603e815260200180620049f5603e913960400191505060405180910390fd5b33600760006101000a81548173ffffffffffffffffffffffffffffffffffffffff021916908373ffffffffffffffffffffffffffffffffffffffff160217905550620000d8603060f81b620000de60201b60201c565b62000aff565b600073ffffffffffffffffffffffffffffffffffffffff16600160009054906101000a900473ffffffffffffffffffffffffffffffffffffffff1673ffffffffffffffffffffffffffffffffffffffff1614806200016e575060006200016c600160009054906101000a900473ffffffffffffffffffffffffffffffffffffffff166200044160201b60201c565b145b1562000188576200018660006200044c60201b60201c565b505b600160009054906101000a900473ffffffffffffffffffffffffffffffffffffffff1673ffffffffffffffffffffffffffffffffffffffff166338cc48316040518163ffffffff1660e01b8152600401602060405180830381600087803b158015620001f357600080fd5b505af115801562000208573d6000803e3d6000fd5b505050506040513d60208110156200021f57600080fd5b810190808051906020019092919050505073ffffffffffffffffffffffffffffffffffffffff166000809054906101000a900473ffffffffffffffffffffffffffffffffffffffff1673ffffffffffffffffffffffffffffffffffffffff16146200036c57600160009054906101000a900473ffffffffffffffffffffffffffffffffffffffff1673ffffffffffffffffffffffffffffffffffffffff166338cc48316040518163ffffffff1660e01b8152600401602060405180830381600087803b158015620002ef57600080fd5b505af115801562000304573d6000803e3d6000fd5b505050506040513d60208110156200031b57600080fd5b81019080805190602001909291905050506000806101000a81548173ffffffffffffffffffffffffffffffffffffffff021916908373ffffffffffffffffffffffffffffffffffffffff1602179055505b6000809054906101000a900473ffffffffffffffffffffffffffffffffffffffff1673ffffffffffffffffffffffffffffffffffffffff1663688dcfd7826040518263ffffffff1660e01b815260040180827effffffffffffffffffffffffffffffffffffffffffffffffffffffffffffff19167effffffffffffffffffffffffffffffffffffffffffffffffffffffffffffff19168152602001915050600060405180830381600087803b1580156200042557600080fd5b505af11580156200043a573d6000803e3d6000fd5b5050505050565b6000813b9050919050565b60006200045e6200046560201b60201c565b9050919050565b6000806200048d731d3b2638a7cc9f2cb3d298a3da7a90b67e5506ed6200044160201b60201c565b11156200053957731d3b2638a7cc9f2cb3d298a3da7a90b67e5506ed600160006101000a81548173ffffffffffffffffffffffffffffffffffffffff021916908373ffffffffffffffffffffffffffffffffffffffff1602179055506200052f6040518060400160405280600b81526020017f6574685f6d61696e6e657400000000000000000000000000000000000000000081525062000a3460201b60201c565b6001905062000a31565b60006200056073c03a2615d5efaf5f49f60b7bb6583eaec212fdf16200044160201b60201c565b11156200060c5773c03a2615d5efaf5f49f60b7bb6583eaec212fdf1600160006101000a81548173ffffffffffffffffffffffffffffffffffffffff021916908373ffffffffffffffffffffffffffffffffffffffff160217905550620006026040518060400160405280600c81526020017f6574685f726f707374656e33000000000000000000000000000000000000000081525062000a3460201b60201c565b6001905062000a31565b60006200063373b7a07bcf2ba2f2703b24c0691b5278999c59ac7e6200044160201b60201c565b1115620006df5773b7a07bcf2ba2f2703b24c0691b5278999c59ac7e600160006101000a81548173ffffffffffffffffffffffffffffffffffffffff021916908373ffffffffffffffffffffffffffffffffffffffff160217905550620006d56040518060400160405280600981526020017f6574685f6b6f76616e000000000000000000000000000000000000000000000081525062000a3460201b60201c565b6001905062000a31565b60006200070673146500cfd35b22e4a392fe0adc06de1a1368ed486200044160201b60201c565b1115620007b25773146500cfd35b22e4a392fe0adc06de1a1368ed48600160006101000a81548173ffffffffffffffffffffffffffffffffffffffff021916908373ffffffffffffffffffffffffffffffffffffffff160217905550620007a86040518060400160405280600b81526020017f6574685f72696e6b65627900000000000000000000000000000000000000000081525062000a3460201b60201c565b6001905062000a31565b6000620007d973a2998efd205fb9d4b4963afb70778d6354ad3a416200044160201b60201c565b1115620008855773a2998efd205fb9d4b4963afb70778d6354ad3a41600160006101000a81548173ffffffffffffffffffffffffffffffffffffffff021916908373ffffffffffffffffffffffffffffffffffffffff1602179055506200087b6040518060400160405280600a81526020017f6574685f676f65726c690000000000000000000000000000000000000000000081525062000a3460201b60201c565b6001905062000a31565b6000620008ac736f485c8bf6fc43ea212e93bbf8ce046c7f1cb4756200044160201b60201c565b11156200091257736f485c8bf6fc43ea212e93bbf8ce046c7f1cb475600160006101000a81548173ffffffffffffffffffffffffffffffffffffffff021916908373ffffffffffffffffffffffffffffffffffffffff1602179055506001905062000a31565b6000620009397320e12a1f859b3feae5fb2a0a32c18f5a65555bbf6200044160201b60201c565b11156200099f577320e12a1f859b3feae5fb2a0a32c18f5a65555bbf600160006101000a81548173ffffffffffffffffffffffffffffffffffffffff021916908373ffffffffffffffffffffffffffffffffffffffff1602179055506001905062000a31565b6000620009c67351efaf4c8b3c9afbd5ab9f4bbc82784ab6ef8faa6200044160201b60201c565b111562000a2c577351efaf4c8b3c9afbd5ab9f4bbc82784ab6ef8faa600160006101000a81548173ffffffffffffffffffffffffffffffffffffffff021916908373ffffffffffffffffffffffffffffffffffffffff1602179055506001905062000a31565b600090505b90565b806002908051906020019062000a4c92919062000a50565b5050565b828054600181600116156101000203166002900490600052602060002090601f016020900481019282601f1062000a9357805160ff191683800117855562000ac4565b8280016001018555821562000ac4579182015b8281111562000ac357825182559160200191906001019062000aa6565b5b50905062000ad3919062000ad7565b5090565b62000afc91905b8082111562000af857600081600090555060010162000ade565b5090565b90565b613ee68062000b0f6000396000f3fe60806040526004361061003f5760003560e01c806327dc297e1461004457806338bbfa501461011657806358c6414f1461027f578063bca6547514610296575b600080fd5b34801561005057600080fd5b506101146004803603604081101561006757600080fd5b81019080803590602001909291908035906020019064010000000081111561008e57600080fd5b8201836020820111156100a057600080fd5b803590602001918460018302840111640100000000831117156100c257600080fd5b91908080601f016020809104026020016040519081016040528093929190818152602001838380828437600081840152601f19601f8201169050808301925050505050505091929192905050506102a0565b005b34801561012257600080fd5b5061027d6004803603606081101561013957600080fd5b81019080803590602001909291908035906020019064010000000081111561016057600080fd5b82018360208201111561017257600080fd5b8035906020019184600183028401116401000000008311171561019457600080fd5b91908080601f016020809104026020016040519081016040528093929190818152602001838380828437600081840152601f19601f820116905080830192505050505050509192919290803590602001906401000000008111156101f757600080fd5b82018360208201111561020957600080fd5b8035906020019184600183028401116401000000008311171561022b57600080fd5b91908080601f016020809104026020016040519081016040528093929190818152602001838380828437600081840152601f19601f8201169050808301925050505050505091929192905050506102fa565b005b34801561028b57600080fd5b5061029461044e565b005b61029e6107dc565b005b6102f68282600067ffffffffffffffff811180156102bd57600080fd5b506040519080825280601f01601f1916602001820160405280156102f05781602001600182028036833780820191505090505b506102fa565b5050565b610302610952565b73ffffffffffffffffffffffffffffffffffffffff163373ffffffffffffffffffffffffffffffffffffffff161461033957600080fd5b6000610346848484610c71565b60ff161461039f576040517f08c379a0000000000000000000000000000000000000000000000000000000008152600401808060200182810382526039815260200180613e266039913960400191505060405180910390fd5b600560016005846040516020018082805190602001908083835b602083106103dc57805182526020820191506020810190506020830392506103b9565b6001836020036101000a0380198251168184511680821785525050505050509050019150506040516020818303038152906040528051906020012060001c8161042157fe5b06019080600181540180825580915050600190039060005260206000200160009091909190915055505050565b60011515600660009054906101000a900460ff161515146104d7576040517f08c379a000000000000000000000000000000000000000000000000000000000815260040180806020018281038252601c8152602001807f4e6f20686179206e696e67c3ba6e206a7565676f2061637469766f2e0000000081525060200191505060405180910390fd5b600660019054906101000a900473ffffffffffffffffffffffffffffffffffffffff1673ffffffffffffffffffffffffffffffffffffffff163373ffffffffffffffffffffffffffffffffffffffff161461057d576040517f08c379a0000000000000000000000000000000000000000000000000000000008152600401808060200182810382526030815260200180613e816030913960400191505060405180910390fd5b600360058054905010156105dc576040517f08c379a000000000000000000000000000000000000000000000000000000000815260040180806020018281038252605d815260200180613ce9605d913960600191505060405180910390fd5b6000809050600080600660006101000a81548160ff0219169083151502179055506000600660016101000a81548173ffffffffffffffffffffffffffffffffffffffff021916908373ffffffffffffffffffffffffffffffffffffffff160217905550610647610da1565b9150600660019054906101000a900473ffffffffffffffffffffffffffffffffffffffff1673ffffffffffffffffffffffffffffffffffffffff168260405180600001905060006040518083038185875af1925050503d80600081146106c9576040519150601f19603f3d011682016040523d82523d6000602084013e6106ce565b606091505b50508091505080610722576040517f08c379a0000000000000000000000000000000000000000000000000000000008152600401808060200182810382526000815260200160200191505060405180910390fd5b7f3042d0f07d568c0829adbe1270bd37cf9b6272abc70e69c82cec660427ee055a6005836040518080602001806020018060200185815260200184810384526022815260200180613e5f6022913960400184810383528681815481526020019150805480156107b057602002820191906000526020600020905b81548152602001906001019080831161079c575b505084810382526025815260200180613dc1602591396040019550505050505060405180910390a15050565b66470de4df820000341461083b576040517f08c379a000000000000000000000000000000000000000000000000000000000815260040180806020018281038252603d815260200180613d84603d913960400191505060405180910390fd5b600660009054906101000a900460ff16156108a1576040517f08c379a000000000000000000000000000000000000000000000000000000000815260040180806020018281038252603e815260200180613d46603e913960400191505060405180910390fd5b6001600660006101000a81548160ff02191690831515021790555033600660016101000a81548173ffffffffffffffffffffffffffffffffffffffff021916908373ffffffffffffffffffffffffffffffffffffffff160217905550610905610ff2565b7f0cdbc93fbab0b08bfaea3dafdb068b12423e5519065dd362b18ad8d9eca29975604051808060200182810382526048815260200180613ca16048913960600191505060405180910390a1565b60008073ffffffffffffffffffffffffffffffffffffffff16600160009054906101000a900473ffffffffffffffffffffffffffffffffffffffff1673ffffffffffffffffffffffffffffffffffffffff1614806109da575060006109d8600160009054906101000a900473ffffffffffffffffffffffffffffffffffffffff16611033565b145b156109eb576109e9600061103e565b505b600160009054906101000a900473ffffffffffffffffffffffffffffffffffffffff1673ffffffffffffffffffffffffffffffffffffffff166338cc48316040518163ffffffff1660e01b8152600401602060405180830381600087803b158015610a5557600080fd5b505af1158015610a69573d6000803e3d6000fd5b505050506040513d6020811015610a7f57600080fd5b810190808051906020019092919050505073ffffffffffffffffffffffffffffffffffffffff166000809054906101000a900473ffffffffffffffffffffffffffffffffffffffff1673ffffffffffffffffffffffffffffffffffffffff1614610bc857600160009054906101000a900473ffffffffffffffffffffffffffffffffffffffff1673ffffffffffffffffffffffffffffffffffffffff166338cc48316040518163ffffffff1660e01b8152600401602060405180830381600087803b158015610b4d57600080fd5b505af1158015610b61573d6000803e3d6000fd5b505050506040513d6020811015610b7757600080fd5b81019080805190602001909291905050506000806101000a81548173ffffffffffffffffffffffffffffffffffffffff021916908373ffffffffffffffffffffffffffffffffffffffff1602179055505b6000809054906101000a900473ffffffffffffffffffffffffffffffffffffffff1673ffffffffffffffffffffffffffffffffffffffff1663c281d19e6040518163ffffffff1660e01b8152600401602060405180830381600087803b158015610c3157600080fd5b505af1158015610c45573d6000803e3d6000fd5b505050506040513d6020811015610c5b57600080fd5b8101908080519060200190929190505050905090565b60007f4c0000000000000000000000000000000000000000000000000000000000000082600081518110610ca157fe5b602001015160f81c60f81b7effffffffffffffffffffffffffffffffffffffffffffffffffffffffffffff1916141580610d3457507f500000000000000000000000000000000000000000000000000000000000000082600181518110610d0457fe5b602001015160f81c60f81b7effffffffffffffffffffffffffffffffffffffffffffffffffffffffffffff191614155b80610d605750600160ff1682600281518110610d4c57fe5b602001015160f81c60f81b60f81c60ff1614155b15610d6e5760019050610d9a565b6000610d83838686610d7e61104f565b6110f1565b905080610d94576002915050610d9a565b60009150505b9392505050565b600080600090506005600181548110610db657fe5b90600052602060002001546005600081548110610dcf57fe5b9060005260206000200154148015610e1657506005600281548110610df057fe5b90600052602060002001546005600181548110610e0957fe5b9060005260206000200154145b15610f205760016005600081548110610e2b57fe5b90600052602060002001541415610e4c576703782dace9d900009050610f1b565b60026005600081548110610e5c57fe5b90600052602060002001541415610e805760026703782dace9d90000029050610f1a565b60036005600081548110610e9057fe5b90600052602060002001541415610eb45760046703782dace9d90000029050610f19565b60046005600081548110610ec457fe5b90600052602060002001541415610ee85760086703782dace9d90000029050610f18565b600580600081548110610ef757fe5b90600052602060002001541415610f175760146703782dace9d900000290505b5b5b5b5b610feb565b6005600181548110610f2e57fe5b90600052602060002001546005600081548110610f4757fe5b90600052602060002001541480610f8d57506005600281548110610f6757fe5b90600052602060002001546005600081548110610f8057fe5b9060005260206000200154145b80610fc757506005600281548110610fa157fe5b90600052602060002001546005600181548110610fba57fe5b9060005260206000200154145b15610fe557600266470de4df82000081610fdd57fe5b049050610fea565b600090505b5b8091505090565b600560006110009190613b99565b60008090505b60038160ff161015611030576110226000600162030d40611810565b508080600101915050611006565b50565b6000813b9050919050565b6000611048611e35565b9050919050565b606060028054600181600116156101000203166002900480601f0160208091040260200160405190810160405280929190818152602001828054600181600116156101000203166002900480156110e75780601f106110bc576101008083540402835291602001916110e7565b820191906000526020600020905b8154815290600101906020018083116110ca57829003601f168201915b5050505050905090565b600080602060028760458151811061110557fe5b602001015160f81c60f81b60f81c60ff16016044010190506060602067ffffffffffffffff8111801561113757600080fd5b506040519080825280601f01601f19166020018201604052801561116a5781602001600182028036833780820191505090505b50905061117c8783602084600061238c565b50600284876040516020018083805190602001908083835b602083106111b75780518252602082019150602081019050602083039250611194565b6001836020036101000a038019825116818451168082178552505050505050905001828152602001925050506040516020818303038152906040526040518082805190602001908083835b602083106112255780518252602082019150602081019050602083039250611202565b6001836020036101000a038019825116818451168082178552505050505050905001915050602060405180830381855afa158015611267573d6000803e3d6000fd5b5050506040513d602081101561127c57600080fd5b810190808051906020019092919050505060405160200180828152602001915050604051602081830303815290604052805190602001208180519060200120146112cb57600092505050611808565b606060028860016049860101815181106112e157fe5b602001015160f81c60f81b60f81c60ff160167ffffffffffffffff8111801561130957600080fd5b506040519080825280601f01601f19166020018201604052801561133c5781602001600182028036833780820191505090505b5090506113518860498501835184600061238c565b5061141c6002826040518082805190602001908083835b6020831061138b5780518252602082019150602081019050602083039250611368565b6001836020036101000a038019825116818451168082178552505050505050905001915050602060405180830381855afa1580156113cd573d6000803e3d6000fd5b5050506040513d60208110156113e257600080fd5b8101908080519060200190929190505050878a600860208801018151811061140657fe5b602001015160f81c60f81b60f81c60ff166123eb565b61142c5760009350505050611808565b6060602967ffffffffffffffff8111801561144657600080fd5b506040519080825280601f01601f1916602001820160405280156114795781602001600182028036833780820191505090505b50905061148e8960208601602984600061238c565b506060604067ffffffffffffffff811180156114a957600080fd5b506040519080825280601f01601f1916602001820160405280156114dc5781602001600182028036833780820191505090505b50905060006041845160296020890101010190506115028b60408303604085600061238c565b5060006002836040518082805190602001908083835b6020831061153b5780518252602082019150602081019050602083039250611518565b6001836020036101000a038019825116818451168082178552505050505050905001915050602060405180830381855afa15801561157d573d6000803e3d6000fd5b5050506040513d602081101561159257600080fd5b8101908080519060200190929190505050905083816040516020018083805190602001908083835b602083106115dd57805182526020820191506020810190506020830392506115ba565b6001836020036101000a0380198251168184511680821785525050505050509050018281526020019250505060405160208183030381529060405280519060200120600360008d815260200190815260200160002054141561165557600360008c815260200190815260200160002060009055611665565b6000975050505050505050611808565b6060604967ffffffffffffffff8111801561167f57600080fd5b506040519080825280601f01601f1916602001820160405280156116b25781602001600182028036833780820191505090505b5090506116c48d89604984600061238c565b5061176d6002826040518082805190602001908083835b602083106116fe57805182526020820191506020810190506020830392506116db565b6001836020036101000a038019825116818451168082178552505050505050905001915050602060405180830381855afa158015611740573d6000803e3d6000fd5b5050506040513d602081101561175557600080fd5b8101908080519060200190929190505050878661249b565b61178257600098505050505050505050611808565b6004600083815260200190815260200160002060009054906101000a900460ff166117dc576117b18d84612687565b6004600084815260200190815260200160002060006101000a81548160ff0219169083151502179055505b6004600083815260200190815260200160002060009054906101000a900460ff16985050505050505050505b949350505050565b60008083118015611822575060208311155b61182b57600080fd5b600a840293506060600167ffffffffffffffff8111801561184b57600080fd5b506040519080825280601f01601f19166020018201604052801561187e5781602001600182028036833780820191505090505b5090508360f81b8160008151811061189257fe5b60200101907effffffffffffffffffffffffffffffffffffffffffffffffffffffffffffff1916908160001a9053506060602067ffffffffffffffff811180156118db57600080fd5b506040519080825280601f01601f19166020018201604052801561190e5781602001600182028036833780820191505090505b5090506060602067ffffffffffffffff8111801561192b57600080fd5b506040519080825280601f01601f19166020018201604052801561195e5781602001600182028036833780820191505090505b509050600061196b612b13565b9050602083524241186001430340186020840152602082528060208301526060602067ffffffffffffffff811180156119a357600080fd5b506040519080825280601f01601f1916602001820160405280156119d65781602001600182028036833780820191505090505b5090508860208201526060600867ffffffffffffffff811180156119f957600080fd5b506040519080825280601f01601f191660200182016040528015611a2c5781602001600182028036833780820191505090505b509050611a3f826018600884600061238c565b50611a48613bba565b60405180608001604052808781526020018881526020018681526020018481525090506000611aad6040518060400160405280600681526020017f72616e646f6d0000000000000000000000000000000000000000000000000000815250838c612e30565b90506060600867ffffffffffffffff81118015611ac957600080fd5b506040519080825280601f01601f191660200182016040528015611afc5781602001600182028036833780820191505090505b50905060208401517f0100000000000000000000000000000000000000000000000000000000000000810460278301537e01000000000000000000000000000000000000000000000000000000000000810460268301537d010000000000000000000000000000000000000000000000000000000000810460258301537c0100000000000000000000000000000000000000000000000000000000810460248301537b01000000000000000000000000000000000000000000000000000000810460238301537a010000000000000000000000000000000000000000000000000000810460228301537901000000000000000000000000000000000000000000000000008104602183015378010000000000000000000000000000000000000000000000008104602083015350611e22828285600160048110611c3b57fe5b6020020151600287600060048110611c4f57fe5b60200201516040518082805190602001908083835b60208310611c875780518252602082019150602081019050602083039250611c64565b6001836020036101000a038019825116818451168082178552505050505050905001915050602060405180830381855afa158015611cc9573d6000803e3d6000fd5b5050506040513d6020811015611cde57600080fd5b810190808051906020019092919050505087600260048110611cfc57fe5b60200201516040516020018085805190602001908083835b60208310611d375780518252602082019150602081019050602083039250611d14565b6001836020036101000a03801982511681845116808217855250505050505090500184805190602001908083835b60208310611d885780518252602082019150602081019050602083039250611d65565b6001836020036101000a03801982511681845116808217855250505050505090500183815260200182805190602001908083835b60208310611ddf5780518252602082019150602081019050602083039250611dbc565b6001836020036101000a038019825116818451168082178552505050505050905001945050505050604051602081830303815290604052805190602001206131b4565b8199505050505050505050509392505050565b600080611e55731d3b2638a7cc9f2cb3d298a3da7a90b67e5506ed611033565b1115611ef757731d3b2638a7cc9f2cb3d298a3da7a90b67e5506ed600160006101000a81548173ffffffffffffffffffffffffffffffffffffffff021916908373ffffffffffffffffffffffffffffffffffffffff160217905550611eee6040518060400160405280600b81526020017f6574685f6d61696e6e65740000000000000000000000000000000000000000008152506131d0565b60019050612389565b6000611f1673c03a2615d5efaf5f49f60b7bb6583eaec212fdf1611033565b1115611fb85773c03a2615d5efaf5f49f60b7bb6583eaec212fdf1600160006101000a81548173ffffffffffffffffffffffffffffffffffffffff021916908373ffffffffffffffffffffffffffffffffffffffff160217905550611faf6040518060400160405280600c81526020017f6574685f726f707374656e3300000000000000000000000000000000000000008152506131d0565b60019050612389565b6000611fd773b7a07bcf2ba2f2703b24c0691b5278999c59ac7e611033565b11156120795773b7a07bcf2ba2f2703b24c0691b5278999c59ac7e600160006101000a81548173ffffffffffffffffffffffffffffffffffffffff021916908373ffffffffffffffffffffffffffffffffffffffff1602179055506120706040518060400160405280600981526020017f6574685f6b6f76616e00000000000000000000000000000000000000000000008152506131d0565b60019050612389565b600061209873146500cfd35b22e4a392fe0adc06de1a1368ed48611033565b111561213a5773146500cfd35b22e4a392fe0adc06de1a1368ed48600160006101000a81548173ffffffffffffffffffffffffffffffffffffffff021916908373ffffffffffffffffffffffffffffffffffffffff1602179055506121316040518060400160405280600b81526020017f6574685f72696e6b6562790000000000000000000000000000000000000000008152506131d0565b60019050612389565b600061215973a2998efd205fb9d4b4963afb70778d6354ad3a41611033565b11156121fb5773a2998efd205fb9d4b4963afb70778d6354ad3a41600160006101000a81548173ffffffffffffffffffffffffffffffffffffffff021916908373ffffffffffffffffffffffffffffffffffffffff1602179055506121f26040518060400160405280600a81526020017f6574685f676f65726c69000000000000000000000000000000000000000000008152506131d0565b60019050612389565b600061221a736f485c8bf6fc43ea212e93bbf8ce046c7f1cb475611033565b111561227e57736f485c8bf6fc43ea212e93bbf8ce046c7f1cb475600160006101000a81548173ffffffffffffffffffffffffffffffffffffffff021916908373ffffffffffffffffffffffffffffffffffffffff16021790555060019050612389565b600061229d7320e12a1f859b3feae5fb2a0a32c18f5a65555bbf611033565b1115612301577320e12a1f859b3feae5fb2a0a32c18f5a65555bbf600160006101000a81548173ffffffffffffffffffffffffffffffffffffffff021916908373ffffffffffffffffffffffffffffffffffffffff16021790555060019050612389565b60006123207351efaf4c8b3c9afbd5ab9f4bbc82784ab6ef8faa611033565b1115612384577351efaf4c8b3c9afbd5ab9f4bbc82784ab6ef8faa600160006101000a81548173ffffffffffffffffffffffffffffffffffffffff021916908373ffffffffffffffffffffffffffffffffffffffff16021790555060019050612389565b600090505b90565b60606000828501905080845110156123a357600080fd5b600086602001905060008460200190505b8688602001018210156123dc57818901518082880152506020820191506020810190506123b4565b85935050505095945050505050565b60008060019050828451146123ff57600080fd5b60008090505b8381101561248f5784818151811061241957fe5b602001015160f81c60f81b7effffffffffffffffffffffffffffffffffffffffffffffffffffffffffffff191686826020811061245257fe5b1a60f81b7effffffffffffffffffffffffffffffffffffffffffffffffffffffffffffff19161461248257600091505b8080600101915050612405565b50809150509392505050565b60008060008060006060602067ffffffffffffffff811180156124bd57600080fd5b506040519080825280601f01601f1916602001820160405280156124f05781602001600182028036833780820191505090505b509050600060208960038151811061250457fe5b602001015160f81c60f81b60f81c60ff1603600401905061252a8982602085600061238c565b91506060602067ffffffffffffffff8111801561254657600080fd5b506040519080825280601f01601f1916602001820160405280156125795781602001600182028036833780820191505090505b5090506022820191506125b58a60208c600186038151811061259757fe5b602001015160f81c60f81b60f81c60ff16038401602084600061238c565b905060208301519450602081015193506125d28b601b87876131ea565b80975081985050508573ffffffffffffffffffffffffffffffffffffffff16898051906020012060001c73ffffffffffffffffffffffffffffffffffffffff161415612628576001975050505050505050612680565b6126358b601c87876131ea565b80975081985050508573ffffffffffffffffffffffffffffffffffffffff16898051906020012060001c73ffffffffffffffffffffffffffffffffffffffff16149750505050505050505b9392505050565b6000806060600285600186018151811061269d57fe5b602001015160f81c60f81b60f81c60ff160167ffffffffffffffff811180156126c557600080fd5b506040519080825280601f01601f1916602001820160405280156126f85781602001600182028036833780820191505090505b50905061270a8585835184600061238c565b506060604067ffffffffffffffff8111801561272557600080fd5b506040519080825280601f01601f1916602001820160405280156127585781602001600182028036833780820191505090505b50905061276b866004604084600061238c565b506060606267ffffffffffffffff8111801561278657600080fd5b506040519080825280601f01601f1916602001820160405280156127b95781602001600182028036833780820191505090505b509050600160f81b816000815181106127ce57fe5b60200101907effffffffffffffffffffffffffffffffffffffffffffffffffffffffffffff1916908160001a90535061280f8760418803604184600161238c565b5060606040518060400160405280602081526020017ffd94fa71bc0ba10d39d464d0d8f465efeef0a2764e3887fcc9df41ded20f505c815250905061285a816000602085604261238c565b506129036002836040518082805190602001908083835b602083106128945780518252602082019150602081019050602083039250612871565b6001836020036101000a038019825116818451168082178552505050505050905001915050602060405180830381855afa1580156128d6573d6000803e3d6000fd5b5050506040513d60208110156128eb57600080fd5b8101908080519060200190929190505050858561249b565b94508461291857600095505050505050612b0d565b6060604051806060016040528060408152602001613de66040913990506060604267ffffffffffffffff8111801561294f57600080fd5b506040519080825280601f01601f1916602001820160405280156129825781602001600182028036833780820191505090505b50905060fe60f81b8160008151811061299757fe5b60200101907effffffffffffffffffffffffffffffffffffffffffffffffffffffffffffff1916908160001a9053506129d68a6003604184600161238c565b50606060028b6045815181106129e857fe5b602001015160f81c60f81b60f81c60ff160167ffffffffffffffff81118015612a1057600080fd5b506040519080825280601f01601f191660200182016040528015612a435781602001600182028036833780820191505090505b509050612a568b6044835184600061238c565b50612aff6002836040518082805190602001908083835b60208310612a905780518252602082019150602081019050602083039250612a6d565b6001836020036101000a038019825116818451168082178552505050505050905001915050602060405180830381855afa158015612ad2573d6000803e3d6000fd5b5050506040513d6020811015612ae757600080fd5b8101908080519060200190929190505050828561249b565b975087985050505050505050505b92915050565b60008073ffffffffffffffffffffffffffffffffffffffff16600160009054906101000a900473ffffffffffffffffffffffffffffffffffffffff1673ffffffffffffffffffffffffffffffffffffffff161480612b9b57506000612b99600160009054906101000a900473ffffffffffffffffffffffffffffffffffffffff16611033565b145b15612bac57612baa600061103e565b505b600160009054906101000a900473ffffffffffffffffffffffffffffffffffffffff1673ffffffffffffffffffffffffffffffffffffffff166338cc48316040518163ffffffff1660e01b8152600401602060405180830381600087803b158015612c1657600080fd5b505af1158015612c2a573d6000803e3d6000fd5b505050506040513d6020811015612c4057600080fd5b810190808051906020019092919050505073ffffffffffffffffffffffffffffffffffffffff166000809054906101000a900473ffffffffffffffffffffffffffffffffffffffff1673ffffffffffffffffffffffffffffffffffffffff1614612d8957600160009054906101000a900473ffffffffffffffffffffffffffffffffffffffff1673ffffffffffffffffffffffffffffffffffffffff166338cc48316040518163ffffffff1660e01b8152600401602060405180830381600087803b158015612d0e57600080fd5b505af1158015612d22573d6000803e3d6000fd5b505050506040513d6020811015612d3857600080fd5b81019080805190602001909291905050506000806101000a81548173ffffffffffffffffffffffffffffffffffffffff021916908373ffffffffffffffffffffffffffffffffffffffff1602179055505b6000809054906101000a900473ffffffffffffffffffffffffffffffffffffffff1673ffffffffffffffffffffffffffffffffffffffff1663abaa5f3e6040518163ffffffff1660e01b815260040160206040518083038186803b158015612df057600080fd5b505afa158015612e04573d6000803e3d6000fd5b505050506040513d6020811015612e1a57600080fd5b8101908080519060200190929190505050905090565b60008073ffffffffffffffffffffffffffffffffffffffff16600160009054906101000a900473ffffffffffffffffffffffffffffffffffffffff1673ffffffffffffffffffffffffffffffffffffffff161480612eb857506000612eb6600160009054906101000a900473ffffffffffffffffffffffffffffffffffffffff16611033565b145b15612ec957612ec7600061103e565b505b600160009054906101000a900473ffffffffffffffffffffffffffffffffffffffff1673ffffffffffffffffffffffffffffffffffffffff166338cc48316040518163ffffffff1660e01b8152600401602060405180830381600087803b158015612f3357600080fd5b505af1158015612f47573d6000803e3d6000fd5b505050506040513d6020811015612f5d57600080fd5b810190808051906020019092919050505073ffffffffffffffffffffffffffffffffffffffff166000809054906101000a900473ffffffffffffffffffffffffffffffffffffffff1673ffffffffffffffffffffffffffffffffffffffff16146130a657600160009054906101000a900473ffffffffffffffffffffffffffffffffffffffff1673ffffffffffffffffffffffffffffffffffffffff166338cc48316040518163ffffffff1660e01b8152600401602060405180830381600087803b15801561302b57600080fd5b505af115801561303f573d6000803e3d6000fd5b505050506040513d602081101561305557600080fd5b81019080805190602001909291905050506000806101000a81548173ffffffffffffffffffffffffffffffffffffffff021916908373ffffffffffffffffffffffffffffffffffffffff1602179055505b6060600467ffffffffffffffff811180156130c057600080fd5b506040519080825280602002602001820160405280156130f457816020015b60608152602001906001900390816130df5790505b5090508360006004811061310457fe5b60200201518160008151811061311657fe5b60200260200101819052508360016004811061312e57fe5b60200201518160018151811061314057fe5b60200260200101819052508360026004811061315857fe5b60200201518160028151811061316a57fe5b60200260200101819052508360036004811061318257fe5b60200201518160038151811061319457fe5b60200260200101819052506131aa85828561322e565b9150509392505050565b8060036000848152602001908152602001600020819055505050565b80600290805190602001906131e6929190613be1565b5050565b60008060008060405188815287602082015286604082015285606082015260208160808360006001610bb8f192508051915050818193509350505094509492505050565b60008073ffffffffffffffffffffffffffffffffffffffff16600160009054906101000a900473ffffffffffffffffffffffffffffffffffffffff1673ffffffffffffffffffffffffffffffffffffffff1614806132b6575060006132b4600160009054906101000a900473ffffffffffffffffffffffffffffffffffffffff16611033565b145b156132c7576132c5600061103e565b505b600160009054906101000a900473ffffffffffffffffffffffffffffffffffffffff1673ffffffffffffffffffffffffffffffffffffffff166338cc48316040518163ffffffff1660e01b8152600401602060405180830381600087803b15801561333157600080fd5b505af1158015613345573d6000803e3d6000fd5b505050506040513d602081101561335b57600080fd5b810190808051906020019092919050505073ffffffffffffffffffffffffffffffffffffffff166000809054906101000a900473ffffffffffffffffffffffffffffffffffffffff1673ffffffffffffffffffffffffffffffffffffffff16146134a457600160009054906101000a900473ffffffffffffffffffffffffffffffffffffffff1673ffffffffffffffffffffffffffffffffffffffff166338cc48316040518163ffffffff1660e01b8152600401602060405180830381600087803b15801561342957600080fd5b505af115801561343d573d6000803e3d6000fd5b505050506040513d602081101561345357600080fd5b81019080805190602001909291905050506000806101000a81548173ffffffffffffffffffffffffffffffffffffffff021916908373ffffffffffffffffffffffffffffffffffffffff1602179055505b60008060009054906101000a900473ffffffffffffffffffffffffffffffffffffffff1673ffffffffffffffffffffffffffffffffffffffff16632ef3accc86856040518363ffffffff1660e01b81526004018080602001838152602001828103825284818151815260200191508051906020019080838360005b8381101561353a57808201518184015260208101905061351f565b50505050905090810190601f1680156135675780820380516001836020036101000a031916815260200191505b509350505050602060405180830381600087803b15801561358757600080fd5b505af115801561359b573d6000803e3d6000fd5b505050506040513d60208110156135b157600080fd5b81019080805190602001909291905050509050823a02670de0b6b3a7640000018111156135e4576000801b915050613789565b60606135ef85613790565b90506000809054906101000a900473ffffffffffffffffffffffffffffffffffffffff1673ffffffffffffffffffffffffffffffffffffffff1663c55c1cb68360008985896040518663ffffffff1660e01b8152600401808581526020018060200180602001848152602001838103835286818151815260200191508051906020019080838360005b83811015613693578082015181840152602081019050613678565b50505050905090810190601f1680156136c05780820380516001836020036101000a031916815260200191505b50838103825285818151815260200191508051906020019080838360005b838110156136f95780820151818401526020810190506136de565b50505050905090810190601f1680156137265780820380516001836020036101000a031916815260200191505b5096505050505050506020604051808303818588803b15801561374857600080fd5b505af115801561375c573d6000803e3d6000fd5b50505050506040513d602081101561377357600080fd5b8101908080519060200190929190505050925050505b9392505050565b606061379a613810565b6137a2613c61565b6137ae8161040061381c565b6137b781613866565b60008090505b83518110156137f9576137ec8482815181106137d557fe5b60200260200101518361387490919063ffffffff16565b80806001019150506137bd565b5061380381613899565b8060000151915050919050565b60405180590338823950565b600081905060006020828161382d57fe5b0614613846576020818161383d57fe5b06602003810190505b808360200181815250506040518084526000815281810160405250505050565b6138718160046138a7565b50565b61388182600283516138c8565b6138948183613a0890919063ffffffff16565b505050565b6138a48160076138a7565b50565b6138c4601f60058360ff16901b1783613ab390919063ffffffff16565b5050565b601781116138f4576138ef8160058460ff16901b60ff161784613ab390919063ffffffff16565b613a03565b60ff811161393557613919601860058460ff16901b1784613ab390919063ffffffff16565b61392f81600185613af39092919063ffffffff16565b50613a02565b61ffff81116139775761395b601960058460ff16901b1784613ab390919063ffffffff16565b61397181600285613af39092919063ffffffff16565b50613a01565b63ffffffff81116139bb5761399f601a60058460ff16901b1784613ab390919063ffffffff16565b6139b581600485613af39092919063ffffffff16565b50613a00565b67ffffffffffffffff81116139ff576139e7601b60058460ff16901b1784613ab390919063ffffffff16565b6139fd81600885613af39092919063ffffffff16565b505b5b5b5b5b505050565b613a10613c61565b82602001518360000151518351011115613a4057613a3f836002613a3986602001518651613b5a565b02613b76565b5b60008060008451905085518051602081830101945086518101825260208701935050505b60208110613a875781518352602083019250602082019150602081039050613a64565b60006001826020036101000a039050801983511681855116818117865250508694505050505092915050565b81602001516001836000015151011115613ad957613ad8826002846020015102613b76565b5b815180516020818301018381536001820183525050505050565b613afb613c61565b836020015184600001515183011115613b2957613b28846002613b22876020015186613b5a565b02613b76565b5b60006001836101000a0390508451805184818301018684198251161781528582018352505050849150509392505050565b600081831115613b6c57829050613b70565b8190505b92915050565b606082600001519050613b89838361381c565b613b938382613a08565b50505050565b5080546000825590600052602060002090810190613bb79190613c7b565b50565b60405180608001604052806004905b6060815260200190600190039081613bc95790505090565b828054600181600116156101000203166002900490600052602060002090601f016020900481019282601f10613c2257805160ff1916838001178555613c50565b82800160010185558215613c50579182015b82811115613c4f578251825591602001919060010190613c34565b5b509050613c5d9190613c7b565b5090565b604051806040016040528060608152602001600081525090565b613c9d91905b80821115613c99576000816000905550600101613c81565b5090565b9056fe456c206a7565676f20636f6d656e7ac3b32e2045737065726520616c206d656e6f732031206d696e75746f207061726120636f6e73756c74617220737520726573756c7461646f2e4c6f7320726573756c7461646f73206465207375206a7565676f2061c3ba6e206e6f20657374c3a16e206c6973746f732e20496e74656e7461206465206e7565766f20656e20756e20706172206465206d696e75746f73206dc3a1732e41637475616c6d656e74652068617920756e206a7565676f2061637469766f2e2045737065726520756e206d6f6d656e746f2070617261206a756761722e456c206a7565676f20637565737461206578616374616d656e746520302e3032204554482028323030303030303030303030303030303020776569292e47616e61737465206c61207369677569656e74652063616e7469646164206465207765693a7fb956469c5c9b89840d55b43537e66a98dd4811ea0a27224272c2e5622911e8537a2f8e86a46baec82864e98dd01e9ccc2f8bc5dfc9cbe5a91a290498dd96e4556e6f206465206c6f73206ec3ba6d65726f7320616c6561746f72696f732067656e657261646f73206e6f20657320636f6e666961626c652e4f6274757669737465206c6173207369677569656e74657320636173696c6c61733a53c3b36c6f20656c20c3ba6c74696d6f206a756761646f722070756564652076657220737520726573756c7461646f2ea2646970667358221220c6fcef2fc2152072fe71a43aabc5aaed5886b186ccb3a94ae418c7cf4d1de50564736f6c63430006060033456c20636f6e747261746f2073652064656265206c616e7a617220636f6e20616c206d656e6f7320302e352045544820646520696e7665727369c3b36e2e",
  "immutableReferences": {},
  "source": "/**\r\n * Contrato de mquina tragamonedas.\r\n * \r\n * INSTRUCCIONES DE USO:\r\n *  1. Desplegar el contrato con al menos 0.5 ETH (500000000000000000 wei) de value.\r\n *  2. Llamar a la funcin jugar() con exactamente 0.02 ETH (20000000000000000) de value.\r\n *  3. Ver los resultados del juego con la funcin verResultados() aproximadamente dos minutos\r\n *     despus de que se refleje la transaccin de \"jugar()\" en la blockchain.\r\n *     Si manda error en Remix, probablemente an no estn listos los resultados.\r\n */\r\npragma solidity > 0.6.1 < 0.7.0;\r\n\r\nimport \"./usingProvable.sol\";\r\n\r\ncontract Tragamonedas2 is usingProvable {\r\n    uint private constant PREMIO_BASE = 250000000000000000;//El premio base es 0.25 ETH.\r\n    uint private constant COSTO_JUEGO = 20000000000000000; //El costo del juego es 0.02 ETH.\r\n    uint[] private casillasObtenidas; //Nmeros aleatorios (casillas) obtenidas.\r\n    bool private jugando = false;    //Indica si actualmente hay alguien jugando.\r\n    address private jugador;         //Direccin del jugador actual.\r\n    address private owner;           //Direccin del dueo del contrato.\r\n    \r\n    //Eventos para mandar informacin al usuario.\r\n    event logInfoJuego(string);\r\n    event logPremio(string, uint[], string, uint);\r\n    \r\n    //Se guarda el nombre del dueo y se asigna el tipo de prueba de Provable.\r\n    constructor() public payable {\r\n        require(msg.value >= 500000000000000000, \"El contrato se debe lanzar con al menos 0.5 ETH de inversin.\");\r\n        owner = msg.sender;\r\n        provable_setProof(proofType_Ledger);\r\n    }\r\n    \r\n    //Empezar el juego. Cuesta exactamente 0.02 ETH. \r\n    function jugar () public payable {\r\n        require(msg.value == COSTO_JUEGO, \"El juego cuesta exactamente 0.02 ETH (20000000000000000 wei).\");\r\n        //Se requiere que no haya nadie jugando.\r\n        require(!jugando, \"Actualmente hay un juego activo. Espere un momento para jugar.\");\r\n        \r\n        //Si se pasan las condiciones anteriores, empieza el juego.\r\n        jugando = true;\r\n        jugador = msg.sender;\r\n        generar3Aleatorios();\r\n        emit logInfoJuego(\"El juego comenz. Espere al menos 1 minuto para consultar su resultado.\");\r\n    }\r\n    \r\n    //Ver el resultado del ltimo juego. \r\n    function verResultados() public {\r\n        //Se requiere que haya alguien jugando.\r\n        require(jugando == true, \"No hay ningn juego activo.\");\r\n        //Se requiere que quien revisa los resultados sea el ltimo que jug.\r\n        require(msg.sender == jugador, \"Slo el ltimo jugador puede ver su resultado.\");\r\n        //Se requiere que se hayan generado los tres nmeros aleatorios.\r\n        require(casillasObtenidas.length >= 3, \"Los resultados de su juego an no estn listos. Intenta de nuevo en un par de minutos ms.\");\r\n        \r\n        uint premio = 0; //Premio del jugador en wei.\r\n        bool transferenciaExitosa; //Indica si se pudo pasar el premio al ganador o no.\r\n        \r\n        //Se sobreescriben las variables para poder empezar un nuevo juego.\r\n        jugando = false;\r\n        jugador = address(0);\r\n        \r\n        //Se calcula y se transfiere el premio.\r\n        premio = calcularPremio();\r\n        (transferenciaExitosa,) = jugador.call{value: premio}(\"\");\r\n        require(transferenciaExitosa, \"\");\r\n        \r\n        //Se mandan a consola los resultados.\r\n        emit logPremio(\"Obtuviste las siguientes casillas:\", casillasObtenidas,\"Ganaste la siguiente cantidad de wei:\", premio);\r\n    }\r\n    \r\n    //Calcula el premio dependiendo de las casillas obtenidas.\r\n    function calcularPremio() private view returns (uint){\r\n        uint premio = 0; //Premio del jugador en wei.\r\n        \r\n        //Si le atin a las tres, gana dependiendo del valor de las casillas.\r\n        if ((casillasObtenidas[0] == casillasObtenidas[1]) && (casillasObtenidas[1] == casillasObtenidas[2])){\r\n            if      (casillasObtenidas[0] == 1) {\r\n                premio = PREMIO_BASE;     //Gana 0.25 ETH.\r\n            }\r\n            else if (casillasObtenidas[0] == 2) {\r\n                premio = PREMIO_BASE * 2; //Gana 0.5 ETH.\r\n            }\r\n            else if (casillasObtenidas[0] == 3) {\r\n                premio = PREMIO_BASE * 4; //Gana 1.0 ETH.\r\n            }\r\n            else if (casillasObtenidas[0] == 4) {\r\n                premio = PREMIO_BASE * 8; //Gana 2.0 ETH.\r\n            }\r\n            else if (casillasObtenidas[0] == 5) { //JACKPOT!\r\n                premio = PREMIO_BASE * 20;//Gana 5.0 ETH.\r\n            }\r\n        }\r\n        //Si tuvo dos casillas iguales, gana la mitad del costo de un juego.\r\n        else if (casillasObtenidas[0] == casillasObtenidas[1] || casillasObtenidas[0] == casillasObtenidas[2] || casillasObtenidas[1] == casillasObtenidas[2])  {\r\n            premio = COSTO_JUEGO / 2;\r\n        }\r\n        //Si las tres casillas son diferentes, no gana nada.\r\n        else {\r\n            premio = 0;\r\n        }\r\n        \r\n        return premio;\r\n    }\r\n    \r\n    //Funcin para hacer la peticin de tres nmeros aleatorios a la API de Provable.\r\n    function generar3Aleatorios() private {\r\n        delete casillasObtenidas;\r\n        for (uint8 i = 0; i < 3; i++) {\r\n            provable_newRandomDSQuery(0, 1, 200000); //Valores hardcodeados del original.\r\n        }\r\n    }\r\n    \r\n    //Sobreescritura del callback para la API de Provable.\r\n    function __callback(bytes32 _queryId, string memory _result, bytes memory _proof) public override {\r\n        require(msg.sender == provable_cbAddress());\r\n        require(provable_randomDS_proofVerify__returnCode(_queryId, _result, _proof) == 0, \"Uno de los nmeros aleatorios generados no es confiable.\");\r\n        casillasObtenidas.push((uint256(keccak256(abi.encodePacked(_result))) % 5) + 1);\r\n    }\r\n}",
  "sourcePath": "C:\\Users\\Microsoft\\Documents\\Blockchains\\Casino_contracts\\contracts\\Tragamonedas_2.sol",
  "compiler": {
    "name": "solc",
    "version": "0.6.6+commit.6c089d02.Emscripten.clang"
  },
  "schemaVersion": "3.2.0",
  "updatedAt": "2020-06-15T05:52:07.765Z",
  "devdoc": {
    "methods": {
      "__callback(bytes32,string)": {
        "details": "The following `__callback` functions are just placeholders ideally     meant to be defined in child contract when proofs are used.     The function bodies simply silence compiler warnings."
      }
    }
  },
  "userdoc": {
    "methods": {}
  }
}