{
  "contractName": "Tragamonedas",
  "abi": [
    {
      "inputs": [],
      "stateMutability": "payable",
      "type": "constructor"
    },
    {
      "anonymous": false,
      "inputs": [
        {
          "indexed": false,
          "internalType": "string",
          "name": "estado",
          "type": "string"
        }
      ],
      "name": "logEstadoJuego",
      "type": "event"
    },
    {
      "anonymous": false,
      "inputs": [
        {
          "indexed": false,
          "internalType": "string",
          "name": "",
          "type": "string"
        },
        {
          "indexed": false,
          "internalType": "uint256[]",
          "name": "",
          "type": "uint256[]"
        },
        {
          "indexed": false,
          "internalType": "string",
          "name": "",
          "type": "string"
        },
        {
          "indexed": false,
          "internalType": "uint256",
          "name": "",
          "type": "uint256"
        }
      ],
      "name": "logPremio",
      "type": "event"
    },
    {
      "inputs": [],
      "name": "jugar",
      "outputs": [],
      "stateMutability": "payable",
      "type": "function"
    },
    {
      "inputs": [],
      "name": "verResultados",
      "outputs": [],
      "stateMutability": "nonpayable",
      "type": "function"
    },
    {
      "inputs": [],
      "name": "verEstado",
      "outputs": [
        {
          "internalType": "string",
          "name": "estado",
          "type": "string"
        }
      ],
      "stateMutability": "view",
      "type": "function"
    },
    {
      "inputs": [
        {
          "internalType": "bytes32",
          "name": "_myid",
          "type": "bytes32"
        },
        {
          "internalType": "string",
          "name": "_result",
          "type": "string"
        }
      ],
      "name": "__callback",
      "outputs": [],
      "stateMutability": "nonpayable",
      "type": "function"
    },
    {
      "inputs": [
        {
          "internalType": "bytes32",
          "name": "_queryId",
          "type": "bytes32"
        },
        {
          "internalType": "string",
          "name": "_result",
          "type": "string"
        },
        {
          "internalType": "bytes",
          "name": "_proof",
          "type": "bytes"
        }
      ],
      "name": "__callback",
      "outputs": [],
      "stateMutability": "nonpayable",
      "type": "function"
    }
  ],
  "bytecode": "0x60806040526000600660006101000a81548160ff0219169083151502179055506706f05b59d3b2000034101562000082576040517f08c379a000000000000000000000000000000000000000000000000000000000815260040180806020018281038252603e81526020018062004d05603e913960400191505060405180910390fd5b33600760006101000a81548173ffffffffffffffffffffffffffffffffffffffff021916908373ffffffffffffffffffffffffffffffffffffffff160217905550620000d8603060f81b620000de60201b60201c565b62000aff565b600073ffffffffffffffffffffffffffffffffffffffff16600160009054906101000a900473ffffffffffffffffffffffffffffffffffffffff1673ffffffffffffffffffffffffffffffffffffffff1614806200016e575060006200016c600160009054906101000a900473ffffffffffffffffffffffffffffffffffffffff166200044160201b60201c565b145b1562000188576200018660006200044c60201b60201c565b505b600160009054906101000a900473ffffffffffffffffffffffffffffffffffffffff1673ffffffffffffffffffffffffffffffffffffffff166338cc48316040518163ffffffff1660e01b8152600401602060405180830381600087803b158015620001f357600080fd5b505af115801562000208573d6000803e3d6000fd5b505050506040513d60208110156200021f57600080fd5b810190808051906020019092919050505073ffffffffffffffffffffffffffffffffffffffff166000809054906101000a900473ffffffffffffffffffffffffffffffffffffffff1673ffffffffffffffffffffffffffffffffffffffff16146200036c57600160009054906101000a900473ffffffffffffffffffffffffffffffffffffffff1673ffffffffffffffffffffffffffffffffffffffff166338cc48316040518163ffffffff1660e01b8152600401602060405180830381600087803b158015620002ef57600080fd5b505af115801562000304573d6000803e3d6000fd5b505050506040513d60208110156200031b57600080fd5b81019080805190602001909291905050506000806101000a81548173ffffffffffffffffffffffffffffffffffffffff021916908373ffffffffffffffffffffffffffffffffffffffff1602179055505b6000809054906101000a900473ffffffffffffffffffffffffffffffffffffffff1673ffffffffffffffffffffffffffffffffffffffff1663688dcfd7826040518263ffffffff1660e01b815260040180827effffffffffffffffffffffffffffffffffffffffffffffffffffffffffffff19167effffffffffffffffffffffffffffffffffffffffffffffffffffffffffffff19168152602001915050600060405180830381600087803b1580156200042557600080fd5b505af11580156200043a573d6000803e3d6000fd5b5050505050565b6000813b9050919050565b60006200045e6200046560201b60201c565b9050919050565b6000806200048d731d3b2638a7cc9f2cb3d298a3da7a90b67e5506ed6200044160201b60201c565b11156200053957731d3b2638a7cc9f2cb3d298a3da7a90b67e5506ed600160006101000a81548173ffffffffffffffffffffffffffffffffffffffff021916908373ffffffffffffffffffffffffffffffffffffffff1602179055506200052f6040518060400160405280600b81526020017f6574685f6d61696e6e657400000000000000000000000000000000000000000081525062000a3460201b60201c565b6001905062000a31565b60006200056073c03a2615d5efaf5f49f60b7bb6583eaec212fdf16200044160201b60201c565b11156200060c5773c03a2615d5efaf5f49f60b7bb6583eaec212fdf1600160006101000a81548173ffffffffffffffffffffffffffffffffffffffff021916908373ffffffffffffffffffffffffffffffffffffffff160217905550620006026040518060400160405280600c81526020017f6574685f726f707374656e33000000000000000000000000000000000000000081525062000a3460201b60201c565b6001905062000a31565b60006200063373b7a07bcf2ba2f2703b24c0691b5278999c59ac7e6200044160201b60201c565b1115620006df5773b7a07bcf2ba2f2703b24c0691b5278999c59ac7e600160006101000a81548173ffffffffffffffffffffffffffffffffffffffff021916908373ffffffffffffffffffffffffffffffffffffffff160217905550620006d56040518060400160405280600981526020017f6574685f6b6f76616e000000000000000000000000000000000000000000000081525062000a3460201b60201c565b6001905062000a31565b60006200070673146500cfd35b22e4a392fe0adc06de1a1368ed486200044160201b60201c565b1115620007b25773146500cfd35b22e4a392fe0adc06de1a1368ed48600160006101000a81548173ffffffffffffffffffffffffffffffffffffffff021916908373ffffffffffffffffffffffffffffffffffffffff160217905550620007a86040518060400160405280600b81526020017f6574685f72696e6b65627900000000000000000000000000000000000000000081525062000a3460201b60201c565b6001905062000a31565b6000620007d973a2998efd205fb9d4b4963afb70778d6354ad3a416200044160201b60201c565b1115620008855773a2998efd205fb9d4b4963afb70778d6354ad3a41600160006101000a81548173ffffffffffffffffffffffffffffffffffffffff021916908373ffffffffffffffffffffffffffffffffffffffff1602179055506200087b6040518060400160405280600a81526020017f6574685f676f65726c690000000000000000000000000000000000000000000081525062000a3460201b60201c565b6001905062000a31565b6000620008ac736f485c8bf6fc43ea212e93bbf8ce046c7f1cb4756200044160201b60201c565b11156200091257736f485c8bf6fc43ea212e93bbf8ce046c7f1cb475600160006101000a81548173ffffffffffffffffffffffffffffffffffffffff021916908373ffffffffffffffffffffffffffffffffffffffff1602179055506001905062000a31565b6000620009397320e12a1f859b3feae5fb2a0a32c18f5a65555bbf6200044160201b60201c565b11156200099f577320e12a1f859b3feae5fb2a0a32c18f5a65555bbf600160006101000a81548173ffffffffffffffffffffffffffffffffffffffff021916908373ffffffffffffffffffffffffffffffffffffffff1602179055506001905062000a31565b6000620009c67351efaf4c8b3c9afbd5ab9f4bbc82784ab6ef8faa6200044160201b60201c565b111562000a2c577351efaf4c8b3c9afbd5ab9f4bbc82784ab6ef8faa600160006101000a81548173ffffffffffffffffffffffffffffffffffffffff021916908373ffffffffffffffffffffffffffffffffffffffff1602179055506001905062000a31565b600090505b90565b806002908051906020019062000a4c92919062000a50565b5050565b828054600181600116156101000203166002900490600052602060002090601f016020900481019282601f1062000a9357805160ff191683800117855562000ac4565b8280016001018555821562000ac4579182015b8281111562000ac357825182559160200191906001019062000aa6565b5b50905062000ad3919062000ad7565b5090565b62000afc91905b8082111562000af857600081600090555060010162000ade565b5090565b90565b6141f68062000b0f6000396000f3fe60806040526004361061004a5760003560e01c806327dc297e1461004f57806338bbfa501461012157806358c6414f1461028a578063bca65475146102a1578063d5c8a916146102ab575b600080fd5b34801561005b57600080fd5b5061011f6004803603604081101561007257600080fd5b81019080803590602001909291908035906020019064010000000081111561009957600080fd5b8201836020820111156100ab57600080fd5b803590602001918460018302840111640100000000831117156100cd57600080fd5b91908080601f016020809104026020016040519081016040528093929190818152602001838380828437600081840152601f19601f82011690508083019250505050505050919291929050505061033b565b005b34801561012d57600080fd5b506102886004803603606081101561014457600080fd5b81019080803590602001909291908035906020019064010000000081111561016b57600080fd5b82018360208201111561017d57600080fd5b8035906020019184600183028401116401000000008311171561019f57600080fd5b91908080601f016020809104026020016040519081016040528093929190818152602001838380828437600081840152601f19601f8201169050808301925050505050505091929192908035906020019064010000000081111561020257600080fd5b82018360208201111561021457600080fd5b8035906020019184600183028401116401000000008311171561023657600080fd5b91908080601f016020809104026020016040519081016040528093929190818152602001838380828437600081840152601f19601f820116905080830192505050505050509192919290505050610395565b005b34801561029657600080fd5b5061029f6104e9565b005b6102a961087f565b005b3480156102b757600080fd5b506102c06109f5565b6040518080602001828103825283818151815260200191508051906020019080838360005b838110156103005780820151818401526020810190506102e5565b50505050905090810190601f16801561032d5780820380516001836020036101000a031916815260200191505b509250505060405180910390f35b6103918282600067ffffffffffffffff8111801561035857600080fd5b506040519080825280601f01601f19166020018201604052801561038b5781602001600182028036833780820191505090505b50610395565b5050565b61039d610af4565b73ffffffffffffffffffffffffffffffffffffffff163373ffffffffffffffffffffffffffffffffffffffff16146103d457600080fd5b60006103e1848484610e13565b60ff161461043a576040517f08c379a00000000000000000000000000000000000000000000000000000000081526004018080602001828103825260398152602001806141366039913960400191505060405180910390fd5b600560016005846040516020018082805190602001908083835b602083106104775780518252602082019150602081019050602083039250610454565b6001836020036101000a0380198251168184511680821785525050505050509050019150506040516020818303038152906040528051906020012060001c816104bc57fe5b06019080600181540180825580915050600190039060005260206000200160009091909190915055505050565b60011515600660009054906101000a900460ff16151514610572576040517f08c379a000000000000000000000000000000000000000000000000000000000815260040180806020018281038252601c8152602001807f4e6f20686179206e696e67c3ba6e206a7565676f2061637469766f2e0000000081525060200191505060405180910390fd5b600660019054906101000a900473ffffffffffffffffffffffffffffffffffffffff1673ffffffffffffffffffffffffffffffffffffffff163373ffffffffffffffffffffffffffffffffffffffff1614610618576040517f08c379a00000000000000000000000000000000000000000000000000000000081526004018080602001828103825260308152602001806141916030913960400191505060405180910390fd5b60036005805490501015610677576040517f08c379a000000000000000000000000000000000000000000000000000000000815260040180806020018281038252605d815260200180613f9f605d913960600191505060405180910390fd5b6000809050600080600660006101000a81548160ff0219169083151502179055506000600660016101000a81548173ffffffffffffffffffffffffffffffffffffffff021916908373ffffffffffffffffffffffffffffffffffffffff1602179055506106e2610f43565b9150600660019054906101000a900473ffffffffffffffffffffffffffffffffffffffff1673ffffffffffffffffffffffffffffffffffffffff168260405180600001905060006040518083038185875af1925050503d8060008114610764576040519150601f19603f3d011682016040523d82523d6000602084013e610769565b606091505b505080915050806107c5576040517f08c379a000000000000000000000000000000000000000000000000000000000815260040180806020018281038252602b815260200180613f74602b913960400191505060405180910390fd5b7f3042d0f07d568c0829adbe1270bd37cf9b6272abc70e69c82cec660427ee055a600583604051808060200180602001806020018581526020018481038452602281526020018061416f60229139604001848103835286818154815260200191508054801561085357602002820191906000526020600020905b81548152602001906001019080831161083f575b5050848103825260258152602001806140d1602591396040019550505050505060405180910390a15050565b66470de4df82000034146108de576040517f08c379a000000000000000000000000000000000000000000000000000000000815260040180806020018281038252603d815260200180614094603d913960400191505060405180910390fd5b600660009054906101000a900460ff1615610944576040517f08c379a000000000000000000000000000000000000000000000000000000000815260040180806020018281038252603e815260200180613ffc603e913960400191505060405180910390fd5b6001600660006101000a81548160ff02191690831515021790555033600660016101000a81548173ffffffffffffffffffffffffffffffffffffffff021916908373ffffffffffffffffffffffffffffffffffffffff1602179055506109a8611194565b7f72a10ffd4be8ac99e9368f41dde859d49638ae5546b5fe041b1feed067132060604051808060200182810382526048815260200180613eda6048913960600191505060405180910390a1565b6060600660009054906101000a900460ff16610a2b57604051806080016040528060528152602001613f22605291399050610af1565b600660009054906101000a900460ff168015610a4c57506003600580549050105b15610a71576040518060c0016040528060978152602001613e43609791399050610af1565b600660009054906101000a900460ff168015610a935750600360058054905010155b15610ab8576040518060800160405280605a815260200161403a605a91399050610af1565b6040518060400160405280601281526020017f4e6f2073c3a9207175c3a920706173c3b32e000000000000000000000000000081525090505b90565b60008073ffffffffffffffffffffffffffffffffffffffff16600160009054906101000a900473ffffffffffffffffffffffffffffffffffffffff1673ffffffffffffffffffffffffffffffffffffffff161480610b7c57506000610b7a600160009054906101000a900473ffffffffffffffffffffffffffffffffffffffff166111d5565b145b15610b8d57610b8b60006111e0565b505b600160009054906101000a900473ffffffffffffffffffffffffffffffffffffffff1673ffffffffffffffffffffffffffffffffffffffff166338cc48316040518163ffffffff1660e01b8152600401602060405180830381600087803b158015610bf757600080fd5b505af1158015610c0b573d6000803e3d6000fd5b505050506040513d6020811015610c2157600080fd5b810190808051906020019092919050505073ffffffffffffffffffffffffffffffffffffffff166000809054906101000a900473ffffffffffffffffffffffffffffffffffffffff1673ffffffffffffffffffffffffffffffffffffffff1614610d6a57600160009054906101000a900473ffffffffffffffffffffffffffffffffffffffff1673ffffffffffffffffffffffffffffffffffffffff166338cc48316040518163ffffffff1660e01b8152600401602060405180830381600087803b158015610cef57600080fd5b505af1158015610d03573d6000803e3d6000fd5b505050506040513d6020811015610d1957600080fd5b81019080805190602001909291905050506000806101000a81548173ffffffffffffffffffffffffffffffffffffffff021916908373ffffffffffffffffffffffffffffffffffffffff1602179055505b6000809054906101000a900473ffffffffffffffffffffffffffffffffffffffff1673ffffffffffffffffffffffffffffffffffffffff1663c281d19e6040518163ffffffff1660e01b8152600401602060405180830381600087803b158015610dd357600080fd5b505af1158015610de7573d6000803e3d6000fd5b505050506040513d6020811015610dfd57600080fd5b8101908080519060200190929190505050905090565b60007f4c0000000000000000000000000000000000000000000000000000000000000082600081518110610e4357fe5b602001015160f81c60f81b7effffffffffffffffffffffffffffffffffffffffffffffffffffffffffffff1916141580610ed657507f500000000000000000000000000000000000000000000000000000000000000082600181518110610ea657fe5b602001015160f81c60f81b7effffffffffffffffffffffffffffffffffffffffffffffffffffffffffffff191614155b80610f025750600160ff1682600281518110610eee57fe5b602001015160f81c60f81b60f81c60ff1614155b15610f105760019050610f3c565b6000610f25838686610f206111f1565b611293565b905080610f36576002915050610f3c565b60009150505b9392505050565b600080600090506005600181548110610f5857fe5b90600052602060002001546005600081548110610f7157fe5b9060005260206000200154148015610fb857506005600281548110610f9257fe5b90600052602060002001546005600181548110610fab57fe5b9060005260206000200154145b156110c25760016005600081548110610fcd57fe5b90600052602060002001541415610fee576703782dace9d9000090506110bd565b60026005600081548110610ffe57fe5b906000526020600020015414156110225760026703782dace9d900000290506110bc565b6003600560008154811061103257fe5b906000526020600020015414156110565760046703782dace9d900000290506110bb565b6004600560008154811061106657fe5b9060005260206000200154141561108a5760086703782dace9d900000290506110ba565b60058060008154811061109957fe5b906000526020600020015414156110b95760146703782dace9d900000290505b5b5b5b5b61118d565b60056001815481106110d057fe5b906000526020600020015460056000815481106110e957fe5b9060005260206000200154148061112f5750600560028154811061110957fe5b9060005260206000200154600560008154811061112257fe5b9060005260206000200154145b806111695750600560028154811061114357fe5b9060005260206000200154600560018154811061115c57fe5b9060005260206000200154145b1561118757600266470de4df8200008161117f57fe5b04905061118c565b600090505b5b8091505090565b600560006111a29190613d3b565b60008090505b60038160ff1610156111d2576111c46000600162030d406119b2565b5080806001019150506111a8565b50565b6000813b9050919050565b60006111ea611fd7565b9050919050565b606060028054600181600116156101000203166002900480601f0160208091040260200160405190810160405280929190818152602001828054600181600116156101000203166002900480156112895780601f1061125e57610100808354040283529160200191611289565b820191906000526020600020905b81548152906001019060200180831161126c57829003601f168201915b5050505050905090565b60008060206002876045815181106112a757fe5b602001015160f81c60f81b60f81c60ff16016044010190506060602067ffffffffffffffff811180156112d957600080fd5b506040519080825280601f01601f19166020018201604052801561130c5781602001600182028036833780820191505090505b50905061131e8783602084600061252e565b50600284876040516020018083805190602001908083835b602083106113595780518252602082019150602081019050602083039250611336565b6001836020036101000a038019825116818451168082178552505050505050905001828152602001925050506040516020818303038152906040526040518082805190602001908083835b602083106113c757805182526020820191506020810190506020830392506113a4565b6001836020036101000a038019825116818451168082178552505050505050905001915050602060405180830381855afa158015611409573d6000803e3d6000fd5b5050506040513d602081101561141e57600080fd5b8101908080519060200190929190505050604051602001808281526020019150506040516020818303038152906040528051906020012081805190602001201461146d576000925050506119aa565b6060600288600160498601018151811061148357fe5b602001015160f81c60f81b60f81c60ff160167ffffffffffffffff811180156114ab57600080fd5b506040519080825280601f01601f1916602001820160405280156114de5781602001600182028036833780820191505090505b5090506114f38860498501835184600061252e565b506115be6002826040518082805190602001908083835b6020831061152d578051825260208201915060208101905060208303925061150a565b6001836020036101000a038019825116818451168082178552505050505050905001915050602060405180830381855afa15801561156f573d6000803e3d6000fd5b5050506040513d602081101561158457600080fd5b8101908080519060200190929190505050878a60086020880101815181106115a857fe5b602001015160f81c60f81b60f81c60ff1661258d565b6115ce57600093505050506119aa565b6060602967ffffffffffffffff811180156115e857600080fd5b506040519080825280601f01601f19166020018201604052801561161b5781602001600182028036833780820191505090505b5090506116308960208601602984600061252e565b506060604067ffffffffffffffff8111801561164b57600080fd5b506040519080825280601f01601f19166020018201604052801561167e5781602001600182028036833780820191505090505b50905060006041845160296020890101010190506116a48b60408303604085600061252e565b5060006002836040518082805190602001908083835b602083106116dd57805182526020820191506020810190506020830392506116ba565b6001836020036101000a038019825116818451168082178552505050505050905001915050602060405180830381855afa15801561171f573d6000803e3d6000fd5b5050506040513d602081101561173457600080fd5b8101908080519060200190929190505050905083816040516020018083805190602001908083835b6020831061177f578051825260208201915060208101905060208303925061175c565b6001836020036101000a0380198251168184511680821785525050505050509050018281526020019250505060405160208183030381529060405280519060200120600360008d81526020019081526020016000205414156117f757600360008c815260200190815260200160002060009055611807565b60009750505050505050506119aa565b6060604967ffffffffffffffff8111801561182157600080fd5b506040519080825280601f01601f1916602001820160405280156118545781602001600182028036833780820191505090505b5090506118668d89604984600061252e565b5061190f6002826040518082805190602001908083835b602083106118a0578051825260208201915060208101905060208303925061187d565b6001836020036101000a038019825116818451168082178552505050505050905001915050602060405180830381855afa1580156118e2573d6000803e3d6000fd5b5050506040513d60208110156118f757600080fd5b8101908080519060200190929190505050878661263d565b611924576000985050505050505050506119aa565b6004600083815260200190815260200160002060009054906101000a900460ff1661197e576119538d84612829565b6004600084815260200190815260200160002060006101000a81548160ff0219169083151502179055505b6004600083815260200190815260200160002060009054906101000a900460ff16985050505050505050505b949350505050565b600080831180156119c4575060208311155b6119cd57600080fd5b600a840293506060600167ffffffffffffffff811180156119ed57600080fd5b506040519080825280601f01601f191660200182016040528015611a205781602001600182028036833780820191505090505b5090508360f81b81600081518110611a3457fe5b60200101907effffffffffffffffffffffffffffffffffffffffffffffffffffffffffffff1916908160001a9053506060602067ffffffffffffffff81118015611a7d57600080fd5b506040519080825280601f01601f191660200182016040528015611ab05781602001600182028036833780820191505090505b5090506060602067ffffffffffffffff81118015611acd57600080fd5b506040519080825280601f01601f191660200182016040528015611b005781602001600182028036833780820191505090505b5090506000611b0d612cb5565b9050602083524241186001430340186020840152602082528060208301526060602067ffffffffffffffff81118015611b4557600080fd5b506040519080825280601f01601f191660200182016040528015611b785781602001600182028036833780820191505090505b5090508860208201526060600867ffffffffffffffff81118015611b9b57600080fd5b506040519080825280601f01601f191660200182016040528015611bce5781602001600182028036833780820191505090505b509050611be1826018600884600061252e565b50611bea613d5c565b60405180608001604052808781526020018881526020018681526020018481525090506000611c4f6040518060400160405280600681526020017f72616e646f6d0000000000000000000000000000000000000000000000000000815250838c612fd2565b90506060600867ffffffffffffffff81118015611c6b57600080fd5b506040519080825280601f01601f191660200182016040528015611c9e5781602001600182028036833780820191505090505b50905060208401517f0100000000000000000000000000000000000000000000000000000000000000810460278301537e01000000000000000000000000000000000000000000000000000000000000810460268301537d010000000000000000000000000000000000000000000000000000000000810460258301537c0100000000000000000000000000000000000000000000000000000000810460248301537b01000000000000000000000000000000000000000000000000000000810460238301537a010000000000000000000000000000000000000000000000000000810460228301537901000000000000000000000000000000000000000000000000008104602183015378010000000000000000000000000000000000000000000000008104602083015350611fc4828285600160048110611ddd57fe5b6020020151600287600060048110611df157fe5b60200201516040518082805190602001908083835b60208310611e295780518252602082019150602081019050602083039250611e06565b6001836020036101000a038019825116818451168082178552505050505050905001915050602060405180830381855afa158015611e6b573d6000803e3d6000fd5b5050506040513d6020811015611e8057600080fd5b810190808051906020019092919050505087600260048110611e9e57fe5b60200201516040516020018085805190602001908083835b60208310611ed95780518252602082019150602081019050602083039250611eb6565b6001836020036101000a03801982511681845116808217855250505050505090500184805190602001908083835b60208310611f2a5780518252602082019150602081019050602083039250611f07565b6001836020036101000a03801982511681845116808217855250505050505090500183815260200182805190602001908083835b60208310611f815780518252602082019150602081019050602083039250611f5e565b6001836020036101000a03801982511681845116808217855250505050505090500194505050505060405160208183030381529060405280519060200120613356565b8199505050505050505050509392505050565b600080611ff7731d3b2638a7cc9f2cb3d298a3da7a90b67e5506ed6111d5565b111561209957731d3b2638a7cc9f2cb3d298a3da7a90b67e5506ed600160006101000a81548173ffffffffffffffffffffffffffffffffffffffff021916908373ffffffffffffffffffffffffffffffffffffffff1602179055506120906040518060400160405280600b81526020017f6574685f6d61696e6e6574000000000000000000000000000000000000000000815250613372565b6001905061252b565b60006120b873c03a2615d5efaf5f49f60b7bb6583eaec212fdf16111d5565b111561215a5773c03a2615d5efaf5f49f60b7bb6583eaec212fdf1600160006101000a81548173ffffffffffffffffffffffffffffffffffffffff021916908373ffffffffffffffffffffffffffffffffffffffff1602179055506121516040518060400160405280600c81526020017f6574685f726f707374656e330000000000000000000000000000000000000000815250613372565b6001905061252b565b600061217973b7a07bcf2ba2f2703b24c0691b5278999c59ac7e6111d5565b111561221b5773b7a07bcf2ba2f2703b24c0691b5278999c59ac7e600160006101000a81548173ffffffffffffffffffffffffffffffffffffffff021916908373ffffffffffffffffffffffffffffffffffffffff1602179055506122126040518060400160405280600981526020017f6574685f6b6f76616e0000000000000000000000000000000000000000000000815250613372565b6001905061252b565b600061223a73146500cfd35b22e4a392fe0adc06de1a1368ed486111d5565b11156122dc5773146500cfd35b22e4a392fe0adc06de1a1368ed48600160006101000a81548173ffffffffffffffffffffffffffffffffffffffff021916908373ffffffffffffffffffffffffffffffffffffffff1602179055506122d36040518060400160405280600b81526020017f6574685f72696e6b656279000000000000000000000000000000000000000000815250613372565b6001905061252b565b60006122fb73a2998efd205fb9d4b4963afb70778d6354ad3a416111d5565b111561239d5773a2998efd205fb9d4b4963afb70778d6354ad3a41600160006101000a81548173ffffffffffffffffffffffffffffffffffffffff021916908373ffffffffffffffffffffffffffffffffffffffff1602179055506123946040518060400160405280600a81526020017f6574685f676f65726c6900000000000000000000000000000000000000000000815250613372565b6001905061252b565b60006123bc736f485c8bf6fc43ea212e93bbf8ce046c7f1cb4756111d5565b111561242057736f485c8bf6fc43ea212e93bbf8ce046c7f1cb475600160006101000a81548173ffffffffffffffffffffffffffffffffffffffff021916908373ffffffffffffffffffffffffffffffffffffffff1602179055506001905061252b565b600061243f7320e12a1f859b3feae5fb2a0a32c18f5a65555bbf6111d5565b11156124a3577320e12a1f859b3feae5fb2a0a32c18f5a65555bbf600160006101000a81548173ffffffffffffffffffffffffffffffffffffffff021916908373ffffffffffffffffffffffffffffffffffffffff1602179055506001905061252b565b60006124c27351efaf4c8b3c9afbd5ab9f4bbc82784ab6ef8faa6111d5565b1115612526577351efaf4c8b3c9afbd5ab9f4bbc82784ab6ef8faa600160006101000a81548173ffffffffffffffffffffffffffffffffffffffff021916908373ffffffffffffffffffffffffffffffffffffffff1602179055506001905061252b565b600090505b90565b606060008285019050808451101561254557600080fd5b600086602001905060008460200190505b86886020010182101561257e5781890151808288015250602082019150602081019050612556565b85935050505095945050505050565b60008060019050828451146125a157600080fd5b60008090505b83811015612631578481815181106125bb57fe5b602001015160f81c60f81b7effffffffffffffffffffffffffffffffffffffffffffffffffffffffffffff19168682602081106125f457fe5b1a60f81b7effffffffffffffffffffffffffffffffffffffffffffffffffffffffffffff19161461262457600091505b80806001019150506125a7565b50809150509392505050565b60008060008060006060602067ffffffffffffffff8111801561265f57600080fd5b506040519080825280601f01601f1916602001820160405280156126925781602001600182028036833780820191505090505b50905060006020896003815181106126a657fe5b602001015160f81c60f81b60f81c60ff160360040190506126cc8982602085600061252e565b91506060602067ffffffffffffffff811180156126e857600080fd5b506040519080825280601f01601f19166020018201604052801561271b5781602001600182028036833780820191505090505b5090506022820191506127578a60208c600186038151811061273957fe5b602001015160f81c60f81b60f81c60ff16038401602084600061252e565b905060208301519450602081015193506127748b601b878761338c565b80975081985050508573ffffffffffffffffffffffffffffffffffffffff16898051906020012060001c73ffffffffffffffffffffffffffffffffffffffff1614156127ca576001975050505050505050612822565b6127d78b601c878761338c565b80975081985050508573ffffffffffffffffffffffffffffffffffffffff16898051906020012060001c73ffffffffffffffffffffffffffffffffffffffff16149750505050505050505b9392505050565b6000806060600285600186018151811061283f57fe5b602001015160f81c60f81b60f81c60ff160167ffffffffffffffff8111801561286757600080fd5b506040519080825280601f01601f19166020018201604052801561289a5781602001600182028036833780820191505090505b5090506128ac8585835184600061252e565b506060604067ffffffffffffffff811180156128c757600080fd5b506040519080825280601f01601f1916602001820160405280156128fa5781602001600182028036833780820191505090505b50905061290d866004604084600061252e565b506060606267ffffffffffffffff8111801561292857600080fd5b506040519080825280601f01601f19166020018201604052801561295b5781602001600182028036833780820191505090505b509050600160f81b8160008151811061297057fe5b60200101907effffffffffffffffffffffffffffffffffffffffffffffffffffffffffffff1916908160001a9053506129b18760418803604184600161252e565b5060606040518060400160405280602081526020017ffd94fa71bc0ba10d39d464d0d8f465efeef0a2764e3887fcc9df41ded20f505c81525090506129fc816000602085604261252e565b50612aa56002836040518082805190602001908083835b60208310612a365780518252602082019150602081019050602083039250612a13565b6001836020036101000a038019825116818451168082178552505050505050905001915050602060405180830381855afa158015612a78573d6000803e3d6000fd5b5050506040513d6020811015612a8d57600080fd5b8101908080519060200190929190505050858561263d565b945084612aba57600095505050505050612caf565b60606040518060600160405280604081526020016140f66040913990506060604267ffffffffffffffff81118015612af157600080fd5b506040519080825280601f01601f191660200182016040528015612b245781602001600182028036833780820191505090505b50905060fe60f81b81600081518110612b3957fe5b60200101907effffffffffffffffffffffffffffffffffffffffffffffffffffffffffffff1916908160001a905350612b788a6003604184600161252e565b50606060028b604581518110612b8a57fe5b602001015160f81c60f81b60f81c60ff160167ffffffffffffffff81118015612bb257600080fd5b506040519080825280601f01601f191660200182016040528015612be55781602001600182028036833780820191505090505b509050612bf88b6044835184600061252e565b50612ca16002836040518082805190602001908083835b60208310612c325780518252602082019150602081019050602083039250612c0f565b6001836020036101000a038019825116818451168082178552505050505050905001915050602060405180830381855afa158015612c74573d6000803e3d6000fd5b5050506040513d6020811015612c8957600080fd5b8101908080519060200190929190505050828561263d565b975087985050505050505050505b92915050565b60008073ffffffffffffffffffffffffffffffffffffffff16600160009054906101000a900473ffffffffffffffffffffffffffffffffffffffff1673ffffffffffffffffffffffffffffffffffffffff161480612d3d57506000612d3b600160009054906101000a900473ffffffffffffffffffffffffffffffffffffffff166111d5565b145b15612d4e57612d4c60006111e0565b505b600160009054906101000a900473ffffffffffffffffffffffffffffffffffffffff1673ffffffffffffffffffffffffffffffffffffffff166338cc48316040518163ffffffff1660e01b8152600401602060405180830381600087803b158015612db857600080fd5b505af1158015612dcc573d6000803e3d6000fd5b505050506040513d6020811015612de257600080fd5b810190808051906020019092919050505073ffffffffffffffffffffffffffffffffffffffff166000809054906101000a900473ffffffffffffffffffffffffffffffffffffffff1673ffffffffffffffffffffffffffffffffffffffff1614612f2b57600160009054906101000a900473ffffffffffffffffffffffffffffffffffffffff1673ffffffffffffffffffffffffffffffffffffffff166338cc48316040518163ffffffff1660e01b8152600401602060405180830381600087803b158015612eb057600080fd5b505af1158015612ec4573d6000803e3d6000fd5b505050506040513d6020811015612eda57600080fd5b81019080805190602001909291905050506000806101000a81548173ffffffffffffffffffffffffffffffffffffffff021916908373ffffffffffffffffffffffffffffffffffffffff1602179055505b6000809054906101000a900473ffffffffffffffffffffffffffffffffffffffff1673ffffffffffffffffffffffffffffffffffffffff1663abaa5f3e6040518163ffffffff1660e01b815260040160206040518083038186803b158015612f9257600080fd5b505afa158015612fa6573d6000803e3d6000fd5b505050506040513d6020811015612fbc57600080fd5b8101908080519060200190929190505050905090565b60008073ffffffffffffffffffffffffffffffffffffffff16600160009054906101000a900473ffffffffffffffffffffffffffffffffffffffff1673ffffffffffffffffffffffffffffffffffffffff16148061305a57506000613058600160009054906101000a900473ffffffffffffffffffffffffffffffffffffffff166111d5565b145b1561306b5761306960006111e0565b505b600160009054906101000a900473ffffffffffffffffffffffffffffffffffffffff1673ffffffffffffffffffffffffffffffffffffffff166338cc48316040518163ffffffff1660e01b8152600401602060405180830381600087803b1580156130d557600080fd5b505af11580156130e9573d6000803e3d6000fd5b505050506040513d60208110156130ff57600080fd5b810190808051906020019092919050505073ffffffffffffffffffffffffffffffffffffffff166000809054906101000a900473ffffffffffffffffffffffffffffffffffffffff1673ffffffffffffffffffffffffffffffffffffffff161461324857600160009054906101000a900473ffffffffffffffffffffffffffffffffffffffff1673ffffffffffffffffffffffffffffffffffffffff166338cc48316040518163ffffffff1660e01b8152600401602060405180830381600087803b1580156131cd57600080fd5b505af11580156131e1573d6000803e3d6000fd5b505050506040513d60208110156131f757600080fd5b81019080805190602001909291905050506000806101000a81548173ffffffffffffffffffffffffffffffffffffffff021916908373ffffffffffffffffffffffffffffffffffffffff1602179055505b6060600467ffffffffffffffff8111801561326257600080fd5b5060405190808252806020026020018201604052801561329657816020015b60608152602001906001900390816132815790505b509050836000600481106132a657fe5b6020020151816000815181106132b857fe5b6020026020010181905250836001600481106132d057fe5b6020020151816001815181106132e257fe5b6020026020010181905250836002600481106132fa57fe5b60200201518160028151811061330c57fe5b60200260200101819052508360036004811061332457fe5b60200201518160038151811061333657fe5b602002602001018190525061334c8582856133d0565b9150509392505050565b8060036000848152602001908152602001600020819055505050565b8060029080519060200190613388929190613d83565b5050565b60008060008060405188815287602082015286604082015285606082015260208160808360006001610bb8f192508051915050818193509350505094509492505050565b60008073ffffffffffffffffffffffffffffffffffffffff16600160009054906101000a900473ffffffffffffffffffffffffffffffffffffffff1673ffffffffffffffffffffffffffffffffffffffff16148061345857506000613456600160009054906101000a900473ffffffffffffffffffffffffffffffffffffffff166111d5565b145b156134695761346760006111e0565b505b600160009054906101000a900473ffffffffffffffffffffffffffffffffffffffff1673ffffffffffffffffffffffffffffffffffffffff166338cc48316040518163ffffffff1660e01b8152600401602060405180830381600087803b1580156134d357600080fd5b505af11580156134e7573d6000803e3d6000fd5b505050506040513d60208110156134fd57600080fd5b810190808051906020019092919050505073ffffffffffffffffffffffffffffffffffffffff166000809054906101000a900473ffffffffffffffffffffffffffffffffffffffff1673ffffffffffffffffffffffffffffffffffffffff161461364657600160009054906101000a900473ffffffffffffffffffffffffffffffffffffffff1673ffffffffffffffffffffffffffffffffffffffff166338cc48316040518163ffffffff1660e01b8152600401602060405180830381600087803b1580156135cb57600080fd5b505af11580156135df573d6000803e3d6000fd5b505050506040513d60208110156135f557600080fd5b81019080805190602001909291905050506000806101000a81548173ffffffffffffffffffffffffffffffffffffffff021916908373ffffffffffffffffffffffffffffffffffffffff1602179055505b60008060009054906101000a900473ffffffffffffffffffffffffffffffffffffffff1673ffffffffffffffffffffffffffffffffffffffff16632ef3accc86856040518363ffffffff1660e01b81526004018080602001838152602001828103825284818151815260200191508051906020019080838360005b838110156136dc5780820151818401526020810190506136c1565b50505050905090810190601f1680156137095780820380516001836020036101000a031916815260200191505b509350505050602060405180830381600087803b15801561372957600080fd5b505af115801561373d573d6000803e3d6000fd5b505050506040513d602081101561375357600080fd5b81019080805190602001909291905050509050823a02670de0b6b3a764000001811115613786576000801b91505061392b565b606061379185613932565b90506000809054906101000a900473ffffffffffffffffffffffffffffffffffffffff1673ffffffffffffffffffffffffffffffffffffffff1663c55c1cb68360008985896040518663ffffffff1660e01b8152600401808581526020018060200180602001848152602001838103835286818151815260200191508051906020019080838360005b8381101561383557808201518184015260208101905061381a565b50505050905090810190601f1680156138625780820380516001836020036101000a031916815260200191505b50838103825285818151815260200191508051906020019080838360005b8381101561389b578082015181840152602081019050613880565b50505050905090810190601f1680156138c85780820380516001836020036101000a031916815260200191505b5096505050505050506020604051808303818588803b1580156138ea57600080fd5b505af11580156138fe573d6000803e3d6000fd5b50505050506040513d602081101561391557600080fd5b8101908080519060200190929190505050925050505b9392505050565b606061393c6139b2565b613944613e03565b613950816104006139be565b61395981613a08565b60008090505b835181101561399b5761398e84828151811061397757fe5b602002602001015183613a1690919063ffffffff16565b808060010191505061395f565b506139a581613a3b565b8060000151915050919050565b60405180590338823950565b60008190506000602082816139cf57fe5b06146139e857602081816139df57fe5b06602003810190505b808360200181815250506040518084526000815281810160405250505050565b613a13816004613a49565b50565b613a238260028351613a6a565b613a368183613baa90919063ffffffff16565b505050565b613a46816007613a49565b50565b613a66601f60058360ff16901b1783613c5590919063ffffffff16565b5050565b60178111613a9657613a918160058460ff16901b60ff161784613c5590919063ffffffff16565b613ba5565b60ff8111613ad757613abb601860058460ff16901b1784613c5590919063ffffffff16565b613ad181600185613c959092919063ffffffff16565b50613ba4565b61ffff8111613b1957613afd601960058460ff16901b1784613c5590919063ffffffff16565b613b1381600285613c959092919063ffffffff16565b50613ba3565b63ffffffff8111613b5d57613b41601a60058460ff16901b1784613c5590919063ffffffff16565b613b5781600485613c959092919063ffffffff16565b50613ba2565b67ffffffffffffffff8111613ba157613b89601b60058460ff16901b1784613c5590919063ffffffff16565b613b9f81600885613c959092919063ffffffff16565b505b5b5b5b5b505050565b613bb2613e03565b82602001518360000151518351011115613be257613be1836002613bdb86602001518651613cfc565b02613d18565b5b60008060008451905085518051602081830101945086518101825260208701935050505b60208110613c295781518352602083019250602082019150602081039050613c06565b60006001826020036101000a039050801983511681855116818117865250508694505050505092915050565b81602001516001836000015151011115613c7b57613c7a826002846020015102613d18565b5b815180516020818301018381536001820183525050505050565b613c9d613e03565b836020015184600001515183011115613ccb57613cca846002613cc4876020015186613cfc565b02613d18565b5b60006001836101000a0390508451805184818301018684198251161781528582018352505050849150509392505050565b600081831115613d0e57829050613d12565b8190505b92915050565b606082600001519050613d2b83836139be565b613d358382613baa565b50505050565b5080546000825590600052602060002090810190613d599190613e1d565b50565b60405180608001604052806004905b6060815260200190600190039081613d6b5790505090565b828054600181600116156101000203166002900490600052602060002090601f016020900481019282601f10613dc457805160ff1916838001178555613df2565b82800160010185558215613df2579182015b82811115613df1578251825591602001919060010190613dd6565b5b509050613dff9190613e1d565b5090565b604051806040016040528060608152602001600081525090565b613e3f91905b80821115613e3b576000816000905550600101613e23565b5090565b9056fe456c206a7565676f20796120657374c3a12061637469766f2c207065726f20746f646176c3ad6120736520657374c3a16e2067656e6572616e646f206c6f7320726573756c7461646f732e204e6f20706f6472c3a120656d70657a6172206f74726f206a7565676f2068617374612071756520736520636f6e73756c74656e206c6f7320726573756c7461646f7320646520657374652e456c206a7565676f20636f6d656e7ac3b32e2045737065726520616c206d656e6f732031206d696e75746f207061726120636f6e73756c74617220737520726573756c7461646f2e456c206a7565676f206e6f20657374c3a12061637469766f2e2050726573696f6e61206a756761722829207061726120276a616c6172206c612070616c616e636127206465206c61206dc3a17175696e612e4c6f2073656e74696d6f732e20456c20656e76c3ad6f206465207475207072656d696f2066616c6cc3b32e4c6f7320726573756c7461646f73206465207375206a7565676f2061c3ba6e206e6f20657374c3a16e206c6973746f732e20496e74656e7461206465206e7565766f20656e20756e20706172206465206d696e75746f73206dc3a1732e41637475616c6d656e74652068617920756e206a7565676f2061637469766f2e2045737065726520756e206d6f6d656e746f2070617261206a756761722e59612073652070756564656e20636f6e73756c746172206c6f7320726573756c7461646f732e20556e612076657a20636f6e73756c7461646f732c20706f6472c3a120656d70657a617220756e206e7565766f206a7565676f2e456c206a7565676f20637565737461206578616374616d656e746520302e3032204554482028323030303030303030303030303030303020776569292e47616e61737465206c61207369677569656e74652063616e7469646164206465207765693a7fb956469c5c9b89840d55b43537e66a98dd4811ea0a27224272c2e5622911e8537a2f8e86a46baec82864e98dd01e9ccc2f8bc5dfc9cbe5a91a290498dd96e4556e6f206465206c6f73206ec3ba6d65726f7320616c6561746f72696f732067656e657261646f73206e6f20657320636f6e666961626c652e4f6274757669737465206c6173207369677569656e74657320636173696c6c61733a53c3b36c6f20656c20c3ba6c74696d6f206a756761646f722070756564652076657220737520726573756c7461646f2ea2646970667358221220179139e846920cbee1885933f15357a7b24e90a4687d761724f19bb871ee3a0864736f6c63430006060033456c20636f6e747261746f2073652064656265206c616e7a617220636f6e20616c206d656e6f7320302e352045544820646520696e7665727369c3b36e2e",
  "immutableReferences": {},
  "source": "/**\r\n * Contrato de mquina tragamonedas.\r\n * \r\n * INSTRUCCIONES DE USO:\r\n *  1. Desplegar el contrato con al menos 0.5 ETH (500000000000000000 wei) de value.\r\n *  2. Llamar a la funcin jugar() con exactamente 0.02 ETH (20000000000000000) de value.\r\n *  3. Ver los resultados del juego con la funcin verResultados() aproximadamente dos minutos\r\n *     despus de que se refleje la transaccin de \"jugar()\" en la blockchain.\r\n *     Si manda error en Remix, probablemente an no estn listos los resultados.\r\n */\r\npragma solidity > 0.6.1 < 0.7.0;\r\n\r\nimport \"./usingProvable.sol\";\r\n\r\ncontract Tragamonedas is usingProvable {\r\n    uint private constant PREMIO_BASE = 250000000000000000;//El premio base es 0.25 ETH.\r\n    uint private constant COSTO_JUEGO = 20000000000000000; //El costo del juego es 0.02 ETH.\r\n    uint[] private casillasObtenidas; //Nmeros aleatorios (casillas) obtenidas.\r\n    bool private jugando = false;    //Indica si actualmente hay alguien jugando.\r\n    address private jugador;         //Direccin del jugador actual.\r\n    address private owner;           //Direccin del dueo del contrato.\r\n    \r\n    //Eventos para mandar informacin al usuario.\r\n    event logEstadoJuego(string estado);\r\n    event logPremio(string, uint[], string, uint);\r\n    \r\n    //Se guarda el nombre del dueo y se asigna el tipo de prueba de Provable.\r\n    constructor() public payable {\r\n        require(msg.value >= 500000000000000000, \"El contrato se debe lanzar con al menos 0.5 ETH de inversin.\");\r\n        owner = msg.sender;\r\n        provable_setProof(proofType_Ledger);\r\n    }\r\n    \r\n    //Empezar el juego. Cuesta exactamente 0.02 ETH. \r\n    function jugar () public payable {\r\n        require(msg.value == COSTO_JUEGO, \"El juego cuesta exactamente 0.02 ETH (20000000000000000 wei).\");\r\n        //Se requiere que no haya nadie jugando.\r\n        require(!jugando, \"Actualmente hay un juego activo. Espere un momento para jugar.\");\r\n        \r\n        //Si se pasan las condiciones anteriores, empieza el juego.\r\n        jugando = true;\r\n        jugador = msg.sender;\r\n        generar3Aleatorios();\r\n        emit logEstadoJuego(\"El juego comenz. Espere al menos 1 minuto para consultar su resultado.\");\r\n    }\r\n    \r\n    //Ver el resultado del ltimo juego. \r\n    function verResultados() public {\r\n        //Se requiere que haya alguien jugando.\r\n        require(jugando == true, \"No hay ningn juego activo.\");\r\n        //Se requiere que quien revisa los resultados sea el ltimo que jug.\r\n        require(msg.sender == jugador, \"Slo el ltimo jugador puede ver su resultado.\");\r\n        //Se requiere que se hayan generado los tres nmeros aleatorios.\r\n        require(casillasObtenidas.length >= 3, \"Los resultados de su juego an no estn listos. Intenta de nuevo en un par de minutos ms.\");\r\n        \r\n        uint premio = 0; //Premio del jugador en wei.\r\n        bool transferenciaExitosa; //Indica si se pudo pasar el premio al ganador o no.\r\n        \r\n        //Se sobreescriben las variables para poder empezar un nuevo juego.\r\n        jugando = false;\r\n        jugador = address(0);\r\n        \r\n        //Se calcula y se transfiere el premio.\r\n        premio = calcularPremio();\r\n        (transferenciaExitosa,) = jugador.call{value: premio}(\"\");\r\n        require(transferenciaExitosa, \"Lo sentimos. El envo de tu premio fall.\");\r\n        \r\n        //Se mandan a consola los resultados.\r\n        emit logPremio(\"Obtuviste las siguientes casillas:\", casillasObtenidas,\"Ganaste la siguiente cantidad de wei:\", premio);\r\n    }\r\n    \r\n    //Calcula el premio dependiendo de las casillas obtenidas.\r\n    function calcularPremio() private view returns (uint){\r\n        uint premio = 0; //Premio del jugador en wei.\r\n        \r\n        //Si le atin a las tres, gana dependiendo del valor de las casillas.\r\n        if ((casillasObtenidas[0] == casillasObtenidas[1]) && (casillasObtenidas[1] == casillasObtenidas[2])){\r\n            if      (casillasObtenidas[0] == 1) {\r\n                premio = PREMIO_BASE;     //Gana 0.25 ETH.\r\n            }\r\n            else if (casillasObtenidas[0] == 2) {\r\n                premio = PREMIO_BASE * 2; //Gana 0.5 ETH.\r\n            }\r\n            else if (casillasObtenidas[0] == 3) {\r\n                premio = PREMIO_BASE * 4; //Gana 1.0 ETH.\r\n            }\r\n            else if (casillasObtenidas[0] == 4) {\r\n                premio = PREMIO_BASE * 8; //Gana 2.0 ETH.\r\n            }\r\n            else if (casillasObtenidas[0] == 5) { //JACKPOT!\r\n                premio = PREMIO_BASE * 20;//Gana 5.0 ETH.\r\n            }\r\n        }\r\n        //Si tuvo dos casillas iguales, gana la mitad del costo de un juego.\r\n        else if (casillasObtenidas[0] == casillasObtenidas[1] || casillasObtenidas[0] == casillasObtenidas[2] || casillasObtenidas[1] == casillasObtenidas[2])  {\r\n            premio = COSTO_JUEGO / 2;\r\n        }\r\n        //Si las tres casillas son diferentes, no gana nada.\r\n        else {\r\n            premio = 0;\r\n        }\r\n        \r\n        return premio;\r\n    }\r\n\r\n    //Regresa el estado del juego.\r\n    function verEstado() public view returns (string memory estado) {\r\n        if (!jugando) { \r\n            //emit logEstadoJuego(\"El juego no est activo. Presiona jugar() para 'jalar la palanca' de la mquina.\");\r\n            return \"El juego no est activo. Presiona jugar() para 'jalar la palanca' de la mquina.\";\r\n        }\r\n        else if (jugando && casillasObtenidas.length < 3) {\r\n            //emit logEstadoJuego(\"El juego ya est activo, pero todava se estn generando los resultados. No podr empezar otro juego hasta que se consulten los resultados de este.\");       \r\n            return \"El juego ya est activo, pero todava se estn generando los resultados. No podr empezar otro juego hasta que se consulten los resultados de este.\";\r\n        }\r\n        else if (jugando && casillasObtenidas.length >= 3) {\r\n            //emit logEstadoJuego(\"Ya se pueden consultar los resultados. Una vez consultados, podr empezar un nuevo juego.\");\r\n            return \"Ya se pueden consultar los resultados. Una vez consultados, podr empezar un nuevo juego.\";\r\n        }\r\n        else {\r\n            //emit logEstadoJuego(\"No s qu pas.\");\r\n            return \"No s qu pas.\";\r\n        }\r\n    }\r\n    \r\n    //Funcin para hacer la peticin de tres nmeros aleatorios a la API de Provable.\r\n    function generar3Aleatorios() private {\r\n        delete casillasObtenidas;\r\n        for (uint8 i = 0; i < 3; i++) {\r\n            provable_newRandomDSQuery(0, 1, 200000); //Valores hardcodeados del original.\r\n        }\r\n    }\r\n    \r\n    //Sobreescritura del callback para la API de Provable.\r\n    function __callback(bytes32 _queryId, string memory _result, bytes memory _proof) public override {\r\n        require(msg.sender == provable_cbAddress());\r\n        require(provable_randomDS_proofVerify__returnCode(_queryId, _result, _proof) == 0, \"Uno de los nmeros aleatorios generados no es confiable.\");\r\n        casillasObtenidas.push((uint256(keccak256(abi.encodePacked(_result))) % 5) + 1);\r\n    }\r\n}",
  "sourcePath": "C:\\Users\\Microsoft\\Documents\\Blockchains\\Casino_contracts\\contracts\\tragamonedas_get.sol",
  "compiler": {
    "name": "solc",
    "version": "0.6.6+commit.6c089d02.Emscripten.clang"
  },
  "schemaVersion": "3.2.0",
  "updatedAt": "2020-06-15T05:52:07.752Z",
  "devdoc": {
    "methods": {
      "__callback(bytes32,string)": {
        "details": "The following `__callback` functions are just placeholders ideally     meant to be defined in child contract when proofs are used.     The function bodies simply silence compiler warnings."
      }
    }
  },
  "userdoc": {
    "methods": {}
  }
}