{
  "contractName": "TragamonedasSP",
  "abi": [
    {
      "inputs": [],
      "stateMutability": "payable",
      "type": "constructor",
      "payable": true
    },
    {
      "anonymous": false,
      "inputs": [
        {
          "indexed": false,
          "internalType": "string",
          "name": "estado",
          "type": "string"
        }
      ],
      "name": "logEstadoJuego",
      "type": "event"
    },
    {
      "anonymous": false,
      "inputs": [
        {
          "indexed": false,
          "internalType": "string",
          "name": "",
          "type": "string"
        },
        {
          "indexed": false,
          "internalType": "uint256[]",
          "name": "",
          "type": "uint256[]"
        },
        {
          "indexed": false,
          "internalType": "string",
          "name": "",
          "type": "string"
        },
        {
          "indexed": false,
          "internalType": "uint256",
          "name": "",
          "type": "uint256"
        }
      ],
      "name": "logPremio",
      "type": "event"
    },
    {
      "inputs": [],
      "name": "jugar",
      "outputs": [],
      "stateMutability": "payable",
      "type": "function",
      "payable": true
    },
    {
      "inputs": [],
      "name": "verResultados",
      "outputs": [],
      "stateMutability": "nonpayable",
      "type": "function"
    },
    {
      "inputs": [],
      "name": "verEstado",
      "outputs": [
        {
          "internalType": "string",
          "name": "estado",
          "type": "string"
        }
      ],
      "stateMutability": "view",
      "type": "function",
      "constant": true
    }
  ],
  "bytecode": "0x60806040526000600160006101000a81548160ff0219169083151502179055506706f05b59d3b20000341015610080576040517f08c379a000000000000000000000000000000000000000000000000000000000815260040180806020018281038252603e815260200180610e39603e913960400191505060405180910390fd5b33600260006101000a81548173ffffffffffffffffffffffffffffffffffffffff021916908373ffffffffffffffffffffffffffffffffffffffff160217905550610d69806100d06000396000f3fe6080604052600436106100345760003560e01c806358c6414f14610039578063bca6547514610050578063d5c8a9161461005a575b600080fd5b34801561004557600080fd5b5061004e6100ea565b005b61005861047e565b005b34801561006657600080fd5b5061006f6105f2565b6040518080602001828103825283818151815260200191508051906020019080838360005b838110156100af578082015181840152602081019050610094565b50505050905090810190601f1680156100dc5780820380516001836020036101000a031916815260200191505b509250505060405180910390f35b60011515600160009054906101000a900460ff16151514610173576040517f08c379a000000000000000000000000000000000000000000000000000000000815260040180806020018281038252601c8152602001807f4e6f20686179206e696e67c3ba6e206a7565676f2061637469766f2e0000000081525060200191505060405180910390fd5b6001809054906101000a900473ffffffffffffffffffffffffffffffffffffffff1673ffffffffffffffffffffffffffffffffffffffff163373ffffffffffffffffffffffffffffffffffffffff1614610218576040517f08c379a0000000000000000000000000000000000000000000000000000000008152600401808060200182810382526030815260200180610d046030913960400191505060405180910390fd5b60036000805490501015610277576040517f08c379a000000000000000000000000000000000000000000000000000000000815260040180806020018281038252605d815260200180610b8b605d913960600191505060405180910390fd5b600080905060006102866106f1565b91506001809054906101000a900473ffffffffffffffffffffffffffffffffffffffff1673ffffffffffffffffffffffffffffffffffffffff168260405180600001905060006040518083038185875af1925050503d8060008114610307576040519150601f19603f3d011682016040523d82523d6000602084013e61030c565b606091505b50508091505080610368576040517f08c379a000000000000000000000000000000000000000000000000000000000815260040180806020018281038252602b815260200180610b60602b913960400191505060405180910390fd5b6000600160006101000a81548160ff02191690831515021790555060006001806101000a81548173ffffffffffffffffffffffffffffffffffffffff021916908373ffffffffffffffffffffffffffffffffffffffff1602179055507f3042d0f07d568c0829adbe1270bd37cf9b6272abc70e69c82cec660427ee055a6000836040518080602001806020018060200185815260200184810384526022815260200180610ce260229139604001848103835286818154815260200191508054801561045257602002820191906000526020600020905b81548152602001906001019080831161043e575b505084810382526025815260200180610cbd602591396040019550505050505060405180910390a15050565b66470de4df82000034146104dd576040517f08c379a000000000000000000000000000000000000000000000000000000000815260040180806020018281038252603d815260200180610c80603d913960400191505060405180910390fd5b600160009054906101000a900460ff1615610543576040517f08c379a000000000000000000000000000000000000000000000000000000000815260040180806020018281038252603e815260200180610be8603e913960400191505060405180910390fd5b60018060006101000a81548160ff021916908315150217905550336001806101000a81548173ffffffffffffffffffffffffffffffffffffffff021916908373ffffffffffffffffffffffffffffffffffffffff1602179055506105a5610935565b7f72a10ffd4be8ac99e9368f41dde859d49638ae5546b5fe041b1feed067132060604051808060200182810382526048815260200180610ac66048913960600191505060405180910390a1565b6060600160009054906101000a900460ff1661062857604051806080016040528060528152602001610b0e6052913990506106ee565b600160009054906101000a900460ff16801561064957506003600080549050105b1561066e576040518060c0016040528060978152602001610a2f6097913990506106ee565b600160009054906101000a900460ff1680156106905750600360008054905010155b156106b5576040518060800160405280605a8152602001610c26605a913990506106ee565b6040518060400160405280601281526020017f4e6f2073c3a9207175c3a920706173c3b32e000000000000000000000000000081525090505b90565b60008060018154811061070057fe5b90600052602060002001546000808154811061071857fe5b906000526020600020015414801561075f5750600060028154811061073957fe5b9060005260206000200154600060018154811061075257fe5b9060005260206000200154145b156108655760016000808154811061077357fe5b90600052602060002001541415610794576703782dace9d900009050610932565b6002600080815481106107a357fe5b906000526020600020015414156107c75760026703782dace9d90000029050610932565b6003600080815481106107d657fe5b906000526020600020015414156107fa5760046703782dace9d90000029050610932565b60046000808154811061080957fe5b9060005260206000200154141561082d5760086703782dace9d90000029050610932565b60056000808154811061083c57fe5b906000526020600020015414156108605760146703782dace9d90000029050610932565b610931565b600060018154811061087357fe5b90600052602060002001546000808154811061088b57fe5b906000526020600020015414806108d0575060006002815481106108ab57fe5b9060005260206000200154600080815481106108c357fe5b9060005260206000200154145b8061090a575060006002815481106108e457fe5b906000526020600020015460006001815481106108fd57fe5b9060005260206000200154145b1561092857600266470de4df8200008161092057fe5b049050610932565b60009050610932565b5b90565b60008061094291906109e8565b60008090505b60038160ff1610156109955760006109628260ff16610998565b90806001815401808255809150506001900390600052602060002001600090919091909150558080600101915050610948565b50565b6000600160054244856040516020018084815260200183815260200182815260200193505050506040516020818303038152906040528051906020012060001c816109df57fe5b06019050919050565b5080546000825590600052602060002090810190610a069190610a09565b50565b610a2b91905b80821115610a27576000816000905550600101610a0f565b5090565b9056fe456c206a7565676f20796120657374c3a12061637469766f2c207065726f20746f646176c3ad6120736520657374c3a16e2067656e6572616e646f206c6f7320726573756c7461646f732e204e6f20706f6472c3a120656d70657a6172206f74726f206a7565676f2068617374612071756520736520636f6e73756c74656e206c6f7320726573756c7461646f7320646520657374652e456c206a7565676f20636f6d656e7ac3b32e2045737065726520616c206d656e6f732031206d696e75746f207061726120636f6e73756c74617220737520726573756c7461646f2e456c206a7565676f206e6f20657374c3a12061637469766f2e2050726573696f6e61206a756761722829207061726120276a616c6172206c612070616c616e636127206465206c61206dc3a17175696e612e4c6f2073656e74696d6f732e20456c20656e76c3ad6f206465207475207072656d696f2066616c6cc3b32e4c6f7320726573756c7461646f73206465207375206a7565676f2061c3ba6e206e6f20657374c3a16e206c6973746f732e20496e74656e7461206465206e7565766f20656e20756e20706172206465206d696e75746f73206dc3a1732e41637475616c6d656e74652068617920756e206a7565676f2061637469766f2e2045737065726520756e206d6f6d656e746f2070617261206a756761722e59612073652070756564656e20636f6e73756c746172206c6f7320726573756c7461646f732e20556e612076657a20636f6e73756c7461646f732c20706f6472c3a120656d70657a617220756e206e7565766f206a7565676f2e456c206a7565676f20637565737461206578616374616d656e746520302e3032204554482028323030303030303030303030303030303020776569292e47616e61737465206c61207369677569656e74652063616e7469646164206465207765693a4f6274757669737465206c6173207369677569656e74657320636173696c6c61733a53c3b36c6f20656c20c3ba6c74696d6f206a756761646f722070756564652076657220737520726573756c7461646f2ea26469706673582212209f74e92c9d3ee16607ac8679c1f8d05e81aa6dcab0dbd0658840ac66f517b38064736f6c63430006060033456c20636f6e747261746f2073652064656265206c616e7a617220636f6e20616c206d656e6f7320302e352045544820646520696e7665727369c3b36e2e",
  "immutableReferences": {},
  "source": "/**\r\n * Contrato de máquina tragamonedas.\r\n * \r\n * INSTRUCCIONES DE USO:\r\n *  1. Desplegar el contrato con al menos 0.5 ETH (500000000000000000 wei) de value.\r\n *  2. Llamar a la función jugar() con exactamente 0.02 ETH (20000000000000000) de value.\r\n *  3. Ver los resultados del juego con la función verResultados() aproximadamente dos minutos\r\n *     después de que se refleje la transacción de \"jugar()\" en la blockchain.\r\n *     Si manda error en Remix, probablemente aún no estén listos los resultados.\r\n */\r\npragma solidity > 0.6.1 < 0.7.0;\r\n\r\n//import \"github.com/provable-things/ethereum-api/provableAPI_0.6.sol\";\r\n\r\ncontract TragamonedasSP /*is usingProvable*/ {\r\n    uint private constant PREMIO_BASE = 250000000000000000;//El premio base es 0.25 ETH.\r\n    uint private constant COSTO_JUEGO = 20000000000000000; //El costo del juego es 0.02 ETH.\r\n    uint[] private casillasObtenidas; //Números aleatorios (casillas) obtenidas.\r\n    bool private jugando = false;    //Indica si actualmente hay alguien jugando.\r\n    address private jugador;         //Dirección del jugador actual.\r\n    address private owner;           //Dirección del dueño del contrato.\r\n    \r\n    //Eventos para mandar información al usuario.\r\n    event logEstadoJuego(string estado);\r\n    event logPremio(string, uint[], string, uint);\r\n    \r\n    //Se guarda el nombre del dueño y se asigna el tipo de prueba de Provable.\r\n    constructor() public payable {\r\n        require(msg.value >= 500000000000000000, \"El contrato se debe lanzar con al menos 0.5 ETH de inversión.\");\r\n        owner = msg.sender;\r\n        //provable_setProof(proofType_Ledger);\r\n    }\r\n    \r\n    //Empezar el juego. Cuesta exactamente 0.02 ETH. \r\n    function jugar () public payable {\r\n        require(msg.value == COSTO_JUEGO, \"El juego cuesta exactamente 0.02 ETH (20000000000000000 wei).\");\r\n        //Se requiere que no haya nadie jugando.\r\n        require(!jugando, \"Actualmente hay un juego activo. Espere un momento para jugar.\");\r\n        \r\n        //Si se pasan las condiciones anteriores, empieza el juego.\r\n        jugando = true;\r\n        jugador = msg.sender;\r\n        generar3Aleatorios();\r\n        emit logEstadoJuego(\"El juego comenzó. Espere al menos 1 minuto para consultar su resultado.\");\r\n    }\r\n    \r\n    //Ver el resultado del último juego. \r\n    function verResultados() public {\r\n        //Se requiere que haya alguien jugando.\r\n        require(jugando == true, \"No hay ningún juego activo.\");\r\n        //Se requiere que quien revisa los resultados sea el último que jugó.\r\n        require(msg.sender == jugador, \"Sólo el último jugador puede ver su resultado.\");\r\n        //Se requiere que se hayan generado los tres números aleatorios.\r\n        require(casillasObtenidas.length >= 3, \"Los resultados de su juego aún no están listos. Intenta de nuevo en un par de minutos más.\");\r\n        \r\n        uint premio = 0; //Premio del jugador en wei.\r\n        bool transferenciaExitosa; //Indica si se pudo pasar el premio al ganador o no.\r\n        \r\n        //Se calcula y se transfiere el premio.\r\n        premio = calcularPremio();\r\n        (transferenciaExitosa,) = jugador.call{value: premio}(\"\");\r\n        require(transferenciaExitosa, \"Lo sentimos. El envío de tu premio falló.\");\r\n        \r\n        //Se sobreescriben las variables para poder empezar un nuevo juego.\r\n        jugando = false;\r\n        jugador = address(0);\r\n        \r\n        //Se mandan a consola los resultados.\r\n        emit logPremio(\"Obtuviste las siguientes casillas:\", casillasObtenidas,\"Ganaste la siguiente cantidad de wei:\", premio);\r\n    }\r\n    \r\n    //Calcula el premio dependiendo de las casillas obtenidas.\r\n    function calcularPremio() private view returns (uint){\r\n        //Si le atinó a las tres, gana dependiendo del valor de las casillas.\r\n        if ((casillasObtenidas[0] == casillasObtenidas[1]) && (casillasObtenidas[1] == casillasObtenidas[2])){\r\n            if      (casillasObtenidas[0] == 1) return PREMIO_BASE;     //Gana 0.25 ETH.\r\n            else if (casillasObtenidas[0] == 2) return PREMIO_BASE * 2; //Gana 0.5 ETH.\r\n            else if (casillasObtenidas[0] == 3) return PREMIO_BASE * 4; //Gana 1.0 ETH.\r\n            else if (casillasObtenidas[0] == 4) return PREMIO_BASE * 8; //Gana 2.0 ETH.\r\n            else if (casillasObtenidas[0] == 5) return PREMIO_BASE * 20;//Gana 5.0 ETH.\r\n        }\r\n        //Si tuvo dos casillas iguales, gana la mitad del costo de un juego.\r\n        else if (casillasObtenidas[0] == casillasObtenidas[1] || casillasObtenidas[0] == casillasObtenidas[2] || casillasObtenidas[1] == casillasObtenidas[2])  {\r\n            return COSTO_JUEGO / 2;\r\n        }\r\n        //Si las tres casillas son diferentes, no gana nada.\r\n        else {\r\n            return 0;\r\n        }\r\n    }\r\n\r\n    //Regresa el estado del juego.\r\n    function verEstado() public view returns (string memory estado) {\r\n        if (!jugando) return \"El juego no está activo. Presiona jugar() para 'jalar la palanca' de la máquina.\";\r\n        else if (jugando && casillasObtenidas.length < 3) return \"El juego ya está activo, pero todavía se están generando los resultados. No podrá empezar otro juego hasta que se consulten los resultados de este.\";\r\n        else if (jugando && casillasObtenidas.length >= 3) return \"Ya se pueden consultar los resultados. Una vez consultados, podrá empezar un nuevo juego.\";\r\n        else return \"No sé qué pasó.\";\r\n    }\r\n    \r\n    //Función para hacer la petición de tres números aleatorios a la API de Provable.\r\n    function generar3Aleatorios() private {\r\n        delete casillasObtenidas;\r\n        for (uint8 i = 0; i < 3; i++) {\r\n            //provable_newRandomDSQuery(0, 1, 200000); //Valores hardcodeados del original.\r\n            casillasObtenidas.push(random(i));\r\n        }\r\n    }\r\n    \r\n    function random(uint seed) private view returns (uint) {\r\n       return (uint256(keccak256(abi.encodePacked(block.timestamp, block.difficulty, seed)))%5)+1;\r\n    }\r\n    \r\n    //Sobreescritura del callback para la API de Provable.\r\n    /*function __callback(bytes32 _queryId, string memory _result, bytes memory _proof) public override {\r\n        require(msg.sender == provable_cbAddress());\r\n        require(provable_randomDS_proofVerify__returnCode(_queryId, _result, _proof) == 0, \"Uno de los números aleatorios generados no es confiable.\");\r\n        casillasObtenidas.push((uint256(keccak256(abi.encodePacked(_result))) % 5) + 1);\r\n    }*/\r\n}",
  "sourcePath": "C:\\Users\\Microsoft\\Documents\\Blockchains\\Casino_contracts\\contracts\\tragamonedasSP.sol",
  "compiler": {
    "name": "solc",
    "version": "0.6.6+commit.6c089d02.Emscripten.clang"
  },
  "schemaVersion": "3.2.0",
  "updatedAt": "2020-06-16T17:36:00.395Z",
  "networkType": "ethereum",
  "devdoc": {
    "methods": {}
  },
  "userdoc": {
    "methods": {}
  }
}