{
  "contractName": "Tragamonedas3",
  "abi": [
    {
      "inputs": [],
      "stateMutability": "payable",
      "type": "constructor"
    },
    {
      "anonymous": false,
      "inputs": [
        {
          "indexed": false,
          "internalType": "string",
          "name": "",
          "type": "string"
        }
      ],
      "name": "logInfoJuego",
      "type": "event"
    },
    {
      "anonymous": false,
      "inputs": [
        {
          "indexed": false,
          "internalType": "string",
          "name": "",
          "type": "string"
        },
        {
          "indexed": false,
          "internalType": "uint256[]",
          "name": "",
          "type": "uint256[]"
        },
        {
          "indexed": false,
          "internalType": "string",
          "name": "",
          "type": "string"
        },
        {
          "indexed": false,
          "internalType": "uint256",
          "name": "",
          "type": "uint256"
        }
      ],
      "name": "logPremio",
      "type": "event"
    },
    {
      "inputs": [],
      "name": "jugar",
      "outputs": [
        {
          "internalType": "uint256[]",
          "name": "",
          "type": "uint256[]"
        }
      ],
      "stateMutability": "payable",
      "type": "function"
    },
    {
      "inputs": [],
      "name": "verResultados",
      "outputs": [],
      "stateMutability": "nonpayable",
      "type": "function"
    },
    {
      "inputs": [
        {
          "internalType": "bytes32",
          "name": "_myid",
          "type": "bytes32"
        },
        {
          "internalType": "string",
          "name": "_result",
          "type": "string"
        }
      ],
      "name": "__callback",
      "outputs": [],
      "stateMutability": "nonpayable",
      "type": "function"
    },
    {
      "inputs": [
        {
          "internalType": "bytes32",
          "name": "_queryId",
          "type": "bytes32"
        },
        {
          "internalType": "string",
          "name": "_result",
          "type": "string"
        },
        {
          "internalType": "bytes",
          "name": "_proof",
          "type": "bytes"
        }
      ],
      "name": "__callback",
      "outputs": [],
      "stateMutability": "nonpayable",
      "type": "function"
    }
  ],
  "bytecode": "0x60806040526000600660006101000a81548160ff0219169083151502179055506706f05b59d3b2000034101562000082576040517f08c379a000000000000000000000000000000000000000000000000000000000815260040180806020018281038252603e815260200180620033db603e913960400191505060405180910390fd5b33600760006101000a81548173ffffffffffffffffffffffffffffffffffffffff021916908373ffffffffffffffffffffffffffffffffffffffff160217905550620000d8603060f81b620000de60201b60201c565b62000aff565b600073ffffffffffffffffffffffffffffffffffffffff16600160009054906101000a900473ffffffffffffffffffffffffffffffffffffffff1673ffffffffffffffffffffffffffffffffffffffff1614806200016e575060006200016c600160009054906101000a900473ffffffffffffffffffffffffffffffffffffffff166200044160201b60201c565b145b1562000188576200018660006200044c60201b60201c565b505b600160009054906101000a900473ffffffffffffffffffffffffffffffffffffffff1673ffffffffffffffffffffffffffffffffffffffff166338cc48316040518163ffffffff1660e01b8152600401602060405180830381600087803b158015620001f357600080fd5b505af115801562000208573d6000803e3d6000fd5b505050506040513d60208110156200021f57600080fd5b810190808051906020019092919050505073ffffffffffffffffffffffffffffffffffffffff166000809054906101000a900473ffffffffffffffffffffffffffffffffffffffff1673ffffffffffffffffffffffffffffffffffffffff16146200036c57600160009054906101000a900473ffffffffffffffffffffffffffffffffffffffff1673ffffffffffffffffffffffffffffffffffffffff166338cc48316040518163ffffffff1660e01b8152600401602060405180830381600087803b158015620002ef57600080fd5b505af115801562000304573d6000803e3d6000fd5b505050506040513d60208110156200031b57600080fd5b81019080805190602001909291905050506000806101000a81548173ffffffffffffffffffffffffffffffffffffffff021916908373ffffffffffffffffffffffffffffffffffffffff1602179055505b6000809054906101000a900473ffffffffffffffffffffffffffffffffffffffff1673ffffffffffffffffffffffffffffffffffffffff1663688dcfd7826040518263ffffffff1660e01b815260040180827effffffffffffffffffffffffffffffffffffffffffffffffffffffffffffff19167effffffffffffffffffffffffffffffffffffffffffffffffffffffffffffff19168152602001915050600060405180830381600087803b1580156200042557600080fd5b505af11580156200043a573d6000803e3d6000fd5b5050505050565b6000813b9050919050565b60006200045e6200046560201b60201c565b9050919050565b6000806200048d731d3b2638a7cc9f2cb3d298a3da7a90b67e5506ed6200044160201b60201c565b11156200053957731d3b2638a7cc9f2cb3d298a3da7a90b67e5506ed600160006101000a81548173ffffffffffffffffffffffffffffffffffffffff021916908373ffffffffffffffffffffffffffffffffffffffff1602179055506200052f6040518060400160405280600b81526020017f6574685f6d61696e6e657400000000000000000000000000000000000000000081525062000a3460201b60201c565b6001905062000a31565b60006200056073c03a2615d5efaf5f49f60b7bb6583eaec212fdf16200044160201b60201c565b11156200060c5773c03a2615d5efaf5f49f60b7bb6583eaec212fdf1600160006101000a81548173ffffffffffffffffffffffffffffffffffffffff021916908373ffffffffffffffffffffffffffffffffffffffff160217905550620006026040518060400160405280600c81526020017f6574685f726f707374656e33000000000000000000000000000000000000000081525062000a3460201b60201c565b6001905062000a31565b60006200063373b7a07bcf2ba2f2703b24c0691b5278999c59ac7e6200044160201b60201c565b1115620006df5773b7a07bcf2ba2f2703b24c0691b5278999c59ac7e600160006101000a81548173ffffffffffffffffffffffffffffffffffffffff021916908373ffffffffffffffffffffffffffffffffffffffff160217905550620006d56040518060400160405280600981526020017f6574685f6b6f76616e000000000000000000000000000000000000000000000081525062000a3460201b60201c565b6001905062000a31565b60006200070673146500cfd35b22e4a392fe0adc06de1a1368ed486200044160201b60201c565b1115620007b25773146500cfd35b22e4a392fe0adc06de1a1368ed48600160006101000a81548173ffffffffffffffffffffffffffffffffffffffff021916908373ffffffffffffffffffffffffffffffffffffffff160217905550620007a86040518060400160405280600b81526020017f6574685f72696e6b65627900000000000000000000000000000000000000000081525062000a3460201b60201c565b6001905062000a31565b6000620007d973a2998efd205fb9d4b4963afb70778d6354ad3a416200044160201b60201c565b1115620008855773a2998efd205fb9d4b4963afb70778d6354ad3a41600160006101000a81548173ffffffffffffffffffffffffffffffffffffffff021916908373ffffffffffffffffffffffffffffffffffffffff1602179055506200087b6040518060400160405280600a81526020017f6574685f676f65726c690000000000000000000000000000000000000000000081525062000a3460201b60201c565b6001905062000a31565b6000620008ac736f485c8bf6fc43ea212e93bbf8ce046c7f1cb4756200044160201b60201c565b11156200091257736f485c8bf6fc43ea212e93bbf8ce046c7f1cb475600160006101000a81548173ffffffffffffffffffffffffffffffffffffffff021916908373ffffffffffffffffffffffffffffffffffffffff1602179055506001905062000a31565b6000620009397320e12a1f859b3feae5fb2a0a32c18f5a65555bbf6200044160201b60201c565b11156200099f577320e12a1f859b3feae5fb2a0a32c18f5a65555bbf600160006101000a81548173ffffffffffffffffffffffffffffffffffffffff021916908373ffffffffffffffffffffffffffffffffffffffff1602179055506001905062000a31565b6000620009c67351efaf4c8b3c9afbd5ab9f4bbc82784ab6ef8faa6200044160201b60201c565b111562000a2c577351efaf4c8b3c9afbd5ab9f4bbc82784ab6ef8faa600160006101000a81548173ffffffffffffffffffffffffffffffffffffffff021916908373ffffffffffffffffffffffffffffffffffffffff1602179055506001905062000a31565b600090505b90565b806002908051906020019062000a4c92919062000a50565b5050565b828054600181600116156101000203166002900490600052602060002090601f016020900481019282601f1062000a9357805160ff191683800117855562000ac4565b8280016001018555821562000ac4579182015b8281111562000ac357825182559160200191906001019062000aa6565b5b50905062000ad3919062000ad7565b5090565b62000afc91905b8082111562000af857600081600090555060010162000ade565b5090565b90565b6128cc8062000b0f6000396000f3fe60806040526004361061003f5760003560e01c806327dc297e1461004457806338bbfa501461011657806358c6414f1461027f578063bca6547514610296575b600080fd5b34801561005057600080fd5b506101146004803603604081101561006757600080fd5b81019080803590602001909291908035906020019064010000000081111561008e57600080fd5b8201836020820111156100a057600080fd5b803590602001918460018302840111640100000000831117156100c257600080fd5b91908080601f016020809104026020016040519081016040528093929190818152602001838380828437600081840152601f19601f8201169050808301925050505050505091929192905050506102f5565b005b34801561012257600080fd5b5061027d6004803603606081101561013957600080fd5b81019080803590602001909291908035906020019064010000000081111561016057600080fd5b82018360208201111561017257600080fd5b8035906020019184600183028401116401000000008311171561019457600080fd5b91908080601f016020809104026020016040519081016040528093929190818152602001838380828437600081840152601f19601f820116905080830192505050505050509192919290803590602001906401000000008111156101f757600080fd5b82018360208201111561020957600080fd5b8035906020019184600183028401116401000000008311171561022b57600080fd5b91908080601f016020809104026020016040519081016040528093929190818152602001838380828437600081840152601f19601f82011690508083019250505050505050919291929050505061034f565b005b34801561028b57600080fd5b506102946104a3565b005b61029e610839565b6040518080602001828103825283818151815260200191508051906020019060200280838360005b838110156102e15780820151818401526020810190506102c6565b505050509050019250505060405180910390f35b61034b8282600067ffffffffffffffff8111801561031257600080fd5b506040519080825280601f01601f1916602001820160405280156103455781602001600182028036833780820191505090505b5061034f565b5050565b6103576109fd565b73ffffffffffffffffffffffffffffffffffffffff163373ffffffffffffffffffffffffffffffffffffffff161461038e57600080fd5b600061039b848484610d1c565b60ff16146103f4576040517f08c379a000000000000000000000000000000000000000000000000000000000815260040180806020018281038252603981526020018061280c6039913960400191505060405180910390fd5b600560016005846040516020018082805190602001908083835b60208310610431578051825260208201915060208101905060208303925061040e565b6001836020036101000a0380198251168184511680821785525050505050509050019150506040516020818303038152906040528051906020012060001c8161047657fe5b06019080600181540180825580915050600190039060005260206000200160009091909190915055505050565b60011515600660009054906101000a900460ff1615151461052c576040517f08c379a000000000000000000000000000000000000000000000000000000000815260040180806020018281038252601c8152602001807f4e6f20686179206e696e67c3ba6e206a7565676f2061637469766f2e0000000081525060200191505060405180910390fd5b600660019054906101000a900473ffffffffffffffffffffffffffffffffffffffff1673ffffffffffffffffffffffffffffffffffffffff163373ffffffffffffffffffffffffffffffffffffffff16146105d2576040517f08c379a00000000000000000000000000000000000000000000000000000000081526004018080602001828103825260308152602001806128676030913960400191505060405180910390fd5b60036005805490501015610631576040517f08c379a000000000000000000000000000000000000000000000000000000000815260040180806020018281038252605d8152602001806126cf605d913960600191505060405180910390fd5b6000809050600080600660006101000a81548160ff0219169083151502179055506000600660016101000a81548173ffffffffffffffffffffffffffffffffffffffff021916908373ffffffffffffffffffffffffffffffffffffffff16021790555061069c610e4c565b9150600660019054906101000a900473ffffffffffffffffffffffffffffffffffffffff1673ffffffffffffffffffffffffffffffffffffffff168260405180600001905060006040518083038185875af1925050503d806000811461071e576040519150601f19603f3d011682016040523d82523d6000602084013e610723565b606091505b5050809150508061077f576040517f08c379a000000000000000000000000000000000000000000000000000000000815260040180806020018281038252602b8152602001806126a4602b913960400191505060405180910390fd5b7f3042d0f07d568c0829adbe1270bd37cf9b6272abc70e69c82cec660427ee055a600583604051808060200180602001806020018581526020018481038452602281526020018061284560229139604001848103835286818154815260200191508054801561080d57602002820191906000526020600020905b8154815260200190600101908083116107f9575b5050848103825260258152602001806127a7602591396040019550505050505060405180910390a15050565b606066470de4df820000341461089a576040517f08c379a000000000000000000000000000000000000000000000000000000000815260040180806020018281038252603d81526020018061276a603d913960400191505060405180910390fd5b600660009054906101000a900460ff1615610900576040517f08c379a000000000000000000000000000000000000000000000000000000000815260040180806020018281038252603e81526020018061272c603e913960400191505060405180910390fd5b6001600660006101000a81548160ff02191690831515021790555033600660016101000a81548173ffffffffffffffffffffffffffffffffffffffff021916908373ffffffffffffffffffffffffffffffffffffffff1602179055507f0cdbc93fbab0b08bfaea3dafdb068b12423e5519065dd362b18ad8d9eca2997560405180806020018281038252604881526020018061265c6048913960600191505060405180910390a160058054806020026020016040519081016040528092919081815260200182805480156109f357602002820191906000526020600020905b8154815260200190600101908083116109df575b5050505050905090565b60008073ffffffffffffffffffffffffffffffffffffffff16600160009054906101000a900473ffffffffffffffffffffffffffffffffffffffff1673ffffffffffffffffffffffffffffffffffffffff161480610a8557506000610a83600160009054906101000a900473ffffffffffffffffffffffffffffffffffffffff1661109d565b145b15610a9657610a9460006110a8565b505b600160009054906101000a900473ffffffffffffffffffffffffffffffffffffffff1673ffffffffffffffffffffffffffffffffffffffff166338cc48316040518163ffffffff1660e01b8152600401602060405180830381600087803b158015610b0057600080fd5b505af1158015610b14573d6000803e3d6000fd5b505050506040513d6020811015610b2a57600080fd5b810190808051906020019092919050505073ffffffffffffffffffffffffffffffffffffffff166000809054906101000a900473ffffffffffffffffffffffffffffffffffffffff1673ffffffffffffffffffffffffffffffffffffffff1614610c7357600160009054906101000a900473ffffffffffffffffffffffffffffffffffffffff1673ffffffffffffffffffffffffffffffffffffffff166338cc48316040518163ffffffff1660e01b8152600401602060405180830381600087803b158015610bf857600080fd5b505af1158015610c0c573d6000803e3d6000fd5b505050506040513d6020811015610c2257600080fd5b81019080805190602001909291905050506000806101000a81548173ffffffffffffffffffffffffffffffffffffffff021916908373ffffffffffffffffffffffffffffffffffffffff1602179055505b6000809054906101000a900473ffffffffffffffffffffffffffffffffffffffff1673ffffffffffffffffffffffffffffffffffffffff1663c281d19e6040518163ffffffff1660e01b8152600401602060405180830381600087803b158015610cdc57600080fd5b505af1158015610cf0573d6000803e3d6000fd5b505050506040513d6020811015610d0657600080fd5b8101908080519060200190929190505050905090565b60007f4c0000000000000000000000000000000000000000000000000000000000000082600081518110610d4c57fe5b602001015160f81c60f81b7effffffffffffffffffffffffffffffffffffffffffffffffffffffffffffff1916141580610ddf57507f500000000000000000000000000000000000000000000000000000000000000082600181518110610daf57fe5b602001015160f81c60f81b7effffffffffffffffffffffffffffffffffffffffffffffffffffffffffffff191614155b80610e0b5750600160ff1682600281518110610df757fe5b602001015160f81c60f81b60f81c60ff1614155b15610e195760019050610e45565b6000610e2e838686610e296110b9565b61115b565b905080610e3f576002915050610e45565b60009150505b9392505050565b600080600090506005600181548110610e6157fe5b90600052602060002001546005600081548110610e7a57fe5b9060005260206000200154148015610ec157506005600281548110610e9b57fe5b90600052602060002001546005600181548110610eb457fe5b9060005260206000200154145b15610fcb5760016005600081548110610ed657fe5b90600052602060002001541415610ef7576703782dace9d900009050610fc6565b60026005600081548110610f0757fe5b90600052602060002001541415610f2b5760026703782dace9d90000029050610fc5565b60036005600081548110610f3b57fe5b90600052602060002001541415610f5f5760046703782dace9d90000029050610fc4565b60046005600081548110610f6f57fe5b90600052602060002001541415610f935760086703782dace9d90000029050610fc3565b600580600081548110610fa257fe5b90600052602060002001541415610fc25760146703782dace9d900000290505b5b5b5b5b611096565b6005600181548110610fd957fe5b90600052602060002001546005600081548110610ff257fe5b906000526020600020015414806110385750600560028154811061101257fe5b9060005260206000200154600560008154811061102b57fe5b9060005260206000200154145b806110725750600560028154811061104c57fe5b9060005260206000200154600560018154811061106557fe5b9060005260206000200154145b1561109057600266470de4df8200008161108857fe5b049050611095565b600090505b5b8091505090565b6000813b9050919050565b60006110b261187a565b9050919050565b606060028054600181600116156101000203166002900480601f0160208091040260200160405190810160405280929190818152602001828054600181600116156101000203166002900480156111515780601f1061112657610100808354040283529160200191611151565b820191906000526020600020905b81548152906001019060200180831161113457829003601f168201915b5050505050905090565b600080602060028760458151811061116f57fe5b602001015160f81c60f81b60f81c60ff16016044010190506060602067ffffffffffffffff811180156111a157600080fd5b506040519080825280601f01601f1916602001820160405280156111d45781602001600182028036833780820191505090505b5090506111e687836020846000611dd1565b50600284876040516020018083805190602001908083835b6020831061122157805182526020820191506020810190506020830392506111fe565b6001836020036101000a038019825116818451168082178552505050505050905001828152602001925050506040516020818303038152906040526040518082805190602001908083835b6020831061128f578051825260208201915060208101905060208303925061126c565b6001836020036101000a038019825116818451168082178552505050505050905001915050602060405180830381855afa1580156112d1573d6000803e3d6000fd5b5050506040513d60208110156112e657600080fd5b8101908080519060200190929190505050604051602001808281526020019150506040516020818303038152906040528051906020012081805190602001201461133557600092505050611872565b6060600288600160498601018151811061134b57fe5b602001015160f81c60f81b60f81c60ff160167ffffffffffffffff8111801561137357600080fd5b506040519080825280601f01601f1916602001820160405280156113a65781602001600182028036833780820191505090505b5090506113bb88604985018351846000611dd1565b506114866002826040518082805190602001908083835b602083106113f557805182526020820191506020810190506020830392506113d2565b6001836020036101000a038019825116818451168082178552505050505050905001915050602060405180830381855afa158015611437573d6000803e3d6000fd5b5050506040513d602081101561144c57600080fd5b8101908080519060200190929190505050878a600860208801018151811061147057fe5b602001015160f81c60f81b60f81c60ff16611e30565b6114965760009350505050611872565b6060602967ffffffffffffffff811180156114b057600080fd5b506040519080825280601f01601f1916602001820160405280156114e35781602001600182028036833780820191505090505b5090506114f889602086016029846000611dd1565b506060604067ffffffffffffffff8111801561151357600080fd5b506040519080825280601f01601f1916602001820160405280156115465781602001600182028036833780820191505090505b509050600060418451602960208901010101905061156c8b604083036040856000611dd1565b5060006002836040518082805190602001908083835b602083106115a55780518252602082019150602081019050602083039250611582565b6001836020036101000a038019825116818451168082178552505050505050905001915050602060405180830381855afa1580156115e7573d6000803e3d6000fd5b5050506040513d60208110156115fc57600080fd5b8101908080519060200190929190505050905083816040516020018083805190602001908083835b602083106116475780518252602082019150602081019050602083039250611624565b6001836020036101000a0380198251168184511680821785525050505050509050018281526020019250505060405160208183030381529060405280519060200120600360008d81526020019081526020016000205414156116bf57600360008c8152602001908152602001600020600090556116cf565b6000975050505050505050611872565b6060604967ffffffffffffffff811180156116e957600080fd5b506040519080825280601f01601f19166020018201604052801561171c5781602001600182028036833780820191505090505b50905061172e8d896049846000611dd1565b506117d76002826040518082805190602001908083835b602083106117685780518252602082019150602081019050602083039250611745565b6001836020036101000a038019825116818451168082178552505050505050905001915050602060405180830381855afa1580156117aa573d6000803e3d6000fd5b5050506040513d60208110156117bf57600080fd5b81019080805190602001909291905050508786611ee0565b6117ec57600098505050505050505050611872565b6004600083815260200190815260200160002060009054906101000a900460ff166118465761181b8d846120cc565b6004600084815260200190815260200160002060006101000a81548160ff0219169083151502179055505b6004600083815260200190815260200160002060009054906101000a900460ff16985050505050505050505b949350505050565b60008061189a731d3b2638a7cc9f2cb3d298a3da7a90b67e5506ed61109d565b111561193c57731d3b2638a7cc9f2cb3d298a3da7a90b67e5506ed600160006101000a81548173ffffffffffffffffffffffffffffffffffffffff021916908373ffffffffffffffffffffffffffffffffffffffff1602179055506119336040518060400160405280600b81526020017f6574685f6d61696e6e6574000000000000000000000000000000000000000000815250612558565b60019050611dce565b600061195b73c03a2615d5efaf5f49f60b7bb6583eaec212fdf161109d565b11156119fd5773c03a2615d5efaf5f49f60b7bb6583eaec212fdf1600160006101000a81548173ffffffffffffffffffffffffffffffffffffffff021916908373ffffffffffffffffffffffffffffffffffffffff1602179055506119f46040518060400160405280600c81526020017f6574685f726f707374656e330000000000000000000000000000000000000000815250612558565b60019050611dce565b6000611a1c73b7a07bcf2ba2f2703b24c0691b5278999c59ac7e61109d565b1115611abe5773b7a07bcf2ba2f2703b24c0691b5278999c59ac7e600160006101000a81548173ffffffffffffffffffffffffffffffffffffffff021916908373ffffffffffffffffffffffffffffffffffffffff160217905550611ab56040518060400160405280600981526020017f6574685f6b6f76616e0000000000000000000000000000000000000000000000815250612558565b60019050611dce565b6000611add73146500cfd35b22e4a392fe0adc06de1a1368ed4861109d565b1115611b7f5773146500cfd35b22e4a392fe0adc06de1a1368ed48600160006101000a81548173ffffffffffffffffffffffffffffffffffffffff021916908373ffffffffffffffffffffffffffffffffffffffff160217905550611b766040518060400160405280600b81526020017f6574685f72696e6b656279000000000000000000000000000000000000000000815250612558565b60019050611dce565b6000611b9e73a2998efd205fb9d4b4963afb70778d6354ad3a4161109d565b1115611c405773a2998efd205fb9d4b4963afb70778d6354ad3a41600160006101000a81548173ffffffffffffffffffffffffffffffffffffffff021916908373ffffffffffffffffffffffffffffffffffffffff160217905550611c376040518060400160405280600a81526020017f6574685f676f65726c6900000000000000000000000000000000000000000000815250612558565b60019050611dce565b6000611c5f736f485c8bf6fc43ea212e93bbf8ce046c7f1cb47561109d565b1115611cc357736f485c8bf6fc43ea212e93bbf8ce046c7f1cb475600160006101000a81548173ffffffffffffffffffffffffffffffffffffffff021916908373ffffffffffffffffffffffffffffffffffffffff16021790555060019050611dce565b6000611ce27320e12a1f859b3feae5fb2a0a32c18f5a65555bbf61109d565b1115611d46577320e12a1f859b3feae5fb2a0a32c18f5a65555bbf600160006101000a81548173ffffffffffffffffffffffffffffffffffffffff021916908373ffffffffffffffffffffffffffffffffffffffff16021790555060019050611dce565b6000611d657351efaf4c8b3c9afbd5ab9f4bbc82784ab6ef8faa61109d565b1115611dc9577351efaf4c8b3c9afbd5ab9f4bbc82784ab6ef8faa600160006101000a81548173ffffffffffffffffffffffffffffffffffffffff021916908373ffffffffffffffffffffffffffffffffffffffff16021790555060019050611dce565b600090505b90565b6060600082850190508084511015611de857600080fd5b600086602001905060008460200190505b868860200101821015611e215781890151808288015250602082019150602081019050611df9565b85935050505095945050505050565b6000806001905082845114611e4457600080fd5b60008090505b83811015611ed457848181518110611e5e57fe5b602001015160f81c60f81b7effffffffffffffffffffffffffffffffffffffffffffffffffffffffffffff1916868260208110611e9757fe5b1a60f81b7effffffffffffffffffffffffffffffffffffffffffffffffffffffffffffff191614611ec757600091505b8080600101915050611e4a565b50809150509392505050565b60008060008060006060602067ffffffffffffffff81118015611f0257600080fd5b506040519080825280601f01601f191660200182016040528015611f355781602001600182028036833780820191505090505b5090506000602089600381518110611f4957fe5b602001015160f81c60f81b60f81c60ff16036004019050611f6f89826020856000611dd1565b91506060602067ffffffffffffffff81118015611f8b57600080fd5b506040519080825280601f01601f191660200182016040528015611fbe5781602001600182028036833780820191505090505b509050602282019150611ffa8a60208c6001860381518110611fdc57fe5b602001015160f81c60f81b60f81c60ff160384016020846000611dd1565b905060208301519450602081015193506120178b601b8787612572565b80975081985050508573ffffffffffffffffffffffffffffffffffffffff16898051906020012060001c73ffffffffffffffffffffffffffffffffffffffff16141561206d5760019750505050505050506120c5565b61207a8b601c8787612572565b80975081985050508573ffffffffffffffffffffffffffffffffffffffff16898051906020012060001c73ffffffffffffffffffffffffffffffffffffffff16149750505050505050505b9392505050565b600080606060028560018601815181106120e257fe5b602001015160f81c60f81b60f81c60ff160167ffffffffffffffff8111801561210a57600080fd5b506040519080825280601f01601f19166020018201604052801561213d5781602001600182028036833780820191505090505b50905061214f85858351846000611dd1565b506060604067ffffffffffffffff8111801561216a57600080fd5b506040519080825280601f01601f19166020018201604052801561219d5781602001600182028036833780820191505090505b5090506121b08660046040846000611dd1565b506060606267ffffffffffffffff811180156121cb57600080fd5b506040519080825280601f01601f1916602001820160405280156121fe5781602001600182028036833780820191505090505b509050600160f81b8160008151811061221357fe5b60200101907effffffffffffffffffffffffffffffffffffffffffffffffffffffffffffff1916908160001a90535061225487604188036041846001611dd1565b5060606040518060400160405280602081526020017ffd94fa71bc0ba10d39d464d0d8f465efeef0a2764e3887fcc9df41ded20f505c815250905061229f8160006020856042611dd1565b506123486002836040518082805190602001908083835b602083106122d957805182526020820191506020810190506020830392506122b6565b6001836020036101000a038019825116818451168082178552505050505050905001915050602060405180830381855afa15801561231b573d6000803e3d6000fd5b5050506040513d602081101561233057600080fd5b81019080805190602001909291905050508585611ee0565b94508461235d57600095505050505050612552565b60606040518060600160405280604081526020016127cc6040913990506060604267ffffffffffffffff8111801561239457600080fd5b506040519080825280601f01601f1916602001820160405280156123c75781602001600182028036833780820191505090505b50905060fe60f81b816000815181106123dc57fe5b60200101907effffffffffffffffffffffffffffffffffffffffffffffffffffffffffffff1916908160001a90535061241b8a60036041846001611dd1565b50606060028b60458151811061242d57fe5b602001015160f81c60f81b60f81c60ff160167ffffffffffffffff8111801561245557600080fd5b506040519080825280601f01601f1916602001820160405280156124885781602001600182028036833780820191505090505b50905061249b8b60448351846000611dd1565b506125446002836040518082805190602001908083835b602083106124d557805182526020820191506020810190506020830392506124b2565b6001836020036101000a038019825116818451168082178552505050505050905001915050602060405180830381855afa158015612517573d6000803e3d6000fd5b5050506040513d602081101561252c57600080fd5b81019080805190602001909291905050508285611ee0565b975087985050505050505050505b92915050565b806002908051906020019061256e9291906125b6565b5050565b60008060008060405188815287602082015286604082015285606082015260208160808360006001610bb8f192508051915050818193509350505094509492505050565b828054600181600116156101000203166002900490600052602060002090601f016020900481019282601f106125f757805160ff1916838001178555612625565b82800160010185558215612625579182015b82811115612624578251825591602001919060010190612609565b5b5090506126329190612636565b5090565b61265891905b8082111561265457600081600090555060010161263c565b5090565b9056fe456c206a7565676f20636f6d656e7ac3b32e2045737065726520616c206d656e6f732031206d696e75746f207061726120636f6e73756c74617220737520726573756c7461646f2e4c6f2073656e74696d6f732e20456c20656e76c3ad6f206465207475207072656d696f2066616c6cc3b32e4c6f7320726573756c7461646f73206465207375206a7565676f2061c3ba6e206e6f20657374c3a16e206c6973746f732e20496e74656e7461206465206e7565766f20656e20756e20706172206465206d696e75746f73206dc3a1732e41637475616c6d656e74652068617920756e206a7565676f2061637469766f2e2045737065726520756e206d6f6d656e746f2070617261206a756761722e456c206a7565676f20637565737461206578616374616d656e746520302e3032204554482028323030303030303030303030303030303020776569292e47616e61737465206c61207369677569656e74652063616e7469646164206465207765693a7fb956469c5c9b89840d55b43537e66a98dd4811ea0a27224272c2e5622911e8537a2f8e86a46baec82864e98dd01e9ccc2f8bc5dfc9cbe5a91a290498dd96e4556e6f206465206c6f73206ec3ba6d65726f7320616c6561746f72696f732067656e657261646f73206e6f20657320636f6e666961626c652e4f6274757669737465206c6173207369677569656e74657320636173696c6c61733a53c3b36c6f20656c20c3ba6c74696d6f206a756761646f722070756564652076657220737520726573756c7461646f2ea26469706673582212204febe2c8b67bc11d38c2ce91dc35423563b849102079a86563ee7b32e38242e364736f6c63430006060033456c20636f6e747261746f2073652064656265206c616e7a617220636f6e20616c206d656e6f7320302e352045544820646520696e7665727369c3b36e2e",
  "immutableReferences": {},
  "source": "/**\r\n * Contrato de mquina tragamonedas.\r\n * \r\n * INSTRUCCIONES DE USO:\r\n *  1. Desplegar el contrato con al menos 0.5 ETH (500000000000000000 wei) de value.\r\n *  2. Llamar a la funcin jugar() con exactamente 0.02 ETH (20000000000000000) de value.\r\n *  3. Ver los resultados del juego con la funcin verResultados() aproximadamente dos minutos\r\n *     despus de que se refleje la transaccin de \"jugar()\" en la blockchain.\r\n *     Si manda error en Remix, probablemente an no estn listos los resultados.\r\n */\r\npragma solidity > 0.6.1 < 0.7.0;\r\n\r\nimport \"./usingProvable.sol\";\r\n\r\ncontract Tragamonedas3 is usingProvable {\r\n    uint private constant PREMIO_BASE = 250000000000000000;//El premio base es 0.25 ETH.\r\n    uint private constant COSTO_JUEGO = 20000000000000000; //El costo del juego es 0.02 ETH.\r\n    uint[] private casillasObtenidas; //Nmeros aleatorios (casillas) obtenidas.\r\n    bool private jugando = false;    //Indica si actualmente hay alguien jugando.\r\n    address private jugador;         //Direccin del jugador actual.\r\n    address private owner;           //Direccin del dueo del contrato.\r\n    \r\n    //Eventos para mandar informacin al usuario.\r\n    event logInfoJuego(string);\r\n    event logPremio(string, uint[], string, uint);\r\n    \r\n    //Se guarda el nombre del dueo y se asigna el tipo de prueba de Provable.\r\n    constructor() public payable {\r\n        require(msg.value >= 500000000000000000, \"El contrato se debe lanzar con al menos 0.5 ETH de inversin.\");\r\n        owner = msg.sender;\r\n        provable_setProof(proofType_Ledger);\r\n    }\r\n    \r\n    //Empezar el juego. Cuesta exactamente 0.02 ETH. \r\n    function jugar () public payable returns ( uint[] memory ) {\r\n        require(msg.value == COSTO_JUEGO, \"El juego cuesta exactamente 0.02 ETH (20000000000000000 wei).\");\r\n        //Se requiere que no haya nadie jugando.\r\n        require(!jugando, \"Actualmente hay un juego activo. Espere un momento para jugar.\");\r\n        \r\n        //Si se pasan las condiciones anteriores, empieza el juego.\r\n        jugando = true;\r\n        jugador = msg.sender;\r\n        emit logInfoJuego(\"El juego comenz. Espere al menos 1 minuto para consultar su resultado.\");\r\n        return casillasObtenidas;\r\n    }\r\n    \r\n    //Ver el resultado del ltimo juego. \r\n    function verResultados() public {\r\n        //Se requiere que haya alguien jugando.\r\n        require(jugando == true, \"No hay ningn juego activo.\");\r\n        //Se requiere que quien revisa los resultados sea el ltimo que jug.\r\n        require(msg.sender == jugador, \"Slo el ltimo jugador puede ver su resultado.\");\r\n        //Se requiere que se hayan generado los tres nmeros aleatorios.\r\n        require(casillasObtenidas.length >= 3, \"Los resultados de su juego an no estn listos. Intenta de nuevo en un par de minutos ms.\");\r\n        \r\n        uint premio = 0; //Premio del jugador en wei.\r\n        bool transferenciaExitosa; //Indica si se pudo pasar el premio al ganador o no.\r\n        \r\n        //Se sobreescriben las variables para poder empezar un nuevo juego.\r\n        jugando = false;\r\n        jugador = address(0);\r\n        \r\n        //Se calcula y se transfiere el premio.\r\n        premio = calcularPremio();\r\n        (transferenciaExitosa,) = jugador.call{value: premio}(\"\");\r\n        require(transferenciaExitosa, \"Lo sentimos. El envo de tu premio fall.\");\r\n        \r\n        //Se mandan a consola los resultados.\r\n        emit logPremio(\"Obtuviste las siguientes casillas:\", casillasObtenidas,\"Ganaste la siguiente cantidad de wei:\", premio);\r\n    }\r\n    \r\n    //Calcula el premio dependiendo de las casillas obtenidas.\r\n    function calcularPremio() private view returns (uint){\r\n        uint premio = 0; //Premio del jugador en wei.\r\n        \r\n        //Si le atin a las tres, gana dependiendo del valor de las casillas.\r\n        if ((casillasObtenidas[0] == casillasObtenidas[1]) && (casillasObtenidas[1] == casillasObtenidas[2])){\r\n            if      (casillasObtenidas[0] == 1) {\r\n                premio = PREMIO_BASE;     //Gana 0.25 ETH.\r\n            }\r\n            else if (casillasObtenidas[0] == 2) {\r\n                premio = PREMIO_BASE * 2; //Gana 0.5 ETH.\r\n            }\r\n            else if (casillasObtenidas[0] == 3) {\r\n                premio = PREMIO_BASE * 4; //Gana 1.0 ETH.\r\n            }\r\n            else if (casillasObtenidas[0] == 4) {\r\n                premio = PREMIO_BASE * 8; //Gana 2.0 ETH.\r\n            }\r\n            else if (casillasObtenidas[0] == 5) { //JACKPOT!\r\n                premio = PREMIO_BASE * 20;//Gana 5.0 ETH.\r\n            }\r\n        }\r\n        //Si tuvo dos casillas iguales, gana la mitad del costo de un juego.\r\n        else if (casillasObtenidas[0] == casillasObtenidas[1] || casillasObtenidas[0] == casillasObtenidas[2] || casillasObtenidas[1] == casillasObtenidas[2])  {\r\n            premio = COSTO_JUEGO / 2;\r\n        }\r\n        //Si las tres casillas son diferentes, no gana nada.\r\n        else {\r\n            premio = 0;\r\n        }\r\n        \r\n        return premio;\r\n    }\r\n    \r\n    //Funcin para hacer la peticin de tres nmeros aleatorios a la API de Provable.\r\n    function generar3Aleatorios() private {\r\n        delete casillasObtenidas;\r\n        for (uint8 i = 0; i < 3; i++) {\r\n            provable_newRandomDSQuery(0, 1, 200000); //Valores hardcodeados del original.\r\n        }\r\n    }\r\n    \r\n    //Sobreescritura del callback para la API de Provable.\r\n    function __callback(bytes32 _queryId, string memory _result, bytes memory _proof) public override {\r\n        require(msg.sender == provable_cbAddress());\r\n        require(provable_randomDS_proofVerify__returnCode(_queryId, _result, _proof) == 0, \"Uno de los nmeros aleatorios generados no es confiable.\");\r\n        casillasObtenidas.push((uint256(keccak256(abi.encodePacked(_result))) % 5) + 1);\r\n    }\r\n}",
  "sourcePath": "C:\\Users\\Microsoft\\Documents\\Blockchains\\Casino_contracts\\contracts\\Tragamonedas_3.sol",
  "compiler": {
    "name": "solc",
    "version": "0.6.6+commit.6c089d02.Emscripten.clang"
  },
  "schemaVersion": "3.2.0",
  "updatedAt": "2020-06-15T06:34:52.655Z",
  "devdoc": {
    "methods": {
      "__callback(bytes32,string)": {
        "details": "The following `__callback` functions are just placeholders ideally     meant to be defined in child contract when proofs are used.     The function bodies simply silence compiler warnings."
      }
    }
  },
  "userdoc": {
    "methods": {}
  }
}