{
  "contractName": "Tragamonedas",
  "abi": [
    {
      "inputs": [],
      "stateMutability": "payable",
      "type": "constructor",
      "payable": true
    },
    {
      "anonymous": false,
      "inputs": [
        {
          "indexed": false,
          "internalType": "string",
          "name": "descripcion",
          "type": "string"
        }
      ],
      "name": "LogEstadoNumero",
      "type": "event"
    },
    {
      "inputs": [],
      "name": "jugador",
      "outputs": [
        {
          "internalType": "address",
          "name": "",
          "type": "address"
        }
      ],
      "stateMutability": "view",
      "type": "function",
      "constant": true
    },
    {
      "inputs": [],
      "name": "jugando",
      "outputs": [
        {
          "internalType": "bool",
          "name": "",
          "type": "bool"
        }
      ],
      "stateMutability": "view",
      "type": "function",
      "constant": true
    },
    {
      "inputs": [
        {
          "internalType": "uint256",
          "name": "",
          "type": "uint256"
        }
      ],
      "name": "numerosObtenidos",
      "outputs": [
        {
          "internalType": "uint256",
          "name": "",
          "type": "uint256"
        }
      ],
      "stateMutability": "view",
      "type": "function",
      "constant": true
    },
    {
      "inputs": [],
      "name": "premio",
      "outputs": [
        {
          "internalType": "uint256",
          "name": "",
          "type": "uint256"
        }
      ],
      "stateMutability": "view",
      "type": "function",
      "constant": true
    },
    {
      "inputs": [],
      "name": "jugar",
      "outputs": [
        {
          "internalType": "string",
          "name": "",
          "type": "string"
        }
      ],
      "stateMutability": "payable",
      "type": "function",
      "payable": true
    },
    {
      "inputs": [],
      "name": "consultarResultado",
      "outputs": [
        {
          "internalType": "string",
          "name": "situacion",
          "type": "string"
        },
        {
          "internalType": "address",
          "name": "ultimoJugador",
          "type": "address"
        },
        {
          "internalType": "uint256[]",
          "name": "numerosMaquinita",
          "type": "uint256[]"
        },
        {
          "internalType": "uint256",
          "name": "premioObtenido",
          "type": "uint256"
        }
      ],
      "stateMutability": "nonpayable",
      "type": "function"
    },
    {
      "inputs": [],
      "name": "verBalanceContrato",
      "outputs": [
        {
          "internalType": "uint256",
          "name": "",
          "type": "uint256"
        }
      ],
      "stateMutability": "view",
      "type": "function",
      "constant": true
    },
    {
      "inputs": [
        {
          "internalType": "bytes32",
          "name": "_myid",
          "type": "bytes32"
        },
        {
          "internalType": "string",
          "name": "_result",
          "type": "string"
        }
      ],
      "name": "__callback",
      "outputs": [],
      "stateMutability": "nonpayable",
      "type": "function"
    },
    {
      "inputs": [
        {
          "internalType": "bytes32",
          "name": "_queryId",
          "type": "bytes32"
        },
        {
          "internalType": "string",
          "name": "_result",
          "type": "string"
        },
        {
          "internalType": "bytes",
          "name": "_proof",
          "type": "bytes"
        }
      ],
      "name": "__callback",
      "outputs": [],
      "stateMutability": "nonpayable",
      "type": "function"
    }
  ],
  "bytecode": "0x60806040526000600660006101000a81548160ff02191690831515021790555033600960006101000a81548173ffffffffffffffffffffffffffffffffffffffff021916908373ffffffffffffffffffffffffffffffffffffffff16021790555062000075603060f81b6200007b60201b60201c565b62000a9c565b600073ffffffffffffffffffffffffffffffffffffffff16600160009054906101000a900473ffffffffffffffffffffffffffffffffffffffff1673ffffffffffffffffffffffffffffffffffffffff1614806200010b5750600062000109600160009054906101000a900473ffffffffffffffffffffffffffffffffffffffff16620003de60201b60201c565b145b156200012557620001236000620003e960201b60201c565b505b600160009054906101000a900473ffffffffffffffffffffffffffffffffffffffff1673ffffffffffffffffffffffffffffffffffffffff166338cc48316040518163ffffffff1660e01b8152600401602060405180830381600087803b1580156200019057600080fd5b505af1158015620001a5573d6000803e3d6000fd5b505050506040513d6020811015620001bc57600080fd5b810190808051906020019092919050505073ffffffffffffffffffffffffffffffffffffffff166000809054906101000a900473ffffffffffffffffffffffffffffffffffffffff1673ffffffffffffffffffffffffffffffffffffffff16146200030957600160009054906101000a900473ffffffffffffffffffffffffffffffffffffffff1673ffffffffffffffffffffffffffffffffffffffff166338cc48316040518163ffffffff1660e01b8152600401602060405180830381600087803b1580156200028c57600080fd5b505af1158015620002a1573d6000803e3d6000fd5b505050506040513d6020811015620002b857600080fd5b81019080805190602001909291905050506000806101000a81548173ffffffffffffffffffffffffffffffffffffffff021916908373ffffffffffffffffffffffffffffffffffffffff1602179055505b6000809054906101000a900473ffffffffffffffffffffffffffffffffffffffff1673ffffffffffffffffffffffffffffffffffffffff1663688dcfd7826040518263ffffffff1660e01b815260040180827effffffffffffffffffffffffffffffffffffffffffffffffffffffffffffff19167effffffffffffffffffffffffffffffffffffffffffffffffffffffffffffff19168152602001915050600060405180830381600087803b158015620003c257600080fd5b505af1158015620003d7573d6000803e3d6000fd5b5050505050565b6000813b9050919050565b6000620003fb6200040260201b60201c565b9050919050565b6000806200042a731d3b2638a7cc9f2cb3d298a3da7a90b67e5506ed620003de60201b60201c565b1115620004d657731d3b2638a7cc9f2cb3d298a3da7a90b67e5506ed600160006101000a81548173ffffffffffffffffffffffffffffffffffffffff021916908373ffffffffffffffffffffffffffffffffffffffff160217905550620004cc6040518060400160405280600b81526020017f6574685f6d61696e6e6574000000000000000000000000000000000000000000815250620009d160201b60201c565b60019050620009ce565b6000620004fd73c03a2615d5efaf5f49f60b7bb6583eaec212fdf1620003de60201b60201c565b1115620005a95773c03a2615d5efaf5f49f60b7bb6583eaec212fdf1600160006101000a81548173ffffffffffffffffffffffffffffffffffffffff021916908373ffffffffffffffffffffffffffffffffffffffff1602179055506200059f6040518060400160405280600c81526020017f6574685f726f707374656e330000000000000000000000000000000000000000815250620009d160201b60201c565b60019050620009ce565b6000620005d073b7a07bcf2ba2f2703b24c0691b5278999c59ac7e620003de60201b60201c565b11156200067c5773b7a07bcf2ba2f2703b24c0691b5278999c59ac7e600160006101000a81548173ffffffffffffffffffffffffffffffffffffffff021916908373ffffffffffffffffffffffffffffffffffffffff160217905550620006726040518060400160405280600981526020017f6574685f6b6f76616e0000000000000000000000000000000000000000000000815250620009d160201b60201c565b60019050620009ce565b6000620006a373146500cfd35b22e4a392fe0adc06de1a1368ed48620003de60201b60201c565b11156200074f5773146500cfd35b22e4a392fe0adc06de1a1368ed48600160006101000a81548173ffffffffffffffffffffffffffffffffffffffff021916908373ffffffffffffffffffffffffffffffffffffffff160217905550620007456040518060400160405280600b81526020017f6574685f72696e6b656279000000000000000000000000000000000000000000815250620009d160201b60201c565b60019050620009ce565b60006200077673a2998efd205fb9d4b4963afb70778d6354ad3a41620003de60201b60201c565b1115620008225773a2998efd205fb9d4b4963afb70778d6354ad3a41600160006101000a81548173ffffffffffffffffffffffffffffffffffffffff021916908373ffffffffffffffffffffffffffffffffffffffff160217905550620008186040518060400160405280600a81526020017f6574685f676f65726c6900000000000000000000000000000000000000000000815250620009d160201b60201c565b60019050620009ce565b600062000849736f485c8bf6fc43ea212e93bbf8ce046c7f1cb475620003de60201b60201c565b1115620008af57736f485c8bf6fc43ea212e93bbf8ce046c7f1cb475600160006101000a81548173ffffffffffffffffffffffffffffffffffffffff021916908373ffffffffffffffffffffffffffffffffffffffff16021790555060019050620009ce565b6000620008d67320e12a1f859b3feae5fb2a0a32c18f5a65555bbf620003de60201b60201c565b11156200093c577320e12a1f859b3feae5fb2a0a32c18f5a65555bbf600160006101000a81548173ffffffffffffffffffffffffffffffffffffffff021916908373ffffffffffffffffffffffffffffffffffffffff16021790555060019050620009ce565b6000620009637351efaf4c8b3c9afbd5ab9f4bbc82784ab6ef8faa620003de60201b60201c565b1115620009c9577351efaf4c8b3c9afbd5ab9f4bbc82784ab6ef8faa600160006101000a81548173ffffffffffffffffffffffffffffffffffffffff021916908373ffffffffffffffffffffffffffffffffffffffff16021790555060019050620009ce565b600090505b90565b8060029080519060200190620009e9929190620009ed565b5050565b828054600181600116156101000203166002900490600052602060002090601f016020900481019282601f1062000a3057805160ff191683800117855562000a61565b8280016001018555821562000a61579182015b8281111562000a6057825182559160200191906001019062000a43565b5b50905062000a70919062000a74565b5090565b62000a9991905b8082111562000a9557600081600090555060010162000a7b565b5090565b90565b6140978062000aac6000396000f3fe6080604052600436106100865760003560e01c806350237f721161005957806350237f7214610403578063765e49761461042e578063bca6547514610485578063c496c8f314610508578063f3e3e02d1461055757610086565b806327dc297e1461008b578063287880a81461015d578063333c8a891461018857806338bbfa501461029a575b600080fd5b34801561009757600080fd5b5061015b600480360360408110156100ae57600080fd5b8101908080359060200190929190803590602001906401000000008111156100d557600080fd5b8201836020820111156100e757600080fd5b8035906020019184600183028401116401000000008311171561010957600080fd5b91908080601f016020809104026020016040519081016040528093929190818152602001838380828437600081840152601f19601f820116905080830192505050505050509192919290505050610586565b005b34801561016957600080fd5b506101726105e0565b6040518082815260200191505060405180910390f35b34801561019457600080fd5b5061019d6105e8565b60405180806020018573ffffffffffffffffffffffffffffffffffffffff1673ffffffffffffffffffffffffffffffffffffffff16815260200180602001848152602001838103835287818151815260200191508051906020019080838360005b838110156102195780820151818401526020810190506101fe565b50505050905090810190601f1680156102465780820380516001836020036101000a031916815260200191505b50838103825285818151815260200191508051906020019060200280838360005b83811015610282578082015181840152602081019050610267565b50505050905001965050505050505060405180910390f35b3480156102a657600080fd5b50610401600480360360608110156102bd57600080fd5b8101908080359060200190929190803590602001906401000000008111156102e457600080fd5b8201836020820111156102f657600080fd5b8035906020019184600183028401116401000000008311171561031857600080fd5b91908080601f016020809104026020016040519081016040528093929190818152602001838380828437600081840152601f19601f8201169050808301925050505050505091929192908035906020019064010000000081111561037b57600080fd5b82018360208201111561038d57600080fd5b803590602001918460018302840111640100000000831117156103af57600080fd5b91908080601f016020809104026020016040519081016040528093929190818152602001838380828437600081840152601f19601f820116905080830192505050505050509192919290505050610af7565b005b34801561040f57600080fd5b50610418610c4a565b6040518082815260200191505060405180910390f35b34801561043a57600080fd5b50610443610c50565b604051808273ffffffffffffffffffffffffffffffffffffffff1673ffffffffffffffffffffffffffffffffffffffff16815260200191505060405180910390f35b61048d610c76565b6040518080602001828103825283818151815260200191508051906020019080838360005b838110156104cd5780820151818401526020810190506104b2565b50505050905090810190601f1680156104fa5780820380516001836020036101000a031916815260200191505b509250505060405180910390f35b34801561051457600080fd5b506105416004803603602081101561052b57600080fd5b8101908080359060200190929190505050610dbf565b6040518082815260200191505060405180910390f35b34801561056357600080fd5b5061056c610de0565b604051808215151515815260200191505060405180910390f35b6105dc8282600067ffffffffffffffff811180156105a357600080fd5b506040519080825280601f01601f1916602001820160405280156105d65781602001600182028036833780820191505090505b50610af7565b5050565b600047905090565b60606000606060008060036005805490501015801561061a575060011515600660009054906101000a900460ff161515145b15610a5057600560018154811061062d57fe5b9060005260206000200154600560008154811061064657fe5b906000526020600020015414801561068d5750600560028154811061066757fe5b9060005260206000200154600560018154811061068057fe5b9060005260206000200154145b156107ab57600160056000815481106106a257fe5b906000526020600020015414156106c7576703782dace9d900006007819055506107a6565b600260056000815481106106d757fe5b906000526020600020015414156106ff5760026703782dace9d90000026007819055506107a5565b6003600560008154811061070f57fe5b906000526020600020015414156107375760046703782dace9d90000026007819055506107a4565b6004600560008154811061074757fe5b9060005260206000200154141561076f5760086703782dace9d90000026007819055506107a3565b60058060008154811061077e57fe5b906000526020600020015414156107a25760146703782dace9d90000026007819055505b5b5b5b5b610874565b60056001815481106107b957fe5b906000526020600020015460056000815481106107d257fe5b90600052602060002001541480610818575060056002815481106107f257fe5b9060005260206000200154600560008154811061080b57fe5b9060005260206000200154145b806108525750600560028154811061082c57fe5b9060005260206000200154600560018154811061084557fe5b9060005260206000200154145b1561086a5766470de4df820000600781905550610873565b60006007819055505b5b6000600660006101000a81548160ff0219169083151502179055506000600860006101000a81548173ffffffffffffffffffffffffffffffffffffffff021916908373ffffffffffffffffffffffffffffffffffffffff160217905550600860009054906101000a900473ffffffffffffffffffffffffffffffffffffffff1673ffffffffffffffffffffffffffffffffffffffff1660075460405180600001905060006040518083038185875af1925050503d8060008114610953576040519150601f19603f3d011682016040523d82523d6000602084013e610958565b606091505b505080915050806109ac576040517f08c379a0000000000000000000000000000000000000000000000000000000008152600401808060200182810382526000815260200160200191505060405180910390fd5b600860009054906101000a900473ffffffffffffffffffffffffffffffffffffffff1660056007546040518060800160405280605a8152602001613ef1605a913992919081805480602002602001604051908101604052809291908181526020018280548015610a3b57602002820191906000526020600020905b815481526020019060010190808311610a27575b50505050509150945094509450945050610af1565b6000600560006040518060400160405280602081526020017f4e6f2068617920726573756c7461646f732071756520636f6e73756c7461722e81525092919082925081805480602002602001604051908101604052809291908181526020018280548015610add57602002820191906000526020600020905b815481526020019060010190808311610ac9575b505050505091508090509450945094509450505b90919293565b610aff610df3565b73ffffffffffffffffffffffffffffffffffffffff163373ffffffffffffffffffffffffffffffffffffffff1614610b3657600080fd5b6000610b43848484611112565b60ff1614610b9b577ff9c7cde6cceeb3127ccd0188670aec6cd35e635d6f5e77d0b3c1a863187cd74160405180806020018281038252602e815260200180613ff4602e913960400191505060405180910390a1600080fd5b600560016005846040516020018082805190602001908083835b60208310610bd85780518252602082019150602081019050602083039250610bb5565b6001836020036101000a0380198251168184511680821785525050505050509050019150506040516020818303038152906040528051906020012060001c81610c1d57fe5b06019080600181540180825580915050600190039060005260206000200160009091909190915055505050565b60075481565b600860009054906101000a900473ffffffffffffffffffffffffffffffffffffffff1681565b606066470de4df8200003414610cd7576040517f08c379a000000000000000000000000000000000000000000000000000000000815260040180806020018281038252603d815260200180613fb7603d913960400191505060405180910390fd5b600660009054906101000a900460ff1615610d3d576040517f08c379a000000000000000000000000000000000000000000000000000000000815260040180806020018281038252603e815260200180613f79603e913960400191505060405180910390fd5b6001600660006101000a81548160ff02191690831515021790555033600860006101000a81548173ffffffffffffffffffffffffffffffffffffffff021916908373ffffffffffffffffffffffffffffffffffffffff160217905550610da1611242565b6040518060600160405280602e8152602001613f4b602e9139905090565b60058181548110610dcc57fe5b906000526020600020016000915090505481565b600660009054906101000a900460ff1681565b60008073ffffffffffffffffffffffffffffffffffffffff16600160009054906101000a900473ffffffffffffffffffffffffffffffffffffffff1673ffffffffffffffffffffffffffffffffffffffff161480610e7b57506000610e79600160009054906101000a900473ffffffffffffffffffffffffffffffffffffffff16611283565b145b15610e8c57610e8a600061128e565b505b600160009054906101000a900473ffffffffffffffffffffffffffffffffffffffff1673ffffffffffffffffffffffffffffffffffffffff166338cc48316040518163ffffffff1660e01b8152600401602060405180830381600087803b158015610ef657600080fd5b505af1158015610f0a573d6000803e3d6000fd5b505050506040513d6020811015610f2057600080fd5b810190808051906020019092919050505073ffffffffffffffffffffffffffffffffffffffff166000809054906101000a900473ffffffffffffffffffffffffffffffffffffffff1673ffffffffffffffffffffffffffffffffffffffff161461106957600160009054906101000a900473ffffffffffffffffffffffffffffffffffffffff1673ffffffffffffffffffffffffffffffffffffffff166338cc48316040518163ffffffff1660e01b8152600401602060405180830381600087803b158015610fee57600080fd5b505af1158015611002573d6000803e3d6000fd5b505050506040513d602081101561101857600080fd5b81019080805190602001909291905050506000806101000a81548173ffffffffffffffffffffffffffffffffffffffff021916908373ffffffffffffffffffffffffffffffffffffffff1602179055505b6000809054906101000a900473ffffffffffffffffffffffffffffffffffffffff1673ffffffffffffffffffffffffffffffffffffffff1663c281d19e6040518163ffffffff1660e01b8152600401602060405180830381600087803b1580156110d257600080fd5b505af11580156110e6573d6000803e3d6000fd5b505050506040513d60208110156110fc57600080fd5b8101908080519060200190929190505050905090565b60007f4c000000000000000000000000000000000000000000000000000000000000008260008151811061114257fe5b602001015160f81c60f81b7effffffffffffffffffffffffffffffffffffffffffffffffffffffffffffff19161415806111d557507f5000000000000000000000000000000000000000000000000000000000000000826001815181106111a557fe5b602001015160f81c60f81b7effffffffffffffffffffffffffffffffffffffffffffffffffffffffffffff191614155b806112015750600160ff16826002815181106111ed57fe5b602001015160f81c60f81b60f81c60ff1614155b1561120f576001905061123b565b600061122483868661121f61129f565b611341565b90508061123557600291505061123b565b60009150505b9392505050565b600560006112509190613de9565b60008090505b60038160ff161015611280576112726000600162030d40611a60565b508080600101915050611256565b50565b6000813b9050919050565b6000611298612085565b9050919050565b606060028054600181600116156101000203166002900480601f0160208091040260200160405190810160405280929190818152602001828054600181600116156101000203166002900480156113375780601f1061130c57610100808354040283529160200191611337565b820191906000526020600020905b81548152906001019060200180831161131a57829003601f168201915b5050505050905090565b600080602060028760458151811061135557fe5b602001015160f81c60f81b60f81c60ff16016044010190506060602067ffffffffffffffff8111801561138757600080fd5b506040519080825280601f01601f1916602001820160405280156113ba5781602001600182028036833780820191505090505b5090506113cc878360208460006125dc565b50600284876040516020018083805190602001908083835b6020831061140757805182526020820191506020810190506020830392506113e4565b6001836020036101000a038019825116818451168082178552505050505050905001828152602001925050506040516020818303038152906040526040518082805190602001908083835b602083106114755780518252602082019150602081019050602083039250611452565b6001836020036101000a038019825116818451168082178552505050505050905001915050602060405180830381855afa1580156114b7573d6000803e3d6000fd5b5050506040513d60208110156114cc57600080fd5b8101908080519060200190929190505050604051602001808281526020019150506040516020818303038152906040528051906020012081805190602001201461151b57600092505050611a58565b6060600288600160498601018151811061153157fe5b602001015160f81c60f81b60f81c60ff160167ffffffffffffffff8111801561155957600080fd5b506040519080825280601f01601f19166020018201604052801561158c5781602001600182028036833780820191505090505b5090506115a1886049850183518460006125dc565b5061166c6002826040518082805190602001908083835b602083106115db57805182526020820191506020810190506020830392506115b8565b6001836020036101000a038019825116818451168082178552505050505050905001915050602060405180830381855afa15801561161d573d6000803e3d6000fd5b5050506040513d602081101561163257600080fd5b8101908080519060200190929190505050878a600860208801018151811061165657fe5b602001015160f81c60f81b60f81c60ff1661263b565b61167c5760009350505050611a58565b6060602967ffffffffffffffff8111801561169657600080fd5b506040519080825280601f01601f1916602001820160405280156116c95781602001600182028036833780820191505090505b5090506116de896020860160298460006125dc565b506060604067ffffffffffffffff811180156116f957600080fd5b506040519080825280601f01601f19166020018201604052801561172c5781602001600182028036833780820191505090505b50905060006041845160296020890101010190506117528b6040830360408560006125dc565b5060006002836040518082805190602001908083835b6020831061178b5780518252602082019150602081019050602083039250611768565b6001836020036101000a038019825116818451168082178552505050505050905001915050602060405180830381855afa1580156117cd573d6000803e3d6000fd5b5050506040513d60208110156117e257600080fd5b8101908080519060200190929190505050905083816040516020018083805190602001908083835b6020831061182d578051825260208201915060208101905060208303925061180a565b6001836020036101000a0380198251168184511680821785525050505050509050018281526020019250505060405160208183030381529060405280519060200120600360008d81526020019081526020016000205414156118a557600360008c8152602001908152602001600020600090556118b5565b6000975050505050505050611a58565b6060604967ffffffffffffffff811180156118cf57600080fd5b506040519080825280601f01601f1916602001820160405280156119025781602001600182028036833780820191505090505b5090506119148d8960498460006125dc565b506119bd6002826040518082805190602001908083835b6020831061194e578051825260208201915060208101905060208303925061192b565b6001836020036101000a038019825116818451168082178552505050505050905001915050602060405180830381855afa158015611990573d6000803e3d6000fd5b5050506040513d60208110156119a557600080fd5b810190808051906020019092919050505087866126eb565b6119d257600098505050505050505050611a58565b6004600083815260200190815260200160002060009054906101000a900460ff16611a2c57611a018d846128d7565b6004600084815260200190815260200160002060006101000a81548160ff0219169083151502179055505b6004600083815260200190815260200160002060009054906101000a900460ff16985050505050505050505b949350505050565b60008083118015611a72575060208311155b611a7b57600080fd5b600a840293506060600167ffffffffffffffff81118015611a9b57600080fd5b506040519080825280601f01601f191660200182016040528015611ace5781602001600182028036833780820191505090505b5090508360f81b81600081518110611ae257fe5b60200101907effffffffffffffffffffffffffffffffffffffffffffffffffffffffffffff1916908160001a9053506060602067ffffffffffffffff81118015611b2b57600080fd5b506040519080825280601f01601f191660200182016040528015611b5e5781602001600182028036833780820191505090505b5090506060602067ffffffffffffffff81118015611b7b57600080fd5b506040519080825280601f01601f191660200182016040528015611bae5781602001600182028036833780820191505090505b5090506000611bbb612d63565b9050602083524241186001430340186020840152602082528060208301526060602067ffffffffffffffff81118015611bf357600080fd5b506040519080825280601f01601f191660200182016040528015611c265781602001600182028036833780820191505090505b5090508860208201526060600867ffffffffffffffff81118015611c4957600080fd5b506040519080825280601f01601f191660200182016040528015611c7c5781602001600182028036833780820191505090505b509050611c8f82601860088460006125dc565b50611c98613e0a565b60405180608001604052808781526020018881526020018681526020018481525090506000611cfd6040518060400160405280600681526020017f72616e646f6d0000000000000000000000000000000000000000000000000000815250838c613080565b90506060600867ffffffffffffffff81118015611d1957600080fd5b506040519080825280601f01601f191660200182016040528015611d4c5781602001600182028036833780820191505090505b50905060208401517f0100000000000000000000000000000000000000000000000000000000000000810460278301537e01000000000000000000000000000000000000000000000000000000000000810460268301537d010000000000000000000000000000000000000000000000000000000000810460258301537c0100000000000000000000000000000000000000000000000000000000810460248301537b01000000000000000000000000000000000000000000000000000000810460238301537a010000000000000000000000000000000000000000000000000000810460228301537901000000000000000000000000000000000000000000000000008104602183015378010000000000000000000000000000000000000000000000008104602083015350612072828285600160048110611e8b57fe5b6020020151600287600060048110611e9f57fe5b60200201516040518082805190602001908083835b60208310611ed75780518252602082019150602081019050602083039250611eb4565b6001836020036101000a038019825116818451168082178552505050505050905001915050602060405180830381855afa158015611f19573d6000803e3d6000fd5b5050506040513d6020811015611f2e57600080fd5b810190808051906020019092919050505087600260048110611f4c57fe5b60200201516040516020018085805190602001908083835b60208310611f875780518252602082019150602081019050602083039250611f64565b6001836020036101000a03801982511681845116808217855250505050505090500184805190602001908083835b60208310611fd85780518252602082019150602081019050602083039250611fb5565b6001836020036101000a03801982511681845116808217855250505050505090500183815260200182805190602001908083835b6020831061202f578051825260208201915060208101905060208303925061200c565b6001836020036101000a03801982511681845116808217855250505050505090500194505050505060405160208183030381529060405280519060200120613404565b8199505050505050505050509392505050565b6000806120a5731d3b2638a7cc9f2cb3d298a3da7a90b67e5506ed611283565b111561214757731d3b2638a7cc9f2cb3d298a3da7a90b67e5506ed600160006101000a81548173ffffffffffffffffffffffffffffffffffffffff021916908373ffffffffffffffffffffffffffffffffffffffff16021790555061213e6040518060400160405280600b81526020017f6574685f6d61696e6e6574000000000000000000000000000000000000000000815250613420565b600190506125d9565b600061216673c03a2615d5efaf5f49f60b7bb6583eaec212fdf1611283565b11156122085773c03a2615d5efaf5f49f60b7bb6583eaec212fdf1600160006101000a81548173ffffffffffffffffffffffffffffffffffffffff021916908373ffffffffffffffffffffffffffffffffffffffff1602179055506121ff6040518060400160405280600c81526020017f6574685f726f707374656e330000000000000000000000000000000000000000815250613420565b600190506125d9565b600061222773b7a07bcf2ba2f2703b24c0691b5278999c59ac7e611283565b11156122c95773b7a07bcf2ba2f2703b24c0691b5278999c59ac7e600160006101000a81548173ffffffffffffffffffffffffffffffffffffffff021916908373ffffffffffffffffffffffffffffffffffffffff1602179055506122c06040518060400160405280600981526020017f6574685f6b6f76616e0000000000000000000000000000000000000000000000815250613420565b600190506125d9565b60006122e873146500cfd35b22e4a392fe0adc06de1a1368ed48611283565b111561238a5773146500cfd35b22e4a392fe0adc06de1a1368ed48600160006101000a81548173ffffffffffffffffffffffffffffffffffffffff021916908373ffffffffffffffffffffffffffffffffffffffff1602179055506123816040518060400160405280600b81526020017f6574685f72696e6b656279000000000000000000000000000000000000000000815250613420565b600190506125d9565b60006123a973a2998efd205fb9d4b4963afb70778d6354ad3a41611283565b111561244b5773a2998efd205fb9d4b4963afb70778d6354ad3a41600160006101000a81548173ffffffffffffffffffffffffffffffffffffffff021916908373ffffffffffffffffffffffffffffffffffffffff1602179055506124426040518060400160405280600a81526020017f6574685f676f65726c6900000000000000000000000000000000000000000000815250613420565b600190506125d9565b600061246a736f485c8bf6fc43ea212e93bbf8ce046c7f1cb475611283565b11156124ce57736f485c8bf6fc43ea212e93bbf8ce046c7f1cb475600160006101000a81548173ffffffffffffffffffffffffffffffffffffffff021916908373ffffffffffffffffffffffffffffffffffffffff160217905550600190506125d9565b60006124ed7320e12a1f859b3feae5fb2a0a32c18f5a65555bbf611283565b1115612551577320e12a1f859b3feae5fb2a0a32c18f5a65555bbf600160006101000a81548173ffffffffffffffffffffffffffffffffffffffff021916908373ffffffffffffffffffffffffffffffffffffffff160217905550600190506125d9565b60006125707351efaf4c8b3c9afbd5ab9f4bbc82784ab6ef8faa611283565b11156125d4577351efaf4c8b3c9afbd5ab9f4bbc82784ab6ef8faa600160006101000a81548173ffffffffffffffffffffffffffffffffffffffff021916908373ffffffffffffffffffffffffffffffffffffffff160217905550600190506125d9565b600090505b90565b60606000828501905080845110156125f357600080fd5b600086602001905060008460200190505b86886020010182101561262c5781890151808288015250602082019150602081019050612604565b85935050505095945050505050565b600080600190508284511461264f57600080fd5b60008090505b838110156126df5784818151811061266957fe5b602001015160f81c60f81b7effffffffffffffffffffffffffffffffffffffffffffffffffffffffffffff19168682602081106126a257fe5b1a60f81b7effffffffffffffffffffffffffffffffffffffffffffffffffffffffffffff1916146126d257600091505b8080600101915050612655565b50809150509392505050565b60008060008060006060602067ffffffffffffffff8111801561270d57600080fd5b506040519080825280601f01601f1916602001820160405280156127405781602001600182028036833780820191505090505b509050600060208960038151811061275457fe5b602001015160f81c60f81b60f81c60ff1603600401905061277a898260208560006125dc565b91506060602067ffffffffffffffff8111801561279657600080fd5b506040519080825280601f01601f1916602001820160405280156127c95781602001600182028036833780820191505090505b5090506022820191506128058a60208c60018603815181106127e757fe5b602001015160f81c60f81b60f81c60ff1603840160208460006125dc565b905060208301519450602081015193506128228b601b878761343a565b80975081985050508573ffffffffffffffffffffffffffffffffffffffff16898051906020012060001c73ffffffffffffffffffffffffffffffffffffffff1614156128785760019750505050505050506128d0565b6128858b601c878761343a565b80975081985050508573ffffffffffffffffffffffffffffffffffffffff16898051906020012060001c73ffffffffffffffffffffffffffffffffffffffff16149750505050505050505b9392505050565b600080606060028560018601815181106128ed57fe5b602001015160f81c60f81b60f81c60ff160167ffffffffffffffff8111801561291557600080fd5b506040519080825280601f01601f1916602001820160405280156129485781602001600182028036833780820191505090505b50905061295a858583518460006125dc565b506060604067ffffffffffffffff8111801561297557600080fd5b506040519080825280601f01601f1916602001820160405280156129a85781602001600182028036833780820191505090505b5090506129bb86600460408460006125dc565b506060606267ffffffffffffffff811180156129d657600080fd5b506040519080825280601f01601f191660200182016040528015612a095781602001600182028036833780820191505090505b509050600160f81b81600081518110612a1e57fe5b60200101907effffffffffffffffffffffffffffffffffffffffffffffffffffffffffffff1916908160001a905350612a5f876041880360418460016125dc565b5060606040518060400160405280602081526020017ffd94fa71bc0ba10d39d464d0d8f465efeef0a2764e3887fcc9df41ded20f505c8152509050612aaa81600060208560426125dc565b50612b536002836040518082805190602001908083835b60208310612ae45780518252602082019150602081019050602083039250612ac1565b6001836020036101000a038019825116818451168082178552505050505050905001915050602060405180830381855afa158015612b26573d6000803e3d6000fd5b5050506040513d6020811015612b3b57600080fd5b810190808051906020019092919050505085856126eb565b945084612b6857600095505050505050612d5d565b60606040518060600160405280604081526020016140226040913990506060604267ffffffffffffffff81118015612b9f57600080fd5b506040519080825280601f01601f191660200182016040528015612bd25781602001600182028036833780820191505090505b50905060fe60f81b81600081518110612be757fe5b60200101907effffffffffffffffffffffffffffffffffffffffffffffffffffffffffffff1916908160001a905350612c268a600360418460016125dc565b50606060028b604581518110612c3857fe5b602001015160f81c60f81b60f81c60ff160167ffffffffffffffff81118015612c6057600080fd5b506040519080825280601f01601f191660200182016040528015612c935781602001600182028036833780820191505090505b509050612ca68b604483518460006125dc565b50612d4f6002836040518082805190602001908083835b60208310612ce05780518252602082019150602081019050602083039250612cbd565b6001836020036101000a038019825116818451168082178552505050505050905001915050602060405180830381855afa158015612d22573d6000803e3d6000fd5b5050506040513d6020811015612d3757600080fd5b810190808051906020019092919050505082856126eb565b975087985050505050505050505b92915050565b60008073ffffffffffffffffffffffffffffffffffffffff16600160009054906101000a900473ffffffffffffffffffffffffffffffffffffffff1673ffffffffffffffffffffffffffffffffffffffff161480612deb57506000612de9600160009054906101000a900473ffffffffffffffffffffffffffffffffffffffff16611283565b145b15612dfc57612dfa600061128e565b505b600160009054906101000a900473ffffffffffffffffffffffffffffffffffffffff1673ffffffffffffffffffffffffffffffffffffffff166338cc48316040518163ffffffff1660e01b8152600401602060405180830381600087803b158015612e6657600080fd5b505af1158015612e7a573d6000803e3d6000fd5b505050506040513d6020811015612e9057600080fd5b810190808051906020019092919050505073ffffffffffffffffffffffffffffffffffffffff166000809054906101000a900473ffffffffffffffffffffffffffffffffffffffff1673ffffffffffffffffffffffffffffffffffffffff1614612fd957600160009054906101000a900473ffffffffffffffffffffffffffffffffffffffff1673ffffffffffffffffffffffffffffffffffffffff166338cc48316040518163ffffffff1660e01b8152600401602060405180830381600087803b158015612f5e57600080fd5b505af1158015612f72573d6000803e3d6000fd5b505050506040513d6020811015612f8857600080fd5b81019080805190602001909291905050506000806101000a81548173ffffffffffffffffffffffffffffffffffffffff021916908373ffffffffffffffffffffffffffffffffffffffff1602179055505b6000809054906101000a900473ffffffffffffffffffffffffffffffffffffffff1673ffffffffffffffffffffffffffffffffffffffff1663abaa5f3e6040518163ffffffff1660e01b815260040160206040518083038186803b15801561304057600080fd5b505afa158015613054573d6000803e3d6000fd5b505050506040513d602081101561306a57600080fd5b8101908080519060200190929190505050905090565b60008073ffffffffffffffffffffffffffffffffffffffff16600160009054906101000a900473ffffffffffffffffffffffffffffffffffffffff1673ffffffffffffffffffffffffffffffffffffffff16148061310857506000613106600160009054906101000a900473ffffffffffffffffffffffffffffffffffffffff16611283565b145b1561311957613117600061128e565b505b600160009054906101000a900473ffffffffffffffffffffffffffffffffffffffff1673ffffffffffffffffffffffffffffffffffffffff166338cc48316040518163ffffffff1660e01b8152600401602060405180830381600087803b15801561318357600080fd5b505af1158015613197573d6000803e3d6000fd5b505050506040513d60208110156131ad57600080fd5b810190808051906020019092919050505073ffffffffffffffffffffffffffffffffffffffff166000809054906101000a900473ffffffffffffffffffffffffffffffffffffffff1673ffffffffffffffffffffffffffffffffffffffff16146132f657600160009054906101000a900473ffffffffffffffffffffffffffffffffffffffff1673ffffffffffffffffffffffffffffffffffffffff166338cc48316040518163ffffffff1660e01b8152600401602060405180830381600087803b15801561327b57600080fd5b505af115801561328f573d6000803e3d6000fd5b505050506040513d60208110156132a557600080fd5b81019080805190602001909291905050506000806101000a81548173ffffffffffffffffffffffffffffffffffffffff021916908373ffffffffffffffffffffffffffffffffffffffff1602179055505b6060600467ffffffffffffffff8111801561331057600080fd5b5060405190808252806020026020018201604052801561334457816020015b606081526020019060019003908161332f5790505b5090508360006004811061335457fe5b60200201518160008151811061336657fe5b60200260200101819052508360016004811061337e57fe5b60200201518160018151811061339057fe5b6020026020010181905250836002600481106133a857fe5b6020020151816002815181106133ba57fe5b6020026020010181905250836003600481106133d257fe5b6020020151816003815181106133e457fe5b60200260200101819052506133fa85828561347e565b9150509392505050565b8060036000848152602001908152602001600020819055505050565b8060029080519060200190613436929190613e31565b5050565b60008060008060405188815287602082015286604082015285606082015260208160808360006001610bb8f192508051915050818193509350505094509492505050565b60008073ffffffffffffffffffffffffffffffffffffffff16600160009054906101000a900473ffffffffffffffffffffffffffffffffffffffff1673ffffffffffffffffffffffffffffffffffffffff16148061350657506000613504600160009054906101000a900473ffffffffffffffffffffffffffffffffffffffff16611283565b145b1561351757613515600061128e565b505b600160009054906101000a900473ffffffffffffffffffffffffffffffffffffffff1673ffffffffffffffffffffffffffffffffffffffff166338cc48316040518163ffffffff1660e01b8152600401602060405180830381600087803b15801561358157600080fd5b505af1158015613595573d6000803e3d6000fd5b505050506040513d60208110156135ab57600080fd5b810190808051906020019092919050505073ffffffffffffffffffffffffffffffffffffffff166000809054906101000a900473ffffffffffffffffffffffffffffffffffffffff1673ffffffffffffffffffffffffffffffffffffffff16146136f457600160009054906101000a900473ffffffffffffffffffffffffffffffffffffffff1673ffffffffffffffffffffffffffffffffffffffff166338cc48316040518163ffffffff1660e01b8152600401602060405180830381600087803b15801561367957600080fd5b505af115801561368d573d6000803e3d6000fd5b505050506040513d60208110156136a357600080fd5b81019080805190602001909291905050506000806101000a81548173ffffffffffffffffffffffffffffffffffffffff021916908373ffffffffffffffffffffffffffffffffffffffff1602179055505b60008060009054906101000a900473ffffffffffffffffffffffffffffffffffffffff1673ffffffffffffffffffffffffffffffffffffffff16632ef3accc86856040518363ffffffff1660e01b81526004018080602001838152602001828103825284818151815260200191508051906020019080838360005b8381101561378a57808201518184015260208101905061376f565b50505050905090810190601f1680156137b75780820380516001836020036101000a031916815260200191505b509350505050602060405180830381600087803b1580156137d757600080fd5b505af11580156137eb573d6000803e3d6000fd5b505050506040513d602081101561380157600080fd5b81019080805190602001909291905050509050823a02670de0b6b3a764000001811115613834576000801b9150506139d9565b606061383f856139e0565b90506000809054906101000a900473ffffffffffffffffffffffffffffffffffffffff1673ffffffffffffffffffffffffffffffffffffffff1663c55c1cb68360008985896040518663ffffffff1660e01b8152600401808581526020018060200180602001848152602001838103835286818151815260200191508051906020019080838360005b838110156138e35780820151818401526020810190506138c8565b50505050905090810190601f1680156139105780820380516001836020036101000a031916815260200191505b50838103825285818151815260200191508051906020019080838360005b8381101561394957808201518184015260208101905061392e565b50505050905090810190601f1680156139765780820380516001836020036101000a031916815260200191505b5096505050505050506020604051808303818588803b15801561399857600080fd5b505af11580156139ac573d6000803e3d6000fd5b50505050506040513d60208110156139c357600080fd5b8101908080519060200190929190505050925050505b9392505050565b60606139ea613a60565b6139f2613eb1565b6139fe81610400613a6c565b613a0781613ab6565b60008090505b8351811015613a4957613a3c848281518110613a2557fe5b602002602001015183613ac490919063ffffffff16565b8080600101915050613a0d565b50613a5381613ae9565b8060000151915050919050565b60405180590338823950565b6000819050600060208281613a7d57fe5b0614613a965760208181613a8d57fe5b06602003810190505b808360200181815250506040518084526000815281810160405250505050565b613ac1816004613af7565b50565b613ad18260028351613b18565b613ae48183613c5890919063ffffffff16565b505050565b613af4816007613af7565b50565b613b14601f60058360ff16901b1783613d0390919063ffffffff16565b5050565b60178111613b4457613b3f8160058460ff16901b60ff161784613d0390919063ffffffff16565b613c53565b60ff8111613b8557613b69601860058460ff16901b1784613d0390919063ffffffff16565b613b7f81600185613d439092919063ffffffff16565b50613c52565b61ffff8111613bc757613bab601960058460ff16901b1784613d0390919063ffffffff16565b613bc181600285613d439092919063ffffffff16565b50613c51565b63ffffffff8111613c0b57613bef601a60058460ff16901b1784613d0390919063ffffffff16565b613c0581600485613d439092919063ffffffff16565b50613c50565b67ffffffffffffffff8111613c4f57613c37601b60058460ff16901b1784613d0390919063ffffffff16565b613c4d81600885613d439092919063ffffffff16565b505b5b5b5b5b505050565b613c60613eb1565b82602001518360000151518351011115613c9057613c8f836002613c8986602001518651613daa565b02613dc6565b5b60008060008451905085518051602081830101945086518101825260208701935050505b60208110613cd75781518352602083019250602082019150602081039050613cb4565b60006001826020036101000a039050801983511681855116818117865250508694505050505092915050565b81602001516001836000015151011115613d2957613d28826002846020015102613dc6565b5b815180516020818301018381536001820183525050505050565b613d4b613eb1565b836020015184600001515183011115613d7957613d78846002613d72876020015186613daa565b02613dc6565b5b60006001836101000a0390508451805184818301018684198251161781528582018352505050849150509392505050565b600081831115613dbc57829050613dc0565b8190505b92915050565b606082600001519050613dd98383613a6c565b613de38382613c58565b50505050565b5080546000825590600052602060002090810190613e079190613ecb565b50565b60405180608001604052806004905b6060815260200190600190039081613e195790505090565b828054600181600116156101000203166002900490600052602060002090601f016020900481019282601f10613e7257805160ff1916838001178555613ea0565b82800160010185558215613ea0579182015b82811115613e9f578251825591602001919060010190613e84565b5b509050613ead9190613ecb565b5090565b604051806040016040528060608152602001600081525090565b613eed91905b80821115613ee9576000816000905550600101613ed1565b5090565b9056fe4120636f6e74696e75616369c3b36e207365206d75657374726120656c20c3ba6c74696d6f2067616e61646f722c206c617320636173696c6c617320717565206f627475766f2079207375207072656d696f20656e207765692e45737065726520756e206d6f6d656e746f207061726120636f6e73756c74617220737520726573756c7461646f2e41637475616c6d656e74652068617920756e206a7565676f2061637469766f2e2045737065726520756e206d6f6d656e746f2070617261206a756761722e456c206a7565676f20637565737461206578616374616d656e746520302e3032204554482028323030303030303030303030303030303020776569292e456c206ec3ba6d65726f20616c6561746f72696f2067656e657261646f206e6f20657320636f6e666961626c652e7fb956469c5c9b89840d55b43537e66a98dd4811ea0a27224272c2e5622911e8537a2f8e86a46baec82864e98dd01e9ccc2f8bc5dfc9cbe5a91a290498dd96e4a26469706673582212206613e9974ff33572a60cd258e5b29a47f7c715c0b92b96939579cc0db4c4049964736f6c63430006060033",
  "immutableReferences": {},
  "source": "/**\r\n * Generador de nmeros aleatorios usando la API de Provable.\r\n * Tomado de aqu: https://github.com/provable-things/ethereum-examples/tree/master/solidity/random-datasource\r\n */\r\npragma solidity > 0.6.1 < 0.7.0;\r\n\r\nimport \"./usingProvable.sol\";\r\n\r\ncontract Tragamonedas is usingProvable {\r\n    uint private constant premioBase = 250000000000000000;//El premio base es 0.25 ETH.\r\n    uint private constant costo      = 20000000000000000; //El costo del juego es 0.02 ETH.\r\n    //IMPORTANTE: Hacer todas estas variables private! Slo son public para verlas en Remix.\r\n    uint[] public numerosObtenidos; //Nmeros aleatorios (casillas) obtenidas.\r\n    bool public jugando = false;    //Indica si actualmente hay alguien jugando.\r\n    uint public premio;             //Premio del jugador en wei.\r\n    address public jugador;         //Direccin del jugador actual.\r\n    address private owner;          //Direccin del dueo del contrato.\r\n    \r\n    \r\n    //Eventos para informar al usuario.\r\n    event LogEstadoNumero(string descripcion);\r\n    \r\n    //IMPORTANTE: Lanzar el contrato con algo de ETH.\r\n    constructor() public payable {\r\n        owner = msg.sender;\r\n        provable_setProof(proofType_Ledger);\r\n    }\r\n    \r\n    //Empezar el juego. La apuesta mnima es 0.015 ETH. \r\n    function jugar () public payable returns (string memory) {\r\n        //Se debe depositar exactamente 0.02 ETH para jugar.\r\n        require(msg.value == costo, \"El juego cuesta exactamente 0.02 ETH (20000000000000000 wei).\");\r\n        //Se requiere que no haya nadie jugando.\r\n        require(!jugando, \"Actualmente hay un juego activo. Espere un momento para jugar.\");\r\n        \r\n        //Si se pasan las condiciones anteriores, empieza el juego.\r\n        jugando = true;\r\n        jugador = msg.sender;\r\n        generar3Aleatorios();\r\n        //generar3AleatoriosPrueba();\r\n        return \"Espere un momento para consultar su resultado.\";\r\n    }\r\n    \r\n    //Ver el resultado del ltimo juego. \r\n    function consultarResultado() public \r\n    returns (string memory situacion, address ultimoJugador, uint256[] memory numerosMaquinita, uint256 premioObtenido) {\r\n        bool transferenciaExitosa;\r\n        //Si hay alguien jugando actualmente.\r\n        if (numerosObtenidos.length >= 3 && jugando == true) {\r\n            //Si le atin a las tres, gana dependiendo del valor de las casillas.\r\n            if ((numerosObtenidos[0] == numerosObtenidos[1]) && (numerosObtenidos[1] == numerosObtenidos[2])){\r\n                if (numerosObtenidos[0] == 1) {\r\n                    premio = premioBase; //Gana 0.25 ETH.\r\n                }\r\n                else if (numerosObtenidos[0] == 2) {\r\n                    premio = premioBase * 2; //Gana 0.5 ETH.\r\n                }\r\n                else if (numerosObtenidos[0] == 3) {\r\n                    premio = premioBase * 4; //Gana 1.0 ETH.\r\n                }\r\n                else if (numerosObtenidos[0] == 4) {\r\n                    premio = premioBase * 8; //Gana 2.0 ETH.\r\n                }\r\n                else if (numerosObtenidos[0] == 5) {\r\n                    premio = premioBase * 20;//Gana 5.0 ETH.\r\n                }\r\n            }\r\n            //Si tuvo dos casillas iguales, gana lo suficiente para jugar otra vez.\r\n            else if (numerosObtenidos[0] == numerosObtenidos[1] || numerosObtenidos[0] == numerosObtenidos[2] || numerosObtenidos[1] == numerosObtenidos[2])  {\r\n                premio = costo;\r\n            }\r\n            //Si las tres casillas son diferentes, no gana nada.\r\n            else {\r\n                premio = 0;\r\n            }\r\n            jugando = false;\r\n            jugador = address(0);\r\n            (transferenciaExitosa,) = jugador.call{value: premio}(\"\");\r\n            require(transferenciaExitosa, \"\");\r\n            return (\"A continuacin se muestra el ltimo ganador, las casillas que obtuvo y su premio en wei.\", jugador, numerosObtenidos, premio);\r\n        }\r\n        else {\r\n            //Mando los valores para cumplir el return. No deberan mostrarse.\r\n            return (\"No hay resultados que consultar.\", address(0), numerosObtenidos, 0);\r\n        }\r\n    }\r\n    \r\n    //Regresa el balance actual del contrato.\r\n    function verBalanceContrato() public view returns (uint) {\r\n        return address(this).balance;\r\n    }\r\n    \r\n    //Funcin de prueba para dar nmeros aleatorios.\r\n    /*function generar3AleatoriosPrueba() private {\r\n        delete numerosObtenidos;\r\n        numerosObtenidos = [1,1,1];\r\n    }*/\r\n    \r\n    //Funcin para hacer la peticin de tres nmeros aleatorios a la API de Provable.\r\n    function generar3Aleatorios() private {\r\n        delete numerosObtenidos;\r\n        for (uint8 i = 0; i < 3; i++) {\r\n            provable_newRandomDSQuery(0, 1, 200000); //Valores hardcodeados del original.\r\n        }\r\n    }\r\n    \r\n    //Sobreescritura del callback para la API de Provable.\r\n    function __callback(bytes32 _queryId, string memory _result, bytes memory _proof) public override {\r\n        require(msg.sender == provable_cbAddress());\r\n\r\n        if (provable_randomDS_proofVerify__returnCode(_queryId, _result, _proof) != 0) {\r\n            emit LogEstadoNumero(\"El nmero aleatorio generado no es confiable.\");\r\n            revert();\r\n        } \r\n        else {\r\n            //Se generan los aleatorios entre 1 y 5.\r\n            numerosObtenidos.push((uint256(keccak256(abi.encodePacked(_result))) % 5) + 1);\r\n        }\r\n    }\r\n}",
  "sourcePath": "C:\\Users\\Microsoft\\Documents\\Blockchains\\Casino_contracts\\contracts\\Tragamonedas.sol",
  "compiler": {
    "name": "solc",
    "version": "0.6.6+commit.6c089d02.Emscripten.clang"
  },
  "schemaVersion": "3.2.0",
  "updatedAt": "2020-06-14T20:09:57.086Z",
  "networkType": "ethereum",
  "devdoc": {
    "methods": {
      "__callback(bytes32,string)": {
        "details": "The following `__callback` functions are just placeholders ideally     meant to be defined in child contract when proofs are used.     The function bodies simply silence compiler warnings."
      }
    }
  },
  "userdoc": {
    "methods": {}
  }
}